{
	"data": {
		"bytecode": {
			"linkReferences": {},
			"object": "60c06040526001600d553480156200001657600080fd5b50604051620043713803806200437183398181016040528101906200003c919062000389565b848484848484848373ffffffffffffffffffffffffffffffffffffffff1663313ce5676040518163ffffffff1660e01b815260040160206040518083038186803b1580156200008a57600080fd5b505afa1580156200009f573d6000803e3d6000fd5b505050506040513d601f19601f82011682018060405250810190620000c591906200044f565b8260009080519060200190620000dd92919062000216565b508160019080519060200190620000f692919062000216565b508060ff1660808160ff1660f81b81525050505050600073ffffffffffffffffffffffffffffffffffffffff1683600760006101000a81548173ffffffffffffffffffffffffffffffffffffffff021916908373ffffffffffffffffffffffffffffffffffffffff160217905573ffffffffffffffffffffffffffffffffffffffff161415620001bd576040517f08c379a0000000000000000000000000000000000000000000000000000000008152600401620001b490620004a8565b60405180910390fd5b81600660006101000a81548173ffffffffffffffffffffffffffffffffffffffff021916908373ffffffffffffffffffffffffffffffffffffffff1602179055508060a081815250505050505050505050505062000721565b8280546200022490620005bb565b90600052602060002090601f01602090048101928262000248576000855562000294565b82601f106200026357805160ff191683800117855562000294565b8280016001018555821562000294579182015b828111156200029357825182559160200191906001019062000276565b5b509050620002a39190620002a7565b5090565b5b80821115620002c2576000816000905550600101620002a8565b5090565b6000620002dd620002d784620004f3565b620004ca565b905082815260208101848484011115620002fc57620002fb6200068a565b5b6200030984828562000585565b509392505050565b6000815190506200032281620006d3565b92915050565b600082601f83011262000340576200033f62000685565b5b815162000352848260208601620002c6565b91505092915050565b6000815190506200036c81620006ed565b92915050565b600081519050620003838162000707565b92915050565b600080600080600060a08688031215620003a857620003a762000694565b5b600086015167ffffffffffffffff811115620003c957620003c86200068f565b5b620003d78882890162000328565b955050602086015167ffffffffffffffff811115620003fb57620003fa6200068f565b5b620004098882890162000328565b94505060406200041c8882890162000311565b93505060606200042f8882890162000311565b925050608062000442888289016200035b565b9150509295509295909350565b60006020828403121562000468576200046762000694565b5b6000620004788482850162000372565b91505092915050565b60006200049060188362000529565b91506200049d82620006aa565b602082019050919050565b60006020820190508181036000830152620004c38162000481565b9050919050565b6000620004d6620004e9565b9050620004e48282620005f1565b919050565b6000604051905090565b600067ffffffffffffffff82111562000511576200051062000656565b5b6200051c8262000699565b9050602081019050919050565b600082825260208201905092915050565b600062000547826200054e565b9050919050565b600073ffffffffffffffffffffffffffffffffffffffff82169050919050565b6000819050919050565b600060ff82169050919050565b60005b83811015620005a557808201518184015260208101905062000588565b83811115620005b5576000848401525b50505050565b60006002820490506001821680620005d457607f821691505b60208210811415620005eb57620005ea62000627565b5b50919050565b620005fc8262000699565b810181811067ffffffffffffffff821117156200061e576200061d62000656565b5b80604052505050565b7f4e487b7100000000000000000000000000000000000000000000000000000000600052602260045260246000fd5b7f4e487b7100000000000000000000000000000000000000000000000000000000600052604160045260246000fd5b600080fd5b600080fd5b600080fd5b600080fd5b6000601f19601f8301169050919050565b7f5244543a433a4f574e45525f5a45524f5f414444524553530000000000000000600082015250565b620006de816200053a565b8114620006ea57600080fd5b50565b620006f8816200056e565b81146200070457600080fd5b50565b620007128162000578565b81146200071e57600080fd5b50565b60805160f81c60a051613c1962000758600039600081816109dd015281816116cd0152611af201526000610bdf0152613c196000f3fe608060405234801561001057600080fd5b506004361061027f5760003560e01c806379ba50971161015c578063c42069ec116100ce578063d505accf11610087578063d505accf1461088a578063d905777e146108a6578063dd62ed3e146108d6578063e13aa99014610906578063e30c397814610937578063ef8b30f7146109555761027f565b8063c42069ec146107a2578063c63d75b6146107be578063c6e6f592146107ee578063ce96cb771461081e578063d0b06f5d1461084e578063d3b5dc3b1461086c5761027f565b806395d89b411161012057806395d89b4114610694578063a457c2d7146106b2578063a9059cbb146106e2578063b3d7f6b914610712578063b460af9414610742578063ba087652146107725761027f565b806379ba5097146105dc5780637ecebe00146105e65780638da5cb5b146106165780639159b2061461063457806394bf804d146106645761027f565b80633644e515116101f5578063402d267d116101b9578063402d267d146104bc5780634cdad506146104ec57806350921b231461051c57806360dd37d91461054c5780636e553f651461057c57806370a08231146105ac5761027f565b80633644e5151461041457806338d52e0f1461043257806339509351146104505780633c2f7773146104805780633c9ae2ba1461049e5761027f565b806311f240ac1161024757806311f240ac1461035057806313af40351461036e57806318160ddd1461038a57806323b872dd146103a857806330adf81f146103d8578063313ce567146103f65761027f565b806301e1d1141461028457806306fdde03146102a257806307a2d13a146102c0578063095ea7b3146102f05780630a28a47714610320575b600080fd5b61028c610985565b6040516102999190613526565b60405180910390f35b6102aa610a26565b6040516102b791906132e4565b60405180910390f35b6102da60048036038101906102d59190612a89565b610ab4565b6040516102e79190613526565b60405180910390f35b61030a60048036038101906103059190612a1c565b610af1565b60405161031791906131b5565b60405180910390f35b61033a60048036038101906103359190612a89565b610b08565b6040516103479190613526565b60405180910390f35b610358610b43565b6040516103659190613526565b60405180910390f35b610388600480360381019061038391906128ba565b610b49565b005b610392610b8d565b60405161039f9190613526565b60405180910390f35b6103c260048036038101906103bd9190612927565b610b93565b6040516103cf91906131b5565b60405180910390f35b6103e0610bb6565b6040516103ed91906131d0565b60405180910390f35b6103fe610bdd565b60405161040b919061356a565b60405180910390f35b61041c610c01565b60405161042991906131d0565b60405180910390f35b61043a610ca9565b60405161044791906130cb565b60405180910390f35b61046a60048036038101906104659190612a1c565b610ccf565b60405161047791906131b5565b60405180910390f35b610488610d6d565b6040516104959190613526565b60405180910390f35b6104a6610d73565b6040516104b39190613526565b60405180910390f35b6104d660048036038101906104d191906128ba565b610d79565b6040516104e39190613526565b60405180910390f35b61050660048036038101906105019190612a89565b610da3565b6040516105139190613526565b60405180910390f35b61053660048036038101906105319190612c18565b610db5565b6040516105439190613526565b60405180910390f35b61056660048036038101906105619190612b76565b610ec6565b6040516105739190613526565b60405180910390f35b61059660048036038101906105919190612ae3565b61101b565b6040516105a39190613526565b60405180910390f35b6105c660048036038101906105c191906128ba565b61108f565b6040516105d39190613526565b60405180910390f35b6105e46110a7565b005b61060060048036038101906105fb91906128ba565b611238565b60405161060d9190613526565b60405180910390f35b61061e611250565b60405161062b91906130cb565b60405180910390f35b61064e600480360381019061064991906128ba565b611276565b60405161065b9190613526565b60405180910390f35b61067e60048036038101906106799190612ae3565b6112c7565b60405161068b9190613526565b60405180910390f35b61069c61133b565b6040516106a991906132e4565b60405180910390f35b6106cc60048036038101906106c79190612a1c565b6113c9565b6040516106d991906131b5565b60405180910390f35b6106fc60048036038101906106f79190612a1c565b6113e0565b60405161070991906131b5565b60405180910390f35b61072c60048036038101906107279190612a89565b6113f7565b6040516107399190613526565b60405180910390f35b61075c60048036038101906107579190612b23565b611432565b6040516107699190613526565b60405180910390f35b61078c60048036038101906107879190612b23565b6114a8565b6040516107999190613526565b60405180910390f35b6107bc60048036038101906107b791906128ba565b61151e565b005b6107d860048036038101906107d391906128ba565b61164c565b6040516107e59190613526565b60405180910390f35b61080860048036038101906108039190612a89565b611676565b6040516108159190613526565b60405180910390f35b610838600480360381019061083391906128ba565b6116b3565b6040516108459190613526565b60405180910390f35b6108566116c5565b6040516108639190613526565b60405180910390f35b6108746116cb565b6040516108819190613526565b60405180910390f35b6108a4600480360381019061089f919061297a565b6116ef565b005b6108c060048036038101906108bb91906128ba565b611999565b6040516108cd9190613526565b60405180910390f35b6108f060048036038101906108eb91906128e7565b6119e2565b6040516108fd9190613526565b60405180910390f35b610920600480360381019061091b9190612a89565b611a07565b60405161092e929190613541565b60405180910390f35b61093f611c87565b60405161094c91906130cb565b60405180910390f35b61096f600480360381019061096a9190612a89565b611cad565b60405161097c9190613526565b60405180910390f35b600080600a54905060008114156109a157600954915050610a23565b6000600c5490506000600b54905060008242116109c95781426109c491906136b8565b6109d6565b81836109d591906136b8565b5b90506009547f00000000000000000000000000000000000000000000000000000000000000008286610a08919061365e565b610a12919061362d565b610a1c91906135d7565b9450505050505b90565b60008054610a339061377e565b80601f0160208091040260200160405190810160405280929190818152602001828054610a5f9061377e565b8015610aac5780601f10610a8157610100808354040283529160200191610aac565b820191906000526020600020905b815481529060010190602001808311610a8f57829003601f168201915b505050505081565b600080600254905060008114610ae75780610acd610985565b84610ad8919061365e565b610ae2919061362d565b610ae9565b825b915050919050565b6000610afe338484611cbf565b6001905092915050565b600080600254905060008114610b3957610b348184610b27919061365e565b610b2f610985565b611da8565b610b3b565b825b915050919050565b60095481565b80600760006101000a81548173ffffffffffffffffffffffffffffffffffffffff021916908373ffffffffffffffffffffffffffffffffffffffff16021790555050565b60025481565b6000610ba0843384611de7565b610bab848484611eac565b600190509392505050565b7f6e71edae12b1b97f4d1f60370fef10105fa2faae0126114a169c64845d6126c960001b81565b7f000000000000000000000000000000000000000000000000000000000000000081565b60007f8b73c3c69bb8fe3d512ecc4cf759cc79239f7b179b0ffacaa9a75d522b39400f6000604051610c33919061307d565b60405180910390206040518060400160405280600181526020017f3100000000000000000000000000000000000000000000000000000000000000815250805190602001204630604051602001610c8e95949392919061324c565b60405160208183030381529060405280519060200120905090565b600660009054906101000a900473ffffffffffffffffffffffffffffffffffffffff1681565b6000610d63338484600460003373ffffffffffffffffffffffffffffffffffffffff1673ffffffffffffffffffffffffffffffffffffffff16815260200190815260200160002060008873ffffffffffffffffffffffffffffffffffffffff1673ffffffffffffffffffffffffffffffffffffffff16815260200190815260200160002054610d5e91906135d7565b611cbf565b6001905092915050565b600c5481565b600a5481565b60007fffffffffffffffffffffffffffffffffffffffffffffffffffffffffffffffff9050919050565b6000610dae82610ab4565b9050919050565b60006001600d5414610dfc576040517f08c379a0000000000000000000000000000000000000000000000000000000008152600401610df390613406565b60405180910390fd5b6002600d81905550600660009054906101000a900473ffffffffffffffffffffffffffffffffffffffff1673ffffffffffffffffffffffffffffffffffffffff1663d505accf33308a898989896040518863ffffffff1660e01b8152600401610e6b979695949392919061311d565b600060405180830381600087803b158015610e8557600080fd5b505af1158015610e99573d6000803e3d6000fd5b50505050610eb4610ea988611cad565b915081888833611fb9565b6001600d819055509695505050505050565b60006001600d5414610f0d576040517f08c379a0000000000000000000000000000000000000000000000000000000008152600401610f0490613406565b60405180910390fd5b6002600d8190555085610f1f896113f7565b9150811115610f63576040517f08c379a0000000000000000000000000000000000000000000000000000000008152600401610f5a90613506565b60405180910390fd5b600660009054906101000a900473ffffffffffffffffffffffffffffffffffffffff1673ffffffffffffffffffffffffffffffffffffffff1663d505accf333089898989896040518863ffffffff1660e01b8152600401610fca979695949392919061311d565b600060405180830381600087803b158015610fe457600080fd5b505af1158015610ff8573d6000803e3d6000fd5b5050505061100888828933611fb9565b6001600d81905550979650505050505050565b60006001600d5414611062576040517f08c379a000000000000000000000000000000000000000000000000000000000815260040161105990613406565b60405180910390fd5b6002600d8190555061108161107684611cad565b915081848433611fb9565b6001600d8190555092915050565b60036020528060005260406000206000915090505481565b600860009054906101000a900473ffffffffffffffffffffffffffffffffffffffff1673ffffffffffffffffffffffffffffffffffffffff163373ffffffffffffffffffffffffffffffffffffffff1614611137576040517f08c379a000000000000000000000000000000000000000000000000000000000815260040161112e90613446565b60405180910390fd5b3373ffffffffffffffffffffffffffffffffffffffff16600760009054906101000a900473ffffffffffffffffffffffffffffffffffffffff1673ffffffffffffffffffffffffffffffffffffffff167f357bdeb5828fa83945f38a88510ce5cd7d628dafb346d767efbc693149fdd97c60405160405180910390a333600760006101000a81548173ffffffffffffffffffffffffffffffffffffffff021916908373ffffffffffffffffffffffffffffffffffffffff1602179055506000600860006101000a81548173ffffffffffffffffffffffffffffffffffffffff021916908373ffffffffffffffffffffffffffffffffffffffff160217905550565b60056020528060005260406000206000915090505481565b600760009054906101000a900473ffffffffffffffffffffffffffffffffffffffff1681565b60006112c0600360008473ffffffffffffffffffffffffffffffffffffffff1673ffffffffffffffffffffffffffffffffffffffff16815260200190815260200160002054610ab4565b9050919050565b60006001600d541461130e576040517f08c379a000000000000000000000000000000000000000000000000000000000815260040161130590613406565b60405180910390fd5b6002600d8190555061132d83611323856113f7565b9250828433611fb9565b6001600d8190555092915050565b600180546113489061377e565b80601f01602080910402602001604051908101604052809291908181526020018280546113749061377e565b80156113c15780601f10611396576101008083540402835291602001916113c1565b820191906000526020600020905b8154815290600101906020018083116113a457829003601f168201915b505050505081565b60006113d6338484611de7565b6001905092915050565b60006113ed338484611eac565b6001905092915050565b60008060025490506000811461142857611423611412610985565b8461141d919061365e565b82611da8565b61142a565b825b915050919050565b60006001600d5414611479576040517f08c379a000000000000000000000000000000000000000000000000000000000815260040161147090613406565b60405180910390fd5b6002600d8190555061149961148d85610b08565b915081858585336121f8565b6001600d819055509392505050565b60006001600d54146114ef576040517f08c379a00000000000000000000000000000000000000000000000000000000081526004016114e690613406565b60405180910390fd5b6002600d8190555061150f8461150486610da3565b9250828585336121f8565b6001600d819055509392505050565b600760009054906101000a900473ffffffffffffffffffffffffffffffffffffffff1673ffffffffffffffffffffffffffffffffffffffff163373ffffffffffffffffffffffffffffffffffffffff16146115ae576040517f08c379a00000000000000000000000000000000000000000000000000000000081526004016115a5906134c6565b60405180910390fd5b80600860006101000a81548173ffffffffffffffffffffffffffffffffffffffff021916908373ffffffffffffffffffffffffffffffffffffffff1602179055508073ffffffffffffffffffffffffffffffffffffffff163373ffffffffffffffffffffffffffffffffffffffff167fa86864fa6b65f969d5ac8391ddaac6a0eba3f41386cbf6e78c3e4d6c59eb115f60405160405180910390a350565b60007fffffffffffffffffffffffffffffffffffffffffffffffffffffffffffffffff9050919050565b6000806002549050600081146116a95761168e610985565b818461169a919061365e565b6116a4919061362d565b6116ab565b825b915050919050565b60006116be82611276565b9050919050565b600b5481565b7f000000000000000000000000000000000000000000000000000000000000000081565b42841015611732576040517f08c379a000000000000000000000000000000000000000000000000000000000815260040161172990613486565b60405180910390fd5b7f7fffffffffffffffffffffffffffffff5d576e7357a4501ddfe92f46681b20a08160001c111580156117765750601b8360ff1614806117755750601c8360ff16145b5b6117b5576040517f08c379a00000000000000000000000000000000000000000000000000000000081526004016117ac90613386565b60405180910390fd5b60006117bf610c01565b7f6e71edae12b1b97f4d1f60370fef10105fa2faae0126114a169c64845d6126c960001b898989600560008e73ffffffffffffffffffffffffffffffffffffffff1673ffffffffffffffffffffffffffffffffffffffff1681526020019081526020016000206000815480929190600101919050558a60405160200161184a969594939291906131eb565b60405160208183030381529060405280519060200120604051602001611871929190613094565b6040516020818303038152906040528051906020012090506000600182868686604051600081526020016040526040516118ae949392919061329f565b6020604051602081039080840390855afa1580156118d0573d6000803e3d6000fd5b5050506020604051035190508873ffffffffffffffffffffffffffffffffffffffff168173ffffffffffffffffffffffffffffffffffffffff161480156119445750600073ffffffffffffffffffffffffffffffffffffffff168973ffffffffffffffffffffffffffffffffffffffff1614155b611983576040517f08c379a000000000000000000000000000000000000000000000000000000000815260040161197a906133c6565b60405180910390fd5b5050611990878787611cbf565b50505050505050565b6000600360008373ffffffffffffffffffffffffffffffffffffffff1673ffffffffffffffffffffffffffffffffffffffff168152602001908152602001600020549050919050565b6004602052816000526040600020602052806000526040600020600091509150505481565b600080600760009054906101000a900473ffffffffffffffffffffffffffffffffffffffff1673ffffffffffffffffffffffffffffffffffffffff163373ffffffffffffffffffffffffffffffffffffffff1614611a9a576040517f08c379a0000000000000000000000000000000000000000000000000000000008152600401611a9190613466565b60405180910390fd5b60006002541415611ae0576040517f08c379a0000000000000000000000000000000000000000000000000000000008152600401611ad790613326565b60405180910390fd5b611ae8610985565b60098190559050827f000000000000000000000000000000000000000000000000000000000000000082600660009054906101000a900473ffffffffffffffffffffffffffffffffffffffff1673ffffffffffffffffffffffffffffffffffffffff166370a08231306040518263ffffffff1660e01b8152600401611b6d91906130cb565b60206040518083038186803b158015611b8557600080fd5b505afa158015611b99573d6000803e3d6000fd5b505050506040513d601f19601f82011682018060405250810190611bbd9190612ab6565b611bc791906136b8565b611bd1919061365e565b611bdb919061362d565b600a81905591508242600b819055611bf391906135d7565b600c819055507f68b521a89bf844ff03e484d89fd64ce292a698ec522170f0dad7ecd11c2dc8fa8183604051611c2a929190613541565b60405180910390a13373ffffffffffffffffffffffffffffffffffffffff167f8c84e3b4df93f5b7c8d4ab6647708f5b14cacc124e22908187e30695ec54bab3600c54604051611c7a9190613526565b60405180910390a2915091565b600860009054906101000a900473ffffffffffffffffffffffffffffffffffffffff1681565b6000611cb882611676565b9050919050565b8173ffffffffffffffffffffffffffffffffffffffff168373ffffffffffffffffffffffffffffffffffffffff167f8c5be1e5ebec7d5bd14f71427d1e84f3dd0314c0f7b2291e5b200ac8c7c3b92583600460008873ffffffffffffffffffffffffffffffffffffffff1673ffffffffffffffffffffffffffffffffffffffff16815260200190815260200160002060008773ffffffffffffffffffffffffffffffffffffffff1673ffffffffffffffffffffffffffffffffffffffff168152602001908152602001600020819055604051611d9b9190613526565b60405180910390a3505050565b6000808284611db791906137ba565b11611dc3576000611dc6565b60015b60ff168284611dd5919061362d565b611ddf91906135d7565b905092915050565b6000600460008573ffffffffffffffffffffffffffffffffffffffff1673ffffffffffffffffffffffffffffffffffffffff16815260200190815260200160002060008473ffffffffffffffffffffffffffffffffffffffff1673ffffffffffffffffffffffffffffffffffffffff1681526020019081526020016000205490507fffffffffffffffffffffffffffffffffffffffffffffffffffffffffffffffff8114611ea657611ea584848484611ea091906136b8565b611cbf565b5b50505050565b80600360008573ffffffffffffffffffffffffffffffffffffffff1673ffffffffffffffffffffffffffffffffffffffff1681526020019081526020016000206000828254611efb91906136b8565b9250508190555080600360008473ffffffffffffffffffffffffffffffffffffffff1673ffffffffffffffffffffffffffffffffffffffff168152602001908152602001600020600082825401925050819055508173ffffffffffffffffffffffffffffffffffffffff168373ffffffffffffffffffffffffffffffffffffffff167fddf252ad1be2c89b69c2b068fc378daa952ba7f163c4a11628f55a4df523b3ef83604051611fac9190613526565b60405180910390a3505050565b600073ffffffffffffffffffffffffffffffffffffffff168273ffffffffffffffffffffffffffffffffffffffff161415612029576040517f08c379a0000000000000000000000000000000000000000000000000000000008152600401612020906133e6565b60405180910390fd5b600084141561206d576040517f08c379a000000000000000000000000000000000000000000000000000000000815260040161206490613306565b60405180910390fd5b60008314156120b1576040517f08c379a00000000000000000000000000000000000000000000000000000000081526004016120a890613366565b60405180910390fd5b6120bb828561248d565b6000836120c6610985565b6120d091906135d7565b6009819055905060006120e161255d565b90508373ffffffffffffffffffffffffffffffffffffffff168373ffffffffffffffffffffffffffffffffffffffff167fdcbc1c05240f31ff3ad067ef1ee35ce4997762752e3a095284754544f4c709d78789604051612142929190613541565b60405180910390a37f68b521a89bf844ff03e484d89fd64ce292a698ec522170f0dad7ecd11c2dc8fa828260405161217b929190613541565b60405180910390a16121b1600660009054906101000a900473ffffffffffffffffffffffffffffffffffffffff16843088612582565b6121f0576040517f08c379a00000000000000000000000000000000000000000000000000000000081526004016121e790613426565b60405180910390fd5b505050505050565b600073ffffffffffffffffffffffffffffffffffffffff168373ffffffffffffffffffffffffffffffffffffffff161415612268576040517f08c379a000000000000000000000000000000000000000000000000000000000815260040161225f906133a6565b60405180910390fd5b60008514156122ac576040517f08c379a00000000000000000000000000000000000000000000000000000000081526004016122a3906134e6565b60405180910390fd5b60008414156122f0576040517f08c379a00000000000000000000000000000000000000000000000000000000081526004016122e7906134a6565b60405180910390fd5b8173ffffffffffffffffffffffffffffffffffffffff168173ffffffffffffffffffffffffffffffffffffffff161461232f5761232e828287611de7565b5b6123398286612611565b600084612344610985565b61234e91906136b8565b60098190559050600061235f61255d565b90508373ffffffffffffffffffffffffffffffffffffffff168573ffffffffffffffffffffffffffffffffffffffff168473ffffffffffffffffffffffffffffffffffffffff167ffbde797d201c681b91056529119e0b02407c7bb96a4a2c75c01fc9667232c8db898b6040516123d7929190613541565b60405180910390a47f68b521a89bf844ff03e484d89fd64ce292a698ec522170f0dad7ecd11c2dc8fa8282604051612410929190613541565b60405180910390a1612445600660009054906101000a900473ffffffffffffffffffffffffffffffffffffffff1686886126e1565b612484576040517f08c379a000000000000000000000000000000000000000000000000000000000815260040161247b90613346565b60405180910390fd5b50505050505050565b806002600082825461249f91906135d7565b9250508190555080600360008473ffffffffffffffffffffffffffffffffffffffff1673ffffffffffffffffffffffffffffffffffffffff168152602001908152602001600020600082825401925050819055508173ffffffffffffffffffffffffffffffffffffffff16600073ffffffffffffffffffffffffffffffffffffffff167fddf252ad1be2c89b69c2b068fc378daa952ba7f163c4a11628f55a4df523b3ef836040516125519190613526565b60405180910390a35050565b6000600c5442600b8190551161257557600a54612578565b60005b600a819055905090565b6000612607856323b872dd60e01b8686866040516024016125a5939291906130e6565b604051602081830303815290604052907bffffffffffffffffffffffffffffffffffffffffffffffffffffffff19166020820180517bffffffffffffffffffffffffffffffffffffffffffffffffffffffff838183161783525050505061276d565b9050949350505050565b80600360008473ffffffffffffffffffffffffffffffffffffffff1673ffffffffffffffffffffffffffffffffffffffff168152602001908152602001600020600082825461266091906136b8565b9250508190555080600260008282540392505081905550600073ffffffffffffffffffffffffffffffffffffffff168273ffffffffffffffffffffffffffffffffffffffff167fddf252ad1be2c89b69c2b068fc378daa952ba7f163c4a11628f55a4df523b3ef836040516126d59190613526565b60405180910390a35050565b60006127648463a9059cbb60e01b858560405160240161270292919061318c565b604051602081830303815290604052907bffffffffffffffffffffffffffffffffffffffffffffffffffffffff19166020820180517bffffffffffffffffffffffffffffffffffffffffffffffffffffffff838183161783525050505061276d565b90509392505050565b6000808373ffffffffffffffffffffffffffffffffffffffff163b14156127975760009050612836565b60608373ffffffffffffffffffffffffffffffffffffffff16836040516127be9190613066565b6000604051808303816000865af19150503d80600081146127fb576040519150601f19603f3d011682016040523d82523d6000602084013e612800565b606091505b50809250819350505081801561283257506000815114806128315750808060200190518101906128309190612a5c565b5b5b9150505b92915050565b60008135905061284b81613b70565b92915050565b60008151905061286081613b87565b92915050565b60008135905061287581613b9e565b92915050565b60008135905061288a81613bb5565b92915050565b60008151905061289f81613bb5565b92915050565b6000813590506128b481613bcc565b92915050565b6000602082840312156128d0576128cf613878565b5b60006128de8482850161283c565b91505092915050565b600080604083850312156128fe576128fd613878565b5b600061290c8582860161283c565b925050602061291d8582860161283c565b9150509250929050565b6000806000606084860312156129405761293f613878565b5b600061294e8682870161283c565b935050602061295f8682870161283c565b92505060406129708682870161287b565b9150509250925092565b600080600080600080600060e0888a03121561299957612998613878565b5b60006129a78a828b0161283c565b97505060206129b88a828b0161283c565b96505060406129c98a828b0161287b565b95505060606129da8a828b0161287b565b94505060806129eb8a828b016128a5565b93505060a06129fc8a828b01612866565b92505060c0612a0d8a828b01612866565b91505092959891949750929550565b60008060408385031215612a3357612a32613878565b5b6000612a418582860161283c565b9250506020612a528582860161287b565b9150509250929050565b600060208284031215612a7257612a71613878565b5b6000612a8084828501612851565b91505092915050565b600060208284031215612a9f57612a9e613878565b5b6000612aad8482850161287b565b91505092915050565b600060208284031215612acc57612acb613878565b5b6000612ada84828501612890565b91505092915050565b60008060408385031215612afa57612af9613878565b5b6000612b088582860161287b565b9250506020612b198582860161283c565b9150509250929050565b600080600060608486031215612b3c57612b3b613878565b5b6000612b4a8682870161287b565b9350506020612b5b8682870161283c565b9250506040612b6c8682870161283c565b9150509250925092565b600080600080600080600060e0888a031215612b9557612b94613878565b5b6000612ba38a828b0161287b565b9750506020612bb48a828b0161283c565b9650506040612bc58a828b0161287b565b9550506060612bd68a828b0161287b565b9450506080612be78a828b016128a5565b93505060a0612bf88a828b01612866565b92505060c0612c098a828b01612866565b91505092959891949750929550565b60008060008060008060c08789031215612c3557612c34613878565b5b6000612c4389828a0161287b565b9650506020612c5489828a0161283c565b9550506040612c6589828a0161287b565b9450506060612c7689828a016128a5565b9350506080612c8789828a01612866565b92505060a0612c9889828a01612866565b9150509295509295509295565b612cae816136ec565b82525050565b612cbd816136fe565b82525050565b612ccc8161370a565b82525050565b612ce3612cde8261370a565b6137b0565b82525050565b6000612cf48261359a565b612cfe81856135b0565b9350612d0e81856020860161374b565b80840191505092915050565b60008154612d278161377e565b612d3181866135b0565b94506001821660008114612d4c5760018114612d5d57612d90565b60ff19831686528186019350612d90565b612d6685613585565b60005b83811015612d8857815481890152600182019150602081019050612d69565b838801955050505b50505092915050565b6000612da4826135a5565b612dae81856135bb565b9350612dbe81856020860161374b565b612dc78161387d565b840191505092915050565b6000612ddf6011836135bb565b9150612dea8261388e565b602082019050919050565b6000612e026013836135bb565b9150612e0d826138b7565b602082019050919050565b6000612e25600e836135bb565b9150612e30826138e0565b602082019050919050565b6000612e486011836135bb565b9150612e5382613909565b602082019050919050565b6000612e6b6002836135cc565b9150612e7682613932565b600282019050919050565b6000612e8e6011836135bb565b9150612e998261395b565b602082019050919050565b6000612eb16013836135bb565b9150612ebc82613984565b602082019050919050565b6000612ed46019836135bb565b9150612edf826139ad565b602082019050919050565b6000612ef76013836135bb565b9150612f02826139d6565b602082019050919050565b6000612f1a600a836135bb565b9150612f25826139ff565b602082019050919050565b6000612f3d6013836135bb565b9150612f4882613a28565b602082019050919050565b6000612f60600d836135bb565b9150612f6b82613a51565b602082019050919050565b6000612f836011836135bb565b9150612f8e82613a7a565b602082019050919050565b6000612fa6600f836135bb565b9150612fb182613aa3565b602082019050919050565b6000612fc96011836135bb565b9150612fd482613acc565b602082019050919050565b6000612fec6011836135bb565b9150612ff782613af5565b602082019050919050565b600061300f6011836135bb565b915061301a82613b1e565b602082019050919050565b6000613032601b836135bb565b915061303d82613b47565b602082019050919050565b61305181613734565b82525050565b6130608161373e565b82525050565b60006130728284612ce9565b915081905092915050565b60006130898284612d1a565b915081905092915050565b600061309f82612e5e565b91506130ab8285612cd2565b6020820191506130bb8284612cd2565b6020820191508190509392505050565b60006020820190506130e06000830184612ca5565b92915050565b60006060820190506130fb6000830186612ca5565b6131086020830185612ca5565b6131156040830184613048565b949350505050565b600060e082019050613132600083018a612ca5565b61313f6020830189612ca5565b61314c6040830188613048565b6131596060830187613048565b6131666080830186613057565b61317360a0830185612cc3565b61318060c0830184612cc3565b98975050505050505050565b60006040820190506131a16000830185612ca5565b6131ae6020830184613048565b9392505050565b60006020820190506131ca6000830184612cb4565b92915050565b60006020820190506131e56000830184612cc3565b92915050565b600060c0820190506132006000830189612cc3565b61320d6020830188612ca5565b61321a6040830187612ca5565b6132276060830186613048565b6132346080830185613048565b61324160a0830184613048565b979650505050505050565b600060a0820190506132616000830188612cc3565b61326e6020830187612cc3565b61327b6040830186612cc3565b6132886060830185613048565b6132956080830184612ca5565b9695505050505050565b60006080820190506132b46000830187612cc3565b6132c16020830186613057565b6132ce6040830185612cc3565b6132db6060830184612cc3565b95945050505050565b600060208201905081810360008301526132fe8184612d99565b905092915050565b6000602082019050818103600083015261331f81612dd2565b9050919050565b6000602082019050818103600083015261333f81612df5565b9050919050565b6000602082019050818103600083015261335f81612e18565b9050919050565b6000602082019050818103600083015261337f81612e3b565b9050919050565b6000602082019050818103600083015261339f81612e81565b9050919050565b600060208201905081810360008301526133bf81612ea4565b9050919050565b600060208201905081810360008301526133df81612ec7565b9050919050565b600060208201905081810360008301526133ff81612eea565b9050919050565b6000602082019050818103600083015261341f81612f0d565b9050919050565b6000602082019050818103600083015261343f81612f30565b9050919050565b6000602082019050818103600083015261345f81612f53565b9050919050565b6000602082019050818103600083015261347f81612f76565b9050919050565b6000602082019050818103600083015261349f81612f99565b9050919050565b600060208201905081810360008301526134bf81612fbc565b9050919050565b600060208201905081810360008301526134df81612fdf565b9050919050565b600060208201905081810360008301526134ff81613002565b9050919050565b6000602082019050818103600083015261351f81613025565b9050919050565b600060208201905061353b6000830184613048565b92915050565b60006040820190506135566000830185613048565b6135636020830184613048565b9392505050565b600060208201905061357f6000830184613057565b92915050565b60008190508160005260206000209050919050565b600081519050919050565b600081519050919050565b600081905092915050565b600082825260208201905092915050565b600081905092915050565b60006135e282613734565b91506135ed83613734565b9250827fffffffffffffffffffffffffffffffffffffffffffffffffffffffffffffffff03821115613622576136216137eb565b5b828201905092915050565b600061363882613734565b915061364383613734565b9250826136535761365261381a565b5b828204905092915050565b600061366982613734565b915061367483613734565b9250817fffffffffffffffffffffffffffffffffffffffffffffffffffffffffffffffff04831182151516156136ad576136ac6137eb565b5b828202905092915050565b60006136c382613734565b91506136ce83613734565b9250828210156136e1576136e06137eb565b5b828203905092915050565b60006136f782613714565b9050919050565b60008115159050919050565b6000819050919050565b600073ffffffffffffffffffffffffffffffffffffffff82169050919050565b6000819050919050565b600060ff82169050919050565b60005b8381101561376957808201518184015260208101905061374e565b83811115613778576000848401525b50505050565b6000600282049050600182168061379657607f821691505b602082108114156137aa576137a9613849565b5b50919050565b6000819050919050565b60006137c582613734565b91506137d083613734565b9250826137e0576137df61381a565b5b828206905092915050565b7f4e487b7100000000000000000000000000000000000000000000000000000000600052601160045260246000fd5b7f4e487b7100000000000000000000000000000000000000000000000000000000600052601260045260246000fd5b7f4e487b7100000000000000000000000000000000000000000000000000000000600052602260045260246000fd5b600080fd5b6000601f19601f8301169050919050565b7f5244543a4d3a5a45524f5f534841524553000000000000000000000000000000600082015250565b7f5244543a5556533a5a45524f5f535550504c5900000000000000000000000000600082015250565b7f5244543a423a5452414e53464552000000000000000000000000000000000000600082015250565b7f5244543a4d3a5a45524f5f415353455453000000000000000000000000000000600082015250565b7f1901000000000000000000000000000000000000000000000000000000000000600082015250565b7f45524332303a503a4d414c4c4541424c45000000000000000000000000000000600082015250565b7f5244543a423a5a45524f5f524543454956455200000000000000000000000000600082015250565b7f45524332303a503a494e56414c49445f5349474e415455524500000000000000600082015250565b7f5244543a4d3a5a45524f5f524543454956455200000000000000000000000000600082015250565b7f5244543a4c4f434b454400000000000000000000000000000000000000000000600082015250565b7f5244543a4d3a5452414e534645525f46524f4d00000000000000000000000000600082015250565b7f5244543a414f3a4e4f545f504f00000000000000000000000000000000000000600082015250565b7f5244543a5556533a4e4f545f4f574e4552000000000000000000000000000000600082015250565b7f45524332303a503a455850495245440000000000000000000000000000000000600082015250565b7f5244543a423a5a45524f5f415353455453000000000000000000000000000000600082015250565b7f5244543a53504f3a4e4f545f4f574e4552000000000000000000000000000000600082015250565b7f5244543a423a5a45524f5f534841524553000000000000000000000000000000600082015250565b7f5244543a4d57503a494e53554646494349454e545f5045524d49540000000000600082015250565b613b79816136ec565b8114613b8457600080fd5b50565b613b90816136fe565b8114613b9b57600080fd5b50565b613ba78161370a565b8114613bb257600080fd5b50565b613bbe81613734565b8114613bc957600080fd5b50565b613bd58161373e565b8114613be057600080fd5b5056fea264697066735822122025d0711a7cae9bca1802a53971ccbc94a326574c83dd2f76ee4f233d6ed6cfe664736f6c63430008070033",
			"opcodes": "PUSH1 0xC0 PUSH1 0x40 MSTORE PUSH1 0x1 PUSH1 0xD SSTORE CALLVALUE DUP1 ISZERO PUSH3 0x16 JUMPI PUSH1 0x0 DUP1 REVERT JUMPDEST POP PUSH1 0x40 MLOAD PUSH3 0x4371 CODESIZE SUB DUP1 PUSH3 0x4371 DUP4 CODECOPY DUP2 DUP2 ADD PUSH1 0x40 MSTORE DUP2 ADD SWAP1 PUSH3 0x3C SWAP2 SWAP1 PUSH3 0x389 JUMP JUMPDEST DUP5 DUP5 DUP5 DUP5 DUP5 DUP5 DUP5 DUP4 PUSH20 0xFFFFFFFFFFFFFFFFFFFFFFFFFFFFFFFFFFFFFFFF AND PUSH4 0x313CE567 PUSH1 0x40 MLOAD DUP2 PUSH4 0xFFFFFFFF AND PUSH1 0xE0 SHL DUP2 MSTORE PUSH1 0x4 ADD PUSH1 0x20 PUSH1 0x40 MLOAD DUP1 DUP4 SUB DUP2 DUP7 DUP1 EXTCODESIZE ISZERO DUP1 ISZERO PUSH3 0x8A JUMPI PUSH1 0x0 DUP1 REVERT JUMPDEST POP GAS STATICCALL ISZERO DUP1 ISZERO PUSH3 0x9F JUMPI RETURNDATASIZE PUSH1 0x0 DUP1 RETURNDATACOPY RETURNDATASIZE PUSH1 0x0 REVERT JUMPDEST POP POP POP POP PUSH1 0x40 MLOAD RETURNDATASIZE PUSH1 0x1F NOT PUSH1 0x1F DUP3 ADD AND DUP3 ADD DUP1 PUSH1 0x40 MSTORE POP DUP2 ADD SWAP1 PUSH3 0xC5 SWAP2 SWAP1 PUSH3 0x44F JUMP JUMPDEST DUP3 PUSH1 0x0 SWAP1 DUP1 MLOAD SWAP1 PUSH1 0x20 ADD SWAP1 PUSH3 0xDD SWAP3 SWAP2 SWAP1 PUSH3 0x216 JUMP JUMPDEST POP DUP2 PUSH1 0x1 SWAP1 DUP1 MLOAD SWAP1 PUSH1 0x20 ADD SWAP1 PUSH3 0xF6 SWAP3 SWAP2 SWAP1 PUSH3 0x216 JUMP JUMPDEST POP DUP1 PUSH1 0xFF AND PUSH1 0x80 DUP2 PUSH1 0xFF AND PUSH1 0xF8 SHL DUP2 MSTORE POP POP POP POP POP PUSH1 0x0 PUSH20 0xFFFFFFFFFFFFFFFFFFFFFFFFFFFFFFFFFFFFFFFF AND DUP4 PUSH1 0x7 PUSH1 0x0 PUSH2 0x100 EXP DUP2 SLOAD DUP2 PUSH20 0xFFFFFFFFFFFFFFFFFFFFFFFFFFFFFFFFFFFFFFFF MUL NOT AND SWAP1 DUP4 PUSH20 0xFFFFFFFFFFFFFFFFFFFFFFFFFFFFFFFFFFFFFFFF AND MUL OR SWAP1 SSTORE PUSH20 0xFFFFFFFFFFFFFFFFFFFFFFFFFFFFFFFFFFFFFFFF AND EQ ISZERO PUSH3 0x1BD JUMPI PUSH1 0x40 MLOAD PUSH32 0x8C379A000000000000000000000000000000000000000000000000000000000 DUP2 MSTORE PUSH1 0x4 ADD PUSH3 0x1B4 SWAP1 PUSH3 0x4A8 JUMP JUMPDEST PUSH1 0x40 MLOAD DUP1 SWAP2 SUB SWAP1 REVERT JUMPDEST DUP2 PUSH1 0x6 PUSH1 0x0 PUSH2 0x100 EXP DUP2 SLOAD DUP2 PUSH20 0xFFFFFFFFFFFFFFFFFFFFFFFFFFFFFFFFFFFFFFFF MUL NOT AND SWAP1 DUP4 PUSH20 0xFFFFFFFFFFFFFFFFFFFFFFFFFFFFFFFFFFFFFFFF AND MUL OR SWAP1 SSTORE POP DUP1 PUSH1 0xA0 DUP2 DUP2 MSTORE POP POP POP POP POP POP POP POP POP POP POP POP PUSH3 0x721 JUMP JUMPDEST DUP3 DUP1 SLOAD PUSH3 0x224 SWAP1 PUSH3 0x5BB JUMP JUMPDEST SWAP1 PUSH1 0x0 MSTORE PUSH1 0x20 PUSH1 0x0 KECCAK256 SWAP1 PUSH1 0x1F ADD PUSH1 0x20 SWAP1 DIV DUP2 ADD SWAP3 DUP3 PUSH3 0x248 JUMPI PUSH1 0x0 DUP6 SSTORE PUSH3 0x294 JUMP JUMPDEST DUP3 PUSH1 0x1F LT PUSH3 0x263 JUMPI DUP1 MLOAD PUSH1 0xFF NOT AND DUP4 DUP1 ADD OR DUP6 SSTORE PUSH3 0x294 JUMP JUMPDEST DUP3 DUP1 ADD PUSH1 0x1 ADD DUP6 SSTORE DUP3 ISZERO PUSH3 0x294 JUMPI SWAP2 DUP3 ADD JUMPDEST DUP3 DUP2 GT ISZERO PUSH3 0x293 JUMPI DUP3 MLOAD DUP3 SSTORE SWAP2 PUSH1 0x20 ADD SWAP2 SWAP1 PUSH1 0x1 ADD SWAP1 PUSH3 0x276 JUMP JUMPDEST JUMPDEST POP SWAP1 POP PUSH3 0x2A3 SWAP2 SWAP1 PUSH3 0x2A7 JUMP JUMPDEST POP SWAP1 JUMP JUMPDEST JUMPDEST DUP1 DUP3 GT ISZERO PUSH3 0x2C2 JUMPI PUSH1 0x0 DUP2 PUSH1 0x0 SWAP1 SSTORE POP PUSH1 0x1 ADD PUSH3 0x2A8 JUMP JUMPDEST POP SWAP1 JUMP JUMPDEST PUSH1 0x0 PUSH3 0x2DD PUSH3 0x2D7 DUP5 PUSH3 0x4F3 JUMP JUMPDEST PUSH3 0x4CA JUMP JUMPDEST SWAP1 POP DUP3 DUP2 MSTORE PUSH1 0x20 DUP2 ADD DUP5 DUP5 DUP5 ADD GT ISZERO PUSH3 0x2FC JUMPI PUSH3 0x2FB PUSH3 0x68A JUMP JUMPDEST JUMPDEST PUSH3 0x309 DUP5 DUP3 DUP6 PUSH3 0x585 JUMP JUMPDEST POP SWAP4 SWAP3 POP POP POP JUMP JUMPDEST PUSH1 0x0 DUP2 MLOAD SWAP1 POP PUSH3 0x322 DUP2 PUSH3 0x6D3 JUMP JUMPDEST SWAP3 SWAP2 POP POP JUMP JUMPDEST PUSH1 0x0 DUP3 PUSH1 0x1F DUP4 ADD SLT PUSH3 0x340 JUMPI PUSH3 0x33F PUSH3 0x685 JUMP JUMPDEST JUMPDEST DUP2 MLOAD PUSH3 0x352 DUP5 DUP3 PUSH1 0x20 DUP7 ADD PUSH3 0x2C6 JUMP JUMPDEST SWAP2 POP POP SWAP3 SWAP2 POP POP JUMP JUMPDEST PUSH1 0x0 DUP2 MLOAD SWAP1 POP PUSH3 0x36C DUP2 PUSH3 0x6ED JUMP JUMPDEST SWAP3 SWAP2 POP POP JUMP JUMPDEST PUSH1 0x0 DUP2 MLOAD SWAP1 POP PUSH3 0x383 DUP2 PUSH3 0x707 JUMP JUMPDEST SWAP3 SWAP2 POP POP JUMP JUMPDEST PUSH1 0x0 DUP1 PUSH1 0x0 DUP1 PUSH1 0x0 PUSH1 0xA0 DUP7 DUP9 SUB SLT ISZERO PUSH3 0x3A8 JUMPI PUSH3 0x3A7 PUSH3 0x694 JUMP JUMPDEST JUMPDEST PUSH1 0x0 DUP7 ADD MLOAD PUSH8 0xFFFFFFFFFFFFFFFF DUP2 GT ISZERO PUSH3 0x3C9 JUMPI PUSH3 0x3C8 PUSH3 0x68F JUMP JUMPDEST JUMPDEST PUSH3 0x3D7 DUP9 DUP3 DUP10 ADD PUSH3 0x328 JUMP JUMPDEST SWAP6 POP POP PUSH1 0x20 DUP7 ADD MLOAD PUSH8 0xFFFFFFFFFFFFFFFF DUP2 GT ISZERO PUSH3 0x3FB JUMPI PUSH3 0x3FA PUSH3 0x68F JUMP JUMPDEST JUMPDEST PUSH3 0x409 DUP9 DUP3 DUP10 ADD PUSH3 0x328 JUMP JUMPDEST SWAP5 POP POP PUSH1 0x40 PUSH3 0x41C DUP9 DUP3 DUP10 ADD PUSH3 0x311 JUMP JUMPDEST SWAP4 POP POP PUSH1 0x60 PUSH3 0x42F DUP9 DUP3 DUP10 ADD PUSH3 0x311 JUMP JUMPDEST SWAP3 POP POP PUSH1 0x80 PUSH3 0x442 DUP9 DUP3 DUP10 ADD PUSH3 0x35B JUMP JUMPDEST SWAP2 POP POP SWAP3 SWAP6 POP SWAP3 SWAP6 SWAP1 SWAP4 POP JUMP JUMPDEST PUSH1 0x0 PUSH1 0x20 DUP3 DUP5 SUB SLT ISZERO PUSH3 0x468 JUMPI PUSH3 0x467 PUSH3 0x694 JUMP JUMPDEST JUMPDEST PUSH1 0x0 PUSH3 0x478 DUP5 DUP3 DUP6 ADD PUSH3 0x372 JUMP JUMPDEST SWAP2 POP POP SWAP3 SWAP2 POP POP JUMP JUMPDEST PUSH1 0x0 PUSH3 0x490 PUSH1 0x18 DUP4 PUSH3 0x529 JUMP JUMPDEST SWAP2 POP PUSH3 0x49D DUP3 PUSH3 0x6AA JUMP JUMPDEST PUSH1 0x20 DUP3 ADD SWAP1 POP SWAP2 SWAP1 POP JUMP JUMPDEST PUSH1 0x0 PUSH1 0x20 DUP3 ADD SWAP1 POP DUP2 DUP2 SUB PUSH1 0x0 DUP4 ADD MSTORE PUSH3 0x4C3 DUP2 PUSH3 0x481 JUMP JUMPDEST SWAP1 POP SWAP2 SWAP1 POP JUMP JUMPDEST PUSH1 0x0 PUSH3 0x4D6 PUSH3 0x4E9 JUMP JUMPDEST SWAP1 POP PUSH3 0x4E4 DUP3 DUP3 PUSH3 0x5F1 JUMP JUMPDEST SWAP2 SWAP1 POP JUMP JUMPDEST PUSH1 0x0 PUSH1 0x40 MLOAD SWAP1 POP SWAP1 JUMP JUMPDEST PUSH1 0x0 PUSH8 0xFFFFFFFFFFFFFFFF DUP3 GT ISZERO PUSH3 0x511 JUMPI PUSH3 0x510 PUSH3 0x656 JUMP JUMPDEST JUMPDEST PUSH3 0x51C DUP3 PUSH3 0x699 JUMP JUMPDEST SWAP1 POP PUSH1 0x20 DUP2 ADD SWAP1 POP SWAP2 SWAP1 POP JUMP JUMPDEST PUSH1 0x0 DUP3 DUP3 MSTORE PUSH1 0x20 DUP3 ADD SWAP1 POP SWAP3 SWAP2 POP POP JUMP JUMPDEST PUSH1 0x0 PUSH3 0x547 DUP3 PUSH3 0x54E JUMP JUMPDEST SWAP1 POP SWAP2 SWAP1 POP JUMP JUMPDEST PUSH1 0x0 PUSH20 0xFFFFFFFFFFFFFFFFFFFFFFFFFFFFFFFFFFFFFFFF DUP3 AND SWAP1 POP SWAP2 SWAP1 POP JUMP JUMPDEST PUSH1 0x0 DUP2 SWAP1 POP SWAP2 SWAP1 POP JUMP JUMPDEST PUSH1 0x0 PUSH1 0xFF DUP3 AND SWAP1 POP SWAP2 SWAP1 POP JUMP JUMPDEST PUSH1 0x0 JUMPDEST DUP4 DUP2 LT ISZERO PUSH3 0x5A5 JUMPI DUP1 DUP3 ADD MLOAD DUP2 DUP5 ADD MSTORE PUSH1 0x20 DUP2 ADD SWAP1 POP PUSH3 0x588 JUMP JUMPDEST DUP4 DUP2 GT ISZERO PUSH3 0x5B5 JUMPI PUSH1 0x0 DUP5 DUP5 ADD MSTORE JUMPDEST POP POP POP POP JUMP JUMPDEST PUSH1 0x0 PUSH1 0x2 DUP3 DIV SWAP1 POP PUSH1 0x1 DUP3 AND DUP1 PUSH3 0x5D4 JUMPI PUSH1 0x7F DUP3 AND SWAP2 POP JUMPDEST PUSH1 0x20 DUP3 LT DUP2 EQ ISZERO PUSH3 0x5EB JUMPI PUSH3 0x5EA PUSH3 0x627 JUMP JUMPDEST JUMPDEST POP SWAP2 SWAP1 POP JUMP JUMPDEST PUSH3 0x5FC DUP3 PUSH3 0x699 JUMP JUMPDEST DUP2 ADD DUP2 DUP2 LT PUSH8 0xFFFFFFFFFFFFFFFF DUP3 GT OR ISZERO PUSH3 0x61E JUMPI PUSH3 0x61D PUSH3 0x656 JUMP JUMPDEST JUMPDEST DUP1 PUSH1 0x40 MSTORE POP POP POP JUMP JUMPDEST PUSH32 0x4E487B7100000000000000000000000000000000000000000000000000000000 PUSH1 0x0 MSTORE PUSH1 0x22 PUSH1 0x4 MSTORE PUSH1 0x24 PUSH1 0x0 REVERT JUMPDEST PUSH32 0x4E487B7100000000000000000000000000000000000000000000000000000000 PUSH1 0x0 MSTORE PUSH1 0x41 PUSH1 0x4 MSTORE PUSH1 0x24 PUSH1 0x0 REVERT JUMPDEST PUSH1 0x0 DUP1 REVERT JUMPDEST PUSH1 0x0 DUP1 REVERT JUMPDEST PUSH1 0x0 DUP1 REVERT JUMPDEST PUSH1 0x0 DUP1 REVERT JUMPDEST PUSH1 0x0 PUSH1 0x1F NOT PUSH1 0x1F DUP4 ADD AND SWAP1 POP SWAP2 SWAP1 POP JUMP JUMPDEST PUSH32 0x5244543A433A4F574E45525F5A45524F5F414444524553530000000000000000 PUSH1 0x0 DUP3 ADD MSTORE POP JUMP JUMPDEST PUSH3 0x6DE DUP2 PUSH3 0x53A JUMP JUMPDEST DUP2 EQ PUSH3 0x6EA JUMPI PUSH1 0x0 DUP1 REVERT JUMPDEST POP JUMP JUMPDEST PUSH3 0x6F8 DUP2 PUSH3 0x56E JUMP JUMPDEST DUP2 EQ PUSH3 0x704 JUMPI PUSH1 0x0 DUP1 REVERT JUMPDEST POP JUMP JUMPDEST PUSH3 0x712 DUP2 PUSH3 0x578 JUMP JUMPDEST DUP2 EQ PUSH3 0x71E JUMPI PUSH1 0x0 DUP1 REVERT JUMPDEST POP JUMP JUMPDEST PUSH1 0x80 MLOAD PUSH1 0xF8 SHR PUSH1 0xA0 MLOAD PUSH2 0x3C19 PUSH3 0x758 PUSH1 0x0 CODECOPY PUSH1 0x0 DUP2 DUP2 PUSH2 0x9DD ADD MSTORE DUP2 DUP2 PUSH2 0x16CD ADD MSTORE PUSH2 0x1AF2 ADD MSTORE PUSH1 0x0 PUSH2 0xBDF ADD MSTORE PUSH2 0x3C19 PUSH1 0x0 RETURN INVALID PUSH1 0x80 PUSH1 0x40 MSTORE CALLVALUE DUP1 ISZERO PUSH2 0x10 JUMPI PUSH1 0x0 DUP1 REVERT JUMPDEST POP PUSH1 0x4 CALLDATASIZE LT PUSH2 0x27F JUMPI PUSH1 0x0 CALLDATALOAD PUSH1 0xE0 SHR DUP1 PUSH4 0x79BA5097 GT PUSH2 0x15C JUMPI DUP1 PUSH4 0xC42069EC GT PUSH2 0xCE JUMPI DUP1 PUSH4 0xD505ACCF GT PUSH2 0x87 JUMPI DUP1 PUSH4 0xD505ACCF EQ PUSH2 0x88A JUMPI DUP1 PUSH4 0xD905777E EQ PUSH2 0x8A6 JUMPI DUP1 PUSH4 0xDD62ED3E EQ PUSH2 0x8D6 JUMPI DUP1 PUSH4 0xE13AA990 EQ PUSH2 0x906 JUMPI DUP1 PUSH4 0xE30C3978 EQ PUSH2 0x937 JUMPI DUP1 PUSH4 0xEF8B30F7 EQ PUSH2 0x955 JUMPI PUSH2 0x27F JUMP JUMPDEST DUP1 PUSH4 0xC42069EC EQ PUSH2 0x7A2 JUMPI DUP1 PUSH4 0xC63D75B6 EQ PUSH2 0x7BE JUMPI DUP1 PUSH4 0xC6E6F592 EQ PUSH2 0x7EE JUMPI DUP1 PUSH4 0xCE96CB77 EQ PUSH2 0x81E JUMPI DUP1 PUSH4 0xD0B06F5D EQ PUSH2 0x84E JUMPI DUP1 PUSH4 0xD3B5DC3B EQ PUSH2 0x86C JUMPI PUSH2 0x27F JUMP JUMPDEST DUP1 PUSH4 0x95D89B41 GT PUSH2 0x120 JUMPI DUP1 PUSH4 0x95D89B41 EQ PUSH2 0x694 JUMPI DUP1 PUSH4 0xA457C2D7 EQ PUSH2 0x6B2 JUMPI DUP1 PUSH4 0xA9059CBB EQ PUSH2 0x6E2 JUMPI DUP1 PUSH4 0xB3D7F6B9 EQ PUSH2 0x712 JUMPI DUP1 PUSH4 0xB460AF94 EQ PUSH2 0x742 JUMPI DUP1 PUSH4 0xBA087652 EQ PUSH2 0x772 JUMPI PUSH2 0x27F JUMP JUMPDEST DUP1 PUSH4 0x79BA5097 EQ PUSH2 0x5DC JUMPI DUP1 PUSH4 0x7ECEBE00 EQ PUSH2 0x5E6 JUMPI DUP1 PUSH4 0x8DA5CB5B EQ PUSH2 0x616 JUMPI DUP1 PUSH4 0x9159B206 EQ PUSH2 0x634 JUMPI DUP1 PUSH4 0x94BF804D EQ PUSH2 0x664 JUMPI PUSH2 0x27F JUMP JUMPDEST DUP1 PUSH4 0x3644E515 GT PUSH2 0x1F5 JUMPI DUP1 PUSH4 0x402D267D GT PUSH2 0x1B9 JUMPI DUP1 PUSH4 0x402D267D EQ PUSH2 0x4BC JUMPI DUP1 PUSH4 0x4CDAD506 EQ PUSH2 0x4EC JUMPI DUP1 PUSH4 0x50921B23 EQ PUSH2 0x51C JUMPI DUP1 PUSH4 0x60DD37D9 EQ PUSH2 0x54C JUMPI DUP1 PUSH4 0x6E553F65 EQ PUSH2 0x57C JUMPI DUP1 PUSH4 0x70A08231 EQ PUSH2 0x5AC JUMPI PUSH2 0x27F JUMP JUMPDEST DUP1 PUSH4 0x3644E515 EQ PUSH2 0x414 JUMPI DUP1 PUSH4 0x38D52E0F EQ PUSH2 0x432 JUMPI DUP1 PUSH4 0x39509351 EQ PUSH2 0x450 JUMPI DUP1 PUSH4 0x3C2F7773 EQ PUSH2 0x480 JUMPI DUP1 PUSH4 0x3C9AE2BA EQ PUSH2 0x49E JUMPI PUSH2 0x27F JUMP JUMPDEST DUP1 PUSH4 0x11F240AC GT PUSH2 0x247 JUMPI DUP1 PUSH4 0x11F240AC EQ PUSH2 0x350 JUMPI DUP1 PUSH4 0x13AF4035 EQ PUSH2 0x36E JUMPI DUP1 PUSH4 0x18160DDD EQ PUSH2 0x38A JUMPI DUP1 PUSH4 0x23B872DD EQ PUSH2 0x3A8 JUMPI DUP1 PUSH4 0x30ADF81F EQ PUSH2 0x3D8 JUMPI DUP1 PUSH4 0x313CE567 EQ PUSH2 0x3F6 JUMPI PUSH2 0x27F JUMP JUMPDEST DUP1 PUSH4 0x1E1D114 EQ PUSH2 0x284 JUMPI DUP1 PUSH4 0x6FDDE03 EQ PUSH2 0x2A2 JUMPI DUP1 PUSH4 0x7A2D13A EQ PUSH2 0x2C0 JUMPI DUP1 PUSH4 0x95EA7B3 EQ PUSH2 0x2F0 JUMPI DUP1 PUSH4 0xA28A477 EQ PUSH2 0x320 JUMPI JUMPDEST PUSH1 0x0 DUP1 REVERT JUMPDEST PUSH2 0x28C PUSH2 0x985 JUMP JUMPDEST PUSH1 0x40 MLOAD PUSH2 0x299 SWAP2 SWAP1 PUSH2 0x3526 JUMP JUMPDEST PUSH1 0x40 MLOAD DUP1 SWAP2 SUB SWAP1 RETURN JUMPDEST PUSH2 0x2AA PUSH2 0xA26 JUMP JUMPDEST PUSH1 0x40 MLOAD PUSH2 0x2B7 SWAP2 SWAP1 PUSH2 0x32E4 JUMP JUMPDEST PUSH1 0x40 MLOAD DUP1 SWAP2 SUB SWAP1 RETURN JUMPDEST PUSH2 0x2DA PUSH1 0x4 DUP1 CALLDATASIZE SUB DUP2 ADD SWAP1 PUSH2 0x2D5 SWAP2 SWAP1 PUSH2 0x2A89 JUMP JUMPDEST PUSH2 0xAB4 JUMP JUMPDEST PUSH1 0x40 MLOAD PUSH2 0x2E7 SWAP2 SWAP1 PUSH2 0x3526 JUMP JUMPDEST PUSH1 0x40 MLOAD DUP1 SWAP2 SUB SWAP1 RETURN JUMPDEST PUSH2 0x30A PUSH1 0x4 DUP1 CALLDATASIZE SUB DUP2 ADD SWAP1 PUSH2 0x305 SWAP2 SWAP1 PUSH2 0x2A1C JUMP JUMPDEST PUSH2 0xAF1 JUMP JUMPDEST PUSH1 0x40 MLOAD PUSH2 0x317 SWAP2 SWAP1 PUSH2 0x31B5 JUMP JUMPDEST PUSH1 0x40 MLOAD DUP1 SWAP2 SUB SWAP1 RETURN JUMPDEST PUSH2 0x33A PUSH1 0x4 DUP1 CALLDATASIZE SUB DUP2 ADD SWAP1 PUSH2 0x335 SWAP2 SWAP1 PUSH2 0x2A89 JUMP JUMPDEST PUSH2 0xB08 JUMP JUMPDEST PUSH1 0x40 MLOAD PUSH2 0x347 SWAP2 SWAP1 PUSH2 0x3526 JUMP JUMPDEST PUSH1 0x40 MLOAD DUP1 SWAP2 SUB SWAP1 RETURN JUMPDEST PUSH2 0x358 PUSH2 0xB43 JUMP JUMPDEST PUSH1 0x40 MLOAD PUSH2 0x365 SWAP2 SWAP1 PUSH2 0x3526 JUMP JUMPDEST PUSH1 0x40 MLOAD DUP1 SWAP2 SUB SWAP1 RETURN JUMPDEST PUSH2 0x388 PUSH1 0x4 DUP1 CALLDATASIZE SUB DUP2 ADD SWAP1 PUSH2 0x383 SWAP2 SWAP1 PUSH2 0x28BA JUMP JUMPDEST PUSH2 0xB49 JUMP JUMPDEST STOP JUMPDEST PUSH2 0x392 PUSH2 0xB8D JUMP JUMPDEST PUSH1 0x40 MLOAD PUSH2 0x39F SWAP2 SWAP1 PUSH2 0x3526 JUMP JUMPDEST PUSH1 0x40 MLOAD DUP1 SWAP2 SUB SWAP1 RETURN JUMPDEST PUSH2 0x3C2 PUSH1 0x4 DUP1 CALLDATASIZE SUB DUP2 ADD SWAP1 PUSH2 0x3BD SWAP2 SWAP1 PUSH2 0x2927 JUMP JUMPDEST PUSH2 0xB93 JUMP JUMPDEST PUSH1 0x40 MLOAD PUSH2 0x3CF SWAP2 SWAP1 PUSH2 0x31B5 JUMP JUMPDEST PUSH1 0x40 MLOAD DUP1 SWAP2 SUB SWAP1 RETURN JUMPDEST PUSH2 0x3E0 PUSH2 0xBB6 JUMP JUMPDEST PUSH1 0x40 MLOAD PUSH2 0x3ED SWAP2 SWAP1 PUSH2 0x31D0 JUMP JUMPDEST PUSH1 0x40 MLOAD DUP1 SWAP2 SUB SWAP1 RETURN JUMPDEST PUSH2 0x3FE PUSH2 0xBDD JUMP JUMPDEST PUSH1 0x40 MLOAD PUSH2 0x40B SWAP2 SWAP1 PUSH2 0x356A JUMP JUMPDEST PUSH1 0x40 MLOAD DUP1 SWAP2 SUB SWAP1 RETURN JUMPDEST PUSH2 0x41C PUSH2 0xC01 JUMP JUMPDEST PUSH1 0x40 MLOAD PUSH2 0x429 SWAP2 SWAP1 PUSH2 0x31D0 JUMP JUMPDEST PUSH1 0x40 MLOAD DUP1 SWAP2 SUB SWAP1 RETURN JUMPDEST PUSH2 0x43A PUSH2 0xCA9 JUMP JUMPDEST PUSH1 0x40 MLOAD PUSH2 0x447 SWAP2 SWAP1 PUSH2 0x30CB JUMP JUMPDEST PUSH1 0x40 MLOAD DUP1 SWAP2 SUB SWAP1 RETURN JUMPDEST PUSH2 0x46A PUSH1 0x4 DUP1 CALLDATASIZE SUB DUP2 ADD SWAP1 PUSH2 0x465 SWAP2 SWAP1 PUSH2 0x2A1C JUMP JUMPDEST PUSH2 0xCCF JUMP JUMPDEST PUSH1 0x40 MLOAD PUSH2 0x477 SWAP2 SWAP1 PUSH2 0x31B5 JUMP JUMPDEST PUSH1 0x40 MLOAD DUP1 SWAP2 SUB SWAP1 RETURN JUMPDEST PUSH2 0x488 PUSH2 0xD6D JUMP JUMPDEST PUSH1 0x40 MLOAD PUSH2 0x495 SWAP2 SWAP1 PUSH2 0x3526 JUMP JUMPDEST PUSH1 0x40 MLOAD DUP1 SWAP2 SUB SWAP1 RETURN JUMPDEST PUSH2 0x4A6 PUSH2 0xD73 JUMP JUMPDEST PUSH1 0x40 MLOAD PUSH2 0x4B3 SWAP2 SWAP1 PUSH2 0x3526 JUMP JUMPDEST PUSH1 0x40 MLOAD DUP1 SWAP2 SUB SWAP1 RETURN JUMPDEST PUSH2 0x4D6 PUSH1 0x4 DUP1 CALLDATASIZE SUB DUP2 ADD SWAP1 PUSH2 0x4D1 SWAP2 SWAP1 PUSH2 0x28BA JUMP JUMPDEST PUSH2 0xD79 JUMP JUMPDEST PUSH1 0x40 MLOAD PUSH2 0x4E3 SWAP2 SWAP1 PUSH2 0x3526 JUMP JUMPDEST PUSH1 0x40 MLOAD DUP1 SWAP2 SUB SWAP1 RETURN JUMPDEST PUSH2 0x506 PUSH1 0x4 DUP1 CALLDATASIZE SUB DUP2 ADD SWAP1 PUSH2 0x501 SWAP2 SWAP1 PUSH2 0x2A89 JUMP JUMPDEST PUSH2 0xDA3 JUMP JUMPDEST PUSH1 0x40 MLOAD PUSH2 0x513 SWAP2 SWAP1 PUSH2 0x3526 JUMP JUMPDEST PUSH1 0x40 MLOAD DUP1 SWAP2 SUB SWAP1 RETURN JUMPDEST PUSH2 0x536 PUSH1 0x4 DUP1 CALLDATASIZE SUB DUP2 ADD SWAP1 PUSH2 0x531 SWAP2 SWAP1 PUSH2 0x2C18 JUMP JUMPDEST PUSH2 0xDB5 JUMP JUMPDEST PUSH1 0x40 MLOAD PUSH2 0x543 SWAP2 SWAP1 PUSH2 0x3526 JUMP JUMPDEST PUSH1 0x40 MLOAD DUP1 SWAP2 SUB SWAP1 RETURN JUMPDEST PUSH2 0x566 PUSH1 0x4 DUP1 CALLDATASIZE SUB DUP2 ADD SWAP1 PUSH2 0x561 SWAP2 SWAP1 PUSH2 0x2B76 JUMP JUMPDEST PUSH2 0xEC6 JUMP JUMPDEST PUSH1 0x40 MLOAD PUSH2 0x573 SWAP2 SWAP1 PUSH2 0x3526 JUMP JUMPDEST PUSH1 0x40 MLOAD DUP1 SWAP2 SUB SWAP1 RETURN JUMPDEST PUSH2 0x596 PUSH1 0x4 DUP1 CALLDATASIZE SUB DUP2 ADD SWAP1 PUSH2 0x591 SWAP2 SWAP1 PUSH2 0x2AE3 JUMP JUMPDEST PUSH2 0x101B JUMP JUMPDEST PUSH1 0x40 MLOAD PUSH2 0x5A3 SWAP2 SWAP1 PUSH2 0x3526 JUMP JUMPDEST PUSH1 0x40 MLOAD DUP1 SWAP2 SUB SWAP1 RETURN JUMPDEST PUSH2 0x5C6 PUSH1 0x4 DUP1 CALLDATASIZE SUB DUP2 ADD SWAP1 PUSH2 0x5C1 SWAP2 SWAP1 PUSH2 0x28BA JUMP JUMPDEST PUSH2 0x108F JUMP JUMPDEST PUSH1 0x40 MLOAD PUSH2 0x5D3 SWAP2 SWAP1 PUSH2 0x3526 JUMP JUMPDEST PUSH1 0x40 MLOAD DUP1 SWAP2 SUB SWAP1 RETURN JUMPDEST PUSH2 0x5E4 PUSH2 0x10A7 JUMP JUMPDEST STOP JUMPDEST PUSH2 0x600 PUSH1 0x4 DUP1 CALLDATASIZE SUB DUP2 ADD SWAP1 PUSH2 0x5FB SWAP2 SWAP1 PUSH2 0x28BA JUMP JUMPDEST PUSH2 0x1238 JUMP JUMPDEST PUSH1 0x40 MLOAD PUSH2 0x60D SWAP2 SWAP1 PUSH2 0x3526 JUMP JUMPDEST PUSH1 0x40 MLOAD DUP1 SWAP2 SUB SWAP1 RETURN JUMPDEST PUSH2 0x61E PUSH2 0x1250 JUMP JUMPDEST PUSH1 0x40 MLOAD PUSH2 0x62B SWAP2 SWAP1 PUSH2 0x30CB JUMP JUMPDEST PUSH1 0x40 MLOAD DUP1 SWAP2 SUB SWAP1 RETURN JUMPDEST PUSH2 0x64E PUSH1 0x4 DUP1 CALLDATASIZE SUB DUP2 ADD SWAP1 PUSH2 0x649 SWAP2 SWAP1 PUSH2 0x28BA JUMP JUMPDEST PUSH2 0x1276 JUMP JUMPDEST PUSH1 0x40 MLOAD PUSH2 0x65B SWAP2 SWAP1 PUSH2 0x3526 JUMP JUMPDEST PUSH1 0x40 MLOAD DUP1 SWAP2 SUB SWAP1 RETURN JUMPDEST PUSH2 0x67E PUSH1 0x4 DUP1 CALLDATASIZE SUB DUP2 ADD SWAP1 PUSH2 0x679 SWAP2 SWAP1 PUSH2 0x2AE3 JUMP JUMPDEST PUSH2 0x12C7 JUMP JUMPDEST PUSH1 0x40 MLOAD PUSH2 0x68B SWAP2 SWAP1 PUSH2 0x3526 JUMP JUMPDEST PUSH1 0x40 MLOAD DUP1 SWAP2 SUB SWAP1 RETURN JUMPDEST PUSH2 0x69C PUSH2 0x133B JUMP JUMPDEST PUSH1 0x40 MLOAD PUSH2 0x6A9 SWAP2 SWAP1 PUSH2 0x32E4 JUMP JUMPDEST PUSH1 0x40 MLOAD DUP1 SWAP2 SUB SWAP1 RETURN JUMPDEST PUSH2 0x6CC PUSH1 0x4 DUP1 CALLDATASIZE SUB DUP2 ADD SWAP1 PUSH2 0x6C7 SWAP2 SWAP1 PUSH2 0x2A1C JUMP JUMPDEST PUSH2 0x13C9 JUMP JUMPDEST PUSH1 0x40 MLOAD PUSH2 0x6D9 SWAP2 SWAP1 PUSH2 0x31B5 JUMP JUMPDEST PUSH1 0x40 MLOAD DUP1 SWAP2 SUB SWAP1 RETURN JUMPDEST PUSH2 0x6FC PUSH1 0x4 DUP1 CALLDATASIZE SUB DUP2 ADD SWAP1 PUSH2 0x6F7 SWAP2 SWAP1 PUSH2 0x2A1C JUMP JUMPDEST PUSH2 0x13E0 JUMP JUMPDEST PUSH1 0x40 MLOAD PUSH2 0x709 SWAP2 SWAP1 PUSH2 0x31B5 JUMP JUMPDEST PUSH1 0x40 MLOAD DUP1 SWAP2 SUB SWAP1 RETURN JUMPDEST PUSH2 0x72C PUSH1 0x4 DUP1 CALLDATASIZE SUB DUP2 ADD SWAP1 PUSH2 0x727 SWAP2 SWAP1 PUSH2 0x2A89 JUMP JUMPDEST PUSH2 0x13F7 JUMP JUMPDEST PUSH1 0x40 MLOAD PUSH2 0x739 SWAP2 SWAP1 PUSH2 0x3526 JUMP JUMPDEST PUSH1 0x40 MLOAD DUP1 SWAP2 SUB SWAP1 RETURN JUMPDEST PUSH2 0x75C PUSH1 0x4 DUP1 CALLDATASIZE SUB DUP2 ADD SWAP1 PUSH2 0x757 SWAP2 SWAP1 PUSH2 0x2B23 JUMP JUMPDEST PUSH2 0x1432 JUMP JUMPDEST PUSH1 0x40 MLOAD PUSH2 0x769 SWAP2 SWAP1 PUSH2 0x3526 JUMP JUMPDEST PUSH1 0x40 MLOAD DUP1 SWAP2 SUB SWAP1 RETURN JUMPDEST PUSH2 0x78C PUSH1 0x4 DUP1 CALLDATASIZE SUB DUP2 ADD SWAP1 PUSH2 0x787 SWAP2 SWAP1 PUSH2 0x2B23 JUMP JUMPDEST PUSH2 0x14A8 JUMP JUMPDEST PUSH1 0x40 MLOAD PUSH2 0x799 SWAP2 SWAP1 PUSH2 0x3526 JUMP JUMPDEST PUSH1 0x40 MLOAD DUP1 SWAP2 SUB SWAP1 RETURN JUMPDEST PUSH2 0x7BC PUSH1 0x4 DUP1 CALLDATASIZE SUB DUP2 ADD SWAP1 PUSH2 0x7B7 SWAP2 SWAP1 PUSH2 0x28BA JUMP JUMPDEST PUSH2 0x151E JUMP JUMPDEST STOP JUMPDEST PUSH2 0x7D8 PUSH1 0x4 DUP1 CALLDATASIZE SUB DUP2 ADD SWAP1 PUSH2 0x7D3 SWAP2 SWAP1 PUSH2 0x28BA JUMP JUMPDEST PUSH2 0x164C JUMP JUMPDEST PUSH1 0x40 MLOAD PUSH2 0x7E5 SWAP2 SWAP1 PUSH2 0x3526 JUMP JUMPDEST PUSH1 0x40 MLOAD DUP1 SWAP2 SUB SWAP1 RETURN JUMPDEST PUSH2 0x808 PUSH1 0x4 DUP1 CALLDATASIZE SUB DUP2 ADD SWAP1 PUSH2 0x803 SWAP2 SWAP1 PUSH2 0x2A89 JUMP JUMPDEST PUSH2 0x1676 JUMP JUMPDEST PUSH1 0x40 MLOAD PUSH2 0x815 SWAP2 SWAP1 PUSH2 0x3526 JUMP JUMPDEST PUSH1 0x40 MLOAD DUP1 SWAP2 SUB SWAP1 RETURN JUMPDEST PUSH2 0x838 PUSH1 0x4 DUP1 CALLDATASIZE SUB DUP2 ADD SWAP1 PUSH2 0x833 SWAP2 SWAP1 PUSH2 0x28BA JUMP JUMPDEST PUSH2 0x16B3 JUMP JUMPDEST PUSH1 0x40 MLOAD PUSH2 0x845 SWAP2 SWAP1 PUSH2 0x3526 JUMP JUMPDEST PUSH1 0x40 MLOAD DUP1 SWAP2 SUB SWAP1 RETURN JUMPDEST PUSH2 0x856 PUSH2 0x16C5 JUMP JUMPDEST PUSH1 0x40 MLOAD PUSH2 0x863 SWAP2 SWAP1 PUSH2 0x3526 JUMP JUMPDEST PUSH1 0x40 MLOAD DUP1 SWAP2 SUB SWAP1 RETURN JUMPDEST PUSH2 0x874 PUSH2 0x16CB JUMP JUMPDEST PUSH1 0x40 MLOAD PUSH2 0x881 SWAP2 SWAP1 PUSH2 0x3526 JUMP JUMPDEST PUSH1 0x40 MLOAD DUP1 SWAP2 SUB SWAP1 RETURN JUMPDEST PUSH2 0x8A4 PUSH1 0x4 DUP1 CALLDATASIZE SUB DUP2 ADD SWAP1 PUSH2 0x89F SWAP2 SWAP1 PUSH2 0x297A JUMP JUMPDEST PUSH2 0x16EF JUMP JUMPDEST STOP JUMPDEST PUSH2 0x8C0 PUSH1 0x4 DUP1 CALLDATASIZE SUB DUP2 ADD SWAP1 PUSH2 0x8BB SWAP2 SWAP1 PUSH2 0x28BA JUMP JUMPDEST PUSH2 0x1999 JUMP JUMPDEST PUSH1 0x40 MLOAD PUSH2 0x8CD SWAP2 SWAP1 PUSH2 0x3526 JUMP JUMPDEST PUSH1 0x40 MLOAD DUP1 SWAP2 SUB SWAP1 RETURN JUMPDEST PUSH2 0x8F0 PUSH1 0x4 DUP1 CALLDATASIZE SUB DUP2 ADD SWAP1 PUSH2 0x8EB SWAP2 SWAP1 PUSH2 0x28E7 JUMP JUMPDEST PUSH2 0x19E2 JUMP JUMPDEST PUSH1 0x40 MLOAD PUSH2 0x8FD SWAP2 SWAP1 PUSH2 0x3526 JUMP JUMPDEST PUSH1 0x40 MLOAD DUP1 SWAP2 SUB SWAP1 RETURN JUMPDEST PUSH2 0x920 PUSH1 0x4 DUP1 CALLDATASIZE SUB DUP2 ADD SWAP1 PUSH2 0x91B SWAP2 SWAP1 PUSH2 0x2A89 JUMP JUMPDEST PUSH2 0x1A07 JUMP JUMPDEST PUSH1 0x40 MLOAD PUSH2 0x92E SWAP3 SWAP2 SWAP1 PUSH2 0x3541 JUMP JUMPDEST PUSH1 0x40 MLOAD DUP1 SWAP2 SUB SWAP1 RETURN JUMPDEST PUSH2 0x93F PUSH2 0x1C87 JUMP JUMPDEST PUSH1 0x40 MLOAD PUSH2 0x94C SWAP2 SWAP1 PUSH2 0x30CB JUMP JUMPDEST PUSH1 0x40 MLOAD DUP1 SWAP2 SUB SWAP1 RETURN JUMPDEST PUSH2 0x96F PUSH1 0x4 DUP1 CALLDATASIZE SUB DUP2 ADD SWAP1 PUSH2 0x96A SWAP2 SWAP1 PUSH2 0x2A89 JUMP JUMPDEST PUSH2 0x1CAD JUMP JUMPDEST PUSH1 0x40 MLOAD PUSH2 0x97C SWAP2 SWAP1 PUSH2 0x3526 JUMP JUMPDEST PUSH1 0x40 MLOAD DUP1 SWAP2 SUB SWAP1 RETURN JUMPDEST PUSH1 0x0 DUP1 PUSH1 0xA SLOAD SWAP1 POP PUSH1 0x0 DUP2 EQ ISZERO PUSH2 0x9A1 JUMPI PUSH1 0x9 SLOAD SWAP2 POP POP PUSH2 0xA23 JUMP JUMPDEST PUSH1 0x0 PUSH1 0xC SLOAD SWAP1 POP PUSH1 0x0 PUSH1 0xB SLOAD SWAP1 POP PUSH1 0x0 DUP3 TIMESTAMP GT PUSH2 0x9C9 JUMPI DUP2 TIMESTAMP PUSH2 0x9C4 SWAP2 SWAP1 PUSH2 0x36B8 JUMP JUMPDEST PUSH2 0x9D6 JUMP JUMPDEST DUP2 DUP4 PUSH2 0x9D5 SWAP2 SWAP1 PUSH2 0x36B8 JUMP JUMPDEST JUMPDEST SWAP1 POP PUSH1 0x9 SLOAD PUSH32 0x0 DUP3 DUP7 PUSH2 0xA08 SWAP2 SWAP1 PUSH2 0x365E JUMP JUMPDEST PUSH2 0xA12 SWAP2 SWAP1 PUSH2 0x362D JUMP JUMPDEST PUSH2 0xA1C SWAP2 SWAP1 PUSH2 0x35D7 JUMP JUMPDEST SWAP5 POP POP POP POP POP JUMPDEST SWAP1 JUMP JUMPDEST PUSH1 0x0 DUP1 SLOAD PUSH2 0xA33 SWAP1 PUSH2 0x377E JUMP JUMPDEST DUP1 PUSH1 0x1F ADD PUSH1 0x20 DUP1 SWAP2 DIV MUL PUSH1 0x20 ADD PUSH1 0x40 MLOAD SWAP1 DUP2 ADD PUSH1 0x40 MSTORE DUP1 SWAP3 SWAP2 SWAP1 DUP2 DUP2 MSTORE PUSH1 0x20 ADD DUP3 DUP1 SLOAD PUSH2 0xA5F SWAP1 PUSH2 0x377E JUMP JUMPDEST DUP1 ISZERO PUSH2 0xAAC JUMPI DUP1 PUSH1 0x1F LT PUSH2 0xA81 JUMPI PUSH2 0x100 DUP1 DUP4 SLOAD DIV MUL DUP4 MSTORE SWAP2 PUSH1 0x20 ADD SWAP2 PUSH2 0xAAC JUMP JUMPDEST DUP3 ADD SWAP2 SWAP1 PUSH1 0x0 MSTORE PUSH1 0x20 PUSH1 0x0 KECCAK256 SWAP1 JUMPDEST DUP2 SLOAD DUP2 MSTORE SWAP1 PUSH1 0x1 ADD SWAP1 PUSH1 0x20 ADD DUP1 DUP4 GT PUSH2 0xA8F JUMPI DUP3 SWAP1 SUB PUSH1 0x1F AND DUP3 ADD SWAP2 JUMPDEST POP POP POP POP POP DUP2 JUMP JUMPDEST PUSH1 0x0 DUP1 PUSH1 0x2 SLOAD SWAP1 POP PUSH1 0x0 DUP2 EQ PUSH2 0xAE7 JUMPI DUP1 PUSH2 0xACD PUSH2 0x985 JUMP JUMPDEST DUP5 PUSH2 0xAD8 SWAP2 SWAP1 PUSH2 0x365E JUMP JUMPDEST PUSH2 0xAE2 SWAP2 SWAP1 PUSH2 0x362D JUMP JUMPDEST PUSH2 0xAE9 JUMP JUMPDEST DUP3 JUMPDEST SWAP2 POP POP SWAP2 SWAP1 POP JUMP JUMPDEST PUSH1 0x0 PUSH2 0xAFE CALLER DUP5 DUP5 PUSH2 0x1CBF JUMP JUMPDEST PUSH1 0x1 SWAP1 POP SWAP3 SWAP2 POP POP JUMP JUMPDEST PUSH1 0x0 DUP1 PUSH1 0x2 SLOAD SWAP1 POP PUSH1 0x0 DUP2 EQ PUSH2 0xB39 JUMPI PUSH2 0xB34 DUP2 DUP5 PUSH2 0xB27 SWAP2 SWAP1 PUSH2 0x365E JUMP JUMPDEST PUSH2 0xB2F PUSH2 0x985 JUMP JUMPDEST PUSH2 0x1DA8 JUMP JUMPDEST PUSH2 0xB3B JUMP JUMPDEST DUP3 JUMPDEST SWAP2 POP POP SWAP2 SWAP1 POP JUMP JUMPDEST PUSH1 0x9 SLOAD DUP2 JUMP JUMPDEST DUP1 PUSH1 0x7 PUSH1 0x0 PUSH2 0x100 EXP DUP2 SLOAD DUP2 PUSH20 0xFFFFFFFFFFFFFFFFFFFFFFFFFFFFFFFFFFFFFFFF MUL NOT AND SWAP1 DUP4 PUSH20 0xFFFFFFFFFFFFFFFFFFFFFFFFFFFFFFFFFFFFFFFF AND MUL OR SWAP1 SSTORE POP POP JUMP JUMPDEST PUSH1 0x2 SLOAD DUP2 JUMP JUMPDEST PUSH1 0x0 PUSH2 0xBA0 DUP5 CALLER DUP5 PUSH2 0x1DE7 JUMP JUMPDEST PUSH2 0xBAB DUP5 DUP5 DUP5 PUSH2 0x1EAC JUMP JUMPDEST PUSH1 0x1 SWAP1 POP SWAP4 SWAP3 POP POP POP JUMP JUMPDEST PUSH32 0x6E71EDAE12B1B97F4D1F60370FEF10105FA2FAAE0126114A169C64845D6126C9 PUSH1 0x0 SHL DUP2 JUMP JUMPDEST PUSH32 0x0 DUP2 JUMP JUMPDEST PUSH1 0x0 PUSH32 0x8B73C3C69BB8FE3D512ECC4CF759CC79239F7B179B0FFACAA9A75D522B39400F PUSH1 0x0 PUSH1 0x40 MLOAD PUSH2 0xC33 SWAP2 SWAP1 PUSH2 0x307D JUMP JUMPDEST PUSH1 0x40 MLOAD DUP1 SWAP2 SUB SWAP1 KECCAK256 PUSH1 0x40 MLOAD DUP1 PUSH1 0x40 ADD PUSH1 0x40 MSTORE DUP1 PUSH1 0x1 DUP2 MSTORE PUSH1 0x20 ADD PUSH32 0x3100000000000000000000000000000000000000000000000000000000000000 DUP2 MSTORE POP DUP1 MLOAD SWAP1 PUSH1 0x20 ADD KECCAK256 CHAINID ADDRESS PUSH1 0x40 MLOAD PUSH1 0x20 ADD PUSH2 0xC8E SWAP6 SWAP5 SWAP4 SWAP3 SWAP2 SWAP1 PUSH2 0x324C JUMP JUMPDEST PUSH1 0x40 MLOAD PUSH1 0x20 DUP2 DUP4 SUB SUB DUP2 MSTORE SWAP1 PUSH1 0x40 MSTORE DUP1 MLOAD SWAP1 PUSH1 0x20 ADD KECCAK256 SWAP1 POP SWAP1 JUMP JUMPDEST PUSH1 0x6 PUSH1 0x0 SWAP1 SLOAD SWAP1 PUSH2 0x100 EXP SWAP1 DIV PUSH20 0xFFFFFFFFFFFFFFFFFFFFFFFFFFFFFFFFFFFFFFFF AND DUP2 JUMP JUMPDEST PUSH1 0x0 PUSH2 0xD63 CALLER DUP5 DUP5 PUSH1 0x4 PUSH1 0x0 CALLER PUSH20 0xFFFFFFFFFFFFFFFFFFFFFFFFFFFFFFFFFFFFFFFF AND PUSH20 0xFFFFFFFFFFFFFFFFFFFFFFFFFFFFFFFFFFFFFFFF AND DUP2 MSTORE PUSH1 0x20 ADD SWAP1 DUP2 MSTORE PUSH1 0x20 ADD PUSH1 0x0 KECCAK256 PUSH1 0x0 DUP9 PUSH20 0xFFFFFFFFFFFFFFFFFFFFFFFFFFFFFFFFFFFFFFFF AND PUSH20 0xFFFFFFFFFFFFFFFFFFFFFFFFFFFFFFFFFFFFFFFF AND DUP2 MSTORE PUSH1 0x20 ADD SWAP1 DUP2 MSTORE PUSH1 0x20 ADD PUSH1 0x0 KECCAK256 SLOAD PUSH2 0xD5E SWAP2 SWAP1 PUSH2 0x35D7 JUMP JUMPDEST PUSH2 0x1CBF JUMP JUMPDEST PUSH1 0x1 SWAP1 POP SWAP3 SWAP2 POP POP JUMP JUMPDEST PUSH1 0xC SLOAD DUP2 JUMP JUMPDEST PUSH1 0xA SLOAD DUP2 JUMP JUMPDEST PUSH1 0x0 PUSH32 0xFFFFFFFFFFFFFFFFFFFFFFFFFFFFFFFFFFFFFFFFFFFFFFFFFFFFFFFFFFFFFFFF SWAP1 POP SWAP2 SWAP1 POP JUMP JUMPDEST PUSH1 0x0 PUSH2 0xDAE DUP3 PUSH2 0xAB4 JUMP JUMPDEST SWAP1 POP SWAP2 SWAP1 POP JUMP JUMPDEST PUSH1 0x0 PUSH1 0x1 PUSH1 0xD SLOAD EQ PUSH2 0xDFC JUMPI PUSH1 0x40 MLOAD PUSH32 0x8C379A000000000000000000000000000000000000000000000000000000000 DUP2 MSTORE PUSH1 0x4 ADD PUSH2 0xDF3 SWAP1 PUSH2 0x3406 JUMP JUMPDEST PUSH1 0x40 MLOAD DUP1 SWAP2 SUB SWAP1 REVERT JUMPDEST PUSH1 0x2 PUSH1 0xD DUP2 SWAP1 SSTORE POP PUSH1 0x6 PUSH1 0x0 SWAP1 SLOAD SWAP1 PUSH2 0x100 EXP SWAP1 DIV PUSH20 0xFFFFFFFFFFFFFFFFFFFFFFFFFFFFFFFFFFFFFFFF AND PUSH20 0xFFFFFFFFFFFFFFFFFFFFFFFFFFFFFFFFFFFFFFFF AND PUSH4 0xD505ACCF CALLER ADDRESS DUP11 DUP10 DUP10 DUP10 DUP10 PUSH1 0x40 MLOAD DUP9 PUSH4 0xFFFFFFFF AND PUSH1 0xE0 SHL DUP2 MSTORE PUSH1 0x4 ADD PUSH2 0xE6B SWAP8 SWAP7 SWAP6 SWAP5 SWAP4 SWAP3 SWAP2 SWAP1 PUSH2 0x311D JUMP JUMPDEST PUSH1 0x0 PUSH1 0x40 MLOAD DUP1 DUP4 SUB DUP2 PUSH1 0x0 DUP8 DUP1 EXTCODESIZE ISZERO DUP1 ISZERO PUSH2 0xE85 JUMPI PUSH1 0x0 DUP1 REVERT JUMPDEST POP GAS CALL ISZERO DUP1 ISZERO PUSH2 0xE99 JUMPI RETURNDATASIZE PUSH1 0x0 DUP1 RETURNDATACOPY RETURNDATASIZE PUSH1 0x0 REVERT JUMPDEST POP POP POP POP PUSH2 0xEB4 PUSH2 0xEA9 DUP9 PUSH2 0x1CAD JUMP JUMPDEST SWAP2 POP DUP2 DUP9 DUP9 CALLER PUSH2 0x1FB9 JUMP JUMPDEST PUSH1 0x1 PUSH1 0xD DUP2 SWAP1 SSTORE POP SWAP7 SWAP6 POP POP POP POP POP POP JUMP JUMPDEST PUSH1 0x0 PUSH1 0x1 PUSH1 0xD SLOAD EQ PUSH2 0xF0D JUMPI PUSH1 0x40 MLOAD PUSH32 0x8C379A000000000000000000000000000000000000000000000000000000000 DUP2 MSTORE PUSH1 0x4 ADD PUSH2 0xF04 SWAP1 PUSH2 0x3406 JUMP JUMPDEST PUSH1 0x40 MLOAD DUP1 SWAP2 SUB SWAP1 REVERT JUMPDEST PUSH1 0x2 PUSH1 0xD DUP2 SWAP1 SSTORE POP DUP6 PUSH2 0xF1F DUP10 PUSH2 0x13F7 JUMP JUMPDEST SWAP2 POP DUP2 GT ISZERO PUSH2 0xF63 JUMPI PUSH1 0x40 MLOAD PUSH32 0x8C379A000000000000000000000000000000000000000000000000000000000 DUP2 MSTORE PUSH1 0x4 ADD PUSH2 0xF5A SWAP1 PUSH2 0x3506 JUMP JUMPDEST PUSH1 0x40 MLOAD DUP1 SWAP2 SUB SWAP1 REVERT JUMPDEST PUSH1 0x6 PUSH1 0x0 SWAP1 SLOAD SWAP1 PUSH2 0x100 EXP SWAP1 DIV PUSH20 0xFFFFFFFFFFFFFFFFFFFFFFFFFFFFFFFFFFFFFFFF AND PUSH20 0xFFFFFFFFFFFFFFFFFFFFFFFFFFFFFFFFFFFFFFFF AND PUSH4 0xD505ACCF CALLER ADDRESS DUP10 DUP10 DUP10 DUP10 DUP10 PUSH1 0x40 MLOAD DUP9 PUSH4 0xFFFFFFFF AND PUSH1 0xE0 SHL DUP2 MSTORE PUSH1 0x4 ADD PUSH2 0xFCA SWAP8 SWAP7 SWAP6 SWAP5 SWAP4 SWAP3 SWAP2 SWAP1 PUSH2 0x311D JUMP JUMPDEST PUSH1 0x0 PUSH1 0x40 MLOAD DUP1 DUP4 SUB DUP2 PUSH1 0x0 DUP8 DUP1 EXTCODESIZE ISZERO DUP1 ISZERO PUSH2 0xFE4 JUMPI PUSH1 0x0 DUP1 REVERT JUMPDEST POP GAS CALL ISZERO DUP1 ISZERO PUSH2 0xFF8 JUMPI RETURNDATASIZE PUSH1 0x0 DUP1 RETURNDATACOPY RETURNDATASIZE PUSH1 0x0 REVERT JUMPDEST POP POP POP POP PUSH2 0x1008 DUP9 DUP3 DUP10 CALLER PUSH2 0x1FB9 JUMP JUMPDEST PUSH1 0x1 PUSH1 0xD DUP2 SWAP1 SSTORE POP SWAP8 SWAP7 POP POP POP POP POP POP POP JUMP JUMPDEST PUSH1 0x0 PUSH1 0x1 PUSH1 0xD SLOAD EQ PUSH2 0x1062 JUMPI PUSH1 0x40 MLOAD PUSH32 0x8C379A000000000000000000000000000000000000000000000000000000000 DUP2 MSTORE PUSH1 0x4 ADD PUSH2 0x1059 SWAP1 PUSH2 0x3406 JUMP JUMPDEST PUSH1 0x40 MLOAD DUP1 SWAP2 SUB SWAP1 REVERT JUMPDEST PUSH1 0x2 PUSH1 0xD DUP2 SWAP1 SSTORE POP PUSH2 0x1081 PUSH2 0x1076 DUP5 PUSH2 0x1CAD JUMP JUMPDEST SWAP2 POP DUP2 DUP5 DUP5 CALLER PUSH2 0x1FB9 JUMP JUMPDEST PUSH1 0x1 PUSH1 0xD DUP2 SWAP1 SSTORE POP SWAP3 SWAP2 POP POP JUMP JUMPDEST PUSH1 0x3 PUSH1 0x20 MSTORE DUP1 PUSH1 0x0 MSTORE PUSH1 0x40 PUSH1 0x0 KECCAK256 PUSH1 0x0 SWAP2 POP SWAP1 POP SLOAD DUP2 JUMP JUMPDEST PUSH1 0x8 PUSH1 0x0 SWAP1 SLOAD SWAP1 PUSH2 0x100 EXP SWAP1 DIV PUSH20 0xFFFFFFFFFFFFFFFFFFFFFFFFFFFFFFFFFFFFFFFF AND PUSH20 0xFFFFFFFFFFFFFFFFFFFFFFFFFFFFFFFFFFFFFFFF AND CALLER PUSH20 0xFFFFFFFFFFFFFFFFFFFFFFFFFFFFFFFFFFFFFFFF AND EQ PUSH2 0x1137 JUMPI PUSH1 0x40 MLOAD PUSH32 0x8C379A000000000000000000000000000000000000000000000000000000000 DUP2 MSTORE PUSH1 0x4 ADD PUSH2 0x112E SWAP1 PUSH2 0x3446 JUMP JUMPDEST PUSH1 0x40 MLOAD DUP1 SWAP2 SUB SWAP1 REVERT JUMPDEST CALLER PUSH20 0xFFFFFFFFFFFFFFFFFFFFFFFFFFFFFFFFFFFFFFFF AND PUSH1 0x7 PUSH1 0x0 SWAP1 SLOAD SWAP1 PUSH2 0x100 EXP SWAP1 DIV PUSH20 0xFFFFFFFFFFFFFFFFFFFFFFFFFFFFFFFFFFFFFFFF AND PUSH20 0xFFFFFFFFFFFFFFFFFFFFFFFFFFFFFFFFFFFFFFFF AND PUSH32 0x357BDEB5828FA83945F38A88510CE5CD7D628DAFB346D767EFBC693149FDD97C PUSH1 0x40 MLOAD PUSH1 0x40 MLOAD DUP1 SWAP2 SUB SWAP1 LOG3 CALLER PUSH1 0x7 PUSH1 0x0 PUSH2 0x100 EXP DUP2 SLOAD DUP2 PUSH20 0xFFFFFFFFFFFFFFFFFFFFFFFFFFFFFFFFFFFFFFFF MUL NOT AND SWAP1 DUP4 PUSH20 0xFFFFFFFFFFFFFFFFFFFFFFFFFFFFFFFFFFFFFFFF AND MUL OR SWAP1 SSTORE POP PUSH1 0x0 PUSH1 0x8 PUSH1 0x0 PUSH2 0x100 EXP DUP2 SLOAD DUP2 PUSH20 0xFFFFFFFFFFFFFFFFFFFFFFFFFFFFFFFFFFFFFFFF MUL NOT AND SWAP1 DUP4 PUSH20 0xFFFFFFFFFFFFFFFFFFFFFFFFFFFFFFFFFFFFFFFF AND MUL OR SWAP1 SSTORE POP JUMP JUMPDEST PUSH1 0x5 PUSH1 0x20 MSTORE DUP1 PUSH1 0x0 MSTORE PUSH1 0x40 PUSH1 0x0 KECCAK256 PUSH1 0x0 SWAP2 POP SWAP1 POP SLOAD DUP2 JUMP JUMPDEST PUSH1 0x7 PUSH1 0x0 SWAP1 SLOAD SWAP1 PUSH2 0x100 EXP SWAP1 DIV PUSH20 0xFFFFFFFFFFFFFFFFFFFFFFFFFFFFFFFFFFFFFFFF AND DUP2 JUMP JUMPDEST PUSH1 0x0 PUSH2 0x12C0 PUSH1 0x3 PUSH1 0x0 DUP5 PUSH20 0xFFFFFFFFFFFFFFFFFFFFFFFFFFFFFFFFFFFFFFFF AND PUSH20 0xFFFFFFFFFFFFFFFFFFFFFFFFFFFFFFFFFFFFFFFF AND DUP2 MSTORE PUSH1 0x20 ADD SWAP1 DUP2 MSTORE PUSH1 0x20 ADD PUSH1 0x0 KECCAK256 SLOAD PUSH2 0xAB4 JUMP JUMPDEST SWAP1 POP SWAP2 SWAP1 POP JUMP JUMPDEST PUSH1 0x0 PUSH1 0x1 PUSH1 0xD SLOAD EQ PUSH2 0x130E JUMPI PUSH1 0x40 MLOAD PUSH32 0x8C379A000000000000000000000000000000000000000000000000000000000 DUP2 MSTORE PUSH1 0x4 ADD PUSH2 0x1305 SWAP1 PUSH2 0x3406 JUMP JUMPDEST PUSH1 0x40 MLOAD DUP1 SWAP2 SUB SWAP1 REVERT JUMPDEST PUSH1 0x2 PUSH1 0xD DUP2 SWAP1 SSTORE POP PUSH2 0x132D DUP4 PUSH2 0x1323 DUP6 PUSH2 0x13F7 JUMP JUMPDEST SWAP3 POP DUP3 DUP5 CALLER PUSH2 0x1FB9 JUMP JUMPDEST PUSH1 0x1 PUSH1 0xD DUP2 SWAP1 SSTORE POP SWAP3 SWAP2 POP POP JUMP JUMPDEST PUSH1 0x1 DUP1 SLOAD PUSH2 0x1348 SWAP1 PUSH2 0x377E JUMP JUMPDEST DUP1 PUSH1 0x1F ADD PUSH1 0x20 DUP1 SWAP2 DIV MUL PUSH1 0x20 ADD PUSH1 0x40 MLOAD SWAP1 DUP2 ADD PUSH1 0x40 MSTORE DUP1 SWAP3 SWAP2 SWAP1 DUP2 DUP2 MSTORE PUSH1 0x20 ADD DUP3 DUP1 SLOAD PUSH2 0x1374 SWAP1 PUSH2 0x377E JUMP JUMPDEST DUP1 ISZERO PUSH2 0x13C1 JUMPI DUP1 PUSH1 0x1F LT PUSH2 0x1396 JUMPI PUSH2 0x100 DUP1 DUP4 SLOAD DIV MUL DUP4 MSTORE SWAP2 PUSH1 0x20 ADD SWAP2 PUSH2 0x13C1 JUMP JUMPDEST DUP3 ADD SWAP2 SWAP1 PUSH1 0x0 MSTORE PUSH1 0x20 PUSH1 0x0 KECCAK256 SWAP1 JUMPDEST DUP2 SLOAD DUP2 MSTORE SWAP1 PUSH1 0x1 ADD SWAP1 PUSH1 0x20 ADD DUP1 DUP4 GT PUSH2 0x13A4 JUMPI DUP3 SWAP1 SUB PUSH1 0x1F AND DUP3 ADD SWAP2 JUMPDEST POP POP POP POP POP DUP2 JUMP JUMPDEST PUSH1 0x0 PUSH2 0x13D6 CALLER DUP5 DUP5 PUSH2 0x1DE7 JUMP JUMPDEST PUSH1 0x1 SWAP1 POP SWAP3 SWAP2 POP POP JUMP JUMPDEST PUSH1 0x0 PUSH2 0x13ED CALLER DUP5 DUP5 PUSH2 0x1EAC JUMP JUMPDEST PUSH1 0x1 SWAP1 POP SWAP3 SWAP2 POP POP JUMP JUMPDEST PUSH1 0x0 DUP1 PUSH1 0x2 SLOAD SWAP1 POP PUSH1 0x0 DUP2 EQ PUSH2 0x1428 JUMPI PUSH2 0x1423 PUSH2 0x1412 PUSH2 0x985 JUMP JUMPDEST DUP5 PUSH2 0x141D SWAP2 SWAP1 PUSH2 0x365E JUMP JUMPDEST DUP3 PUSH2 0x1DA8 JUMP JUMPDEST PUSH2 0x142A JUMP JUMPDEST DUP3 JUMPDEST SWAP2 POP POP SWAP2 SWAP1 POP JUMP JUMPDEST PUSH1 0x0 PUSH1 0x1 PUSH1 0xD SLOAD EQ PUSH2 0x1479 JUMPI PUSH1 0x40 MLOAD PUSH32 0x8C379A000000000000000000000000000000000000000000000000000000000 DUP2 MSTORE PUSH1 0x4 ADD PUSH2 0x1470 SWAP1 PUSH2 0x3406 JUMP JUMPDEST PUSH1 0x40 MLOAD DUP1 SWAP2 SUB SWAP1 REVERT JUMPDEST PUSH1 0x2 PUSH1 0xD DUP2 SWAP1 SSTORE POP PUSH2 0x1499 PUSH2 0x148D DUP6 PUSH2 0xB08 JUMP JUMPDEST SWAP2 POP DUP2 DUP6 DUP6 DUP6 CALLER PUSH2 0x21F8 JUMP JUMPDEST PUSH1 0x1 PUSH1 0xD DUP2 SWAP1 SSTORE POP SWAP4 SWAP3 POP POP POP JUMP JUMPDEST PUSH1 0x0 PUSH1 0x1 PUSH1 0xD SLOAD EQ PUSH2 0x14EF JUMPI PUSH1 0x40 MLOAD PUSH32 0x8C379A000000000000000000000000000000000000000000000000000000000 DUP2 MSTORE PUSH1 0x4 ADD PUSH2 0x14E6 SWAP1 PUSH2 0x3406 JUMP JUMPDEST PUSH1 0x40 MLOAD DUP1 SWAP2 SUB SWAP1 REVERT JUMPDEST PUSH1 0x2 PUSH1 0xD DUP2 SWAP1 SSTORE POP PUSH2 0x150F DUP5 PUSH2 0x1504 DUP7 PUSH2 0xDA3 JUMP JUMPDEST SWAP3 POP DUP3 DUP6 DUP6 CALLER PUSH2 0x21F8 JUMP JUMPDEST PUSH1 0x1 PUSH1 0xD DUP2 SWAP1 SSTORE POP SWAP4 SWAP3 POP POP POP JUMP JUMPDEST PUSH1 0x7 PUSH1 0x0 SWAP1 SLOAD SWAP1 PUSH2 0x100 EXP SWAP1 DIV PUSH20 0xFFFFFFFFFFFFFFFFFFFFFFFFFFFFFFFFFFFFFFFF AND PUSH20 0xFFFFFFFFFFFFFFFFFFFFFFFFFFFFFFFFFFFFFFFF AND CALLER PUSH20 0xFFFFFFFFFFFFFFFFFFFFFFFFFFFFFFFFFFFFFFFF AND EQ PUSH2 0x15AE JUMPI PUSH1 0x40 MLOAD PUSH32 0x8C379A000000000000000000000000000000000000000000000000000000000 DUP2 MSTORE PUSH1 0x4 ADD PUSH2 0x15A5 SWAP1 PUSH2 0x34C6 JUMP JUMPDEST PUSH1 0x40 MLOAD DUP1 SWAP2 SUB SWAP1 REVERT JUMPDEST DUP1 PUSH1 0x8 PUSH1 0x0 PUSH2 0x100 EXP DUP2 SLOAD DUP2 PUSH20 0xFFFFFFFFFFFFFFFFFFFFFFFFFFFFFFFFFFFFFFFF MUL NOT AND SWAP1 DUP4 PUSH20 0xFFFFFFFFFFFFFFFFFFFFFFFFFFFFFFFFFFFFFFFF AND MUL OR SWAP1 SSTORE POP DUP1 PUSH20 0xFFFFFFFFFFFFFFFFFFFFFFFFFFFFFFFFFFFFFFFF AND CALLER PUSH20 0xFFFFFFFFFFFFFFFFFFFFFFFFFFFFFFFFFFFFFFFF AND PUSH32 0xA86864FA6B65F969D5AC8391DDAAC6A0EBA3F41386CBF6E78C3E4D6C59EB115F PUSH1 0x40 MLOAD PUSH1 0x40 MLOAD DUP1 SWAP2 SUB SWAP1 LOG3 POP JUMP JUMPDEST PUSH1 0x0 PUSH32 0xFFFFFFFFFFFFFFFFFFFFFFFFFFFFFFFFFFFFFFFFFFFFFFFFFFFFFFFFFFFFFFFF SWAP1 POP SWAP2 SWAP1 POP JUMP JUMPDEST PUSH1 0x0 DUP1 PUSH1 0x2 SLOAD SWAP1 POP PUSH1 0x0 DUP2 EQ PUSH2 0x16A9 JUMPI PUSH2 0x168E PUSH2 0x985 JUMP JUMPDEST DUP2 DUP5 PUSH2 0x169A SWAP2 SWAP1 PUSH2 0x365E JUMP JUMPDEST PUSH2 0x16A4 SWAP2 SWAP1 PUSH2 0x362D JUMP JUMPDEST PUSH2 0x16AB JUMP JUMPDEST DUP3 JUMPDEST SWAP2 POP POP SWAP2 SWAP1 POP JUMP JUMPDEST PUSH1 0x0 PUSH2 0x16BE DUP3 PUSH2 0x1276 JUMP JUMPDEST SWAP1 POP SWAP2 SWAP1 POP JUMP JUMPDEST PUSH1 0xB SLOAD DUP2 JUMP JUMPDEST PUSH32 0x0 DUP2 JUMP JUMPDEST TIMESTAMP DUP5 LT ISZERO PUSH2 0x1732 JUMPI PUSH1 0x40 MLOAD PUSH32 0x8C379A000000000000000000000000000000000000000000000000000000000 DUP2 MSTORE PUSH1 0x4 ADD PUSH2 0x1729 SWAP1 PUSH2 0x3486 JUMP JUMPDEST PUSH1 0x40 MLOAD DUP1 SWAP2 SUB SWAP1 REVERT JUMPDEST PUSH32 0x7FFFFFFFFFFFFFFFFFFFFFFFFFFFFFFF5D576E7357A4501DDFE92F46681B20A0 DUP2 PUSH1 0x0 SHR GT ISZERO DUP1 ISZERO PUSH2 0x1776 JUMPI POP PUSH1 0x1B DUP4 PUSH1 0xFF AND EQ DUP1 PUSH2 0x1775 JUMPI POP PUSH1 0x1C DUP4 PUSH1 0xFF AND EQ JUMPDEST JUMPDEST PUSH2 0x17B5 JUMPI PUSH1 0x40 MLOAD PUSH32 0x8C379A000000000000000000000000000000000000000000000000000000000 DUP2 MSTORE PUSH1 0x4 ADD PUSH2 0x17AC SWAP1 PUSH2 0x3386 JUMP JUMPDEST PUSH1 0x40 MLOAD DUP1 SWAP2 SUB SWAP1 REVERT JUMPDEST PUSH1 0x0 PUSH2 0x17BF PUSH2 0xC01 JUMP JUMPDEST PUSH32 0x6E71EDAE12B1B97F4D1F60370FEF10105FA2FAAE0126114A169C64845D6126C9 PUSH1 0x0 SHL DUP10 DUP10 DUP10 PUSH1 0x5 PUSH1 0x0 DUP15 PUSH20 0xFFFFFFFFFFFFFFFFFFFFFFFFFFFFFFFFFFFFFFFF AND PUSH20 0xFFFFFFFFFFFFFFFFFFFFFFFFFFFFFFFFFFFFFFFF AND DUP2 MSTORE PUSH1 0x20 ADD SWAP1 DUP2 MSTORE PUSH1 0x20 ADD PUSH1 0x0 KECCAK256 PUSH1 0x0 DUP2 SLOAD DUP1 SWAP3 SWAP2 SWAP1 PUSH1 0x1 ADD SWAP2 SWAP1 POP SSTORE DUP11 PUSH1 0x40 MLOAD PUSH1 0x20 ADD PUSH2 0x184A SWAP7 SWAP6 SWAP5 SWAP4 SWAP3 SWAP2 SWAP1 PUSH2 0x31EB JUMP JUMPDEST PUSH1 0x40 MLOAD PUSH1 0x20 DUP2 DUP4 SUB SUB DUP2 MSTORE SWAP1 PUSH1 0x40 MSTORE DUP1 MLOAD SWAP1 PUSH1 0x20 ADD KECCAK256 PUSH1 0x40 MLOAD PUSH1 0x20 ADD PUSH2 0x1871 SWAP3 SWAP2 SWAP1 PUSH2 0x3094 JUMP JUMPDEST PUSH1 0x40 MLOAD PUSH1 0x20 DUP2 DUP4 SUB SUB DUP2 MSTORE SWAP1 PUSH1 0x40 MSTORE DUP1 MLOAD SWAP1 PUSH1 0x20 ADD KECCAK256 SWAP1 POP PUSH1 0x0 PUSH1 0x1 DUP3 DUP7 DUP7 DUP7 PUSH1 0x40 MLOAD PUSH1 0x0 DUP2 MSTORE PUSH1 0x20 ADD PUSH1 0x40 MSTORE PUSH1 0x40 MLOAD PUSH2 0x18AE SWAP5 SWAP4 SWAP3 SWAP2 SWAP1 PUSH2 0x329F JUMP JUMPDEST PUSH1 0x20 PUSH1 0x40 MLOAD PUSH1 0x20 DUP2 SUB SWAP1 DUP1 DUP5 SUB SWAP1 DUP6 GAS STATICCALL ISZERO DUP1 ISZERO PUSH2 0x18D0 JUMPI RETURNDATASIZE PUSH1 0x0 DUP1 RETURNDATACOPY RETURNDATASIZE PUSH1 0x0 REVERT JUMPDEST POP POP POP PUSH1 0x20 PUSH1 0x40 MLOAD SUB MLOAD SWAP1 POP DUP9 PUSH20 0xFFFFFFFFFFFFFFFFFFFFFFFFFFFFFFFFFFFFFFFF AND DUP2 PUSH20 0xFFFFFFFFFFFFFFFFFFFFFFFFFFFFFFFFFFFFFFFF AND EQ DUP1 ISZERO PUSH2 0x1944 JUMPI POP PUSH1 0x0 PUSH20 0xFFFFFFFFFFFFFFFFFFFFFFFFFFFFFFFFFFFFFFFF AND DUP10 PUSH20 0xFFFFFFFFFFFFFFFFFFFFFFFFFFFFFFFFFFFFFFFF AND EQ ISZERO JUMPDEST PUSH2 0x1983 JUMPI PUSH1 0x40 MLOAD PUSH32 0x8C379A000000000000000000000000000000000000000000000000000000000 DUP2 MSTORE PUSH1 0x4 ADD PUSH2 0x197A SWAP1 PUSH2 0x33C6 JUMP JUMPDEST PUSH1 0x40 MLOAD DUP1 SWAP2 SUB SWAP1 REVERT JUMPDEST POP POP PUSH2 0x1990 DUP8 DUP8 DUP8 PUSH2 0x1CBF JUMP JUMPDEST POP POP POP POP POP POP POP JUMP JUMPDEST PUSH1 0x0 PUSH1 0x3 PUSH1 0x0 DUP4 PUSH20 0xFFFFFFFFFFFFFFFFFFFFFFFFFFFFFFFFFFFFFFFF AND PUSH20 0xFFFFFFFFFFFFFFFFFFFFFFFFFFFFFFFFFFFFFFFF AND DUP2 MSTORE PUSH1 0x20 ADD SWAP1 DUP2 MSTORE PUSH1 0x20 ADD PUSH1 0x0 KECCAK256 SLOAD SWAP1 POP SWAP2 SWAP1 POP JUMP JUMPDEST PUSH1 0x4 PUSH1 0x20 MSTORE DUP2 PUSH1 0x0 MSTORE PUSH1 0x40 PUSH1 0x0 KECCAK256 PUSH1 0x20 MSTORE DUP1 PUSH1 0x0 MSTORE PUSH1 0x40 PUSH1 0x0 KECCAK256 PUSH1 0x0 SWAP2 POP SWAP2 POP POP SLOAD DUP2 JUMP JUMPDEST PUSH1 0x0 DUP1 PUSH1 0x7 PUSH1 0x0 SWAP1 SLOAD SWAP1 PUSH2 0x100 EXP SWAP1 DIV PUSH20 0xFFFFFFFFFFFFFFFFFFFFFFFFFFFFFFFFFFFFFFFF AND PUSH20 0xFFFFFFFFFFFFFFFFFFFFFFFFFFFFFFFFFFFFFFFF AND CALLER PUSH20 0xFFFFFFFFFFFFFFFFFFFFFFFFFFFFFFFFFFFFFFFF AND EQ PUSH2 0x1A9A JUMPI PUSH1 0x40 MLOAD PUSH32 0x8C379A000000000000000000000000000000000000000000000000000000000 DUP2 MSTORE PUSH1 0x4 ADD PUSH2 0x1A91 SWAP1 PUSH2 0x3466 JUMP JUMPDEST PUSH1 0x40 MLOAD DUP1 SWAP2 SUB SWAP1 REVERT JUMPDEST PUSH1 0x0 PUSH1 0x2 SLOAD EQ ISZERO PUSH2 0x1AE0 JUMPI PUSH1 0x40 MLOAD PUSH32 0x8C379A000000000000000000000000000000000000000000000000000000000 DUP2 MSTORE PUSH1 0x4 ADD PUSH2 0x1AD7 SWAP1 PUSH2 0x3326 JUMP JUMPDEST PUSH1 0x40 MLOAD DUP1 SWAP2 SUB SWAP1 REVERT JUMPDEST PUSH2 0x1AE8 PUSH2 0x985 JUMP JUMPDEST PUSH1 0x9 DUP2 SWAP1 SSTORE SWAP1 POP DUP3 PUSH32 0x0 DUP3 PUSH1 0x6 PUSH1 0x0 SWAP1 SLOAD SWAP1 PUSH2 0x100 EXP SWAP1 DIV PUSH20 0xFFFFFFFFFFFFFFFFFFFFFFFFFFFFFFFFFFFFFFFF AND PUSH20 0xFFFFFFFFFFFFFFFFFFFFFFFFFFFFFFFFFFFFFFFF AND PUSH4 0x70A08231 ADDRESS PUSH1 0x40 MLOAD DUP3 PUSH4 0xFFFFFFFF AND PUSH1 0xE0 SHL DUP2 MSTORE PUSH1 0x4 ADD PUSH2 0x1B6D SWAP2 SWAP1 PUSH2 0x30CB JUMP JUMPDEST PUSH1 0x20 PUSH1 0x40 MLOAD DUP1 DUP4 SUB DUP2 DUP7 DUP1 EXTCODESIZE ISZERO DUP1 ISZERO PUSH2 0x1B85 JUMPI PUSH1 0x0 DUP1 REVERT JUMPDEST POP GAS STATICCALL ISZERO DUP1 ISZERO PUSH2 0x1B99 JUMPI RETURNDATASIZE PUSH1 0x0 DUP1 RETURNDATACOPY RETURNDATASIZE PUSH1 0x0 REVERT JUMPDEST POP POP POP POP PUSH1 0x40 MLOAD RETURNDATASIZE PUSH1 0x1F NOT PUSH1 0x1F DUP3 ADD AND DUP3 ADD DUP1 PUSH1 0x40 MSTORE POP DUP2 ADD SWAP1 PUSH2 0x1BBD SWAP2 SWAP1 PUSH2 0x2AB6 JUMP JUMPDEST PUSH2 0x1BC7 SWAP2 SWAP1 PUSH2 0x36B8 JUMP JUMPDEST PUSH2 0x1BD1 SWAP2 SWAP1 PUSH2 0x365E JUMP JUMPDEST PUSH2 0x1BDB SWAP2 SWAP1 PUSH2 0x362D JUMP JUMPDEST PUSH1 0xA DUP2 SWAP1 SSTORE SWAP2 POP DUP3 TIMESTAMP PUSH1 0xB DUP2 SWAP1 SSTORE PUSH2 0x1BF3 SWAP2 SWAP1 PUSH2 0x35D7 JUMP JUMPDEST PUSH1 0xC DUP2 SWAP1 SSTORE POP PUSH32 0x68B521A89BF844FF03E484D89FD64CE292A698EC522170F0DAD7ECD11C2DC8FA DUP2 DUP4 PUSH1 0x40 MLOAD PUSH2 0x1C2A SWAP3 SWAP2 SWAP1 PUSH2 0x3541 JUMP JUMPDEST PUSH1 0x40 MLOAD DUP1 SWAP2 SUB SWAP1 LOG1 CALLER PUSH20 0xFFFFFFFFFFFFFFFFFFFFFFFFFFFFFFFFFFFFFFFF AND PUSH32 0x8C84E3B4DF93F5B7C8D4AB6647708F5B14CACC124E22908187E30695EC54BAB3 PUSH1 0xC SLOAD PUSH1 0x40 MLOAD PUSH2 0x1C7A SWAP2 SWAP1 PUSH2 0x3526 JUMP JUMPDEST PUSH1 0x40 MLOAD DUP1 SWAP2 SUB SWAP1 LOG2 SWAP2 POP SWAP2 JUMP JUMPDEST PUSH1 0x8 PUSH1 0x0 SWAP1 SLOAD SWAP1 PUSH2 0x100 EXP SWAP1 DIV PUSH20 0xFFFFFFFFFFFFFFFFFFFFFFFFFFFFFFFFFFFFFFFF AND DUP2 JUMP JUMPDEST PUSH1 0x0 PUSH2 0x1CB8 DUP3 PUSH2 0x1676 JUMP JUMPDEST SWAP1 POP SWAP2 SWAP1 POP JUMP JUMPDEST DUP2 PUSH20 0xFFFFFFFFFFFFFFFFFFFFFFFFFFFFFFFFFFFFFFFF AND DUP4 PUSH20 0xFFFFFFFFFFFFFFFFFFFFFFFFFFFFFFFFFFFFFFFF AND PUSH32 0x8C5BE1E5EBEC7D5BD14F71427D1E84F3DD0314C0F7B2291E5B200AC8C7C3B925 DUP4 PUSH1 0x4 PUSH1 0x0 DUP9 PUSH20 0xFFFFFFFFFFFFFFFFFFFFFFFFFFFFFFFFFFFFFFFF AND PUSH20 0xFFFFFFFFFFFFFFFFFFFFFFFFFFFFFFFFFFFFFFFF AND DUP2 MSTORE PUSH1 0x20 ADD SWAP1 DUP2 MSTORE PUSH1 0x20 ADD PUSH1 0x0 KECCAK256 PUSH1 0x0 DUP8 PUSH20 0xFFFFFFFFFFFFFFFFFFFFFFFFFFFFFFFFFFFFFFFF AND PUSH20 0xFFFFFFFFFFFFFFFFFFFFFFFFFFFFFFFFFFFFFFFF AND DUP2 MSTORE PUSH1 0x20 ADD SWAP1 DUP2 MSTORE PUSH1 0x20 ADD PUSH1 0x0 KECCAK256 DUP2 SWAP1 SSTORE PUSH1 0x40 MLOAD PUSH2 0x1D9B SWAP2 SWAP1 PUSH2 0x3526 JUMP JUMPDEST PUSH1 0x40 MLOAD DUP1 SWAP2 SUB SWAP1 LOG3 POP POP POP JUMP JUMPDEST PUSH1 0x0 DUP1 DUP3 DUP5 PUSH2 0x1DB7 SWAP2 SWAP1 PUSH2 0x37BA JUMP JUMPDEST GT PUSH2 0x1DC3 JUMPI PUSH1 0x0 PUSH2 0x1DC6 JUMP JUMPDEST PUSH1 0x1 JUMPDEST PUSH1 0xFF AND DUP3 DUP5 PUSH2 0x1DD5 SWAP2 SWAP1 PUSH2 0x362D JUMP JUMPDEST PUSH2 0x1DDF SWAP2 SWAP1 PUSH2 0x35D7 JUMP JUMPDEST SWAP1 POP SWAP3 SWAP2 POP POP JUMP JUMPDEST PUSH1 0x0 PUSH1 0x4 PUSH1 0x0 DUP6 PUSH20 0xFFFFFFFFFFFFFFFFFFFFFFFFFFFFFFFFFFFFFFFF AND PUSH20 0xFFFFFFFFFFFFFFFFFFFFFFFFFFFFFFFFFFFFFFFF AND DUP2 MSTORE PUSH1 0x20 ADD SWAP1 DUP2 MSTORE PUSH1 0x20 ADD PUSH1 0x0 KECCAK256 PUSH1 0x0 DUP5 PUSH20 0xFFFFFFFFFFFFFFFFFFFFFFFFFFFFFFFFFFFFFFFF AND PUSH20 0xFFFFFFFFFFFFFFFFFFFFFFFFFFFFFFFFFFFFFFFF AND DUP2 MSTORE PUSH1 0x20 ADD SWAP1 DUP2 MSTORE PUSH1 0x20 ADD PUSH1 0x0 KECCAK256 SLOAD SWAP1 POP PUSH32 0xFFFFFFFFFFFFFFFFFFFFFFFFFFFFFFFFFFFFFFFFFFFFFFFFFFFFFFFFFFFFFFFF DUP2 EQ PUSH2 0x1EA6 JUMPI PUSH2 0x1EA5 DUP5 DUP5 DUP5 DUP5 PUSH2 0x1EA0 SWAP2 SWAP1 PUSH2 0x36B8 JUMP JUMPDEST PUSH2 0x1CBF JUMP JUMPDEST JUMPDEST POP POP POP POP JUMP JUMPDEST DUP1 PUSH1 0x3 PUSH1 0x0 DUP6 PUSH20 0xFFFFFFFFFFFFFFFFFFFFFFFFFFFFFFFFFFFFFFFF AND PUSH20 0xFFFFFFFFFFFFFFFFFFFFFFFFFFFFFFFFFFFFFFFF AND DUP2 MSTORE PUSH1 0x20 ADD SWAP1 DUP2 MSTORE PUSH1 0x20 ADD PUSH1 0x0 KECCAK256 PUSH1 0x0 DUP3 DUP3 SLOAD PUSH2 0x1EFB SWAP2 SWAP1 PUSH2 0x36B8 JUMP JUMPDEST SWAP3 POP POP DUP2 SWAP1 SSTORE POP DUP1 PUSH1 0x3 PUSH1 0x0 DUP5 PUSH20 0xFFFFFFFFFFFFFFFFFFFFFFFFFFFFFFFFFFFFFFFF AND PUSH20 0xFFFFFFFFFFFFFFFFFFFFFFFFFFFFFFFFFFFFFFFF AND DUP2 MSTORE PUSH1 0x20 ADD SWAP1 DUP2 MSTORE PUSH1 0x20 ADD PUSH1 0x0 KECCAK256 PUSH1 0x0 DUP3 DUP3 SLOAD ADD SWAP3 POP POP DUP2 SWAP1 SSTORE POP DUP2 PUSH20 0xFFFFFFFFFFFFFFFFFFFFFFFFFFFFFFFFFFFFFFFF AND DUP4 PUSH20 0xFFFFFFFFFFFFFFFFFFFFFFFFFFFFFFFFFFFFFFFF AND PUSH32 0xDDF252AD1BE2C89B69C2B068FC378DAA952BA7F163C4A11628F55A4DF523B3EF DUP4 PUSH1 0x40 MLOAD PUSH2 0x1FAC SWAP2 SWAP1 PUSH2 0x3526 JUMP JUMPDEST PUSH1 0x40 MLOAD DUP1 SWAP2 SUB SWAP1 LOG3 POP POP POP JUMP JUMPDEST PUSH1 0x0 PUSH20 0xFFFFFFFFFFFFFFFFFFFFFFFFFFFFFFFFFFFFFFFF AND DUP3 PUSH20 0xFFFFFFFFFFFFFFFFFFFFFFFFFFFFFFFFFFFFFFFF AND EQ ISZERO PUSH2 0x2029 JUMPI PUSH1 0x40 MLOAD PUSH32 0x8C379A000000000000000000000000000000000000000000000000000000000 DUP2 MSTORE PUSH1 0x4 ADD PUSH2 0x2020 SWAP1 PUSH2 0x33E6 JUMP JUMPDEST PUSH1 0x40 MLOAD DUP1 SWAP2 SUB SWAP1 REVERT JUMPDEST PUSH1 0x0 DUP5 EQ ISZERO PUSH2 0x206D JUMPI PUSH1 0x40 MLOAD PUSH32 0x8C379A000000000000000000000000000000000000000000000000000000000 DUP2 MSTORE PUSH1 0x4 ADD PUSH2 0x2064 SWAP1 PUSH2 0x3306 JUMP JUMPDEST PUSH1 0x40 MLOAD DUP1 SWAP2 SUB SWAP1 REVERT JUMPDEST PUSH1 0x0 DUP4 EQ ISZERO PUSH2 0x20B1 JUMPI PUSH1 0x40 MLOAD PUSH32 0x8C379A000000000000000000000000000000000000000000000000000000000 DUP2 MSTORE PUSH1 0x4 ADD PUSH2 0x20A8 SWAP1 PUSH2 0x3366 JUMP JUMPDEST PUSH1 0x40 MLOAD DUP1 SWAP2 SUB SWAP1 REVERT JUMPDEST PUSH2 0x20BB DUP3 DUP6 PUSH2 0x248D JUMP JUMPDEST PUSH1 0x0 DUP4 PUSH2 0x20C6 PUSH2 0x985 JUMP JUMPDEST PUSH2 0x20D0 SWAP2 SWAP1 PUSH2 0x35D7 JUMP JUMPDEST PUSH1 0x9 DUP2 SWAP1 SSTORE SWAP1 POP PUSH1 0x0 PUSH2 0x20E1 PUSH2 0x255D JUMP JUMPDEST SWAP1 POP DUP4 PUSH20 0xFFFFFFFFFFFFFFFFFFFFFFFFFFFFFFFFFFFFFFFF AND DUP4 PUSH20 0xFFFFFFFFFFFFFFFFFFFFFFFFFFFFFFFFFFFFFFFF AND PUSH32 0xDCBC1C05240F31FF3AD067EF1EE35CE4997762752E3A095284754544F4C709D7 DUP8 DUP10 PUSH1 0x40 MLOAD PUSH2 0x2142 SWAP3 SWAP2 SWAP1 PUSH2 0x3541 JUMP JUMPDEST PUSH1 0x40 MLOAD DUP1 SWAP2 SUB SWAP1 LOG3 PUSH32 0x68B521A89BF844FF03E484D89FD64CE292A698EC522170F0DAD7ECD11C2DC8FA DUP3 DUP3 PUSH1 0x40 MLOAD PUSH2 0x217B SWAP3 SWAP2 SWAP1 PUSH2 0x3541 JUMP JUMPDEST PUSH1 0x40 MLOAD DUP1 SWAP2 SUB SWAP1 LOG1 PUSH2 0x21B1 PUSH1 0x6 PUSH1 0x0 SWAP1 SLOAD SWAP1 PUSH2 0x100 EXP SWAP1 DIV PUSH20 0xFFFFFFFFFFFFFFFFFFFFFFFFFFFFFFFFFFFFFFFF AND DUP5 ADDRESS DUP9 PUSH2 0x2582 JUMP JUMPDEST PUSH2 0x21F0 JUMPI PUSH1 0x40 MLOAD PUSH32 0x8C379A000000000000000000000000000000000000000000000000000000000 DUP2 MSTORE PUSH1 0x4 ADD PUSH2 0x21E7 SWAP1 PUSH2 0x3426 JUMP JUMPDEST PUSH1 0x40 MLOAD DUP1 SWAP2 SUB SWAP1 REVERT JUMPDEST POP POP POP POP POP POP JUMP JUMPDEST PUSH1 0x0 PUSH20 0xFFFFFFFFFFFFFFFFFFFFFFFFFFFFFFFFFFFFFFFF AND DUP4 PUSH20 0xFFFFFFFFFFFFFFFFFFFFFFFFFFFFFFFFFFFFFFFF AND EQ ISZERO PUSH2 0x2268 JUMPI PUSH1 0x40 MLOAD PUSH32 0x8C379A000000000000000000000000000000000000000000000000000000000 DUP2 MSTORE PUSH1 0x4 ADD PUSH2 0x225F SWAP1 PUSH2 0x33A6 JUMP JUMPDEST PUSH1 0x40 MLOAD DUP1 SWAP2 SUB SWAP1 REVERT JUMPDEST PUSH1 0x0 DUP6 EQ ISZERO PUSH2 0x22AC JUMPI PUSH1 0x40 MLOAD PUSH32 0x8C379A000000000000000000000000000000000000000000000000000000000 DUP2 MSTORE PUSH1 0x4 ADD PUSH2 0x22A3 SWAP1 PUSH2 0x34E6 JUMP JUMPDEST PUSH1 0x40 MLOAD DUP1 SWAP2 SUB SWAP1 REVERT JUMPDEST PUSH1 0x0 DUP5 EQ ISZERO PUSH2 0x22F0 JUMPI PUSH1 0x40 MLOAD PUSH32 0x8C379A000000000000000000000000000000000000000000000000000000000 DUP2 MSTORE PUSH1 0x4 ADD PUSH2 0x22E7 SWAP1 PUSH2 0x34A6 JUMP JUMPDEST PUSH1 0x40 MLOAD DUP1 SWAP2 SUB SWAP1 REVERT JUMPDEST DUP2 PUSH20 0xFFFFFFFFFFFFFFFFFFFFFFFFFFFFFFFFFFFFFFFF AND DUP2 PUSH20 0xFFFFFFFFFFFFFFFFFFFFFFFFFFFFFFFFFFFFFFFF AND EQ PUSH2 0x232F JUMPI PUSH2 0x232E DUP3 DUP3 DUP8 PUSH2 0x1DE7 JUMP JUMPDEST JUMPDEST PUSH2 0x2339 DUP3 DUP7 PUSH2 0x2611 JUMP JUMPDEST PUSH1 0x0 DUP5 PUSH2 0x2344 PUSH2 0x985 JUMP JUMPDEST PUSH2 0x234E SWAP2 SWAP1 PUSH2 0x36B8 JUMP JUMPDEST PUSH1 0x9 DUP2 SWAP1 SSTORE SWAP1 POP PUSH1 0x0 PUSH2 0x235F PUSH2 0x255D JUMP JUMPDEST SWAP1 POP DUP4 PUSH20 0xFFFFFFFFFFFFFFFFFFFFFFFFFFFFFFFFFFFFFFFF AND DUP6 PUSH20 0xFFFFFFFFFFFFFFFFFFFFFFFFFFFFFFFFFFFFFFFF AND DUP5 PUSH20 0xFFFFFFFFFFFFFFFFFFFFFFFFFFFFFFFFFFFFFFFF AND PUSH32 0xFBDE797D201C681B91056529119E0B02407C7BB96A4A2C75C01FC9667232C8DB DUP10 DUP12 PUSH1 0x40 MLOAD PUSH2 0x23D7 SWAP3 SWAP2 SWAP1 PUSH2 0x3541 JUMP JUMPDEST PUSH1 0x40 MLOAD DUP1 SWAP2 SUB SWAP1 LOG4 PUSH32 0x68B521A89BF844FF03E484D89FD64CE292A698EC522170F0DAD7ECD11C2DC8FA DUP3 DUP3 PUSH1 0x40 MLOAD PUSH2 0x2410 SWAP3 SWAP2 SWAP1 PUSH2 0x3541 JUMP JUMPDEST PUSH1 0x40 MLOAD DUP1 SWAP2 SUB SWAP1 LOG1 PUSH2 0x2445 PUSH1 0x6 PUSH1 0x0 SWAP1 SLOAD SWAP1 PUSH2 0x100 EXP SWAP1 DIV PUSH20 0xFFFFFFFFFFFFFFFFFFFFFFFFFFFFFFFFFFFFFFFF AND DUP7 DUP9 PUSH2 0x26E1 JUMP JUMPDEST PUSH2 0x2484 JUMPI PUSH1 0x40 MLOAD PUSH32 0x8C379A000000000000000000000000000000000000000000000000000000000 DUP2 MSTORE PUSH1 0x4 ADD PUSH2 0x247B SWAP1 PUSH2 0x3346 JUMP JUMPDEST PUSH1 0x40 MLOAD DUP1 SWAP2 SUB SWAP1 REVERT JUMPDEST POP POP POP POP POP POP POP JUMP JUMPDEST DUP1 PUSH1 0x2 PUSH1 0x0 DUP3 DUP3 SLOAD PUSH2 0x249F SWAP2 SWAP1 PUSH2 0x35D7 JUMP JUMPDEST SWAP3 POP POP DUP2 SWAP1 SSTORE POP DUP1 PUSH1 0x3 PUSH1 0x0 DUP5 PUSH20 0xFFFFFFFFFFFFFFFFFFFFFFFFFFFFFFFFFFFFFFFF AND PUSH20 0xFFFFFFFFFFFFFFFFFFFFFFFFFFFFFFFFFFFFFFFF AND DUP2 MSTORE PUSH1 0x20 ADD SWAP1 DUP2 MSTORE PUSH1 0x20 ADD PUSH1 0x0 KECCAK256 PUSH1 0x0 DUP3 DUP3 SLOAD ADD SWAP3 POP POP DUP2 SWAP1 SSTORE POP DUP2 PUSH20 0xFFFFFFFFFFFFFFFFFFFFFFFFFFFFFFFFFFFFFFFF AND PUSH1 0x0 PUSH20 0xFFFFFFFFFFFFFFFFFFFFFFFFFFFFFFFFFFFFFFFF AND PUSH32 0xDDF252AD1BE2C89B69C2B068FC378DAA952BA7F163C4A11628F55A4DF523B3EF DUP4 PUSH1 0x40 MLOAD PUSH2 0x2551 SWAP2 SWAP1 PUSH2 0x3526 JUMP JUMPDEST PUSH1 0x40 MLOAD DUP1 SWAP2 SUB SWAP1 LOG3 POP POP JUMP JUMPDEST PUSH1 0x0 PUSH1 0xC SLOAD TIMESTAMP PUSH1 0xB DUP2 SWAP1 SSTORE GT PUSH2 0x2575 JUMPI PUSH1 0xA SLOAD PUSH2 0x2578 JUMP JUMPDEST PUSH1 0x0 JUMPDEST PUSH1 0xA DUP2 SWAP1 SSTORE SWAP1 POP SWAP1 JUMP JUMPDEST PUSH1 0x0 PUSH2 0x2607 DUP6 PUSH4 0x23B872DD PUSH1 0xE0 SHL DUP7 DUP7 DUP7 PUSH1 0x40 MLOAD PUSH1 0x24 ADD PUSH2 0x25A5 SWAP4 SWAP3 SWAP2 SWAP1 PUSH2 0x30E6 JUMP JUMPDEST PUSH1 0x40 MLOAD PUSH1 0x20 DUP2 DUP4 SUB SUB DUP2 MSTORE SWAP1 PUSH1 0x40 MSTORE SWAP1 PUSH28 0xFFFFFFFFFFFFFFFFFFFFFFFFFFFFFFFFFFFFFFFFFFFFFFFFFFFFFFFF NOT AND PUSH1 0x20 DUP3 ADD DUP1 MLOAD PUSH28 0xFFFFFFFFFFFFFFFFFFFFFFFFFFFFFFFFFFFFFFFFFFFFFFFFFFFFFFFF DUP4 DUP2 DUP4 AND OR DUP4 MSTORE POP POP POP POP PUSH2 0x276D JUMP JUMPDEST SWAP1 POP SWAP5 SWAP4 POP POP POP POP JUMP JUMPDEST DUP1 PUSH1 0x3 PUSH1 0x0 DUP5 PUSH20 0xFFFFFFFFFFFFFFFFFFFFFFFFFFFFFFFFFFFFFFFF AND PUSH20 0xFFFFFFFFFFFFFFFFFFFFFFFFFFFFFFFFFFFFFFFF AND DUP2 MSTORE PUSH1 0x20 ADD SWAP1 DUP2 MSTORE PUSH1 0x20 ADD PUSH1 0x0 KECCAK256 PUSH1 0x0 DUP3 DUP3 SLOAD PUSH2 0x2660 SWAP2 SWAP1 PUSH2 0x36B8 JUMP JUMPDEST SWAP3 POP POP DUP2 SWAP1 SSTORE POP DUP1 PUSH1 0x2 PUSH1 0x0 DUP3 DUP3 SLOAD SUB SWAP3 POP POP DUP2 SWAP1 SSTORE POP PUSH1 0x0 PUSH20 0xFFFFFFFFFFFFFFFFFFFFFFFFFFFFFFFFFFFFFFFF AND DUP3 PUSH20 0xFFFFFFFFFFFFFFFFFFFFFFFFFFFFFFFFFFFFFFFF AND PUSH32 0xDDF252AD1BE2C89B69C2B068FC378DAA952BA7F163C4A11628F55A4DF523B3EF DUP4 PUSH1 0x40 MLOAD PUSH2 0x26D5 SWAP2 SWAP1 PUSH2 0x3526 JUMP JUMPDEST PUSH1 0x40 MLOAD DUP1 SWAP2 SUB SWAP1 LOG3 POP POP JUMP JUMPDEST PUSH1 0x0 PUSH2 0x2764 DUP5 PUSH4 0xA9059CBB PUSH1 0xE0 SHL DUP6 DUP6 PUSH1 0x40 MLOAD PUSH1 0x24 ADD PUSH2 0x2702 SWAP3 SWAP2 SWAP1 PUSH2 0x318C JUMP JUMPDEST PUSH1 0x40 MLOAD PUSH1 0x20 DUP2 DUP4 SUB SUB DUP2 MSTORE SWAP1 PUSH1 0x40 MSTORE SWAP1 PUSH28 0xFFFFFFFFFFFFFFFFFFFFFFFFFFFFFFFFFFFFFFFFFFFFFFFFFFFFFFFF NOT AND PUSH1 0x20 DUP3 ADD DUP1 MLOAD PUSH28 0xFFFFFFFFFFFFFFFFFFFFFFFFFFFFFFFFFFFFFFFFFFFFFFFFFFFFFFFF DUP4 DUP2 DUP4 AND OR DUP4 MSTORE POP POP POP POP PUSH2 0x276D JUMP JUMPDEST SWAP1 POP SWAP4 SWAP3 POP POP POP JUMP JUMPDEST PUSH1 0x0 DUP1 DUP4 PUSH20 0xFFFFFFFFFFFFFFFFFFFFFFFFFFFFFFFFFFFFFFFF AND EXTCODESIZE EQ ISZERO PUSH2 0x2797 JUMPI PUSH1 0x0 SWAP1 POP PUSH2 0x2836 JUMP JUMPDEST PUSH1 0x60 DUP4 PUSH20 0xFFFFFFFFFFFFFFFFFFFFFFFFFFFFFFFFFFFFFFFF AND DUP4 PUSH1 0x40 MLOAD PUSH2 0x27BE SWAP2 SWAP1 PUSH2 0x3066 JUMP JUMPDEST PUSH1 0x0 PUSH1 0x40 MLOAD DUP1 DUP4 SUB DUP2 PUSH1 0x0 DUP7 GAS CALL SWAP2 POP POP RETURNDATASIZE DUP1 PUSH1 0x0 DUP2 EQ PUSH2 0x27FB JUMPI PUSH1 0x40 MLOAD SWAP2 POP PUSH1 0x1F NOT PUSH1 0x3F RETURNDATASIZE ADD AND DUP3 ADD PUSH1 0x40 MSTORE RETURNDATASIZE DUP3 MSTORE RETURNDATASIZE PUSH1 0x0 PUSH1 0x20 DUP5 ADD RETURNDATACOPY PUSH2 0x2800 JUMP JUMPDEST PUSH1 0x60 SWAP2 POP JUMPDEST POP DUP1 SWAP3 POP DUP2 SWAP4 POP POP POP DUP2 DUP1 ISZERO PUSH2 0x2832 JUMPI POP PUSH1 0x0 DUP2 MLOAD EQ DUP1 PUSH2 0x2831 JUMPI POP DUP1 DUP1 PUSH1 0x20 ADD SWAP1 MLOAD DUP2 ADD SWAP1 PUSH2 0x2830 SWAP2 SWAP1 PUSH2 0x2A5C JUMP JUMPDEST JUMPDEST JUMPDEST SWAP2 POP POP JUMPDEST SWAP3 SWAP2 POP POP JUMP JUMPDEST PUSH1 0x0 DUP2 CALLDATALOAD SWAP1 POP PUSH2 0x284B DUP2 PUSH2 0x3B70 JUMP JUMPDEST SWAP3 SWAP2 POP POP JUMP JUMPDEST PUSH1 0x0 DUP2 MLOAD SWAP1 POP PUSH2 0x2860 DUP2 PUSH2 0x3B87 JUMP JUMPDEST SWAP3 SWAP2 POP POP JUMP JUMPDEST PUSH1 0x0 DUP2 CALLDATALOAD SWAP1 POP PUSH2 0x2875 DUP2 PUSH2 0x3B9E JUMP JUMPDEST SWAP3 SWAP2 POP POP JUMP JUMPDEST PUSH1 0x0 DUP2 CALLDATALOAD SWAP1 POP PUSH2 0x288A DUP2 PUSH2 0x3BB5 JUMP JUMPDEST SWAP3 SWAP2 POP POP JUMP JUMPDEST PUSH1 0x0 DUP2 MLOAD SWAP1 POP PUSH2 0x289F DUP2 PUSH2 0x3BB5 JUMP JUMPDEST SWAP3 SWAP2 POP POP JUMP JUMPDEST PUSH1 0x0 DUP2 CALLDATALOAD SWAP1 POP PUSH2 0x28B4 DUP2 PUSH2 0x3BCC JUMP JUMPDEST SWAP3 SWAP2 POP POP JUMP JUMPDEST PUSH1 0x0 PUSH1 0x20 DUP3 DUP5 SUB SLT ISZERO PUSH2 0x28D0 JUMPI PUSH2 0x28CF PUSH2 0x3878 JUMP JUMPDEST JUMPDEST PUSH1 0x0 PUSH2 0x28DE DUP5 DUP3 DUP6 ADD PUSH2 0x283C JUMP JUMPDEST SWAP2 POP POP SWAP3 SWAP2 POP POP JUMP JUMPDEST PUSH1 0x0 DUP1 PUSH1 0x40 DUP4 DUP6 SUB SLT ISZERO PUSH2 0x28FE JUMPI PUSH2 0x28FD PUSH2 0x3878 JUMP JUMPDEST JUMPDEST PUSH1 0x0 PUSH2 0x290C DUP6 DUP3 DUP7 ADD PUSH2 0x283C JUMP JUMPDEST SWAP3 POP POP PUSH1 0x20 PUSH2 0x291D DUP6 DUP3 DUP7 ADD PUSH2 0x283C JUMP JUMPDEST SWAP2 POP POP SWAP3 POP SWAP3 SWAP1 POP JUMP JUMPDEST PUSH1 0x0 DUP1 PUSH1 0x0 PUSH1 0x60 DUP5 DUP7 SUB SLT ISZERO PUSH2 0x2940 JUMPI PUSH2 0x293F PUSH2 0x3878 JUMP JUMPDEST JUMPDEST PUSH1 0x0 PUSH2 0x294E DUP7 DUP3 DUP8 ADD PUSH2 0x283C JUMP JUMPDEST SWAP4 POP POP PUSH1 0x20 PUSH2 0x295F DUP7 DUP3 DUP8 ADD PUSH2 0x283C JUMP JUMPDEST SWAP3 POP POP PUSH1 0x40 PUSH2 0x2970 DUP7 DUP3 DUP8 ADD PUSH2 0x287B JUMP JUMPDEST SWAP2 POP POP SWAP3 POP SWAP3 POP SWAP3 JUMP JUMPDEST PUSH1 0x0 DUP1 PUSH1 0x0 DUP1 PUSH1 0x0 DUP1 PUSH1 0x0 PUSH1 0xE0 DUP9 DUP11 SUB SLT ISZERO PUSH2 0x2999 JUMPI PUSH2 0x2998 PUSH2 0x3878 JUMP JUMPDEST JUMPDEST PUSH1 0x0 PUSH2 0x29A7 DUP11 DUP3 DUP12 ADD PUSH2 0x283C JUMP JUMPDEST SWAP8 POP POP PUSH1 0x20 PUSH2 0x29B8 DUP11 DUP3 DUP12 ADD PUSH2 0x283C JUMP JUMPDEST SWAP7 POP POP PUSH1 0x40 PUSH2 0x29C9 DUP11 DUP3 DUP12 ADD PUSH2 0x287B JUMP JUMPDEST SWAP6 POP POP PUSH1 0x60 PUSH2 0x29DA DUP11 DUP3 DUP12 ADD PUSH2 0x287B JUMP JUMPDEST SWAP5 POP POP PUSH1 0x80 PUSH2 0x29EB DUP11 DUP3 DUP12 ADD PUSH2 0x28A5 JUMP JUMPDEST SWAP4 POP POP PUSH1 0xA0 PUSH2 0x29FC DUP11 DUP3 DUP12 ADD PUSH2 0x2866 JUMP JUMPDEST SWAP3 POP POP PUSH1 0xC0 PUSH2 0x2A0D DUP11 DUP3 DUP12 ADD PUSH2 0x2866 JUMP JUMPDEST SWAP2 POP POP SWAP3 SWAP6 SWAP9 SWAP2 SWAP5 SWAP8 POP SWAP3 SWAP6 POP JUMP JUMPDEST PUSH1 0x0 DUP1 PUSH1 0x40 DUP4 DUP6 SUB SLT ISZERO PUSH2 0x2A33 JUMPI PUSH2 0x2A32 PUSH2 0x3878 JUMP JUMPDEST JUMPDEST PUSH1 0x0 PUSH2 0x2A41 DUP6 DUP3 DUP7 ADD PUSH2 0x283C JUMP JUMPDEST SWAP3 POP POP PUSH1 0x20 PUSH2 0x2A52 DUP6 DUP3 DUP7 ADD PUSH2 0x287B JUMP JUMPDEST SWAP2 POP POP SWAP3 POP SWAP3 SWAP1 POP JUMP JUMPDEST PUSH1 0x0 PUSH1 0x20 DUP3 DUP5 SUB SLT ISZERO PUSH2 0x2A72 JUMPI PUSH2 0x2A71 PUSH2 0x3878 JUMP JUMPDEST JUMPDEST PUSH1 0x0 PUSH2 0x2A80 DUP5 DUP3 DUP6 ADD PUSH2 0x2851 JUMP JUMPDEST SWAP2 POP POP SWAP3 SWAP2 POP POP JUMP JUMPDEST PUSH1 0x0 PUSH1 0x20 DUP3 DUP5 SUB SLT ISZERO PUSH2 0x2A9F JUMPI PUSH2 0x2A9E PUSH2 0x3878 JUMP JUMPDEST JUMPDEST PUSH1 0x0 PUSH2 0x2AAD DUP5 DUP3 DUP6 ADD PUSH2 0x287B JUMP JUMPDEST SWAP2 POP POP SWAP3 SWAP2 POP POP JUMP JUMPDEST PUSH1 0x0 PUSH1 0x20 DUP3 DUP5 SUB SLT ISZERO PUSH2 0x2ACC JUMPI PUSH2 0x2ACB PUSH2 0x3878 JUMP JUMPDEST JUMPDEST PUSH1 0x0 PUSH2 0x2ADA DUP5 DUP3 DUP6 ADD PUSH2 0x2890 JUMP JUMPDEST SWAP2 POP POP SWAP3 SWAP2 POP POP JUMP JUMPDEST PUSH1 0x0 DUP1 PUSH1 0x40 DUP4 DUP6 SUB SLT ISZERO PUSH2 0x2AFA JUMPI PUSH2 0x2AF9 PUSH2 0x3878 JUMP JUMPDEST JUMPDEST PUSH1 0x0 PUSH2 0x2B08 DUP6 DUP3 DUP7 ADD PUSH2 0x287B JUMP JUMPDEST SWAP3 POP POP PUSH1 0x20 PUSH2 0x2B19 DUP6 DUP3 DUP7 ADD PUSH2 0x283C JUMP JUMPDEST SWAP2 POP POP SWAP3 POP SWAP3 SWAP1 POP JUMP JUMPDEST PUSH1 0x0 DUP1 PUSH1 0x0 PUSH1 0x60 DUP5 DUP7 SUB SLT ISZERO PUSH2 0x2B3C JUMPI PUSH2 0x2B3B PUSH2 0x3878 JUMP JUMPDEST JUMPDEST PUSH1 0x0 PUSH2 0x2B4A DUP7 DUP3 DUP8 ADD PUSH2 0x287B JUMP JUMPDEST SWAP4 POP POP PUSH1 0x20 PUSH2 0x2B5B DUP7 DUP3 DUP8 ADD PUSH2 0x283C JUMP JUMPDEST SWAP3 POP POP PUSH1 0x40 PUSH2 0x2B6C DUP7 DUP3 DUP8 ADD PUSH2 0x283C JUMP JUMPDEST SWAP2 POP POP SWAP3 POP SWAP3 POP SWAP3 JUMP JUMPDEST PUSH1 0x0 DUP1 PUSH1 0x0 DUP1 PUSH1 0x0 DUP1 PUSH1 0x0 PUSH1 0xE0 DUP9 DUP11 SUB SLT ISZERO PUSH2 0x2B95 JUMPI PUSH2 0x2B94 PUSH2 0x3878 JUMP JUMPDEST JUMPDEST PUSH1 0x0 PUSH2 0x2BA3 DUP11 DUP3 DUP12 ADD PUSH2 0x287B JUMP JUMPDEST SWAP8 POP POP PUSH1 0x20 PUSH2 0x2BB4 DUP11 DUP3 DUP12 ADD PUSH2 0x283C JUMP JUMPDEST SWAP7 POP POP PUSH1 0x40 PUSH2 0x2BC5 DUP11 DUP3 DUP12 ADD PUSH2 0x287B JUMP JUMPDEST SWAP6 POP POP PUSH1 0x60 PUSH2 0x2BD6 DUP11 DUP3 DUP12 ADD PUSH2 0x287B JUMP JUMPDEST SWAP5 POP POP PUSH1 0x80 PUSH2 0x2BE7 DUP11 DUP3 DUP12 ADD PUSH2 0x28A5 JUMP JUMPDEST SWAP4 POP POP PUSH1 0xA0 PUSH2 0x2BF8 DUP11 DUP3 DUP12 ADD PUSH2 0x2866 JUMP JUMPDEST SWAP3 POP POP PUSH1 0xC0 PUSH2 0x2C09 DUP11 DUP3 DUP12 ADD PUSH2 0x2866 JUMP JUMPDEST SWAP2 POP POP SWAP3 SWAP6 SWAP9 SWAP2 SWAP5 SWAP8 POP SWAP3 SWAP6 POP JUMP JUMPDEST PUSH1 0x0 DUP1 PUSH1 0x0 DUP1 PUSH1 0x0 DUP1 PUSH1 0xC0 DUP8 DUP10 SUB SLT ISZERO PUSH2 0x2C35 JUMPI PUSH2 0x2C34 PUSH2 0x3878 JUMP JUMPDEST JUMPDEST PUSH1 0x0 PUSH2 0x2C43 DUP10 DUP3 DUP11 ADD PUSH2 0x287B JUMP JUMPDEST SWAP7 POP POP PUSH1 0x20 PUSH2 0x2C54 DUP10 DUP3 DUP11 ADD PUSH2 0x283C JUMP JUMPDEST SWAP6 POP POP PUSH1 0x40 PUSH2 0x2C65 DUP10 DUP3 DUP11 ADD PUSH2 0x287B JUMP JUMPDEST SWAP5 POP POP PUSH1 0x60 PUSH2 0x2C76 DUP10 DUP3 DUP11 ADD PUSH2 0x28A5 JUMP JUMPDEST SWAP4 POP POP PUSH1 0x80 PUSH2 0x2C87 DUP10 DUP3 DUP11 ADD PUSH2 0x2866 JUMP JUMPDEST SWAP3 POP POP PUSH1 0xA0 PUSH2 0x2C98 DUP10 DUP3 DUP11 ADD PUSH2 0x2866 JUMP JUMPDEST SWAP2 POP POP SWAP3 SWAP6 POP SWAP3 SWAP6 POP SWAP3 SWAP6 JUMP JUMPDEST PUSH2 0x2CAE DUP2 PUSH2 0x36EC JUMP JUMPDEST DUP3 MSTORE POP POP JUMP JUMPDEST PUSH2 0x2CBD DUP2 PUSH2 0x36FE JUMP JUMPDEST DUP3 MSTORE POP POP JUMP JUMPDEST PUSH2 0x2CCC DUP2 PUSH2 0x370A JUMP JUMPDEST DUP3 MSTORE POP POP JUMP JUMPDEST PUSH2 0x2CE3 PUSH2 0x2CDE DUP3 PUSH2 0x370A JUMP JUMPDEST PUSH2 0x37B0 JUMP JUMPDEST DUP3 MSTORE POP POP JUMP JUMPDEST PUSH1 0x0 PUSH2 0x2CF4 DUP3 PUSH2 0x359A JUMP JUMPDEST PUSH2 0x2CFE DUP2 DUP6 PUSH2 0x35B0 JUMP JUMPDEST SWAP4 POP PUSH2 0x2D0E DUP2 DUP6 PUSH1 0x20 DUP7 ADD PUSH2 0x374B JUMP JUMPDEST DUP1 DUP5 ADD SWAP2 POP POP SWAP3 SWAP2 POP POP JUMP JUMPDEST PUSH1 0x0 DUP2 SLOAD PUSH2 0x2D27 DUP2 PUSH2 0x377E JUMP JUMPDEST PUSH2 0x2D31 DUP2 DUP7 PUSH2 0x35B0 JUMP JUMPDEST SWAP5 POP PUSH1 0x1 DUP3 AND PUSH1 0x0 DUP2 EQ PUSH2 0x2D4C JUMPI PUSH1 0x1 DUP2 EQ PUSH2 0x2D5D JUMPI PUSH2 0x2D90 JUMP JUMPDEST PUSH1 0xFF NOT DUP4 AND DUP7 MSTORE DUP2 DUP7 ADD SWAP4 POP PUSH2 0x2D90 JUMP JUMPDEST PUSH2 0x2D66 DUP6 PUSH2 0x3585 JUMP JUMPDEST PUSH1 0x0 JUMPDEST DUP4 DUP2 LT ISZERO PUSH2 0x2D88 JUMPI DUP2 SLOAD DUP2 DUP10 ADD MSTORE PUSH1 0x1 DUP3 ADD SWAP2 POP PUSH1 0x20 DUP2 ADD SWAP1 POP PUSH2 0x2D69 JUMP JUMPDEST DUP4 DUP9 ADD SWAP6 POP POP POP JUMPDEST POP POP POP SWAP3 SWAP2 POP POP JUMP JUMPDEST PUSH1 0x0 PUSH2 0x2DA4 DUP3 PUSH2 0x35A5 JUMP JUMPDEST PUSH2 0x2DAE DUP2 DUP6 PUSH2 0x35BB JUMP JUMPDEST SWAP4 POP PUSH2 0x2DBE DUP2 DUP6 PUSH1 0x20 DUP7 ADD PUSH2 0x374B JUMP JUMPDEST PUSH2 0x2DC7 DUP2 PUSH2 0x387D JUMP JUMPDEST DUP5 ADD SWAP2 POP POP SWAP3 SWAP2 POP POP JUMP JUMPDEST PUSH1 0x0 PUSH2 0x2DDF PUSH1 0x11 DUP4 PUSH2 0x35BB JUMP JUMPDEST SWAP2 POP PUSH2 0x2DEA DUP3 PUSH2 0x388E JUMP JUMPDEST PUSH1 0x20 DUP3 ADD SWAP1 POP SWAP2 SWAP1 POP JUMP JUMPDEST PUSH1 0x0 PUSH2 0x2E02 PUSH1 0x13 DUP4 PUSH2 0x35BB JUMP JUMPDEST SWAP2 POP PUSH2 0x2E0D DUP3 PUSH2 0x38B7 JUMP JUMPDEST PUSH1 0x20 DUP3 ADD SWAP1 POP SWAP2 SWAP1 POP JUMP JUMPDEST PUSH1 0x0 PUSH2 0x2E25 PUSH1 0xE DUP4 PUSH2 0x35BB JUMP JUMPDEST SWAP2 POP PUSH2 0x2E30 DUP3 PUSH2 0x38E0 JUMP JUMPDEST PUSH1 0x20 DUP3 ADD SWAP1 POP SWAP2 SWAP1 POP JUMP JUMPDEST PUSH1 0x0 PUSH2 0x2E48 PUSH1 0x11 DUP4 PUSH2 0x35BB JUMP JUMPDEST SWAP2 POP PUSH2 0x2E53 DUP3 PUSH2 0x3909 JUMP JUMPDEST PUSH1 0x20 DUP3 ADD SWAP1 POP SWAP2 SWAP1 POP JUMP JUMPDEST PUSH1 0x0 PUSH2 0x2E6B PUSH1 0x2 DUP4 PUSH2 0x35CC JUMP JUMPDEST SWAP2 POP PUSH2 0x2E76 DUP3 PUSH2 0x3932 JUMP JUMPDEST PUSH1 0x2 DUP3 ADD SWAP1 POP SWAP2 SWAP1 POP JUMP JUMPDEST PUSH1 0x0 PUSH2 0x2E8E PUSH1 0x11 DUP4 PUSH2 0x35BB JUMP JUMPDEST SWAP2 POP PUSH2 0x2E99 DUP3 PUSH2 0x395B JUMP JUMPDEST PUSH1 0x20 DUP3 ADD SWAP1 POP SWAP2 SWAP1 POP JUMP JUMPDEST PUSH1 0x0 PUSH2 0x2EB1 PUSH1 0x13 DUP4 PUSH2 0x35BB JUMP JUMPDEST SWAP2 POP PUSH2 0x2EBC DUP3 PUSH2 0x3984 JUMP JUMPDEST PUSH1 0x20 DUP3 ADD SWAP1 POP SWAP2 SWAP1 POP JUMP JUMPDEST PUSH1 0x0 PUSH2 0x2ED4 PUSH1 0x19 DUP4 PUSH2 0x35BB JUMP JUMPDEST SWAP2 POP PUSH2 0x2EDF DUP3 PUSH2 0x39AD JUMP JUMPDEST PUSH1 0x20 DUP3 ADD SWAP1 POP SWAP2 SWAP1 POP JUMP JUMPDEST PUSH1 0x0 PUSH2 0x2EF7 PUSH1 0x13 DUP4 PUSH2 0x35BB JUMP JUMPDEST SWAP2 POP PUSH2 0x2F02 DUP3 PUSH2 0x39D6 JUMP JUMPDEST PUSH1 0x20 DUP3 ADD SWAP1 POP SWAP2 SWAP1 POP JUMP JUMPDEST PUSH1 0x0 PUSH2 0x2F1A PUSH1 0xA DUP4 PUSH2 0x35BB JUMP JUMPDEST SWAP2 POP PUSH2 0x2F25 DUP3 PUSH2 0x39FF JUMP JUMPDEST PUSH1 0x20 DUP3 ADD SWAP1 POP SWAP2 SWAP1 POP JUMP JUMPDEST PUSH1 0x0 PUSH2 0x2F3D PUSH1 0x13 DUP4 PUSH2 0x35BB JUMP JUMPDEST SWAP2 POP PUSH2 0x2F48 DUP3 PUSH2 0x3A28 JUMP JUMPDEST PUSH1 0x20 DUP3 ADD SWAP1 POP SWAP2 SWAP1 POP JUMP JUMPDEST PUSH1 0x0 PUSH2 0x2F60 PUSH1 0xD DUP4 PUSH2 0x35BB JUMP JUMPDEST SWAP2 POP PUSH2 0x2F6B DUP3 PUSH2 0x3A51 JUMP JUMPDEST PUSH1 0x20 DUP3 ADD SWAP1 POP SWAP2 SWAP1 POP JUMP JUMPDEST PUSH1 0x0 PUSH2 0x2F83 PUSH1 0x11 DUP4 PUSH2 0x35BB JUMP JUMPDEST SWAP2 POP PUSH2 0x2F8E DUP3 PUSH2 0x3A7A JUMP JUMPDEST PUSH1 0x20 DUP3 ADD SWAP1 POP SWAP2 SWAP1 POP JUMP JUMPDEST PUSH1 0x0 PUSH2 0x2FA6 PUSH1 0xF DUP4 PUSH2 0x35BB JUMP JUMPDEST SWAP2 POP PUSH2 0x2FB1 DUP3 PUSH2 0x3AA3 JUMP JUMPDEST PUSH1 0x20 DUP3 ADD SWAP1 POP SWAP2 SWAP1 POP JUMP JUMPDEST PUSH1 0x0 PUSH2 0x2FC9 PUSH1 0x11 DUP4 PUSH2 0x35BB JUMP JUMPDEST SWAP2 POP PUSH2 0x2FD4 DUP3 PUSH2 0x3ACC JUMP JUMPDEST PUSH1 0x20 DUP3 ADD SWAP1 POP SWAP2 SWAP1 POP JUMP JUMPDEST PUSH1 0x0 PUSH2 0x2FEC PUSH1 0x11 DUP4 PUSH2 0x35BB JUMP JUMPDEST SWAP2 POP PUSH2 0x2FF7 DUP3 PUSH2 0x3AF5 JUMP JUMPDEST PUSH1 0x20 DUP3 ADD SWAP1 POP SWAP2 SWAP1 POP JUMP JUMPDEST PUSH1 0x0 PUSH2 0x300F PUSH1 0x11 DUP4 PUSH2 0x35BB JUMP JUMPDEST SWAP2 POP PUSH2 0x301A DUP3 PUSH2 0x3B1E JUMP JUMPDEST PUSH1 0x20 DUP3 ADD SWAP1 POP SWAP2 SWAP1 POP JUMP JUMPDEST PUSH1 0x0 PUSH2 0x3032 PUSH1 0x1B DUP4 PUSH2 0x35BB JUMP JUMPDEST SWAP2 POP PUSH2 0x303D DUP3 PUSH2 0x3B47 JUMP JUMPDEST PUSH1 0x20 DUP3 ADD SWAP1 POP SWAP2 SWAP1 POP JUMP JUMPDEST PUSH2 0x3051 DUP2 PUSH2 0x3734 JUMP JUMPDEST DUP3 MSTORE POP POP JUMP JUMPDEST PUSH2 0x3060 DUP2 PUSH2 0x373E JUMP JUMPDEST DUP3 MSTORE POP POP JUMP JUMPDEST PUSH1 0x0 PUSH2 0x3072 DUP3 DUP5 PUSH2 0x2CE9 JUMP JUMPDEST SWAP2 POP DUP2 SWAP1 POP SWAP3 SWAP2 POP POP JUMP JUMPDEST PUSH1 0x0 PUSH2 0x3089 DUP3 DUP5 PUSH2 0x2D1A JUMP JUMPDEST SWAP2 POP DUP2 SWAP1 POP SWAP3 SWAP2 POP POP JUMP JUMPDEST PUSH1 0x0 PUSH2 0x309F DUP3 PUSH2 0x2E5E JUMP JUMPDEST SWAP2 POP PUSH2 0x30AB DUP3 DUP6 PUSH2 0x2CD2 JUMP JUMPDEST PUSH1 0x20 DUP3 ADD SWAP2 POP PUSH2 0x30BB DUP3 DUP5 PUSH2 0x2CD2 JUMP JUMPDEST PUSH1 0x20 DUP3 ADD SWAP2 POP DUP2 SWAP1 POP SWAP4 SWAP3 POP POP POP JUMP JUMPDEST PUSH1 0x0 PUSH1 0x20 DUP3 ADD SWAP1 POP PUSH2 0x30E0 PUSH1 0x0 DUP4 ADD DUP5 PUSH2 0x2CA5 JUMP JUMPDEST SWAP3 SWAP2 POP POP JUMP JUMPDEST PUSH1 0x0 PUSH1 0x60 DUP3 ADD SWAP1 POP PUSH2 0x30FB PUSH1 0x0 DUP4 ADD DUP7 PUSH2 0x2CA5 JUMP JUMPDEST PUSH2 0x3108 PUSH1 0x20 DUP4 ADD DUP6 PUSH2 0x2CA5 JUMP JUMPDEST PUSH2 0x3115 PUSH1 0x40 DUP4 ADD DUP5 PUSH2 0x3048 JUMP JUMPDEST SWAP5 SWAP4 POP POP POP POP JUMP JUMPDEST PUSH1 0x0 PUSH1 0xE0 DUP3 ADD SWAP1 POP PUSH2 0x3132 PUSH1 0x0 DUP4 ADD DUP11 PUSH2 0x2CA5 JUMP JUMPDEST PUSH2 0x313F PUSH1 0x20 DUP4 ADD DUP10 PUSH2 0x2CA5 JUMP JUMPDEST PUSH2 0x314C PUSH1 0x40 DUP4 ADD DUP9 PUSH2 0x3048 JUMP JUMPDEST PUSH2 0x3159 PUSH1 0x60 DUP4 ADD DUP8 PUSH2 0x3048 JUMP JUMPDEST PUSH2 0x3166 PUSH1 0x80 DUP4 ADD DUP7 PUSH2 0x3057 JUMP JUMPDEST PUSH2 0x3173 PUSH1 0xA0 DUP4 ADD DUP6 PUSH2 0x2CC3 JUMP JUMPDEST PUSH2 0x3180 PUSH1 0xC0 DUP4 ADD DUP5 PUSH2 0x2CC3 JUMP JUMPDEST SWAP9 SWAP8 POP POP POP POP POP POP POP POP JUMP JUMPDEST PUSH1 0x0 PUSH1 0x40 DUP3 ADD SWAP1 POP PUSH2 0x31A1 PUSH1 0x0 DUP4 ADD DUP6 PUSH2 0x2CA5 JUMP JUMPDEST PUSH2 0x31AE PUSH1 0x20 DUP4 ADD DUP5 PUSH2 0x3048 JUMP JUMPDEST SWAP4 SWAP3 POP POP POP JUMP JUMPDEST PUSH1 0x0 PUSH1 0x20 DUP3 ADD SWAP1 POP PUSH2 0x31CA PUSH1 0x0 DUP4 ADD DUP5 PUSH2 0x2CB4 JUMP JUMPDEST SWAP3 SWAP2 POP POP JUMP JUMPDEST PUSH1 0x0 PUSH1 0x20 DUP3 ADD SWAP1 POP PUSH2 0x31E5 PUSH1 0x0 DUP4 ADD DUP5 PUSH2 0x2CC3 JUMP JUMPDEST SWAP3 SWAP2 POP POP JUMP JUMPDEST PUSH1 0x0 PUSH1 0xC0 DUP3 ADD SWAP1 POP PUSH2 0x3200 PUSH1 0x0 DUP4 ADD DUP10 PUSH2 0x2CC3 JUMP JUMPDEST PUSH2 0x320D PUSH1 0x20 DUP4 ADD DUP9 PUSH2 0x2CA5 JUMP JUMPDEST PUSH2 0x321A PUSH1 0x40 DUP4 ADD DUP8 PUSH2 0x2CA5 JUMP JUMPDEST PUSH2 0x3227 PUSH1 0x60 DUP4 ADD DUP7 PUSH2 0x3048 JUMP JUMPDEST PUSH2 0x3234 PUSH1 0x80 DUP4 ADD DUP6 PUSH2 0x3048 JUMP JUMPDEST PUSH2 0x3241 PUSH1 0xA0 DUP4 ADD DUP5 PUSH2 0x3048 JUMP JUMPDEST SWAP8 SWAP7 POP POP POP POP POP POP POP JUMP JUMPDEST PUSH1 0x0 PUSH1 0xA0 DUP3 ADD SWAP1 POP PUSH2 0x3261 PUSH1 0x0 DUP4 ADD DUP9 PUSH2 0x2CC3 JUMP JUMPDEST PUSH2 0x326E PUSH1 0x20 DUP4 ADD DUP8 PUSH2 0x2CC3 JUMP JUMPDEST PUSH2 0x327B PUSH1 0x40 DUP4 ADD DUP7 PUSH2 0x2CC3 JUMP JUMPDEST PUSH2 0x3288 PUSH1 0x60 DUP4 ADD DUP6 PUSH2 0x3048 JUMP JUMPDEST PUSH2 0x3295 PUSH1 0x80 DUP4 ADD DUP5 PUSH2 0x2CA5 JUMP JUMPDEST SWAP7 SWAP6 POP POP POP POP POP POP JUMP JUMPDEST PUSH1 0x0 PUSH1 0x80 DUP3 ADD SWAP1 POP PUSH2 0x32B4 PUSH1 0x0 DUP4 ADD DUP8 PUSH2 0x2CC3 JUMP JUMPDEST PUSH2 0x32C1 PUSH1 0x20 DUP4 ADD DUP7 PUSH2 0x3057 JUMP JUMPDEST PUSH2 0x32CE PUSH1 0x40 DUP4 ADD DUP6 PUSH2 0x2CC3 JUMP JUMPDEST PUSH2 0x32DB PUSH1 0x60 DUP4 ADD DUP5 PUSH2 0x2CC3 JUMP JUMPDEST SWAP6 SWAP5 POP POP POP POP POP JUMP JUMPDEST PUSH1 0x0 PUSH1 0x20 DUP3 ADD SWAP1 POP DUP2 DUP2 SUB PUSH1 0x0 DUP4 ADD MSTORE PUSH2 0x32FE DUP2 DUP5 PUSH2 0x2D99 JUMP JUMPDEST SWAP1 POP SWAP3 SWAP2 POP POP JUMP JUMPDEST PUSH1 0x0 PUSH1 0x20 DUP3 ADD SWAP1 POP DUP2 DUP2 SUB PUSH1 0x0 DUP4 ADD MSTORE PUSH2 0x331F DUP2 PUSH2 0x2DD2 JUMP JUMPDEST SWAP1 POP SWAP2 SWAP1 POP JUMP JUMPDEST PUSH1 0x0 PUSH1 0x20 DUP3 ADD SWAP1 POP DUP2 DUP2 SUB PUSH1 0x0 DUP4 ADD MSTORE PUSH2 0x333F DUP2 PUSH2 0x2DF5 JUMP JUMPDEST SWAP1 POP SWAP2 SWAP1 POP JUMP JUMPDEST PUSH1 0x0 PUSH1 0x20 DUP3 ADD SWAP1 POP DUP2 DUP2 SUB PUSH1 0x0 DUP4 ADD MSTORE PUSH2 0x335F DUP2 PUSH2 0x2E18 JUMP JUMPDEST SWAP1 POP SWAP2 SWAP1 POP JUMP JUMPDEST PUSH1 0x0 PUSH1 0x20 DUP3 ADD SWAP1 POP DUP2 DUP2 SUB PUSH1 0x0 DUP4 ADD MSTORE PUSH2 0x337F DUP2 PUSH2 0x2E3B JUMP JUMPDEST SWAP1 POP SWAP2 SWAP1 POP JUMP JUMPDEST PUSH1 0x0 PUSH1 0x20 DUP3 ADD SWAP1 POP DUP2 DUP2 SUB PUSH1 0x0 DUP4 ADD MSTORE PUSH2 0x339F DUP2 PUSH2 0x2E81 JUMP JUMPDEST SWAP1 POP SWAP2 SWAP1 POP JUMP JUMPDEST PUSH1 0x0 PUSH1 0x20 DUP3 ADD SWAP1 POP DUP2 DUP2 SUB PUSH1 0x0 DUP4 ADD MSTORE PUSH2 0x33BF DUP2 PUSH2 0x2EA4 JUMP JUMPDEST SWAP1 POP SWAP2 SWAP1 POP JUMP JUMPDEST PUSH1 0x0 PUSH1 0x20 DUP3 ADD SWAP1 POP DUP2 DUP2 SUB PUSH1 0x0 DUP4 ADD MSTORE PUSH2 0x33DF DUP2 PUSH2 0x2EC7 JUMP JUMPDEST SWAP1 POP SWAP2 SWAP1 POP JUMP JUMPDEST PUSH1 0x0 PUSH1 0x20 DUP3 ADD SWAP1 POP DUP2 DUP2 SUB PUSH1 0x0 DUP4 ADD MSTORE PUSH2 0x33FF DUP2 PUSH2 0x2EEA JUMP JUMPDEST SWAP1 POP SWAP2 SWAP1 POP JUMP JUMPDEST PUSH1 0x0 PUSH1 0x20 DUP3 ADD SWAP1 POP DUP2 DUP2 SUB PUSH1 0x0 DUP4 ADD MSTORE PUSH2 0x341F DUP2 PUSH2 0x2F0D JUMP JUMPDEST SWAP1 POP SWAP2 SWAP1 POP JUMP JUMPDEST PUSH1 0x0 PUSH1 0x20 DUP3 ADD SWAP1 POP DUP2 DUP2 SUB PUSH1 0x0 DUP4 ADD MSTORE PUSH2 0x343F DUP2 PUSH2 0x2F30 JUMP JUMPDEST SWAP1 POP SWAP2 SWAP1 POP JUMP JUMPDEST PUSH1 0x0 PUSH1 0x20 DUP3 ADD SWAP1 POP DUP2 DUP2 SUB PUSH1 0x0 DUP4 ADD MSTORE PUSH2 0x345F DUP2 PUSH2 0x2F53 JUMP JUMPDEST SWAP1 POP SWAP2 SWAP1 POP JUMP JUMPDEST PUSH1 0x0 PUSH1 0x20 DUP3 ADD SWAP1 POP DUP2 DUP2 SUB PUSH1 0x0 DUP4 ADD MSTORE PUSH2 0x347F DUP2 PUSH2 0x2F76 JUMP JUMPDEST SWAP1 POP SWAP2 SWAP1 POP JUMP JUMPDEST PUSH1 0x0 PUSH1 0x20 DUP3 ADD SWAP1 POP DUP2 DUP2 SUB PUSH1 0x0 DUP4 ADD MSTORE PUSH2 0x349F DUP2 PUSH2 0x2F99 JUMP JUMPDEST SWAP1 POP SWAP2 SWAP1 POP JUMP JUMPDEST PUSH1 0x0 PUSH1 0x20 DUP3 ADD SWAP1 POP DUP2 DUP2 SUB PUSH1 0x0 DUP4 ADD MSTORE PUSH2 0x34BF DUP2 PUSH2 0x2FBC JUMP JUMPDEST SWAP1 POP SWAP2 SWAP1 POP JUMP JUMPDEST PUSH1 0x0 PUSH1 0x20 DUP3 ADD SWAP1 POP DUP2 DUP2 SUB PUSH1 0x0 DUP4 ADD MSTORE PUSH2 0x34DF DUP2 PUSH2 0x2FDF JUMP JUMPDEST SWAP1 POP SWAP2 SWAP1 POP JUMP JUMPDEST PUSH1 0x0 PUSH1 0x20 DUP3 ADD SWAP1 POP DUP2 DUP2 SUB PUSH1 0x0 DUP4 ADD MSTORE PUSH2 0x34FF DUP2 PUSH2 0x3002 JUMP JUMPDEST SWAP1 POP SWAP2 SWAP1 POP JUMP JUMPDEST PUSH1 0x0 PUSH1 0x20 DUP3 ADD SWAP1 POP DUP2 DUP2 SUB PUSH1 0x0 DUP4 ADD MSTORE PUSH2 0x351F DUP2 PUSH2 0x3025 JUMP JUMPDEST SWAP1 POP SWAP2 SWAP1 POP JUMP JUMPDEST PUSH1 0x0 PUSH1 0x20 DUP3 ADD SWAP1 POP PUSH2 0x353B PUSH1 0x0 DUP4 ADD DUP5 PUSH2 0x3048 JUMP JUMPDEST SWAP3 SWAP2 POP POP JUMP JUMPDEST PUSH1 0x0 PUSH1 0x40 DUP3 ADD SWAP1 POP PUSH2 0x3556 PUSH1 0x0 DUP4 ADD DUP6 PUSH2 0x3048 JUMP JUMPDEST PUSH2 0x3563 PUSH1 0x20 DUP4 ADD DUP5 PUSH2 0x3048 JUMP JUMPDEST SWAP4 SWAP3 POP POP POP JUMP JUMPDEST PUSH1 0x0 PUSH1 0x20 DUP3 ADD SWAP1 POP PUSH2 0x357F PUSH1 0x0 DUP4 ADD DUP5 PUSH2 0x3057 JUMP JUMPDEST SWAP3 SWAP2 POP POP JUMP JUMPDEST PUSH1 0x0 DUP2 SWAP1 POP DUP2 PUSH1 0x0 MSTORE PUSH1 0x20 PUSH1 0x0 KECCAK256 SWAP1 POP SWAP2 SWAP1 POP JUMP JUMPDEST PUSH1 0x0 DUP2 MLOAD SWAP1 POP SWAP2 SWAP1 POP JUMP JUMPDEST PUSH1 0x0 DUP2 MLOAD SWAP1 POP SWAP2 SWAP1 POP JUMP JUMPDEST PUSH1 0x0 DUP2 SWAP1 POP SWAP3 SWAP2 POP POP JUMP JUMPDEST PUSH1 0x0 DUP3 DUP3 MSTORE PUSH1 0x20 DUP3 ADD SWAP1 POP SWAP3 SWAP2 POP POP JUMP JUMPDEST PUSH1 0x0 DUP2 SWAP1 POP SWAP3 SWAP2 POP POP JUMP JUMPDEST PUSH1 0x0 PUSH2 0x35E2 DUP3 PUSH2 0x3734 JUMP JUMPDEST SWAP2 POP PUSH2 0x35ED DUP4 PUSH2 0x3734 JUMP JUMPDEST SWAP3 POP DUP3 PUSH32 0xFFFFFFFFFFFFFFFFFFFFFFFFFFFFFFFFFFFFFFFFFFFFFFFFFFFFFFFFFFFFFFFF SUB DUP3 GT ISZERO PUSH2 0x3622 JUMPI PUSH2 0x3621 PUSH2 0x37EB JUMP JUMPDEST JUMPDEST DUP3 DUP3 ADD SWAP1 POP SWAP3 SWAP2 POP POP JUMP JUMPDEST PUSH1 0x0 PUSH2 0x3638 DUP3 PUSH2 0x3734 JUMP JUMPDEST SWAP2 POP PUSH2 0x3643 DUP4 PUSH2 0x3734 JUMP JUMPDEST SWAP3 POP DUP3 PUSH2 0x3653 JUMPI PUSH2 0x3652 PUSH2 0x381A JUMP JUMPDEST JUMPDEST DUP3 DUP3 DIV SWAP1 POP SWAP3 SWAP2 POP POP JUMP JUMPDEST PUSH1 0x0 PUSH2 0x3669 DUP3 PUSH2 0x3734 JUMP JUMPDEST SWAP2 POP PUSH2 0x3674 DUP4 PUSH2 0x3734 JUMP JUMPDEST SWAP3 POP DUP2 PUSH32 0xFFFFFFFFFFFFFFFFFFFFFFFFFFFFFFFFFFFFFFFFFFFFFFFFFFFFFFFFFFFFFFFF DIV DUP4 GT DUP3 ISZERO ISZERO AND ISZERO PUSH2 0x36AD JUMPI PUSH2 0x36AC PUSH2 0x37EB JUMP JUMPDEST JUMPDEST DUP3 DUP3 MUL SWAP1 POP SWAP3 SWAP2 POP POP JUMP JUMPDEST PUSH1 0x0 PUSH2 0x36C3 DUP3 PUSH2 0x3734 JUMP JUMPDEST SWAP2 POP PUSH2 0x36CE DUP4 PUSH2 0x3734 JUMP JUMPDEST SWAP3 POP DUP3 DUP3 LT ISZERO PUSH2 0x36E1 JUMPI PUSH2 0x36E0 PUSH2 0x37EB JUMP JUMPDEST JUMPDEST DUP3 DUP3 SUB SWAP1 POP SWAP3 SWAP2 POP POP JUMP JUMPDEST PUSH1 0x0 PUSH2 0x36F7 DUP3 PUSH2 0x3714 JUMP JUMPDEST SWAP1 POP SWAP2 SWAP1 POP JUMP JUMPDEST PUSH1 0x0 DUP2 ISZERO ISZERO SWAP1 POP SWAP2 SWAP1 POP JUMP JUMPDEST PUSH1 0x0 DUP2 SWAP1 POP SWAP2 SWAP1 POP JUMP JUMPDEST PUSH1 0x0 PUSH20 0xFFFFFFFFFFFFFFFFFFFFFFFFFFFFFFFFFFFFFFFF DUP3 AND SWAP1 POP SWAP2 SWAP1 POP JUMP JUMPDEST PUSH1 0x0 DUP2 SWAP1 POP SWAP2 SWAP1 POP JUMP JUMPDEST PUSH1 0x0 PUSH1 0xFF DUP3 AND SWAP1 POP SWAP2 SWAP1 POP JUMP JUMPDEST PUSH1 0x0 JUMPDEST DUP4 DUP2 LT ISZERO PUSH2 0x3769 JUMPI DUP1 DUP3 ADD MLOAD DUP2 DUP5 ADD MSTORE PUSH1 0x20 DUP2 ADD SWAP1 POP PUSH2 0x374E JUMP JUMPDEST DUP4 DUP2 GT ISZERO PUSH2 0x3778 JUMPI PUSH1 0x0 DUP5 DUP5 ADD MSTORE JUMPDEST POP POP POP POP JUMP JUMPDEST PUSH1 0x0 PUSH1 0x2 DUP3 DIV SWAP1 POP PUSH1 0x1 DUP3 AND DUP1 PUSH2 0x3796 JUMPI PUSH1 0x7F DUP3 AND SWAP2 POP JUMPDEST PUSH1 0x20 DUP3 LT DUP2 EQ ISZERO PUSH2 0x37AA JUMPI PUSH2 0x37A9 PUSH2 0x3849 JUMP JUMPDEST JUMPDEST POP SWAP2 SWAP1 POP JUMP JUMPDEST PUSH1 0x0 DUP2 SWAP1 POP SWAP2 SWAP1 POP JUMP JUMPDEST PUSH1 0x0 PUSH2 0x37C5 DUP3 PUSH2 0x3734 JUMP JUMPDEST SWAP2 POP PUSH2 0x37D0 DUP4 PUSH2 0x3734 JUMP JUMPDEST SWAP3 POP DUP3 PUSH2 0x37E0 JUMPI PUSH2 0x37DF PUSH2 0x381A JUMP JUMPDEST JUMPDEST DUP3 DUP3 MOD SWAP1 POP SWAP3 SWAP2 POP POP JUMP JUMPDEST PUSH32 0x4E487B7100000000000000000000000000000000000000000000000000000000 PUSH1 0x0 MSTORE PUSH1 0x11 PUSH1 0x4 MSTORE PUSH1 0x24 PUSH1 0x0 REVERT JUMPDEST PUSH32 0x4E487B7100000000000000000000000000000000000000000000000000000000 PUSH1 0x0 MSTORE PUSH1 0x12 PUSH1 0x4 MSTORE PUSH1 0x24 PUSH1 0x0 REVERT JUMPDEST PUSH32 0x4E487B7100000000000000000000000000000000000000000000000000000000 PUSH1 0x0 MSTORE PUSH1 0x22 PUSH1 0x4 MSTORE PUSH1 0x24 PUSH1 0x0 REVERT JUMPDEST PUSH1 0x0 DUP1 REVERT JUMPDEST PUSH1 0x0 PUSH1 0x1F NOT PUSH1 0x1F DUP4 ADD AND SWAP1 POP SWAP2 SWAP1 POP JUMP JUMPDEST PUSH32 0x5244543A4D3A5A45524F5F534841524553000000000000000000000000000000 PUSH1 0x0 DUP3 ADD MSTORE POP JUMP JUMPDEST PUSH32 0x5244543A5556533A5A45524F5F535550504C5900000000000000000000000000 PUSH1 0x0 DUP3 ADD MSTORE POP JUMP JUMPDEST PUSH32 0x5244543A423A5452414E53464552000000000000000000000000000000000000 PUSH1 0x0 DUP3 ADD MSTORE POP JUMP JUMPDEST PUSH32 0x5244543A4D3A5A45524F5F415353455453000000000000000000000000000000 PUSH1 0x0 DUP3 ADD MSTORE POP JUMP JUMPDEST PUSH32 0x1901000000000000000000000000000000000000000000000000000000000000 PUSH1 0x0 DUP3 ADD MSTORE POP JUMP JUMPDEST PUSH32 0x45524332303A503A4D414C4C4541424C45000000000000000000000000000000 PUSH1 0x0 DUP3 ADD MSTORE POP JUMP JUMPDEST PUSH32 0x5244543A423A5A45524F5F524543454956455200000000000000000000000000 PUSH1 0x0 DUP3 ADD MSTORE POP JUMP JUMPDEST PUSH32 0x45524332303A503A494E56414C49445F5349474E415455524500000000000000 PUSH1 0x0 DUP3 ADD MSTORE POP JUMP JUMPDEST PUSH32 0x5244543A4D3A5A45524F5F524543454956455200000000000000000000000000 PUSH1 0x0 DUP3 ADD MSTORE POP JUMP JUMPDEST PUSH32 0x5244543A4C4F434B454400000000000000000000000000000000000000000000 PUSH1 0x0 DUP3 ADD MSTORE POP JUMP JUMPDEST PUSH32 0x5244543A4D3A5452414E534645525F46524F4D00000000000000000000000000 PUSH1 0x0 DUP3 ADD MSTORE POP JUMP JUMPDEST PUSH32 0x5244543A414F3A4E4F545F504F00000000000000000000000000000000000000 PUSH1 0x0 DUP3 ADD MSTORE POP JUMP JUMPDEST PUSH32 0x5244543A5556533A4E4F545F4F574E4552000000000000000000000000000000 PUSH1 0x0 DUP3 ADD MSTORE POP JUMP JUMPDEST PUSH32 0x45524332303A503A455850495245440000000000000000000000000000000000 PUSH1 0x0 DUP3 ADD MSTORE POP JUMP JUMPDEST PUSH32 0x5244543A423A5A45524F5F415353455453000000000000000000000000000000 PUSH1 0x0 DUP3 ADD MSTORE POP JUMP JUMPDEST PUSH32 0x5244543A53504F3A4E4F545F4F574E4552000000000000000000000000000000 PUSH1 0x0 DUP3 ADD MSTORE POP JUMP JUMPDEST PUSH32 0x5244543A423A5A45524F5F534841524553000000000000000000000000000000 PUSH1 0x0 DUP3 ADD MSTORE POP JUMP JUMPDEST PUSH32 0x5244543A4D57503A494E53554646494349454E545F5045524D49540000000000 PUSH1 0x0 DUP3 ADD MSTORE POP JUMP JUMPDEST PUSH2 0x3B79 DUP2 PUSH2 0x36EC JUMP JUMPDEST DUP2 EQ PUSH2 0x3B84 JUMPI PUSH1 0x0 DUP1 REVERT JUMPDEST POP JUMP JUMPDEST PUSH2 0x3B90 DUP2 PUSH2 0x36FE JUMP JUMPDEST DUP2 EQ PUSH2 0x3B9B JUMPI PUSH1 0x0 DUP1 REVERT JUMPDEST POP JUMP JUMPDEST PUSH2 0x3BA7 DUP2 PUSH2 0x370A JUMP JUMPDEST DUP2 EQ PUSH2 0x3BB2 JUMPI PUSH1 0x0 DUP1 REVERT JUMPDEST POP JUMP JUMPDEST PUSH2 0x3BBE DUP2 PUSH2 0x3734 JUMP JUMPDEST DUP2 EQ PUSH2 0x3BC9 JUMPI PUSH1 0x0 DUP1 REVERT JUMPDEST POP JUMP JUMPDEST PUSH2 0x3BD5 DUP2 PUSH2 0x373E JUMP JUMPDEST DUP2 EQ PUSH2 0x3BE0 JUMPI PUSH1 0x0 DUP1 REVERT JUMPDEST POP JUMP INVALID LOG2 PUSH5 0x6970667358 0x22 SLT KECCAK256 0x25 0xD0 PUSH18 0x1A7CAE9BCA1802A53971CCBC94A326574C83 0xDD 0x2F PUSH23 0xEE4F233D6ED6CFE664736F6C6343000807003300000000 "
		},
		"gasEstimates": {
			"creation": {
				"codeDepositCost": "3077000",
				"executionCost": "infinite",
				"totalCost": "infinite"
			},
			"external": {
				"DOMAIN_SEPARATOR()": "infinite",
				"PERMIT_TYPEHASH()": "469",
				"acceptOwnership()": "54573",
				"allowance(address,address)": "infinite",
				"approve(address,uint256)": "infinite",
				"asset()": "2582",
				"balanceOf(address)": "2969",
				"balanceOfAssets(address)": "infinite",
				"convertToAssets(uint256)": "infinite",
				"convertToShares(uint256)": "infinite",
				"decimals()": "infinite",
				"decreaseAllowance(address,uint256)": "infinite",
				"deposit(uint256,address)": "infinite",
				"depositWithPermit(uint256,address,uint256,uint8,bytes32,bytes32)": "infinite",
				"freeAssets()": "2475",
				"increaseAllowance(address,uint256)": "infinite",
				"issuanceRate()": "2563",
				"lastUpdated()": "2562",
				"maxDeposit(address)": "696",
				"maxMint(address)": "718",
				"maxRedeem(address)": "2907",
				"maxWithdraw(address)": "infinite",
				"mint(uint256,address)": "infinite",
				"mintWithPermit(uint256,address,uint256,uint256,uint8,bytes32,bytes32)": "infinite",
				"name()": "infinite",
				"nonces(address)": "2882",
				"owner()": "2604",
				"pendingOwner()": "2646",
				"permit(address,address,uint256,uint256,uint8,bytes32,bytes32)": "infinite",
				"precision()": "infinite",
				"previewDeposit(uint256)": "infinite",
				"previewMint(uint256)": "infinite",
				"previewRedeem(uint256)": "infinite",
				"previewWithdraw(uint256)": "infinite",
				"redeem(uint256,address,address)": "infinite",
				"setOwner(address)": "24790",
				"setPendingOwner(address)": "28481",
				"symbol()": "infinite",
				"totalAssets()": "infinite",
				"totalSupply()": "2519",
				"transfer(address,uint256)": "infinite",
				"transferFrom(address,address,uint256)": "infinite",
				"updateVestingSchedule(uint256)": "infinite",
				"vestingPeriodFinish()": "2541",
				"withdraw(uint256,address,address)": "infinite"
			}
		},
		"methodIdentifiers": {
			"DOMAIN_SEPARATOR()": "3644e515",
			"PERMIT_TYPEHASH()": "30adf81f",
			"acceptOwnership()": "79ba5097",
			"allowance(address,address)": "dd62ed3e",
			"approve(address,uint256)": "095ea7b3",
			"asset()": "38d52e0f",
			"balanceOf(address)": "70a08231",
			"balanceOfAssets(address)": "9159b206",
			"convertToAssets(uint256)": "07a2d13a",
			"convertToShares(uint256)": "c6e6f592",
			"decimals()": "313ce567",
			"decreaseAllowance(address,uint256)": "a457c2d7",
			"deposit(uint256,address)": "6e553f65",
			"depositWithPermit(uint256,address,uint256,uint8,bytes32,bytes32)": "50921b23",
			"freeAssets()": "11f240ac",
			"increaseAllowance(address,uint256)": "39509351",
			"issuanceRate()": "3c9ae2ba",
			"lastUpdated()": "d0b06f5d",
			"maxDeposit(address)": "402d267d",
			"maxMint(address)": "c63d75b6",
			"maxRedeem(address)": "d905777e",
			"maxWithdraw(address)": "ce96cb77",
			"mint(uint256,address)": "94bf804d",
			"mintWithPermit(uint256,address,uint256,uint256,uint8,bytes32,bytes32)": "60dd37d9",
			"name()": "06fdde03",
			"nonces(address)": "7ecebe00",
			"owner()": "8da5cb5b",
			"pendingOwner()": "e30c3978",
			"permit(address,address,uint256,uint256,uint8,bytes32,bytes32)": "d505accf",
			"precision()": "d3b5dc3b",
			"previewDeposit(uint256)": "ef8b30f7",
			"previewMint(uint256)": "b3d7f6b9",
			"previewRedeem(uint256)": "4cdad506",
			"previewWithdraw(uint256)": "0a28a477",
			"redeem(uint256,address,address)": "ba087652",
			"setOwner(address)": "13af4035",
			"setPendingOwner(address)": "c42069ec",
			"symbol()": "95d89b41",
			"totalAssets()": "01e1d114",
			"totalSupply()": "18160ddd",
			"transfer(address,uint256)": "a9059cbb",
			"transferFrom(address,address,uint256)": "23b872dd",
			"updateVestingSchedule(uint256)": "e13aa990",
			"vestingPeriodFinish()": "3c2f7773",
			"withdraw(uint256,address,address)": "b460af94"
		}
	},
	"abi": [
		{
			"inputs": [
				{
					"internalType": "string",
					"name": "name_",
					"type": "string"
				},
				{
					"internalType": "string",
					"name": "symbol_",
					"type": "string"
				},
				{
					"internalType": "address",
					"name": "owner_",
					"type": "address"
				},
				{
					"internalType": "address",
					"name": "underlying_",
					"type": "address"
				},
				{
					"internalType": "uint256",
					"name": "precision_",
					"type": "uint256"
				}
			],
			"stateMutability": "nonpayable",
			"type": "constructor"
		},
		{
			"anonymous": false,
			"inputs": [
				{
					"indexed": true,
					"internalType": "address",
					"name": "owner_",
					"type": "address"
				},
				{
					"indexed": true,
					"internalType": "address",
					"name": "spender_",
					"type": "address"
				},
				{
					"indexed": false,
					"internalType": "uint256",
					"name": "amount_",
					"type": "uint256"
				}
			],
			"name": "Approval",
			"type": "event"
		},
		{
			"anonymous": false,
			"inputs": [
				{
					"indexed": true,
					"internalType": "address",
					"name": "caller_",
					"type": "address"
				},
				{
					"indexed": true,
					"internalType": "address",
					"name": "owner_",
					"type": "address"
				},
				{
					"indexed": false,
					"internalType": "uint256",
					"name": "assets_",
					"type": "uint256"
				},
				{
					"indexed": false,
					"internalType": "uint256",
					"name": "shares_",
					"type": "uint256"
				}
			],
			"name": "Deposit",
			"type": "event"
		},
		{
			"anonymous": false,
			"inputs": [
				{
					"indexed": false,
					"internalType": "uint256",
					"name": "freeAssets_",
					"type": "uint256"
				},
				{
					"indexed": false,
					"internalType": "uint256",
					"name": "issuanceRate_",
					"type": "uint256"
				}
			],
			"name": "IssuanceParamsUpdated",
			"type": "event"
		},
		{
			"anonymous": false,
			"inputs": [
				{
					"indexed": true,
					"internalType": "address",
					"name": "previousOwner_",
					"type": "address"
				},
				{
					"indexed": true,
					"internalType": "address",
					"name": "newOwner_",
					"type": "address"
				}
			],
			"name": "OwnershipAccepted",
			"type": "event"
		},
		{
			"anonymous": false,
			"inputs": [
				{
					"indexed": true,
					"internalType": "address",
					"name": "owner_",
					"type": "address"
				},
				{
					"indexed": true,
					"internalType": "address",
					"name": "pendingOwner_",
					"type": "address"
				}
			],
			"name": "PendingOwnerSet",
			"type": "event"
		},
		{
			"anonymous": false,
			"inputs": [
				{
					"indexed": true,
					"internalType": "address",
					"name": "owner_",
					"type": "address"
				},
				{
					"indexed": true,
					"internalType": "address",
					"name": "recipient_",
					"type": "address"
				},
				{
					"indexed": false,
					"internalType": "uint256",
					"name": "amount_",
					"type": "uint256"
				}
			],
			"name": "Transfer",
			"type": "event"
		},
		{
			"anonymous": false,
			"inputs": [
				{
					"indexed": true,
					"internalType": "address",
					"name": "owner_",
					"type": "address"
				},
				{
					"indexed": false,
					"internalType": "uint256",
					"name": "vestingPeriodFinish_",
					"type": "uint256"
				}
			],
			"name": "VestingScheduleUpdated",
			"type": "event"
		},
		{
			"anonymous": false,
			"inputs": [
				{
					"indexed": true,
					"internalType": "address",
					"name": "caller_",
					"type": "address"
				},
				{
					"indexed": true,
					"internalType": "address",
					"name": "receiver_",
					"type": "address"
				},
				{
					"indexed": true,
					"internalType": "address",
					"name": "owner_",
					"type": "address"
				},
				{
					"indexed": false,
					"internalType": "uint256",
					"name": "assets_",
					"type": "uint256"
				},
				{
					"indexed": false,
					"internalType": "uint256",
					"name": "shares_",
					"type": "uint256"
				}
			],
			"name": "Withdraw",
			"type": "event"
		},
		{
			"inputs": [],
			"name": "DOMAIN_SEPARATOR",
			"outputs": [
				{
					"internalType": "bytes32",
					"name": "domainSeparator_",
					"type": "bytes32"
				}
			],
			"stateMutability": "view",
			"type": "function"
		},
		{
			"inputs": [],
			"name": "PERMIT_TYPEHASH",
			"outputs": [
				{
					"internalType": "bytes32",
					"name": "",
					"type": "bytes32"
				}
			],
			"stateMutability": "view",
			"type": "function"
		},
		{
			"inputs": [],
			"name": "acceptOwnership",
			"outputs": [],
			"stateMutability": "nonpayable",
			"type": "function"
		},
		{
			"inputs": [
				{
					"internalType": "address",
					"name": "",
					"type": "address"
				},
				{
					"internalType": "address",
					"name": "",
					"type": "address"
				}
			],
			"name": "allowance",
			"outputs": [
				{
					"internalType": "uint256",
					"name": "",
					"type": "uint256"
				}
			],
			"stateMutability": "view",
			"type": "function"
		},
		{
			"inputs": [
				{
					"internalType": "address",
					"name": "spender_",
					"type": "address"
				},
				{
					"internalType": "uint256",
					"name": "amount_",
					"type": "uint256"
				}
			],
			"name": "approve",
			"outputs": [
				{
					"internalType": "bool",
					"name": "success_",
					"type": "bool"
				}
			],
			"stateMutability": "nonpayable",
			"type": "function"
		},
		{
			"inputs": [],
			"name": "asset",
			"outputs": [
				{
					"internalType": "address",
					"name": "",
					"type": "address"
				}
			],
			"stateMutability": "view",
			"type": "function"
		},
		{
			"inputs": [
				{
					"internalType": "address",
					"name": "",
					"type": "address"
				}
			],
			"name": "balanceOf",
			"outputs": [
				{
					"internalType": "uint256",
					"name": "",
					"type": "uint256"
				}
			],
			"stateMutability": "view",
			"type": "function"
		},
		{
			"inputs": [
				{
					"internalType": "address",
					"name": "account_",
					"type": "address"
				}
			],
			"name": "balanceOfAssets",
			"outputs": [
				{
					"internalType": "uint256",
					"name": "balanceOfAssets_",
					"type": "uint256"
				}
			],
			"stateMutability": "view",
			"type": "function"
		},
		{
			"inputs": [
				{
					"internalType": "uint256",
					"name": "shares_",
					"type": "uint256"
				}
			],
			"name": "convertToAssets",
			"outputs": [
				{
					"internalType": "uint256",
					"name": "assets_",
					"type": "uint256"
				}
			],
			"stateMutability": "view",
			"type": "function"
		},
		{
			"inputs": [
				{
					"internalType": "uint256",
					"name": "assets_",
					"type": "uint256"
				}
			],
			"name": "convertToShares",
			"outputs": [
				{
					"internalType": "uint256",
					"name": "shares_",
					"type": "uint256"
				}
			],
			"stateMutability": "view",
			"type": "function"
		},
		{
			"inputs": [],
			"name": "decimals",
			"outputs": [
				{
					"internalType": "uint8",
					"name": "",
					"type": "uint8"
				}
			],
			"stateMutability": "view",
			"type": "function"
		},
		{
			"inputs": [
				{
					"internalType": "address",
					"name": "spender_",
					"type": "address"
				},
				{
					"internalType": "uint256",
					"name": "subtractedAmount_",
					"type": "uint256"
				}
			],
			"name": "decreaseAllowance",
			"outputs": [
				{
					"internalType": "bool",
					"name": "success_",
					"type": "bool"
				}
			],
			"stateMutability": "nonpayable",
			"type": "function"
		},
		{
			"inputs": [
				{
					"internalType": "uint256",
					"name": "assets_",
					"type": "uint256"
				},
				{
					"internalType": "address",
					"name": "receiver_",
					"type": "address"
				}
			],
			"name": "deposit",
			"outputs": [
				{
					"internalType": "uint256",
					"name": "shares_",
					"type": "uint256"
				}
			],
			"stateMutability": "nonpayable",
			"type": "function"
		},
		{
			"inputs": [
				{
					"internalType": "uint256",
					"name": "assets_",
					"type": "uint256"
				},
				{
					"internalType": "address",
					"name": "receiver_",
					"type": "address"
				},
				{
					"internalType": "uint256",
					"name": "deadline_",
					"type": "uint256"
				},
				{
					"internalType": "uint8",
					"name": "v_",
					"type": "uint8"
				},
				{
					"internalType": "bytes32",
					"name": "r_",
					"type": "bytes32"
				},
				{
					"internalType": "bytes32",
					"name": "s_",
					"type": "bytes32"
				}
			],
			"name": "depositWithPermit",
			"outputs": [
				{
					"internalType": "uint256",
					"name": "shares_",
					"type": "uint256"
				}
			],
			"stateMutability": "nonpayable",
			"type": "function"
		},
		{
			"inputs": [],
			"name": "freeAssets",
			"outputs": [
				{
					"internalType": "uint256",
					"name": "",
					"type": "uint256"
				}
			],
			"stateMutability": "view",
			"type": "function"
		},
		{
			"inputs": [
				{
					"internalType": "address",
					"name": "spender_",
					"type": "address"
				},
				{
					"internalType": "uint256",
					"name": "addedAmount_",
					"type": "uint256"
				}
			],
			"name": "increaseAllowance",
			"outputs": [
				{
					"internalType": "bool",
					"name": "success_",
					"type": "bool"
				}
			],
			"stateMutability": "nonpayable",
			"type": "function"
		},
		{
			"inputs": [],
			"name": "issuanceRate",
			"outputs": [
				{
					"internalType": "uint256",
					"name": "",
					"type": "uint256"
				}
			],
			"stateMutability": "view",
			"type": "function"
		},
		{
			"inputs": [],
			"name": "lastUpdated",
			"outputs": [
				{
					"internalType": "uint256",
					"name": "",
					"type": "uint256"
				}
			],
			"stateMutability": "view",
			"type": "function"
		},
		{
			"inputs": [
				{
					"internalType": "address",
					"name": "receiver_",
					"type": "address"
				}
			],
			"name": "maxDeposit",
			"outputs": [
				{
					"internalType": "uint256",
					"name": "maxAssets_",
					"type": "uint256"
				}
			],
			"stateMutability": "pure",
			"type": "function"
		},
		{
			"inputs": [
				{
					"internalType": "address",
					"name": "receiver_",
					"type": "address"
				}
			],
			"name": "maxMint",
			"outputs": [
				{
					"internalType": "uint256",
					"name": "maxShares_",
					"type": "uint256"
				}
			],
			"stateMutability": "pure",
			"type": "function"
		},
		{
			"inputs": [
				{
					"internalType": "address",
					"name": "owner_",
					"type": "address"
				}
			],
			"name": "maxRedeem",
			"outputs": [
				{
					"internalType": "uint256",
					"name": "maxShares_",
					"type": "uint256"
				}
			],
			"stateMutability": "view",
			"type": "function"
		},
		{
			"inputs": [
				{
					"internalType": "address",
					"name": "owner_",
					"type": "address"
				}
			],
			"name": "maxWithdraw",
			"outputs": [
				{
					"internalType": "uint256",
					"name": "maxAssets_",
					"type": "uint256"
				}
			],
			"stateMutability": "view",
			"type": "function"
		},
		{
			"inputs": [
				{
					"internalType": "uint256",
					"name": "shares_",
					"type": "uint256"
				},
				{
					"internalType": "address",
					"name": "receiver_",
					"type": "address"
				}
			],
			"name": "mint",
			"outputs": [
				{
					"internalType": "uint256",
					"name": "assets_",
					"type": "uint256"
				}
			],
			"stateMutability": "nonpayable",
			"type": "function"
		},
		{
			"inputs": [
				{
					"internalType": "uint256",
					"name": "shares_",
					"type": "uint256"
				},
				{
					"internalType": "address",
					"name": "receiver_",
					"type": "address"
				},
				{
					"internalType": "uint256",
					"name": "maxAssets_",
					"type": "uint256"
				},
				{
					"internalType": "uint256",
					"name": "deadline_",
					"type": "uint256"
				},
				{
					"internalType": "uint8",
					"name": "v_",
					"type": "uint8"
				},
				{
					"internalType": "bytes32",
					"name": "r_",
					"type": "bytes32"
				},
				{
					"internalType": "bytes32",
					"name": "s_",
					"type": "bytes32"
				}
			],
			"name": "mintWithPermit",
			"outputs": [
				{
					"internalType": "uint256",
					"name": "assets_",
					"type": "uint256"
				}
			],
			"stateMutability": "nonpayable",
			"type": "function"
		},
		{
			"inputs": [],
			"name": "name",
			"outputs": [
				{
					"internalType": "string",
					"name": "",
					"type": "string"
				}
			],
			"stateMutability": "view",
			"type": "function"
		},
		{
			"inputs": [
				{
					"internalType": "address",
					"name": "",
					"type": "address"
				}
			],
			"name": "nonces",
			"outputs": [
				{
					"internalType": "uint256",
					"name": "",
					"type": "uint256"
				}
			],
			"stateMutability": "view",
			"type": "function"
		},
		{
			"inputs": [],
			"name": "owner",
			"outputs": [
				{
					"internalType": "address",
					"name": "",
					"type": "address"
				}
			],
			"stateMutability": "view",
			"type": "function"
		},
		{
			"inputs": [],
			"name": "pendingOwner",
			"outputs": [
				{
					"internalType": "address",
					"name": "",
					"type": "address"
				}
			],
			"stateMutability": "view",
			"type": "function"
		},
		{
			"inputs": [
				{
					"internalType": "address",
					"name": "owner_",
					"type": "address"
				},
				{
					"internalType": "address",
					"name": "spender_",
					"type": "address"
				},
				{
					"internalType": "uint256",
					"name": "amount_",
					"type": "uint256"
				},
				{
					"internalType": "uint256",
					"name": "deadline_",
					"type": "uint256"
				},
				{
					"internalType": "uint8",
					"name": "v_",
					"type": "uint8"
				},
				{
					"internalType": "bytes32",
					"name": "r_",
					"type": "bytes32"
				},
				{
					"internalType": "bytes32",
					"name": "s_",
					"type": "bytes32"
				}
			],
			"name": "permit",
			"outputs": [],
			"stateMutability": "nonpayable",
			"type": "function"
		},
		{
			"inputs": [],
			"name": "precision",
			"outputs": [
				{
					"internalType": "uint256",
					"name": "",
					"type": "uint256"
				}
			],
			"stateMutability": "view",
			"type": "function"
		},
		{
			"inputs": [
				{
					"internalType": "uint256",
					"name": "assets_",
					"type": "uint256"
				}
			],
			"name": "previewDeposit",
			"outputs": [
				{
					"internalType": "uint256",
					"name": "shares_",
					"type": "uint256"
				}
			],
			"stateMutability": "view",
			"type": "function"
		},
		{
			"inputs": [
				{
					"internalType": "uint256",
					"name": "shares_",
					"type": "uint256"
				}
			],
			"name": "previewMint",
			"outputs": [
				{
					"internalType": "uint256",
					"name": "assets_",
					"type": "uint256"
				}
			],
			"stateMutability": "view",
			"type": "function"
		},
		{
			"inputs": [
				{
					"internalType": "uint256",
					"name": "shares_",
					"type": "uint256"
				}
			],
			"name": "previewRedeem",
			"outputs": [
				{
					"internalType": "uint256",
					"name": "assets_",
					"type": "uint256"
				}
			],
			"stateMutability": "view",
			"type": "function"
		},
		{
			"inputs": [
				{
					"internalType": "uint256",
					"name": "assets_",
					"type": "uint256"
				}
			],
			"name": "previewWithdraw",
			"outputs": [
				{
					"internalType": "uint256",
					"name": "shares_",
					"type": "uint256"
				}
			],
			"stateMutability": "view",
			"type": "function"
		},
		{
			"inputs": [
				{
					"internalType": "uint256",
					"name": "shares_",
					"type": "uint256"
				},
				{
					"internalType": "address",
					"name": "receiver_",
					"type": "address"
				},
				{
					"internalType": "address",
					"name": "owner_",
					"type": "address"
				}
			],
			"name": "redeem",
			"outputs": [
				{
					"internalType": "uint256",
					"name": "assets_",
					"type": "uint256"
				}
			],
			"stateMutability": "nonpayable",
			"type": "function"
		},
		{
			"inputs": [
				{
					"internalType": "address",
					"name": "owner_",
					"type": "address"
				}
			],
			"name": "setOwner",
			"outputs": [],
			"stateMutability": "nonpayable",
			"type": "function"
		},
		{
			"inputs": [
				{
					"internalType": "address",
					"name": "pendingOwner_",
					"type": "address"
				}
			],
			"name": "setPendingOwner",
			"outputs": [],
			"stateMutability": "nonpayable",
			"type": "function"
		},
		{
			"inputs": [],
			"name": "symbol",
			"outputs": [
				{
					"internalType": "string",
					"name": "",
					"type": "string"
				}
			],
			"stateMutability": "view",
			"type": "function"
		},
		{
			"inputs": [],
			"name": "totalAssets",
			"outputs": [
				{
					"internalType": "uint256",
					"name": "totalManagedAssets_",
					"type": "uint256"
				}
			],
			"stateMutability": "view",
			"type": "function"
		},
		{
			"inputs": [],
			"name": "totalSupply",
			"outputs": [
				{
					"internalType": "uint256",
					"name": "",
					"type": "uint256"
				}
			],
			"stateMutability": "view",
			"type": "function"
		},
		{
			"inputs": [
				{
					"internalType": "address",
					"name": "recipient_",
					"type": "address"
				},
				{
					"internalType": "uint256",
					"name": "amount_",
					"type": "uint256"
				}
			],
			"name": "transfer",
			"outputs": [
				{
					"internalType": "bool",
					"name": "success_",
					"type": "bool"
				}
			],
			"stateMutability": "nonpayable",
			"type": "function"
		},
		{
			"inputs": [
				{
					"internalType": "address",
					"name": "owner_",
					"type": "address"
				},
				{
					"internalType": "address",
					"name": "recipient_",
					"type": "address"
				},
				{
					"internalType": "uint256",
					"name": "amount_",
					"type": "uint256"
				}
			],
			"name": "transferFrom",
			"outputs": [
				{
					"internalType": "bool",
					"name": "success_",
					"type": "bool"
				}
			],
			"stateMutability": "nonpayable",
			"type": "function"
		},
		{
			"inputs": [
				{
					"internalType": "uint256",
					"name": "vestingPeriod_",
					"type": "uint256"
				}
			],
			"name": "updateVestingSchedule",
			"outputs": [
				{
					"internalType": "uint256",
					"name": "issuanceRate_",
					"type": "uint256"
				},
				{
					"internalType": "uint256",
					"name": "freeAssets_",
					"type": "uint256"
				}
			],
			"stateMutability": "nonpayable",
			"type": "function"
		},
		{
			"inputs": [],
			"name": "vestingPeriodFinish",
			"outputs": [
				{
					"internalType": "uint256",
					"name": "",
					"type": "uint256"
				}
			],
			"stateMutability": "view",
			"type": "function"
		},
		{
			"inputs": [
				{
					"internalType": "uint256",
					"name": "assets_",
					"type": "uint256"
				},
				{
					"internalType": "address",
					"name": "receiver_",
					"type": "address"
				},
				{
					"internalType": "address",
					"name": "owner_",
					"type": "address"
				}
			],
			"name": "withdraw",
			"outputs": [
				{
					"internalType": "uint256",
					"name": "shares_",
					"type": "uint256"
				}
			],
			"stateMutability": "nonpayable",
			"type": "function"
		}
	]
}