{
	"data": {
		"bytecode": {
			"linkReferences": {},
			"object": "608060405234801561001057600080fd5b50610645806100206000396000f3fe608060405234801561001057600080fd5b506004361061004c5760003560e01c80631c45353f146100515780637fe2558114610082578063acbf94c9146100b2578063b428d7db146100ce575b600080fd5b61006b60048036038101906100669190610400565b6100ea565b604051610079929190610554565b60405180910390f35b61009c600480360381019061009791906103ad565b610182565b6040516100a9919061051e565b60405180910390f35b6100cc60048036038101906100c79190610340565b61021a565b005b6100e860048036038101906100e3919061036d565b61027d565b005b6000808373ffffffffffffffffffffffffffffffffffffffff1663e13aa990846040518263ffffffff1660e01b81526004016101269190610539565b6040805180830381600087803b15801561013f57600080fd5b505af1158015610153573d6000803e3d6000fd5b505050506040513d601f19601f82011682018060405250810190610177919061046d565b915091509250929050565b60008373ffffffffffffffffffffffffffffffffffffffff1663a9059cbb84846040518363ffffffff1660e01b81526004016101bf9291906104f5565b602060405180830381600087803b1580156101d957600080fd5b505af11580156101ed573d6000803e3d6000fd5b505050506040513d601f19601f820116820180604052508101906102119190610440565b90509392505050565b8073ffffffffffffffffffffffffffffffffffffffff166379ba50976040518163ffffffff1660e01b8152600401600060405180830381600087803b15801561026257600080fd5b505af1158015610276573d6000803e3d6000fd5b5050505050565b8173ffffffffffffffffffffffffffffffffffffffff1663c42069ec826040518263ffffffff1660e01b81526004016102b691906104da565b600060405180830381600087803b1580156102d057600080fd5b505af11580156102e4573d6000803e3d6000fd5b505050505050565b6000813590506102fb816105ca565b92915050565b600081519050610310816105e1565b92915050565b600081359050610325816105f8565b92915050565b60008151905061033a816105f8565b92915050565b600060208284031215610356576103556105c5565b5b6000610364848285016102ec565b91505092915050565b60008060408385031215610384576103836105c5565b5b6000610392858286016102ec565b92505060206103a3858286016102ec565b9150509250929050565b6000806000606084860312156103c6576103c56105c5565b5b60006103d4868287016102ec565b93505060206103e5868287016102ec565b92505060406103f686828701610316565b9150509250925092565b60008060408385031215610417576104166105c5565b5b6000610425858286016102ec565b925050602061043685828601610316565b9150509250929050565b600060208284031215610456576104556105c5565b5b600061046484828501610301565b91505092915050565b60008060408385031215610484576104836105c5565b5b60006104928582860161032b565b92505060206104a38582860161032b565b9150509250929050565b6104b68161057d565b82525050565b6104c58161058f565b82525050565b6104d4816105bb565b82525050565b60006020820190506104ef60008301846104ad565b92915050565b600060408201905061050a60008301856104ad565b61051760208301846104cb565b9392505050565b600060208201905061053360008301846104bc565b92915050565b600060208201905061054e60008301846104cb565b92915050565b600060408201905061056960008301856104cb565b61057660208301846104cb565b9392505050565b60006105888261059b565b9050919050565b60008115159050919050565b600073ffffffffffffffffffffffffffffffffffffffff82169050919050565b6000819050919050565b600080fd5b6105d38161057d565b81146105de57600080fd5b50565b6105ea8161058f565b81146105f557600080fd5b50565b610601816105bb565b811461060c57600080fd5b5056fea26469706673582212203859858db59a361758755f7587ab24188356bafc6378c201d4a8cbcc87a36d1664736f6c63430008070033",
			"opcodes": "PUSH1 0x80 PUSH1 0x40 MSTORE CALLVALUE DUP1 ISZERO PUSH2 0x10 JUMPI PUSH1 0x0 DUP1 REVERT JUMPDEST POP PUSH2 0x645 DUP1 PUSH2 0x20 PUSH1 0x0 CODECOPY PUSH1 0x0 RETURN INVALID PUSH1 0x80 PUSH1 0x40 MSTORE CALLVALUE DUP1 ISZERO PUSH2 0x10 JUMPI PUSH1 0x0 DUP1 REVERT JUMPDEST POP PUSH1 0x4 CALLDATASIZE LT PUSH2 0x4C JUMPI PUSH1 0x0 CALLDATALOAD PUSH1 0xE0 SHR DUP1 PUSH4 0x1C45353F EQ PUSH2 0x51 JUMPI DUP1 PUSH4 0x7FE25581 EQ PUSH2 0x82 JUMPI DUP1 PUSH4 0xACBF94C9 EQ PUSH2 0xB2 JUMPI DUP1 PUSH4 0xB428D7DB EQ PUSH2 0xCE JUMPI JUMPDEST PUSH1 0x0 DUP1 REVERT JUMPDEST PUSH2 0x6B PUSH1 0x4 DUP1 CALLDATASIZE SUB DUP2 ADD SWAP1 PUSH2 0x66 SWAP2 SWAP1 PUSH2 0x400 JUMP JUMPDEST PUSH2 0xEA JUMP JUMPDEST PUSH1 0x40 MLOAD PUSH2 0x79 SWAP3 SWAP2 SWAP1 PUSH2 0x554 JUMP JUMPDEST PUSH1 0x40 MLOAD DUP1 SWAP2 SUB SWAP1 RETURN JUMPDEST PUSH2 0x9C PUSH1 0x4 DUP1 CALLDATASIZE SUB DUP2 ADD SWAP1 PUSH2 0x97 SWAP2 SWAP1 PUSH2 0x3AD JUMP JUMPDEST PUSH2 0x182 JUMP JUMPDEST PUSH1 0x40 MLOAD PUSH2 0xA9 SWAP2 SWAP1 PUSH2 0x51E JUMP JUMPDEST PUSH1 0x40 MLOAD DUP1 SWAP2 SUB SWAP1 RETURN JUMPDEST PUSH2 0xCC PUSH1 0x4 DUP1 CALLDATASIZE SUB DUP2 ADD SWAP1 PUSH2 0xC7 SWAP2 SWAP1 PUSH2 0x340 JUMP JUMPDEST PUSH2 0x21A JUMP JUMPDEST STOP JUMPDEST PUSH2 0xE8 PUSH1 0x4 DUP1 CALLDATASIZE SUB DUP2 ADD SWAP1 PUSH2 0xE3 SWAP2 SWAP1 PUSH2 0x36D JUMP JUMPDEST PUSH2 0x27D JUMP JUMPDEST STOP JUMPDEST PUSH1 0x0 DUP1 DUP4 PUSH20 0xFFFFFFFFFFFFFFFFFFFFFFFFFFFFFFFFFFFFFFFF AND PUSH4 0xE13AA990 DUP5 PUSH1 0x40 MLOAD DUP3 PUSH4 0xFFFFFFFF AND PUSH1 0xE0 SHL DUP2 MSTORE PUSH1 0x4 ADD PUSH2 0x126 SWAP2 SWAP1 PUSH2 0x539 JUMP JUMPDEST PUSH1 0x40 DUP1 MLOAD DUP1 DUP4 SUB DUP2 PUSH1 0x0 DUP8 DUP1 EXTCODESIZE ISZERO DUP1 ISZERO PUSH2 0x13F JUMPI PUSH1 0x0 DUP1 REVERT JUMPDEST POP GAS CALL ISZERO DUP1 ISZERO PUSH2 0x153 JUMPI RETURNDATASIZE PUSH1 0x0 DUP1 RETURNDATACOPY RETURNDATASIZE PUSH1 0x0 REVERT JUMPDEST POP POP POP POP PUSH1 0x40 MLOAD RETURNDATASIZE PUSH1 0x1F NOT PUSH1 0x1F DUP3 ADD AND DUP3 ADD DUP1 PUSH1 0x40 MSTORE POP DUP2 ADD SWAP1 PUSH2 0x177 SWAP2 SWAP1 PUSH2 0x46D JUMP JUMPDEST SWAP2 POP SWAP2 POP SWAP3 POP SWAP3 SWAP1 POP JUMP JUMPDEST PUSH1 0x0 DUP4 PUSH20 0xFFFFFFFFFFFFFFFFFFFFFFFFFFFFFFFFFFFFFFFF AND PUSH4 0xA9059CBB DUP5 DUP5 PUSH1 0x40 MLOAD DUP4 PUSH4 0xFFFFFFFF AND PUSH1 0xE0 SHL DUP2 MSTORE PUSH1 0x4 ADD PUSH2 0x1BF SWAP3 SWAP2 SWAP1 PUSH2 0x4F5 JUMP JUMPDEST PUSH1 0x20 PUSH1 0x40 MLOAD DUP1 DUP4 SUB DUP2 PUSH1 0x0 DUP8 DUP1 EXTCODESIZE ISZERO DUP1 ISZERO PUSH2 0x1D9 JUMPI PUSH1 0x0 DUP1 REVERT JUMPDEST POP GAS CALL ISZERO DUP1 ISZERO PUSH2 0x1ED JUMPI RETURNDATASIZE PUSH1 0x0 DUP1 RETURNDATACOPY RETURNDATASIZE PUSH1 0x0 REVERT JUMPDEST POP POP POP POP PUSH1 0x40 MLOAD RETURNDATASIZE PUSH1 0x1F NOT PUSH1 0x1F DUP3 ADD AND DUP3 ADD DUP1 PUSH1 0x40 MSTORE POP DUP2 ADD SWAP1 PUSH2 0x211 SWAP2 SWAP1 PUSH2 0x440 JUMP JUMPDEST SWAP1 POP SWAP4 SWAP3 POP POP POP JUMP JUMPDEST DUP1 PUSH20 0xFFFFFFFFFFFFFFFFFFFFFFFFFFFFFFFFFFFFFFFF AND PUSH4 0x79BA5097 PUSH1 0x40 MLOAD DUP2 PUSH4 0xFFFFFFFF AND PUSH1 0xE0 SHL DUP2 MSTORE PUSH1 0x4 ADD PUSH1 0x0 PUSH1 0x40 MLOAD DUP1 DUP4 SUB DUP2 PUSH1 0x0 DUP8 DUP1 EXTCODESIZE ISZERO DUP1 ISZERO PUSH2 0x262 JUMPI PUSH1 0x0 DUP1 REVERT JUMPDEST POP GAS CALL ISZERO DUP1 ISZERO PUSH2 0x276 JUMPI RETURNDATASIZE PUSH1 0x0 DUP1 RETURNDATACOPY RETURNDATASIZE PUSH1 0x0 REVERT JUMPDEST POP POP POP POP POP JUMP JUMPDEST DUP2 PUSH20 0xFFFFFFFFFFFFFFFFFFFFFFFFFFFFFFFFFFFFFFFF AND PUSH4 0xC42069EC DUP3 PUSH1 0x40 MLOAD DUP3 PUSH4 0xFFFFFFFF AND PUSH1 0xE0 SHL DUP2 MSTORE PUSH1 0x4 ADD PUSH2 0x2B6 SWAP2 SWAP1 PUSH2 0x4DA JUMP JUMPDEST PUSH1 0x0 PUSH1 0x40 MLOAD DUP1 DUP4 SUB DUP2 PUSH1 0x0 DUP8 DUP1 EXTCODESIZE ISZERO DUP1 ISZERO PUSH2 0x2D0 JUMPI PUSH1 0x0 DUP1 REVERT JUMPDEST POP GAS CALL ISZERO DUP1 ISZERO PUSH2 0x2E4 JUMPI RETURNDATASIZE PUSH1 0x0 DUP1 RETURNDATACOPY RETURNDATASIZE PUSH1 0x0 REVERT JUMPDEST POP POP POP POP POP POP JUMP JUMPDEST PUSH1 0x0 DUP2 CALLDATALOAD SWAP1 POP PUSH2 0x2FB DUP2 PUSH2 0x5CA JUMP JUMPDEST SWAP3 SWAP2 POP POP JUMP JUMPDEST PUSH1 0x0 DUP2 MLOAD SWAP1 POP PUSH2 0x310 DUP2 PUSH2 0x5E1 JUMP JUMPDEST SWAP3 SWAP2 POP POP JUMP JUMPDEST PUSH1 0x0 DUP2 CALLDATALOAD SWAP1 POP PUSH2 0x325 DUP2 PUSH2 0x5F8 JUMP JUMPDEST SWAP3 SWAP2 POP POP JUMP JUMPDEST PUSH1 0x0 DUP2 MLOAD SWAP1 POP PUSH2 0x33A DUP2 PUSH2 0x5F8 JUMP JUMPDEST SWAP3 SWAP2 POP POP JUMP JUMPDEST PUSH1 0x0 PUSH1 0x20 DUP3 DUP5 SUB SLT ISZERO PUSH2 0x356 JUMPI PUSH2 0x355 PUSH2 0x5C5 JUMP JUMPDEST JUMPDEST PUSH1 0x0 PUSH2 0x364 DUP5 DUP3 DUP6 ADD PUSH2 0x2EC JUMP JUMPDEST SWAP2 POP POP SWAP3 SWAP2 POP POP JUMP JUMPDEST PUSH1 0x0 DUP1 PUSH1 0x40 DUP4 DUP6 SUB SLT ISZERO PUSH2 0x384 JUMPI PUSH2 0x383 PUSH2 0x5C5 JUMP JUMPDEST JUMPDEST PUSH1 0x0 PUSH2 0x392 DUP6 DUP3 DUP7 ADD PUSH2 0x2EC JUMP JUMPDEST SWAP3 POP POP PUSH1 0x20 PUSH2 0x3A3 DUP6 DUP3 DUP7 ADD PUSH2 0x2EC JUMP JUMPDEST SWAP2 POP POP SWAP3 POP SWAP3 SWAP1 POP JUMP JUMPDEST PUSH1 0x0 DUP1 PUSH1 0x0 PUSH1 0x60 DUP5 DUP7 SUB SLT ISZERO PUSH2 0x3C6 JUMPI PUSH2 0x3C5 PUSH2 0x5C5 JUMP JUMPDEST JUMPDEST PUSH1 0x0 PUSH2 0x3D4 DUP7 DUP3 DUP8 ADD PUSH2 0x2EC JUMP JUMPDEST SWAP4 POP POP PUSH1 0x20 PUSH2 0x3E5 DUP7 DUP3 DUP8 ADD PUSH2 0x2EC JUMP JUMPDEST SWAP3 POP POP PUSH1 0x40 PUSH2 0x3F6 DUP7 DUP3 DUP8 ADD PUSH2 0x316 JUMP JUMPDEST SWAP2 POP POP SWAP3 POP SWAP3 POP SWAP3 JUMP JUMPDEST PUSH1 0x0 DUP1 PUSH1 0x40 DUP4 DUP6 SUB SLT ISZERO PUSH2 0x417 JUMPI PUSH2 0x416 PUSH2 0x5C5 JUMP JUMPDEST JUMPDEST PUSH1 0x0 PUSH2 0x425 DUP6 DUP3 DUP7 ADD PUSH2 0x2EC JUMP JUMPDEST SWAP3 POP POP PUSH1 0x20 PUSH2 0x436 DUP6 DUP3 DUP7 ADD PUSH2 0x316 JUMP JUMPDEST SWAP2 POP POP SWAP3 POP SWAP3 SWAP1 POP JUMP JUMPDEST PUSH1 0x0 PUSH1 0x20 DUP3 DUP5 SUB SLT ISZERO PUSH2 0x456 JUMPI PUSH2 0x455 PUSH2 0x5C5 JUMP JUMPDEST JUMPDEST PUSH1 0x0 PUSH2 0x464 DUP5 DUP3 DUP6 ADD PUSH2 0x301 JUMP JUMPDEST SWAP2 POP POP SWAP3 SWAP2 POP POP JUMP JUMPDEST PUSH1 0x0 DUP1 PUSH1 0x40 DUP4 DUP6 SUB SLT ISZERO PUSH2 0x484 JUMPI PUSH2 0x483 PUSH2 0x5C5 JUMP JUMPDEST JUMPDEST PUSH1 0x0 PUSH2 0x492 DUP6 DUP3 DUP7 ADD PUSH2 0x32B JUMP JUMPDEST SWAP3 POP POP PUSH1 0x20 PUSH2 0x4A3 DUP6 DUP3 DUP7 ADD PUSH2 0x32B JUMP JUMPDEST SWAP2 POP POP SWAP3 POP SWAP3 SWAP1 POP JUMP JUMPDEST PUSH2 0x4B6 DUP2 PUSH2 0x57D JUMP JUMPDEST DUP3 MSTORE POP POP JUMP JUMPDEST PUSH2 0x4C5 DUP2 PUSH2 0x58F JUMP JUMPDEST DUP3 MSTORE POP POP JUMP JUMPDEST PUSH2 0x4D4 DUP2 PUSH2 0x5BB JUMP JUMPDEST DUP3 MSTORE POP POP JUMP JUMPDEST PUSH1 0x0 PUSH1 0x20 DUP3 ADD SWAP1 POP PUSH2 0x4EF PUSH1 0x0 DUP4 ADD DUP5 PUSH2 0x4AD JUMP JUMPDEST SWAP3 SWAP2 POP POP JUMP JUMPDEST PUSH1 0x0 PUSH1 0x40 DUP3 ADD SWAP1 POP PUSH2 0x50A PUSH1 0x0 DUP4 ADD DUP6 PUSH2 0x4AD JUMP JUMPDEST PUSH2 0x517 PUSH1 0x20 DUP4 ADD DUP5 PUSH2 0x4CB JUMP JUMPDEST SWAP4 SWAP3 POP POP POP JUMP JUMPDEST PUSH1 0x0 PUSH1 0x20 DUP3 ADD SWAP1 POP PUSH2 0x533 PUSH1 0x0 DUP4 ADD DUP5 PUSH2 0x4BC JUMP JUMPDEST SWAP3 SWAP2 POP POP JUMP JUMPDEST PUSH1 0x0 PUSH1 0x20 DUP3 ADD SWAP1 POP PUSH2 0x54E PUSH1 0x0 DUP4 ADD DUP5 PUSH2 0x4CB JUMP JUMPDEST SWAP3 SWAP2 POP POP JUMP JUMPDEST PUSH1 0x0 PUSH1 0x40 DUP3 ADD SWAP1 POP PUSH2 0x569 PUSH1 0x0 DUP4 ADD DUP6 PUSH2 0x4CB JUMP JUMPDEST PUSH2 0x576 PUSH1 0x20 DUP4 ADD DUP5 PUSH2 0x4CB JUMP JUMPDEST SWAP4 SWAP3 POP POP POP JUMP JUMPDEST PUSH1 0x0 PUSH2 0x588 DUP3 PUSH2 0x59B JUMP JUMPDEST SWAP1 POP SWAP2 SWAP1 POP JUMP JUMPDEST PUSH1 0x0 DUP2 ISZERO ISZERO SWAP1 POP SWAP2 SWAP1 POP JUMP JUMPDEST PUSH1 0x0 PUSH20 0xFFFFFFFFFFFFFFFFFFFFFFFFFFFFFFFFFFFFFFFF DUP3 AND SWAP1 POP SWAP2 SWAP1 POP JUMP JUMPDEST PUSH1 0x0 DUP2 SWAP1 POP SWAP2 SWAP1 POP JUMP JUMPDEST PUSH1 0x0 DUP1 REVERT JUMPDEST PUSH2 0x5D3 DUP2 PUSH2 0x57D JUMP JUMPDEST DUP2 EQ PUSH2 0x5DE JUMPI PUSH1 0x0 DUP1 REVERT JUMPDEST POP JUMP JUMPDEST PUSH2 0x5EA DUP2 PUSH2 0x58F JUMP JUMPDEST DUP2 EQ PUSH2 0x5F5 JUMPI PUSH1 0x0 DUP1 REVERT JUMPDEST POP JUMP JUMPDEST PUSH2 0x601 DUP2 PUSH2 0x5BB JUMP JUMPDEST DUP2 EQ PUSH2 0x60C JUMPI PUSH1 0x0 DUP1 REVERT JUMPDEST POP JUMP INVALID LOG2 PUSH5 0x6970667358 0x22 SLT KECCAK256 CODESIZE MSIZE DUP6 DUP14 0xB5 SWAP11 CALLDATASIZE OR PC PUSH22 0x5F7587AB24188356BAFC6378C201D4A8CBCC87A36D16 PUSH5 0x736F6C6343 STOP ADDMOD SMOD STOP CALLER "
		},
		"gasEstimates": {
			"creation": {
				"codeDepositCost": "321000",
				"executionCost": "362",
				"totalCost": "321362"
			},
			"external": {
				"erc20_transfer(address,address,uint256)": "infinite",
				"rdToken_acceptOwnership(address)": "infinite",
				"rdToken_setPendingOwner(address,address)": "infinite",
				"rdToken_updateVestingSchedule(address,uint256)": "infinite"
			}
		},
		"methodIdentifiers": {
			"erc20_transfer(address,address,uint256)": "7fe25581",
			"rdToken_acceptOwnership(address)": "acbf94c9",
			"rdToken_setPendingOwner(address,address)": "b428d7db",
			"rdToken_updateVestingSchedule(address,uint256)": "1c45353f"
		}
	},
	"abi": [
		{
			"inputs": [
				{
					"internalType": "address",
					"name": "token_",
					"type": "address"
				},
				{
					"internalType": "address",
					"name": "receiver_",
					"type": "address"
				},
				{
					"internalType": "uint256",
					"name": "amount_",
					"type": "uint256"
				}
			],
			"name": "erc20_transfer",
			"outputs": [
				{
					"internalType": "bool",
					"name": "success_",
					"type": "bool"
				}
			],
			"stateMutability": "nonpayable",
			"type": "function"
		},
		{
			"inputs": [
				{
					"internalType": "address",
					"name": "rdt_",
					"type": "address"
				}
			],
			"name": "rdToken_acceptOwnership",
			"outputs": [],
			"stateMutability": "nonpayable",
			"type": "function"
		},
		{
			"inputs": [
				{
					"internalType": "address",
					"name": "rdt_",
					"type": "address"
				},
				{
					"internalType": "address",
					"name": "pendingOwner_",
					"type": "address"
				}
			],
			"name": "rdToken_setPendingOwner",
			"outputs": [],
			"stateMutability": "nonpayable",
			"type": "function"
		},
		{
			"inputs": [
				{
					"internalType": "address",
					"name": "rdt_",
					"type": "address"
				},
				{
					"internalType": "uint256",
					"name": "vestingPeriod_",
					"type": "uint256"
				}
			],
			"name": "rdToken_updateVestingSchedule",
			"outputs": [
				{
					"internalType": "uint256",
					"name": "issuanceRate_",
					"type": "uint256"
				},
				{
					"internalType": "uint256",
					"name": "freeAssets_",
					"type": "uint256"
				}
			],
			"stateMutability": "nonpayable",
			"type": "function"
		}
	]
}