{
	"contracts/test/utils/InvariantTest.sol": {
		"InvariantTest": {
			"abi": [
				{
					"inputs": [],
					"name": "targetContracts",
					"outputs": [
						{
							"internalType": "address[]",
							"name": "targetContracts_",
							"type": "address[]"
						}
					],
					"stateMutability": "view",
					"type": "function"
				}
			],
			"devdoc": {
				"kind": "dev",
				"methods": {},
				"version": 1
			},
			"evm": {
				"assembly": "    /* \"contracts/test/utils/InvariantTest.sol\":76:480  contract InvariantTest {... */\n  mstore(0x40, 0x80)\n  callvalue\n  dup1\n  iszero\n  tag_1\n  jumpi\n  0x00\n  dup1\n  revert\ntag_1:\n  pop\n  dataSize(sub_0)\n  dup1\n  dataOffset(sub_0)\n  0x00\n  codecopy\n  0x00\n  return\nstop\n\nsub_0: assembly {\n        /* \"contracts/test/utils/InvariantTest.sol\":76:480  contract InvariantTest {... */\n      mstore(0x40, 0x80)\n      callvalue\n      dup1\n      iszero\n      tag_1\n      jumpi\n      0x00\n      dup1\n      revert\n    tag_1:\n      pop\n      jumpi(tag_2, lt(calldatasize, 0x04))\n      shr(0xe0, calldataload(0x00))\n      dup1\n      0x3f7286f4\n      eq\n      tag_3\n      jumpi\n    tag_2:\n      0x00\n      dup1\n      revert\n        /* \"contracts/test/utils/InvariantTest.sol\":275:477  function targetContracts() public view returns (address[] memory targetContracts_) {... */\n    tag_3:\n      tag_4\n      tag_5\n      jump\t// in\n    tag_4:\n      mload(0x40)\n      tag_6\n      swap2\n      swap1\n      tag_7\n      jump\t// in\n    tag_6:\n      mload(0x40)\n      dup1\n      swap2\n      sub\n      swap1\n      return\n    tag_5:\n        /* \"contracts/test/utils/InvariantTest.sol\":323:356  address[] memory targetContracts_ */\n      0x60\n        /* \"contracts/test/utils/InvariantTest.sol\":411:412  0 */\n      0x00\n        /* \"contracts/test/utils/InvariantTest.sol\":376:392  _targetContracts */\n      dup1\n        /* \"contracts/test/utils/InvariantTest.sol\":376:399  _targetContracts.length */\n      dup1\n      sload\n      swap1\n      pop\n        /* \"contracts/test/utils/InvariantTest.sol\":376:413  _targetContracts.length != uint256(0) */\n      eq\n      iszero\n        /* \"contracts/test/utils/InvariantTest.sol\":368:437  require(_targetContracts.length != uint256(0), \"NO_TARGET_CONTRACTS\") */\n      tag_9\n      jumpi\n      mload(0x40)\n      0x08c379a000000000000000000000000000000000000000000000000000000000\n      dup2\n      mstore\n      0x04\n      add\n      tag_10\n      swap1\n      tag_11\n      jump\t// in\n    tag_10:\n      mload(0x40)\n      dup1\n      swap2\n      sub\n      swap1\n      revert\n    tag_9:\n        /* \"contracts/test/utils/InvariantTest.sol\":454:470  _targetContracts */\n      0x00\n        /* \"contracts/test/utils/InvariantTest.sol\":447:470  return _targetContracts */\n      dup1\n      sload\n      dup1\n      0x20\n      mul\n      0x20\n      add\n      mload(0x40)\n      swap1\n      dup2\n      add\n      0x40\n      mstore\n      dup1\n      swap3\n      swap2\n      swap1\n      dup2\n      dup2\n      mstore\n      0x20\n      add\n      dup3\n      dup1\n      sload\n      dup1\n      iszero\n      tag_12\n      jumpi\n      0x20\n      mul\n      dup3\n      add\n      swap2\n      swap1\n      0x00\n      mstore\n      keccak256(0x00, 0x20)\n      swap1\n    tag_13:\n      dup2\n      0x00\n      swap1\n      sload\n      swap1\n      0x0100\n      exp\n      swap1\n      div\n      0xffffffffffffffffffffffffffffffffffffffff\n      and\n      0xffffffffffffffffffffffffffffffffffffffff\n      and\n      dup2\n      mstore\n      0x20\n      add\n      swap1\n      0x01\n      add\n      swap1\n      dup1\n      dup4\n      gt\n      tag_13\n      jumpi\n    tag_12:\n      pop\n      pop\n      pop\n      pop\n      pop\n      swap1\n      pop\n        /* \"contracts/test/utils/InvariantTest.sol\":275:477  function targetContracts() public view returns (address[] memory targetContracts_) {... */\n      swap1\n      jump\t// out\n        /* \"#utility.yul\":7:186   */\n    tag_15:\n        /* \"#utility.yul\":76:86   */\n      0x00\n        /* \"#utility.yul\":97:143   */\n      tag_17\n        /* \"#utility.yul\":139:142   */\n      dup4\n        /* \"#utility.yul\":131:137   */\n      dup4\n        /* \"#utility.yul\":97:143   */\n      tag_18\n      jump\t// in\n    tag_17:\n        /* \"#utility.yul\":175:179   */\n      0x20\n        /* \"#utility.yul\":170:173   */\n      dup4\n        /* \"#utility.yul\":166:180   */\n      add\n        /* \"#utility.yul\":152:180   */\n      swap1\n      pop\n        /* \"#utility.yul\":7:186   */\n      swap3\n      swap2\n      pop\n      pop\n      jump\t// out\n        /* \"#utility.yul\":192:300   */\n    tag_18:\n        /* \"#utility.yul\":269:293   */\n      tag_20\n        /* \"#utility.yul\":287:292   */\n      dup2\n        /* \"#utility.yul\":269:293   */\n      tag_21\n      jump\t// in\n    tag_20:\n        /* \"#utility.yul\":264:267   */\n      dup3\n        /* \"#utility.yul\":257:294   */\n      mstore\n        /* \"#utility.yul\":192:300   */\n      pop\n      pop\n      jump\t// out\n        /* \"#utility.yul\":336:1068   */\n    tag_22:\n        /* \"#utility.yul\":455:458   */\n      0x00\n        /* \"#utility.yul\":484:538   */\n      tag_24\n        /* \"#utility.yul\":532:537   */\n      dup3\n        /* \"#utility.yul\":484:538   */\n      tag_25\n      jump\t// in\n    tag_24:\n        /* \"#utility.yul\":554:640   */\n      tag_26\n        /* \"#utility.yul\":633:639   */\n      dup2\n        /* \"#utility.yul\":628:631   */\n      dup6\n        /* \"#utility.yul\":554:640   */\n      tag_27\n      jump\t// in\n    tag_26:\n        /* \"#utility.yul\":547:640   */\n      swap4\n      pop\n        /* \"#utility.yul\":664:720   */\n      tag_28\n        /* \"#utility.yul\":714:719   */\n      dup4\n        /* \"#utility.yul\":664:720   */\n      tag_29\n      jump\t// in\n    tag_28:\n        /* \"#utility.yul\":743:750   */\n      dup1\n        /* \"#utility.yul\":774:775   */\n      0x00\n        /* \"#utility.yul\":759:1043   */\n    tag_30:\n        /* \"#utility.yul\":784:790   */\n      dup4\n        /* \"#utility.yul\":781:782   */\n      dup2\n        /* \"#utility.yul\":778:791   */\n      lt\n        /* \"#utility.yul\":759:1043   */\n      iszero\n      tag_32\n      jumpi\n        /* \"#utility.yul\":860:866   */\n      dup2\n        /* \"#utility.yul\":854:867   */\n      mload\n        /* \"#utility.yul\":887:950   */\n      tag_33\n        /* \"#utility.yul\":946:949   */\n      dup9\n        /* \"#utility.yul\":931:944   */\n      dup3\n        /* \"#utility.yul\":887:950   */\n      tag_15\n      jump\t// in\n    tag_33:\n        /* \"#utility.yul\":880:950   */\n      swap8\n      pop\n        /* \"#utility.yul\":973:1033   */\n      tag_34\n        /* \"#utility.yul\":1026:1032   */\n      dup4\n        /* \"#utility.yul\":973:1033   */\n      tag_35\n      jump\t// in\n    tag_34:\n        /* \"#utility.yul\":963:1033   */\n      swap3\n      pop\n        /* \"#utility.yul\":819:1043   */\n      pop\n        /* \"#utility.yul\":806:807   */\n      0x01\n        /* \"#utility.yul\":803:804   */\n      dup2\n        /* \"#utility.yul\":799:808   */\n      add\n        /* \"#utility.yul\":794:808   */\n      swap1\n      pop\n        /* \"#utility.yul\":759:1043   */\n      jump(tag_30)\n    tag_32:\n        /* \"#utility.yul\":763:777   */\n      pop\n        /* \"#utility.yul\":1059:1062   */\n      dup6\n        /* \"#utility.yul\":1052:1062   */\n      swap4\n      pop\n        /* \"#utility.yul\":460:1068   */\n      pop\n      pop\n      pop\n        /* \"#utility.yul\":336:1068   */\n      swap3\n      swap2\n      pop\n      pop\n      jump\t// out\n        /* \"#utility.yul\":1074:1440   */\n    tag_36:\n        /* \"#utility.yul\":1216:1219   */\n      0x00\n        /* \"#utility.yul\":1237:1304   */\n      tag_38\n        /* \"#utility.yul\":1301:1303   */\n      0x13\n        /* \"#utility.yul\":1296:1299   */\n      dup4\n        /* \"#utility.yul\":1237:1304   */\n      tag_39\n      jump\t// in\n    tag_38:\n        /* \"#utility.yul\":1230:1304   */\n      swap2\n      pop\n        /* \"#utility.yul\":1313:1406   */\n      tag_40\n        /* \"#utility.yul\":1402:1405   */\n      dup3\n        /* \"#utility.yul\":1313:1406   */\n      tag_41\n      jump\t// in\n    tag_40:\n        /* \"#utility.yul\":1431:1433   */\n      0x20\n        /* \"#utility.yul\":1426:1429   */\n      dup3\n        /* \"#utility.yul\":1422:1434   */\n      add\n        /* \"#utility.yul\":1415:1434   */\n      swap1\n      pop\n        /* \"#utility.yul\":1074:1440   */\n      swap2\n      swap1\n      pop\n      jump\t// out\n        /* \"#utility.yul\":1446:1819   */\n    tag_7:\n        /* \"#utility.yul\":1589:1593   */\n      0x00\n        /* \"#utility.yul\":1627:1629   */\n      0x20\n        /* \"#utility.yul\":1616:1625   */\n      dup3\n        /* \"#utility.yul\":1612:1630   */\n      add\n        /* \"#utility.yul\":1604:1630   */\n      swap1\n      pop\n        /* \"#utility.yul\":1676:1685   */\n      dup2\n        /* \"#utility.yul\":1670:1674   */\n      dup2\n        /* \"#utility.yul\":1666:1686   */\n      sub\n        /* \"#utility.yul\":1662:1663   */\n      0x00\n        /* \"#utility.yul\":1651:1660   */\n      dup4\n        /* \"#utility.yul\":1647:1664   */\n      add\n        /* \"#utility.yul\":1640:1687   */\n      mstore\n        /* \"#utility.yul\":1704:1812   */\n      tag_43\n        /* \"#utility.yul\":1807:1811   */\n      dup2\n        /* \"#utility.yul\":1798:1804   */\n      dup5\n        /* \"#utility.yul\":1704:1812   */\n      tag_22\n      jump\t// in\n    tag_43:\n        /* \"#utility.yul\":1696:1812   */\n      swap1\n      pop\n        /* \"#utility.yul\":1446:1819   */\n      swap3\n      swap2\n      pop\n      pop\n      jump\t// out\n        /* \"#utility.yul\":1825:2244   */\n    tag_11:\n        /* \"#utility.yul\":1991:1995   */\n      0x00\n        /* \"#utility.yul\":2029:2031   */\n      0x20\n        /* \"#utility.yul\":2018:2027   */\n      dup3\n        /* \"#utility.yul\":2014:2032   */\n      add\n        /* \"#utility.yul\":2006:2032   */\n      swap1\n      pop\n        /* \"#utility.yul\":2078:2087   */\n      dup2\n        /* \"#utility.yul\":2072:2076   */\n      dup2\n        /* \"#utility.yul\":2068:2088   */\n      sub\n        /* \"#utility.yul\":2064:2065   */\n      0x00\n        /* \"#utility.yul\":2053:2062   */\n      dup4\n        /* \"#utility.yul\":2049:2066   */\n      add\n        /* \"#utility.yul\":2042:2089   */\n      mstore\n        /* \"#utility.yul\":2106:2237   */\n      tag_45\n        /* \"#utility.yul\":2232:2236   */\n      dup2\n        /* \"#utility.yul\":2106:2237   */\n      tag_36\n      jump\t// in\n    tag_45:\n        /* \"#utility.yul\":2098:2237   */\n      swap1\n      pop\n        /* \"#utility.yul\":1825:2244   */\n      swap2\n      swap1\n      pop\n      jump\t// out\n        /* \"#utility.yul\":2250:2382   */\n    tag_29:\n        /* \"#utility.yul\":2317:2321   */\n      0x00\n        /* \"#utility.yul\":2340:2343   */\n      dup2\n        /* \"#utility.yul\":2332:2343   */\n      swap1\n      pop\n        /* \"#utility.yul\":2370:2374   */\n      0x20\n        /* \"#utility.yul\":2365:2368   */\n      dup3\n        /* \"#utility.yul\":2361:2375   */\n      add\n        /* \"#utility.yul\":2353:2375   */\n      swap1\n      pop\n        /* \"#utility.yul\":2250:2382   */\n      swap2\n      swap1\n      pop\n      jump\t// out\n        /* \"#utility.yul\":2388:2502   */\n    tag_25:\n        /* \"#utility.yul\":2455:2461   */\n      0x00\n        /* \"#utility.yul\":2489:2494   */\n      dup2\n        /* \"#utility.yul\":2483:2495   */\n      mload\n        /* \"#utility.yul\":2473:2495   */\n      swap1\n      pop\n        /* \"#utility.yul\":2388:2502   */\n      swap2\n      swap1\n      pop\n      jump\t// out\n        /* \"#utility.yul\":2508:2621   */\n    tag_35:\n        /* \"#utility.yul\":2578:2582   */\n      0x00\n        /* \"#utility.yul\":2610:2614   */\n      0x20\n        /* \"#utility.yul\":2605:2608   */\n      dup3\n        /* \"#utility.yul\":2601:2615   */\n      add\n        /* \"#utility.yul\":2593:2615   */\n      swap1\n      pop\n        /* \"#utility.yul\":2508:2621   */\n      swap2\n      swap1\n      pop\n      jump\t// out\n        /* \"#utility.yul\":2627:2811   */\n    tag_27:\n        /* \"#utility.yul\":2726:2737   */\n      0x00\n        /* \"#utility.yul\":2760:2766   */\n      dup3\n        /* \"#utility.yul\":2755:2758   */\n      dup3\n        /* \"#utility.yul\":2748:2767   */\n      mstore\n        /* \"#utility.yul\":2800:2804   */\n      0x20\n        /* \"#utility.yul\":2795:2798   */\n      dup3\n        /* \"#utility.yul\":2791:2805   */\n      add\n        /* \"#utility.yul\":2776:2805   */\n      swap1\n      pop\n        /* \"#utility.yul\":2627:2811   */\n      swap3\n      swap2\n      pop\n      pop\n      jump\t// out\n        /* \"#utility.yul\":2817:2986   */\n    tag_39:\n        /* \"#utility.yul\":2901:2912   */\n      0x00\n        /* \"#utility.yul\":2935:2941   */\n      dup3\n        /* \"#utility.yul\":2930:2933   */\n      dup3\n        /* \"#utility.yul\":2923:2942   */\n      mstore\n        /* \"#utility.yul\":2975:2979   */\n      0x20\n        /* \"#utility.yul\":2970:2973   */\n      dup3\n        /* \"#utility.yul\":2966:2980   */\n      add\n        /* \"#utility.yul\":2951:2980   */\n      swap1\n      pop\n        /* \"#utility.yul\":2817:2986   */\n      swap3\n      swap2\n      pop\n      pop\n      jump\t// out\n        /* \"#utility.yul\":2992:3088   */\n    tag_21:\n        /* \"#utility.yul\":3029:3036   */\n      0x00\n        /* \"#utility.yul\":3058:3082   */\n      tag_52\n        /* \"#utility.yul\":3076:3081   */\n      dup3\n        /* \"#utility.yul\":3058:3082   */\n      tag_53\n      jump\t// in\n    tag_52:\n        /* \"#utility.yul\":3047:3082   */\n      swap1\n      pop\n        /* \"#utility.yul\":2992:3088   */\n      swap2\n      swap1\n      pop\n      jump\t// out\n        /* \"#utility.yul\":3094:3220   */\n    tag_53:\n        /* \"#utility.yul\":3131:3138   */\n      0x00\n        /* \"#utility.yul\":3171:3213   */\n      0xffffffffffffffffffffffffffffffffffffffff\n        /* \"#utility.yul\":3164:3169   */\n      dup3\n        /* \"#utility.yul\":3160:3214   */\n      and\n        /* \"#utility.yul\":3149:3214   */\n      swap1\n      pop\n        /* \"#utility.yul\":3094:3220   */\n      swap2\n      swap1\n      pop\n      jump\t// out\n        /* \"#utility.yul\":3226:3395   */\n    tag_41:\n        /* \"#utility.yul\":3366:3387   */\n      0x4e4f5f5441524745545f434f4e54524143545300000000000000000000000000\n        /* \"#utility.yul\":3362:3363   */\n      0x00\n        /* \"#utility.yul\":3354:3360   */\n      dup3\n        /* \"#utility.yul\":3350:3364   */\n      add\n        /* \"#utility.yul\":3343:3388   */\n      mstore\n        /* \"#utility.yul\":3226:3395   */\n      pop\n      jump\t// out\n\n    auxdata: 0xa264697066735822122031031c33b36dbaf4cb90b123708c286c9c6bfc4433d58656001e9f01b4bc711664736f6c63430008070033\n}\n",
				"bytecode": {
					"linkReferences": {},
					"object": "608060405234801561001057600080fd5b506102e9806100206000396000f3fe608060405234801561001057600080fd5b506004361061002b5760003560e01c80633f7286f414610030575b600080fd5b61003861004e565b60405161004591906101cc565b60405180910390f35b6060600080805490501415610098576040517f08c379a000000000000000000000000000000000000000000000000000000000815260040161008f906101ee565b60405180910390fd5b600080548060200260200160405190810160405280929190818152602001828054801561011a57602002820191906000526020600020905b8160009054906101000a900473ffffffffffffffffffffffffffffffffffffffff1673ffffffffffffffffffffffffffffffffffffffff16815260200190600101908083116100d0575b5050505050905090565b6000610130838361013c565b60208301905092915050565b61014581610258565b82525050565b60006101568261021e565b6101608185610236565b935061016b8361020e565b8060005b8381101561019c5781516101838882610124565b975061018e83610229565b92505060018101905061016f565b5085935050505092915050565b60006101b6601383610247565b91506101c18261028a565b602082019050919050565b600060208201905081810360008301526101e6818461014b565b905092915050565b60006020820190508181036000830152610207816101a9565b9050919050565b6000819050602082019050919050565b600081519050919050565b6000602082019050919050565b600082825260208201905092915050565b600082825260208201905092915050565b60006102638261026a565b9050919050565b600073ffffffffffffffffffffffffffffffffffffffff82169050919050565b7f4e4f5f5441524745545f434f4e5452414354530000000000000000000000000060008201525056fea264697066735822122031031c33b36dbaf4cb90b123708c286c9c6bfc4433d58656001e9f01b4bc711664736f6c63430008070033",
					"opcodes": "PUSH1 0x80 PUSH1 0x40 MSTORE CALLVALUE DUP1 ISZERO PUSH2 0x10 JUMPI PUSH1 0x0 DUP1 REVERT JUMPDEST POP PUSH2 0x2E9 DUP1 PUSH2 0x20 PUSH1 0x0 CODECOPY PUSH1 0x0 RETURN INVALID PUSH1 0x80 PUSH1 0x40 MSTORE CALLVALUE DUP1 ISZERO PUSH2 0x10 JUMPI PUSH1 0x0 DUP1 REVERT JUMPDEST POP PUSH1 0x4 CALLDATASIZE LT PUSH2 0x2B JUMPI PUSH1 0x0 CALLDATALOAD PUSH1 0xE0 SHR DUP1 PUSH4 0x3F7286F4 EQ PUSH2 0x30 JUMPI JUMPDEST PUSH1 0x0 DUP1 REVERT JUMPDEST PUSH2 0x38 PUSH2 0x4E JUMP JUMPDEST PUSH1 0x40 MLOAD PUSH2 0x45 SWAP2 SWAP1 PUSH2 0x1CC JUMP JUMPDEST PUSH1 0x40 MLOAD DUP1 SWAP2 SUB SWAP1 RETURN JUMPDEST PUSH1 0x60 PUSH1 0x0 DUP1 DUP1 SLOAD SWAP1 POP EQ ISZERO PUSH2 0x98 JUMPI PUSH1 0x40 MLOAD PUSH32 0x8C379A000000000000000000000000000000000000000000000000000000000 DUP2 MSTORE PUSH1 0x4 ADD PUSH2 0x8F SWAP1 PUSH2 0x1EE JUMP JUMPDEST PUSH1 0x40 MLOAD DUP1 SWAP2 SUB SWAP1 REVERT JUMPDEST PUSH1 0x0 DUP1 SLOAD DUP1 PUSH1 0x20 MUL PUSH1 0x20 ADD PUSH1 0x40 MLOAD SWAP1 DUP2 ADD PUSH1 0x40 MSTORE DUP1 SWAP3 SWAP2 SWAP1 DUP2 DUP2 MSTORE PUSH1 0x20 ADD DUP3 DUP1 SLOAD DUP1 ISZERO PUSH2 0x11A JUMPI PUSH1 0x20 MUL DUP3 ADD SWAP2 SWAP1 PUSH1 0x0 MSTORE PUSH1 0x20 PUSH1 0x0 KECCAK256 SWAP1 JUMPDEST DUP2 PUSH1 0x0 SWAP1 SLOAD SWAP1 PUSH2 0x100 EXP SWAP1 DIV PUSH20 0xFFFFFFFFFFFFFFFFFFFFFFFFFFFFFFFFFFFFFFFF AND PUSH20 0xFFFFFFFFFFFFFFFFFFFFFFFFFFFFFFFFFFFFFFFF AND DUP2 MSTORE PUSH1 0x20 ADD SWAP1 PUSH1 0x1 ADD SWAP1 DUP1 DUP4 GT PUSH2 0xD0 JUMPI JUMPDEST POP POP POP POP POP SWAP1 POP SWAP1 JUMP JUMPDEST PUSH1 0x0 PUSH2 0x130 DUP4 DUP4 PUSH2 0x13C JUMP JUMPDEST PUSH1 0x20 DUP4 ADD SWAP1 POP SWAP3 SWAP2 POP POP JUMP JUMPDEST PUSH2 0x145 DUP2 PUSH2 0x258 JUMP JUMPDEST DUP3 MSTORE POP POP JUMP JUMPDEST PUSH1 0x0 PUSH2 0x156 DUP3 PUSH2 0x21E JUMP JUMPDEST PUSH2 0x160 DUP2 DUP6 PUSH2 0x236 JUMP JUMPDEST SWAP4 POP PUSH2 0x16B DUP4 PUSH2 0x20E JUMP JUMPDEST DUP1 PUSH1 0x0 JUMPDEST DUP4 DUP2 LT ISZERO PUSH2 0x19C JUMPI DUP2 MLOAD PUSH2 0x183 DUP9 DUP3 PUSH2 0x124 JUMP JUMPDEST SWAP8 POP PUSH2 0x18E DUP4 PUSH2 0x229 JUMP JUMPDEST SWAP3 POP POP PUSH1 0x1 DUP2 ADD SWAP1 POP PUSH2 0x16F JUMP JUMPDEST POP DUP6 SWAP4 POP POP POP POP SWAP3 SWAP2 POP POP JUMP JUMPDEST PUSH1 0x0 PUSH2 0x1B6 PUSH1 0x13 DUP4 PUSH2 0x247 JUMP JUMPDEST SWAP2 POP PUSH2 0x1C1 DUP3 PUSH2 0x28A JUMP JUMPDEST PUSH1 0x20 DUP3 ADD SWAP1 POP SWAP2 SWAP1 POP JUMP JUMPDEST PUSH1 0x0 PUSH1 0x20 DUP3 ADD SWAP1 POP DUP2 DUP2 SUB PUSH1 0x0 DUP4 ADD MSTORE PUSH2 0x1E6 DUP2 DUP5 PUSH2 0x14B JUMP JUMPDEST SWAP1 POP SWAP3 SWAP2 POP POP JUMP JUMPDEST PUSH1 0x0 PUSH1 0x20 DUP3 ADD SWAP1 POP DUP2 DUP2 SUB PUSH1 0x0 DUP4 ADD MSTORE PUSH2 0x207 DUP2 PUSH2 0x1A9 JUMP JUMPDEST SWAP1 POP SWAP2 SWAP1 POP JUMP JUMPDEST PUSH1 0x0 DUP2 SWAP1 POP PUSH1 0x20 DUP3 ADD SWAP1 POP SWAP2 SWAP1 POP JUMP JUMPDEST PUSH1 0x0 DUP2 MLOAD SWAP1 POP SWAP2 SWAP1 POP JUMP JUMPDEST PUSH1 0x0 PUSH1 0x20 DUP3 ADD SWAP1 POP SWAP2 SWAP1 POP JUMP JUMPDEST PUSH1 0x0 DUP3 DUP3 MSTORE PUSH1 0x20 DUP3 ADD SWAP1 POP SWAP3 SWAP2 POP POP JUMP JUMPDEST PUSH1 0x0 DUP3 DUP3 MSTORE PUSH1 0x20 DUP3 ADD SWAP1 POP SWAP3 SWAP2 POP POP JUMP JUMPDEST PUSH1 0x0 PUSH2 0x263 DUP3 PUSH2 0x26A JUMP JUMPDEST SWAP1 POP SWAP2 SWAP1 POP JUMP JUMPDEST PUSH1 0x0 PUSH20 0xFFFFFFFFFFFFFFFFFFFFFFFFFFFFFFFFFFFFFFFF DUP3 AND SWAP1 POP SWAP2 SWAP1 POP JUMP JUMPDEST PUSH32 0x4E4F5F5441524745545F434F4E54524143545300000000000000000000000000 PUSH1 0x0 DUP3 ADD MSTORE POP JUMP INVALID LOG2 PUSH5 0x6970667358 0x22 SLT KECCAK256 BALANCE SUB SHR CALLER 0xB3 PUSH14 0xBAF4CB90B123708C286C9C6BFC44 CALLER 0xD5 DUP7 JUMP STOP 0x1E SWAP16 ADD 0xB4 0xBC PUSH18 0x1664736F6C63430008070033000000000000 "
				},
				"gasEstimates": {
					"creation": {
						"codeDepositCost": "149000",
						"executionCost": "196",
						"totalCost": "149196"
					},
					"external": {
						"targetContracts()": "infinite"
					},
					"internal": {
						"addTargetContract(address)": "infinite"
					}
				},
				"methodIdentifiers": {
					"targetContracts()": "3f7286f4"
				}
			},
			"storageLayout": {
				"storage": [
					{
						"astId": 4,
						"contract": "contracts/test/utils/InvariantTest.sol:InvariantTest",
						"label": "_targetContracts",
						"offset": 0,
						"slot": "0",
						"type": "t_array(t_address)dyn_storage"
					}
				],
				"types": {
					"t_address": {
						"encoding": "inplace",
						"label": "address",
						"numberOfBytes": "20"
					},
					"t_array(t_address)dyn_storage": {
						"base": "t_address",
						"encoding": "dynamic_array",
						"label": "address[]",
						"numberOfBytes": "32"
					}
				}
			},
			"userdoc": {
				"kind": "user",
				"methods": {},
				"version": 1
			}
		}
	}
}