{
	"contracts/test/mocks/MockRevertingERC20.sol": {
		"MockRevertingERC20": {
			"abi": [
				{
					"inputs": [
						{
							"internalType": "string",
							"name": "name_",
							"type": "string"
						},
						{
							"internalType": "string",
							"name": "symbol_",
							"type": "string"
						},
						{
							"internalType": "uint8",
							"name": "decimals_",
							"type": "uint8"
						},
						{
							"internalType": "address",
							"name": "revertingDestination_",
							"type": "address"
						}
					],
					"stateMutability": "nonpayable",
					"type": "constructor"
				},
				{
					"inputs": [
						{
							"internalType": "address",
							"name": "",
							"type": "address"
						},
						{
							"internalType": "address",
							"name": "",
							"type": "address"
						}
					],
					"name": "allowance",
					"outputs": [
						{
							"internalType": "uint256",
							"name": "",
							"type": "uint256"
						}
					],
					"stateMutability": "view",
					"type": "function"
				},
				{
					"inputs": [
						{
							"internalType": "address",
							"name": "spender_",
							"type": "address"
						},
						{
							"internalType": "uint256",
							"name": "amount_",
							"type": "uint256"
						}
					],
					"name": "approve",
					"outputs": [
						{
							"internalType": "bool",
							"name": "success_",
							"type": "bool"
						}
					],
					"stateMutability": "nonpayable",
					"type": "function"
				},
				{
					"inputs": [
						{
							"internalType": "address",
							"name": "",
							"type": "address"
						}
					],
					"name": "balanceOf",
					"outputs": [
						{
							"internalType": "uint256",
							"name": "",
							"type": "uint256"
						}
					],
					"stateMutability": "view",
					"type": "function"
				},
				{
					"inputs": [
						{
							"internalType": "address",
							"name": "from_",
							"type": "address"
						},
						{
							"internalType": "uint256",
							"name": "amount_",
							"type": "uint256"
						}
					],
					"name": "burn",
					"outputs": [],
					"stateMutability": "nonpayable",
					"type": "function"
				},
				{
					"inputs": [],
					"name": "decimals",
					"outputs": [
						{
							"internalType": "uint8",
							"name": "",
							"type": "uint8"
						}
					],
					"stateMutability": "view",
					"type": "function"
				},
				{
					"inputs": [
						{
							"internalType": "address",
							"name": "recipient_",
							"type": "address"
						},
						{
							"internalType": "uint256",
							"name": "amount_",
							"type": "uint256"
						}
					],
					"name": "mint",
					"outputs": [],
					"stateMutability": "nonpayable",
					"type": "function"
				},
				{
					"inputs": [],
					"name": "name",
					"outputs": [
						{
							"internalType": "string",
							"name": "",
							"type": "string"
						}
					],
					"stateMutability": "view",
					"type": "function"
				},
				{
					"inputs": [],
					"name": "revertingDestination",
					"outputs": [
						{
							"internalType": "address",
							"name": "",
							"type": "address"
						}
					],
					"stateMutability": "view",
					"type": "function"
				},
				{
					"inputs": [],
					"name": "symbol",
					"outputs": [
						{
							"internalType": "string",
							"name": "",
							"type": "string"
						}
					],
					"stateMutability": "view",
					"type": "function"
				},
				{
					"inputs": [],
					"name": "totalSupply",
					"outputs": [
						{
							"internalType": "uint256",
							"name": "",
							"type": "uint256"
						}
					],
					"stateMutability": "view",
					"type": "function"
				},
				{
					"inputs": [
						{
							"internalType": "address",
							"name": "recipient_",
							"type": "address"
						},
						{
							"internalType": "uint256",
							"name": "amount_",
							"type": "uint256"
						}
					],
					"name": "transfer",
					"outputs": [
						{
							"internalType": "bool",
							"name": "success_",
							"type": "bool"
						}
					],
					"stateMutability": "nonpayable",
					"type": "function"
				},
				{
					"inputs": [
						{
							"internalType": "address",
							"name": "owner_",
							"type": "address"
						},
						{
							"internalType": "address",
							"name": "recipient_",
							"type": "address"
						},
						{
							"internalType": "uint256",
							"name": "amount_",
							"type": "uint256"
						}
					],
					"name": "transferFrom",
					"outputs": [
						{
							"internalType": "bool",
							"name": "success_",
							"type": "bool"
						}
					],
					"stateMutability": "nonpayable",
					"type": "function"
				}
			],
			"devdoc": {
				"kind": "dev",
				"methods": {},
				"version": 1
			},
			"evm": {
				"assembly": "    /* \"contracts/test/mocks/MockRevertingERC20.sol\":76:2388  contract MockRevertingERC20 {... */\n  mstore(0x40, 0xa0)\n    /* \"contracts/test/mocks/MockRevertingERC20.sol\":397:682  constructor(string memory name_, string memory symbol_, uint8 decimals_, address revertingDestination_) {... */\n  callvalue\n  dup1\n  iszero\n  tag_1\n  jumpi\n  0x00\n  dup1\n  revert\ntag_1:\n  pop\n  mload(0x40)\n  sub(codesize, bytecodeSize)\n  dup1\n  bytecodeSize\n  dup4\n  codecopy\n  dup2\n  dup2\n  add\n  0x40\n  mstore\n  dup2\n  add\n  swap1\n  tag_2\n  swap2\n  swap1\n  tag_3\n  jump\t// in\ntag_2:\n    /* \"contracts/test/mocks/MockRevertingERC20.sol\":534:539  name_ */\n  dup4\n    /* \"contracts/test/mocks/MockRevertingERC20.sol\":511:515  name */\n  0x00\n    /* \"contracts/test/mocks/MockRevertingERC20.sol\":511:539  name                 = name_ */\n  swap1\n  dup1\n  mload\n  swap1\n  0x20\n  add\n  swap1\n  tag_6\n  swap3\n  swap2\n  swap1\n  tag_7\n  jump\t// in\ntag_6:\n  pop\n    /* \"contracts/test/mocks/MockRevertingERC20.sol\":572:579  symbol_ */\n  dup3\n    /* \"contracts/test/mocks/MockRevertingERC20.sol\":549:555  symbol */\n  0x01\n    /* \"contracts/test/mocks/MockRevertingERC20.sol\":549:579  symbol               = symbol_ */\n  swap1\n  dup1\n  mload\n  swap1\n  0x20\n  add\n  swap1\n  tag_8\n  swap3\n  swap2\n  swap1\n  tag_7\n  jump\t// in\ntag_8:\n  pop\n    /* \"contracts/test/mocks/MockRevertingERC20.sol\":612:621  decimals_ */\n  dup2\n    /* \"contracts/test/mocks/MockRevertingERC20.sol\":589:621  decimals             = decimals_ */\n  0xff\n  and\n  0x80\n  dup2\n  0xff\n  and\n  0xf8\n  shl\n  dup2\n  mstore\n  pop\n  pop\n    /* \"contracts/test/mocks/MockRevertingERC20.sol\":654:675  revertingDestination_ */\n  dup1\n    /* \"contracts/test/mocks/MockRevertingERC20.sol\":631:651  revertingDestination */\n  0x03\n  0x00\n    /* \"contracts/test/mocks/MockRevertingERC20.sol\":631:675  revertingDestination = revertingDestination_ */\n  0x0100\n  exp\n  dup2\n  sload\n  dup2\n  0xffffffffffffffffffffffffffffffffffffffff\n  mul\n  not\n  and\n  swap1\n  dup4\n  0xffffffffffffffffffffffffffffffffffffffff\n  and\n  mul\n  or\n  swap1\n  sstore\n  pop\n    /* \"contracts/test/mocks/MockRevertingERC20.sol\":397:682  constructor(string memory name_, string memory symbol_, uint8 decimals_, address revertingDestination_) {... */\n  pop\n  pop\n  pop\n  pop\n    /* \"contracts/test/mocks/MockRevertingERC20.sol\":76:2388  contract MockRevertingERC20 {... */\n  jump(tag_9)\ntag_7:\n  dup3\n  dup1\n  sload\n  tag_10\n  swap1\n  tag_11\n  jump\t// in\ntag_10:\n  swap1\n  0x00\n  mstore\n  keccak256(0x00, 0x20)\n  swap1\n  0x1f\n  add\n  0x20\n  swap1\n  div\n  dup2\n  add\n  swap3\n  dup3\n  tag_13\n  jumpi\n  0x00\n  dup6\n  sstore\n  jump(tag_12)\ntag_13:\n  dup3\n  0x1f\n  lt\n  tag_14\n  jumpi\n  dup1\n  mload\n  not(0xff)\n  and\n  dup4\n  dup1\n  add\n  or\n  dup6\n  sstore\n  jump(tag_12)\ntag_14:\n  dup3\n  dup1\n  add\n  0x01\n  add\n  dup6\n  sstore\n  dup3\n  iszero\n  tag_12\n  jumpi\n  swap2\n  dup3\n  add\ntag_15:\n  dup3\n  dup2\n  gt\n  iszero\n  tag_16\n  jumpi\n  dup3\n  mload\n  dup3\n  sstore\n  swap2\n  0x20\n  add\n  swap2\n  swap1\n  0x01\n  add\n  swap1\n  jump(tag_15)\ntag_16:\ntag_12:\n  pop\n  swap1\n  pop\n  tag_17\n  swap2\n  swap1\n  tag_18\n  jump\t// in\ntag_17:\n  pop\n  swap1\n  jump\t// out\ntag_18:\ntag_19:\n  dup1\n  dup3\n  gt\n  iszero\n  tag_20\n  jumpi\n  0x00\n  dup2\n  0x00\n  swap1\n  sstore\n  pop\n  0x01\n  add\n  jump(tag_19)\ntag_20:\n  pop\n  swap1\n  jump\t// out\n    /* \"#utility.yul\":7:428   */\ntag_22:\n    /* \"#utility.yul\":96:101   */\n  0x00\n    /* \"#utility.yul\":121:187   */\n  tag_24\n    /* \"#utility.yul\":137:186   */\n  tag_25\n    /* \"#utility.yul\":179:185   */\n  dup5\n    /* \"#utility.yul\":137:186   */\n  tag_26\n  jump\t// in\ntag_25:\n    /* \"#utility.yul\":121:187   */\n  tag_27\n  jump\t// in\ntag_24:\n    /* \"#utility.yul\":112:187   */\n  swap1\n  pop\n    /* \"#utility.yul\":210:216   */\n  dup3\n    /* \"#utility.yul\":203:208   */\n  dup2\n    /* \"#utility.yul\":196:217   */\n  mstore\n    /* \"#utility.yul\":248:252   */\n  0x20\n    /* \"#utility.yul\":241:246   */\n  dup2\n    /* \"#utility.yul\":237:253   */\n  add\n    /* \"#utility.yul\":286:289   */\n  dup5\n    /* \"#utility.yul\":277:283   */\n  dup5\n    /* \"#utility.yul\":272:275   */\n  dup5\n    /* \"#utility.yul\":268:284   */\n  add\n    /* \"#utility.yul\":265:290   */\n  gt\n    /* \"#utility.yul\":262:374   */\n  iszero\n  tag_28\n  jumpi\n    /* \"#utility.yul\":293:372   */\n  tag_29\n  tag_30\n  jump\t// in\ntag_29:\n    /* \"#utility.yul\":262:374   */\ntag_28:\n    /* \"#utility.yul\":383:422   */\n  tag_31\n    /* \"#utility.yul\":415:421   */\n  dup5\n    /* \"#utility.yul\":410:413   */\n  dup3\n    /* \"#utility.yul\":405:408   */\n  dup6\n    /* \"#utility.yul\":383:422   */\n  tag_32\n  jump\t// in\ntag_31:\n    /* \"#utility.yul\":102:428   */\n  pop\n    /* \"#utility.yul\":7:428   */\n  swap4\n  swap3\n  pop\n  pop\n  pop\n  jump\t// out\n    /* \"#utility.yul\":434:577   */\ntag_33:\n    /* \"#utility.yul\":491:496   */\n  0x00\n    /* \"#utility.yul\":522:528   */\n  dup2\n    /* \"#utility.yul\":516:529   */\n  mload\n    /* \"#utility.yul\":507:529   */\n  swap1\n  pop\n    /* \"#utility.yul\":538:571   */\n  tag_35\n    /* \"#utility.yul\":565:570   */\n  dup2\n    /* \"#utility.yul\":538:571   */\n  tag_36\n  jump\t// in\ntag_35:\n    /* \"#utility.yul\":434:577   */\n  swap3\n  swap2\n  pop\n  pop\n  jump\t// out\n    /* \"#utility.yul\":597:952   */\ntag_37:\n    /* \"#utility.yul\":664:669   */\n  0x00\n    /* \"#utility.yul\":713:716   */\n  dup3\n    /* \"#utility.yul\":706:710   */\n  0x1f\n    /* \"#utility.yul\":698:704   */\n  dup4\n    /* \"#utility.yul\":694:711   */\n  add\n    /* \"#utility.yul\":690:717   */\n  slt\n    /* \"#utility.yul\":680:802   */\n  tag_39\n  jumpi\n    /* \"#utility.yul\":721:800   */\n  tag_40\n  tag_41\n  jump\t// in\ntag_40:\n    /* \"#utility.yul\":680:802   */\ntag_39:\n    /* \"#utility.yul\":831:837   */\n  dup2\n    /* \"#utility.yul\":825:838   */\n  mload\n    /* \"#utility.yul\":856:946   */\n  tag_42\n    /* \"#utility.yul\":942:945   */\n  dup5\n    /* \"#utility.yul\":934:940   */\n  dup3\n    /* \"#utility.yul\":927:931   */\n  0x20\n    /* \"#utility.yul\":919:925   */\n  dup7\n    /* \"#utility.yul\":915:932   */\n  add\n    /* \"#utility.yul\":856:946   */\n  tag_22\n  jump\t// in\ntag_42:\n    /* \"#utility.yul\":847:946   */\n  swap2\n  pop\n    /* \"#utility.yul\":670:952   */\n  pop\n    /* \"#utility.yul\":597:952   */\n  swap3\n  swap2\n  pop\n  pop\n  jump\t// out\n    /* \"#utility.yul\":958:1097   */\ntag_43:\n    /* \"#utility.yul\":1013:1018   */\n  0x00\n    /* \"#utility.yul\":1044:1050   */\n  dup2\n    /* \"#utility.yul\":1038:1051   */\n  mload\n    /* \"#utility.yul\":1029:1051   */\n  swap1\n  pop\n    /* \"#utility.yul\":1060:1091   */\n  tag_45\n    /* \"#utility.yul\":1085:1090   */\n  dup2\n    /* \"#utility.yul\":1060:1091   */\n  tag_46\n  jump\t// in\ntag_45:\n    /* \"#utility.yul\":958:1097   */\n  swap3\n  swap2\n  pop\n  pop\n  jump\t// out\n    /* \"#utility.yul\":1103:2265   */\ntag_3:\n    /* \"#utility.yul\":1218:1224   */\n  0x00\n    /* \"#utility.yul\":1226:1232   */\n  dup1\n    /* \"#utility.yul\":1234:1240   */\n  0x00\n    /* \"#utility.yul\":1242:1248   */\n  dup1\n    /* \"#utility.yul\":1291:1294   */\n  0x80\n    /* \"#utility.yul\":1279:1288   */\n  dup6\n    /* \"#utility.yul\":1270:1277   */\n  dup8\n    /* \"#utility.yul\":1266:1289   */\n  sub\n    /* \"#utility.yul\":1262:1295   */\n  slt\n    /* \"#utility.yul\":1259:1379   */\n  iszero\n  tag_48\n  jumpi\n    /* \"#utility.yul\":1298:1377   */\n  tag_49\n  tag_50\n  jump\t// in\ntag_49:\n    /* \"#utility.yul\":1259:1379   */\ntag_48:\n    /* \"#utility.yul\":1439:1440   */\n  0x00\n    /* \"#utility.yul\":1428:1437   */\n  dup6\n    /* \"#utility.yul\":1424:1441   */\n  add\n    /* \"#utility.yul\":1418:1442   */\n  mload\n    /* \"#utility.yul\":1469:1487   */\n  0xffffffffffffffff\n    /* \"#utility.yul\":1461:1467   */\n  dup2\n    /* \"#utility.yul\":1458:1488   */\n  gt\n    /* \"#utility.yul\":1455:1572   */\n  iszero\n  tag_51\n  jumpi\n    /* \"#utility.yul\":1491:1570   */\n  tag_52\n  tag_53\n  jump\t// in\ntag_52:\n    /* \"#utility.yul\":1455:1572   */\ntag_51:\n    /* \"#utility.yul\":1596:1670   */\n  tag_54\n    /* \"#utility.yul\":1662:1669   */\n  dup8\n    /* \"#utility.yul\":1653:1659   */\n  dup3\n    /* \"#utility.yul\":1642:1651   */\n  dup9\n    /* \"#utility.yul\":1638:1660   */\n  add\n    /* \"#utility.yul\":1596:1670   */\n  tag_37\n  jump\t// in\ntag_54:\n    /* \"#utility.yul\":1586:1670   */\n  swap5\n  pop\n    /* \"#utility.yul\":1389:1680   */\n  pop\n    /* \"#utility.yul\":1740:1742   */\n  0x20\n    /* \"#utility.yul\":1729:1738   */\n  dup6\n    /* \"#utility.yul\":1725:1743   */\n  add\n    /* \"#utility.yul\":1719:1744   */\n  mload\n    /* \"#utility.yul\":1771:1789   */\n  0xffffffffffffffff\n    /* \"#utility.yul\":1763:1769   */\n  dup2\n    /* \"#utility.yul\":1760:1790   */\n  gt\n    /* \"#utility.yul\":1757:1874   */\n  iszero\n  tag_55\n  jumpi\n    /* \"#utility.yul\":1793:1872   */\n  tag_56\n  tag_53\n  jump\t// in\ntag_56:\n    /* \"#utility.yul\":1757:1874   */\ntag_55:\n    /* \"#utility.yul\":1898:1972   */\n  tag_57\n    /* \"#utility.yul\":1964:1971   */\n  dup8\n    /* \"#utility.yul\":1955:1961   */\n  dup3\n    /* \"#utility.yul\":1944:1953   */\n  dup9\n    /* \"#utility.yul\":1940:1962   */\n  add\n    /* \"#utility.yul\":1898:1972   */\n  tag_37\n  jump\t// in\ntag_57:\n    /* \"#utility.yul\":1888:1972   */\n  swap4\n  pop\n    /* \"#utility.yul\":1690:1982   */\n  pop\n    /* \"#utility.yul\":2021:2023   */\n  0x40\n    /* \"#utility.yul\":2047:2109   */\n  tag_58\n    /* \"#utility.yul\":2101:2108   */\n  dup8\n    /* \"#utility.yul\":2092:2098   */\n  dup3\n    /* \"#utility.yul\":2081:2090   */\n  dup9\n    /* \"#utility.yul\":2077:2099   */\n  add\n    /* \"#utility.yul\":2047:2109   */\n  tag_43\n  jump\t// in\ntag_58:\n    /* \"#utility.yul\":2037:2109   */\n  swap3\n  pop\n    /* \"#utility.yul\":1992:2119   */\n  pop\n    /* \"#utility.yul\":2158:2160   */\n  0x60\n    /* \"#utility.yul\":2184:2248   */\n  tag_59\n    /* \"#utility.yul\":2240:2247   */\n  dup8\n    /* \"#utility.yul\":2231:2237   */\n  dup3\n    /* \"#utility.yul\":2220:2229   */\n  dup9\n    /* \"#utility.yul\":2216:2238   */\n  add\n    /* \"#utility.yul\":2184:2248   */\n  tag_33\n  jump\t// in\ntag_59:\n    /* \"#utility.yul\":2174:2248   */\n  swap2\n  pop\n    /* \"#utility.yul\":2129:2258   */\n  pop\n    /* \"#utility.yul\":1103:2265   */\n  swap3\n  swap6\n  swap2\n  swap5\n  pop\n  swap3\n  pop\n  jump\t// out\n    /* \"#utility.yul\":2271:2400   */\ntag_27:\n    /* \"#utility.yul\":2305:2311   */\n  0x00\n    /* \"#utility.yul\":2332:2352   */\n  tag_61\n  tag_62\n  jump\t// in\ntag_61:\n    /* \"#utility.yul\":2322:2352   */\n  swap1\n  pop\n    /* \"#utility.yul\":2361:2394   */\n  tag_63\n    /* \"#utility.yul\":2389:2393   */\n  dup3\n    /* \"#utility.yul\":2381:2387   */\n  dup3\n    /* \"#utility.yul\":2361:2394   */\n  tag_64\n  jump\t// in\ntag_63:\n    /* \"#utility.yul\":2271:2400   */\n  swap2\n  swap1\n  pop\n  jump\t// out\n    /* \"#utility.yul\":2406:2481   */\ntag_62:\n    /* \"#utility.yul\":2439:2445   */\n  0x00\n    /* \"#utility.yul\":2472:2474   */\n  0x40\n    /* \"#utility.yul\":2466:2475   */\n  mload\n    /* \"#utility.yul\":2456:2475   */\n  swap1\n  pop\n    /* \"#utility.yul\":2406:2481   */\n  swap1\n  jump\t// out\n    /* \"#utility.yul\":2487:2795   */\ntag_26:\n    /* \"#utility.yul\":2549:2553   */\n  0x00\n    /* \"#utility.yul\":2639:2657   */\n  0xffffffffffffffff\n    /* \"#utility.yul\":2631:2637   */\n  dup3\n    /* \"#utility.yul\":2628:2658   */\n  gt\n    /* \"#utility.yul\":2625:2681   */\n  iszero\n  tag_67\n  jumpi\n    /* \"#utility.yul\":2661:2679   */\n  tag_68\n  tag_69\n  jump\t// in\ntag_68:\n    /* \"#utility.yul\":2625:2681   */\ntag_67:\n    /* \"#utility.yul\":2699:2728   */\n  tag_70\n    /* \"#utility.yul\":2721:2727   */\n  dup3\n    /* \"#utility.yul\":2699:2728   */\n  tag_71\n  jump\t// in\ntag_70:\n    /* \"#utility.yul\":2691:2728   */\n  swap1\n  pop\n    /* \"#utility.yul\":2783:2787   */\n  0x20\n    /* \"#utility.yul\":2777:2781   */\n  dup2\n    /* \"#utility.yul\":2773:2788   */\n  add\n    /* \"#utility.yul\":2765:2788   */\n  swap1\n  pop\n    /* \"#utility.yul\":2487:2795   */\n  swap2\n  swap1\n  pop\n  jump\t// out\n    /* \"#utility.yul\":2801:2897   */\ntag_72:\n    /* \"#utility.yul\":2838:2845   */\n  0x00\n    /* \"#utility.yul\":2867:2891   */\n  tag_74\n    /* \"#utility.yul\":2885:2890   */\n  dup3\n    /* \"#utility.yul\":2867:2891   */\n  tag_75\n  jump\t// in\ntag_74:\n    /* \"#utility.yul\":2856:2891   */\n  swap1\n  pop\n    /* \"#utility.yul\":2801:2897   */\n  swap2\n  swap1\n  pop\n  jump\t// out\n    /* \"#utility.yul\":2903:3029   */\ntag_75:\n    /* \"#utility.yul\":2940:2947   */\n  0x00\n    /* \"#utility.yul\":2980:3022   */\n  0xffffffffffffffffffffffffffffffffffffffff\n    /* \"#utility.yul\":2973:2978   */\n  dup3\n    /* \"#utility.yul\":2969:3023   */\n  and\n    /* \"#utility.yul\":2958:3023   */\n  swap1\n  pop\n    /* \"#utility.yul\":2903:3029   */\n  swap2\n  swap1\n  pop\n  jump\t// out\n    /* \"#utility.yul\":3035:3121   */\ntag_77:\n    /* \"#utility.yul\":3070:3077   */\n  0x00\n    /* \"#utility.yul\":3110:3114   */\n  0xff\n    /* \"#utility.yul\":3103:3108   */\n  dup3\n    /* \"#utility.yul\":3099:3115   */\n  and\n    /* \"#utility.yul\":3088:3115   */\n  swap1\n  pop\n    /* \"#utility.yul\":3035:3121   */\n  swap2\n  swap1\n  pop\n  jump\t// out\n    /* \"#utility.yul\":3127:3434   */\ntag_32:\n    /* \"#utility.yul\":3195:3196   */\n  0x00\n    /* \"#utility.yul\":3205:3318   */\ntag_80:\n    /* \"#utility.yul\":3219:3225   */\n  dup4\n    /* \"#utility.yul\":3216:3217   */\n  dup2\n    /* \"#utility.yul\":3213:3226   */\n  lt\n    /* \"#utility.yul\":3205:3318   */\n  iszero\n  tag_82\n  jumpi\n    /* \"#utility.yul\":3304:3305   */\n  dup1\n    /* \"#utility.yul\":3299:3302   */\n  dup3\n    /* \"#utility.yul\":3295:3306   */\n  add\n    /* \"#utility.yul\":3289:3307   */\n  mload\n    /* \"#utility.yul\":3285:3286   */\n  dup2\n    /* \"#utility.yul\":3280:3283   */\n  dup5\n    /* \"#utility.yul\":3276:3287   */\n  add\n    /* \"#utility.yul\":3269:3308   */\n  mstore\n    /* \"#utility.yul\":3241:3243   */\n  0x20\n    /* \"#utility.yul\":3238:3239   */\n  dup2\n    /* \"#utility.yul\":3234:3244   */\n  add\n    /* \"#utility.yul\":3229:3244   */\n  swap1\n  pop\n    /* \"#utility.yul\":3205:3318   */\n  jump(tag_80)\ntag_82:\n    /* \"#utility.yul\":3336:3342   */\n  dup4\n    /* \"#utility.yul\":3333:3334   */\n  dup2\n    /* \"#utility.yul\":3330:3343   */\n  gt\n    /* \"#utility.yul\":3327:3428   */\n  iszero\n  tag_83\n  jumpi\n    /* \"#utility.yul\":3416:3417   */\n  0x00\n    /* \"#utility.yul\":3407:3413   */\n  dup5\n    /* \"#utility.yul\":3402:3405   */\n  dup5\n    /* \"#utility.yul\":3398:3414   */\n  add\n    /* \"#utility.yul\":3391:3418   */\n  mstore\n    /* \"#utility.yul\":3327:3428   */\ntag_83:\n    /* \"#utility.yul\":3176:3434   */\n  pop\n    /* \"#utility.yul\":3127:3434   */\n  pop\n  pop\n  pop\n  jump\t// out\n    /* \"#utility.yul\":3440:3760   */\ntag_11:\n    /* \"#utility.yul\":3484:3490   */\n  0x00\n    /* \"#utility.yul\":3521:3522   */\n  0x02\n    /* \"#utility.yul\":3515:3519   */\n  dup3\n    /* \"#utility.yul\":3511:3523   */\n  div\n    /* \"#utility.yul\":3501:3523   */\n  swap1\n  pop\n    /* \"#utility.yul\":3568:3569   */\n  0x01\n    /* \"#utility.yul\":3562:3566   */\n  dup3\n    /* \"#utility.yul\":3558:3570   */\n  and\n    /* \"#utility.yul\":3589:3607   */\n  dup1\n    /* \"#utility.yul\":3579:3660   */\n  tag_85\n  jumpi\n    /* \"#utility.yul\":3645:3649   */\n  0x7f\n    /* \"#utility.yul\":3637:3643   */\n  dup3\n    /* \"#utility.yul\":3633:3650   */\n  and\n    /* \"#utility.yul\":3623:3650   */\n  swap2\n  pop\n    /* \"#utility.yul\":3579:3660   */\ntag_85:\n    /* \"#utility.yul\":3707:3709   */\n  0x20\n    /* \"#utility.yul\":3699:3705   */\n  dup3\n    /* \"#utility.yul\":3696:3710   */\n  lt\n    /* \"#utility.yul\":3676:3694   */\n  dup2\n    /* \"#utility.yul\":3673:3711   */\n  eq\n    /* \"#utility.yul\":3670:3754   */\n  iszero\n  tag_86\n  jumpi\n    /* \"#utility.yul\":3726:3744   */\n  tag_87\n  tag_88\n  jump\t// in\ntag_87:\n    /* \"#utility.yul\":3670:3754   */\ntag_86:\n    /* \"#utility.yul\":3491:3760   */\n  pop\n    /* \"#utility.yul\":3440:3760   */\n  swap2\n  swap1\n  pop\n  jump\t// out\n    /* \"#utility.yul\":3766:4047   */\ntag_64:\n    /* \"#utility.yul\":3849:3876   */\n  tag_90\n    /* \"#utility.yul\":3871:3875   */\n  dup3\n    /* \"#utility.yul\":3849:3876   */\n  tag_71\n  jump\t// in\ntag_90:\n    /* \"#utility.yul\":3841:3847   */\n  dup2\n    /* \"#utility.yul\":3837:3877   */\n  add\n    /* \"#utility.yul\":3979:3985   */\n  dup2\n    /* \"#utility.yul\":3967:3977   */\n  dup2\n    /* \"#utility.yul\":3964:3986   */\n  lt\n    /* \"#utility.yul\":3943:3961   */\n  0xffffffffffffffff\n    /* \"#utility.yul\":3931:3941   */\n  dup3\n    /* \"#utility.yul\":3928:3962   */\n  gt\n    /* \"#utility.yul\":3925:3987   */\n  or\n    /* \"#utility.yul\":3922:4010   */\n  iszero\n  tag_91\n  jumpi\n    /* \"#utility.yul\":3990:4008   */\n  tag_92\n  tag_69\n  jump\t// in\ntag_92:\n    /* \"#utility.yul\":3922:4010   */\ntag_91:\n    /* \"#utility.yul\":4030:4040   */\n  dup1\n    /* \"#utility.yul\":4026:4028   */\n  0x40\n    /* \"#utility.yul\":4019:4041   */\n  mstore\n    /* \"#utility.yul\":3809:4047   */\n  pop\n    /* \"#utility.yul\":3766:4047   */\n  pop\n  pop\n  jump\t// out\n    /* \"#utility.yul\":4053:4233   */\ntag_88:\n    /* \"#utility.yul\":4101:4178   */\n  0x4e487b7100000000000000000000000000000000000000000000000000000000\n    /* \"#utility.yul\":4098:4099   */\n  0x00\n    /* \"#utility.yul\":4091:4179   */\n  mstore\n    /* \"#utility.yul\":4198:4202   */\n  0x22\n    /* \"#utility.yul\":4195:4196   */\n  0x04\n    /* \"#utility.yul\":4188:4203   */\n  mstore\n    /* \"#utility.yul\":4222:4226   */\n  0x24\n    /* \"#utility.yul\":4219:4220   */\n  0x00\n    /* \"#utility.yul\":4212:4227   */\n  revert\n    /* \"#utility.yul\":4239:4419   */\ntag_69:\n    /* \"#utility.yul\":4287:4364   */\n  0x4e487b7100000000000000000000000000000000000000000000000000000000\n    /* \"#utility.yul\":4284:4285   */\n  0x00\n    /* \"#utility.yul\":4277:4365   */\n  mstore\n    /* \"#utility.yul\":4384:4388   */\n  0x41\n    /* \"#utility.yul\":4381:4382   */\n  0x04\n    /* \"#utility.yul\":4374:4389   */\n  mstore\n    /* \"#utility.yul\":4408:4412   */\n  0x24\n    /* \"#utility.yul\":4405:4406   */\n  0x00\n    /* \"#utility.yul\":4398:4413   */\n  revert\n    /* \"#utility.yul\":4425:4542   */\ntag_41:\n    /* \"#utility.yul\":4534:4535   */\n  0x00\n    /* \"#utility.yul\":4531:4532   */\n  dup1\n    /* \"#utility.yul\":4524:4536   */\n  revert\n    /* \"#utility.yul\":4548:4665   */\ntag_30:\n    /* \"#utility.yul\":4657:4658   */\n  0x00\n    /* \"#utility.yul\":4654:4655   */\n  dup1\n    /* \"#utility.yul\":4647:4659   */\n  revert\n    /* \"#utility.yul\":4671:4788   */\ntag_53:\n    /* \"#utility.yul\":4780:4781   */\n  0x00\n    /* \"#utility.yul\":4777:4778   */\n  dup1\n    /* \"#utility.yul\":4770:4782   */\n  revert\n    /* \"#utility.yul\":4794:4911   */\ntag_50:\n    /* \"#utility.yul\":4903:4904   */\n  0x00\n    /* \"#utility.yul\":4900:4901   */\n  dup1\n    /* \"#utility.yul\":4893:4905   */\n  revert\n    /* \"#utility.yul\":4917:5019   */\ntag_71:\n    /* \"#utility.yul\":4958:4964   */\n  0x00\n    /* \"#utility.yul\":5009:5011   */\n  0x1f\n    /* \"#utility.yul\":5005:5012   */\n  not\n    /* \"#utility.yul\":5000:5002   */\n  0x1f\n    /* \"#utility.yul\":4993:4998   */\n  dup4\n    /* \"#utility.yul\":4989:5003   */\n  add\n    /* \"#utility.yul\":4985:5013   */\n  and\n    /* \"#utility.yul\":4975:5013   */\n  swap1\n  pop\n    /* \"#utility.yul\":4917:5019   */\n  swap2\n  swap1\n  pop\n  jump\t// out\n    /* \"#utility.yul\":5025:5147   */\ntag_36:\n    /* \"#utility.yul\":5098:5122   */\n  tag_101\n    /* \"#utility.yul\":5116:5121   */\n  dup2\n    /* \"#utility.yul\":5098:5122   */\n  tag_72\n  jump\t// in\ntag_101:\n    /* \"#utility.yul\":5091:5096   */\n  dup2\n    /* \"#utility.yul\":5088:5123   */\n  eq\n    /* \"#utility.yul\":5078:5141   */\n  tag_102\n  jumpi\n    /* \"#utility.yul\":5137:5138   */\n  0x00\n    /* \"#utility.yul\":5134:5135   */\n  dup1\n    /* \"#utility.yul\":5127:5139   */\n  revert\n    /* \"#utility.yul\":5078:5141   */\ntag_102:\n    /* \"#utility.yul\":5025:5147   */\n  pop\n  jump\t// out\n    /* \"#utility.yul\":5153:5271   */\ntag_46:\n    /* \"#utility.yul\":5224:5246   */\n  tag_104\n    /* \"#utility.yul\":5240:5245   */\n  dup2\n    /* \"#utility.yul\":5224:5246   */\n  tag_77\n  jump\t// in\ntag_104:\n    /* \"#utility.yul\":5217:5222   */\n  dup2\n    /* \"#utility.yul\":5214:5247   */\n  eq\n    /* \"#utility.yul\":5204:5265   */\n  tag_105\n  jumpi\n    /* \"#utility.yul\":5261:5262   */\n  0x00\n    /* \"#utility.yul\":5258:5259   */\n  dup1\n    /* \"#utility.yul\":5251:5263   */\n  revert\n    /* \"#utility.yul\":5204:5265   */\ntag_105:\n    /* \"#utility.yul\":5153:5271   */\n  pop\n  jump\t// out\n    /* \"contracts/test/mocks/MockRevertingERC20.sol\":76:2388  contract MockRevertingERC20 {... */\ntag_9:\n  shr(0xf8, mload(0x80))\n  codecopy(0x00, dataOffset(sub_0), dataSize(sub_0))\n  0x00\n  assignImmutable(\"0x2a80e1ef1d7842f27f2e6be0972bb708b9a135c38860dbe73c27c3486c34f4de\")\n  return(0x00, dataSize(sub_0))\nstop\n\nsub_0: assembly {\n        /* \"contracts/test/mocks/MockRevertingERC20.sol\":76:2388  contract MockRevertingERC20 {... */\n      mstore(0x40, 0x80)\n      callvalue\n      dup1\n      iszero\n      tag_1\n      jumpi\n      0x00\n      dup1\n      revert\n    tag_1:\n      pop\n      jumpi(tag_2, lt(calldatasize, 0x04))\n      shr(0xe0, calldataload(0x00))\n      dup1\n      0x58603f2d\n      gt\n      tag_15\n      jumpi\n      dup1\n      0x58603f2d\n      eq\n      tag_9\n      jumpi\n      dup1\n      0x70a08231\n      eq\n      tag_10\n      jumpi\n      dup1\n      0x95d89b41\n      eq\n      tag_11\n      jumpi\n      dup1\n      0x9dc29fac\n      eq\n      tag_12\n      jumpi\n      dup1\n      0xa9059cbb\n      eq\n      tag_13\n      jumpi\n      dup1\n      0xdd62ed3e\n      eq\n      tag_14\n      jumpi\n      jump(tag_2)\n    tag_15:\n      dup1\n      0x06fdde03\n      eq\n      tag_3\n      jumpi\n      dup1\n      0x095ea7b3\n      eq\n      tag_4\n      jumpi\n      dup1\n      0x18160ddd\n      eq\n      tag_5\n      jumpi\n      dup1\n      0x23b872dd\n      eq\n      tag_6\n      jumpi\n      dup1\n      0x313ce567\n      eq\n      tag_7\n      jumpi\n      dup1\n      0x40c10f19\n      eq\n      tag_8\n      jumpi\n    tag_2:\n      0x00\n      dup1\n      revert\n        /* \"contracts/test/mocks/MockRevertingERC20.sol\":149:167  string public name */\n    tag_3:\n      tag_16\n      tag_17\n      jump\t// in\n    tag_16:\n      mload(0x40)\n      tag_18\n      swap2\n      swap1\n      tag_19\n      jump\t// in\n    tag_18:\n      mload(0x40)\n      dup1\n      swap2\n      sub\n      swap1\n      return\n        /* \"contracts/test/mocks/MockRevertingERC20.sol\":996:1158  function approve(address spender_, uint256 amount_) external returns (bool success_) {... */\n    tag_4:\n      tag_20\n      0x04\n      dup1\n      calldatasize\n      sub\n      dup2\n      add\n      swap1\n      tag_21\n      swap2\n      swap1\n      tag_22\n      jump\t// in\n    tag_21:\n      tag_23\n      jump\t// in\n    tag_20:\n      mload(0x40)\n      tag_24\n      swap2\n      swap1\n      tag_25\n      jump\t// in\n    tag_24:\n      mload(0x40)\n      dup1\n      swap2\n      sub\n      swap1\n      return\n        /* \"contracts/test/mocks/MockRevertingERC20.sol\":200:226  uint256 public totalSupply */\n    tag_5:\n      tag_26\n      tag_27\n      jump\t// in\n    tag_26:\n      mload(0x40)\n      tag_28\n      swap2\n      swap1\n      tag_29\n      jump\t// in\n    tag_28:\n      mload(0x40)\n      dup1\n      swap2\n      sub\n      swap1\n      return\n        /* \"contracts/test/mocks/MockRevertingERC20.sol\":1338:1601  function transferFrom(address owner_, address recipient_, uint256 amount_) external returns (bool success_) {... */\n    tag_6:\n      tag_30\n      0x04\n      dup1\n      calldatasize\n      sub\n      dup2\n      add\n      swap1\n      tag_31\n      swap2\n      swap1\n      tag_32\n      jump\t// in\n    tag_31:\n      tag_33\n      jump\t// in\n    tag_30:\n      mload(0x40)\n      tag_34\n      swap2\n      swap1\n      tag_25\n      jump\t// in\n    tag_34:\n      mload(0x40)\n      dup1\n      swap2\n      sub\n      swap1\n      return\n        /* \"contracts/test/mocks/MockRevertingERC20.sol\":111:142  uint8 public immutable decimals */\n    tag_7:\n      tag_35\n      tag_36\n      jump\t// in\n    tag_35:\n      mload(0x40)\n      tag_37\n      swap2\n      swap1\n      tag_38\n      jump\t// in\n    tag_37:\n      mload(0x40)\n      dup1\n      swap2\n      sub\n      swap1\n      return\n        /* \"contracts/test/mocks/MockRevertingERC20.sol\":788:891  function mint(address recipient_, uint256 amount_) external {... */\n    tag_8:\n      tag_39\n      0x04\n      dup1\n      calldatasize\n      sub\n      dup2\n      add\n      swap1\n      tag_40\n      swap2\n      swap1\n      tag_22\n      jump\t// in\n    tag_40:\n      tag_41\n      jump\t// in\n    tag_39:\n      stop\n        /* \"contracts/test/mocks/MockRevertingERC20.sol\":233:268  address public revertingDestination */\n    tag_9:\n      tag_42\n      tag_43\n      jump\t// in\n    tag_42:\n      mload(0x40)\n      tag_44\n      swap2\n      swap1\n      tag_45\n      jump\t// in\n    tag_44:\n      mload(0x40)\n      dup1\n      swap2\n      sub\n      swap1\n      return\n        /* \"contracts/test/mocks/MockRevertingERC20.sol\":275:319  mapping(address => uint256) public balanceOf */\n    tag_10:\n      tag_46\n      0x04\n      dup1\n      calldatasize\n      sub\n      dup2\n      add\n      swap1\n      tag_47\n      swap2\n      swap1\n      tag_48\n      jump\t// in\n    tag_47:\n      tag_49\n      jump\t// in\n    tag_46:\n      mload(0x40)\n      tag_50\n      swap2\n      swap1\n      tag_29\n      jump\t// in\n    tag_50:\n      mload(0x40)\n      dup1\n      swap2\n      sub\n      swap1\n      return\n        /* \"contracts/test/mocks/MockRevertingERC20.sol\":173:193  string public symbol */\n    tag_11:\n      tag_51\n      tag_52\n      jump\t// in\n    tag_51:\n      mload(0x40)\n      tag_53\n      swap2\n      swap1\n      tag_19\n      jump\t// in\n    tag_53:\n      mload(0x40)\n      dup1\n      swap2\n      sub\n      swap1\n      return\n        /* \"contracts/test/mocks/MockRevertingERC20.sol\":897:990  function burn(address from_, uint256 amount_) external {... */\n    tag_12:\n      tag_54\n      0x04\n      dup1\n      calldatasize\n      sub\n      dup2\n      add\n      swap1\n      tag_55\n      swap2\n      swap1\n      tag_22\n      jump\t// in\n    tag_55:\n      tag_56\n      jump\t// in\n    tag_54:\n      stop\n        /* \"contracts/test/mocks/MockRevertingERC20.sol\":1164:1332  function transfer(address recipient_, uint256 amount_) external returns (bool success_) {... */\n    tag_13:\n      tag_57\n      0x04\n      dup1\n      calldatasize\n      sub\n      dup2\n      add\n      swap1\n      tag_58\n      swap2\n      swap1\n      tag_22\n      jump\t// in\n    tag_58:\n      tag_59\n      jump\t// in\n    tag_57:\n      mload(0x40)\n      tag_60\n      swap2\n      swap1\n      tag_25\n      jump\t// in\n    tag_60:\n      mload(0x40)\n      dup1\n      swap2\n      sub\n      swap1\n      return\n        /* \"contracts/test/mocks/MockRevertingERC20.sol\":326:390  mapping(address => mapping(address => uint256)) public allowance */\n    tag_14:\n      tag_61\n      0x04\n      dup1\n      calldatasize\n      sub\n      dup2\n      add\n      swap1\n      tag_62\n      swap2\n      swap1\n      tag_63\n      jump\t// in\n    tag_62:\n      tag_64\n      jump\t// in\n    tag_61:\n      mload(0x40)\n      tag_65\n      swap2\n      swap1\n      tag_29\n      jump\t// in\n    tag_65:\n      mload(0x40)\n      dup1\n      swap2\n      sub\n      swap1\n      return\n        /* \"contracts/test/mocks/MockRevertingERC20.sol\":149:167  string public name */\n    tag_17:\n      0x00\n      dup1\n      sload\n      tag_66\n      swap1\n      tag_67\n      jump\t// in\n    tag_66:\n      dup1\n      0x1f\n      add\n      0x20\n      dup1\n      swap2\n      div\n      mul\n      0x20\n      add\n      mload(0x40)\n      swap1\n      dup2\n      add\n      0x40\n      mstore\n      dup1\n      swap3\n      swap2\n      swap1\n      dup2\n      dup2\n      mstore\n      0x20\n      add\n      dup3\n      dup1\n      sload\n      tag_68\n      swap1\n      tag_67\n      jump\t// in\n    tag_68:\n      dup1\n      iszero\n      tag_69\n      jumpi\n      dup1\n      0x1f\n      lt\n      tag_70\n      jumpi\n      0x0100\n      dup1\n      dup4\n      sload\n      div\n      mul\n      dup4\n      mstore\n      swap2\n      0x20\n      add\n      swap2\n      jump(tag_69)\n    tag_70:\n      dup3\n      add\n      swap2\n      swap1\n      0x00\n      mstore\n      keccak256(0x00, 0x20)\n      swap1\n    tag_71:\n      dup2\n      sload\n      dup2\n      mstore\n      swap1\n      0x01\n      add\n      swap1\n      0x20\n      add\n      dup1\n      dup4\n      gt\n      tag_71\n      jumpi\n      dup3\n      swap1\n      sub\n      0x1f\n      and\n      dup3\n      add\n      swap2\n    tag_69:\n      pop\n      pop\n      pop\n      pop\n      pop\n      dup2\n      jump\t// out\n        /* \"contracts/test/mocks/MockRevertingERC20.sol\":996:1158  function approve(address spender_, uint256 amount_) external returns (bool success_) {... */\n    tag_23:\n        /* \"contracts/test/mocks/MockRevertingERC20.sol\":1066:1079  bool success_ */\n      0x00\n        /* \"contracts/test/mocks/MockRevertingERC20.sol\":1091:1130  _approve(msg.sender, spender_, amount_) */\n      tag_73\n        /* \"contracts/test/mocks/MockRevertingERC20.sol\":1100:1110  msg.sender */\n      caller\n        /* \"contracts/test/mocks/MockRevertingERC20.sol\":1112:1120  spender_ */\n      dup5\n        /* \"contracts/test/mocks/MockRevertingERC20.sol\":1122:1129  amount_ */\n      dup5\n        /* \"contracts/test/mocks/MockRevertingERC20.sol\":1091:1099  _approve */\n      tag_74\n        /* \"contracts/test/mocks/MockRevertingERC20.sol\":1091:1130  _approve(msg.sender, spender_, amount_) */\n      jump\t// in\n    tag_73:\n        /* \"contracts/test/mocks/MockRevertingERC20.sol\":1147:1151  true */\n      0x01\n        /* \"contracts/test/mocks/MockRevertingERC20.sol\":1140:1151  return true */\n      swap1\n      pop\n        /* \"contracts/test/mocks/MockRevertingERC20.sol\":996:1158  function approve(address spender_, uint256 amount_) external returns (bool success_) {... */\n      swap3\n      swap2\n      pop\n      pop\n      jump\t// out\n        /* \"contracts/test/mocks/MockRevertingERC20.sol\":200:226  uint256 public totalSupply */\n    tag_27:\n      sload(0x02)\n      dup2\n      jump\t// out\n        /* \"contracts/test/mocks/MockRevertingERC20.sol\":1338:1601  function transferFrom(address owner_, address recipient_, uint256 amount_) external returns (bool success_) {... */\n    tag_33:\n        /* \"contracts/test/mocks/MockRevertingERC20.sol\":1431:1444  bool success_ */\n      0x00\n        /* \"contracts/test/mocks/MockRevertingERC20.sol\":1456:1525  _approve(owner_, msg.sender, allowance[owner_][msg.sender] - amount_) */\n      tag_76\n        /* \"contracts/test/mocks/MockRevertingERC20.sol\":1465:1471  owner_ */\n      dup5\n        /* \"contracts/test/mocks/MockRevertingERC20.sol\":1473:1483  msg.sender */\n      caller\n        /* \"contracts/test/mocks/MockRevertingERC20.sol\":1517:1524  amount_ */\n      dup5\n        /* \"contracts/test/mocks/MockRevertingERC20.sol\":1485:1494  allowance */\n      0x05\n        /* \"contracts/test/mocks/MockRevertingERC20.sol\":1485:1502  allowance[owner_] */\n      0x00\n        /* \"contracts/test/mocks/MockRevertingERC20.sol\":1495:1501  owner_ */\n      dup10\n        /* \"contracts/test/mocks/MockRevertingERC20.sol\":1485:1502  allowance[owner_] */\n      0xffffffffffffffffffffffffffffffffffffffff\n      and\n      0xffffffffffffffffffffffffffffffffffffffff\n      and\n      dup2\n      mstore\n      0x20\n      add\n      swap1\n      dup2\n      mstore\n      0x20\n      add\n      0x00\n      keccak256\n        /* \"contracts/test/mocks/MockRevertingERC20.sol\":1485:1514  allowance[owner_][msg.sender] */\n      0x00\n        /* \"contracts/test/mocks/MockRevertingERC20.sol\":1503:1513  msg.sender */\n      caller\n        /* \"contracts/test/mocks/MockRevertingERC20.sol\":1485:1514  allowance[owner_][msg.sender] */\n      0xffffffffffffffffffffffffffffffffffffffff\n      and\n      0xffffffffffffffffffffffffffffffffffffffff\n      and\n      dup2\n      mstore\n      0x20\n      add\n      swap1\n      dup2\n      mstore\n      0x20\n      add\n      0x00\n      keccak256\n      sload\n        /* \"contracts/test/mocks/MockRevertingERC20.sol\":1485:1524  allowance[owner_][msg.sender] - amount_ */\n      tag_77\n      swap2\n      swap1\n      tag_78\n      jump\t// in\n    tag_77:\n        /* \"contracts/test/mocks/MockRevertingERC20.sol\":1456:1464  _approve */\n      tag_74\n        /* \"contracts/test/mocks/MockRevertingERC20.sol\":1456:1525  _approve(owner_, msg.sender, allowance[owner_][msg.sender] - amount_) */\n      jump\t// in\n    tag_76:\n        /* \"contracts/test/mocks/MockRevertingERC20.sol\":1535:1573  _transfer(owner_, recipient_, amount_) */\n      tag_79\n        /* \"contracts/test/mocks/MockRevertingERC20.sol\":1545:1551  owner_ */\n      dup5\n        /* \"contracts/test/mocks/MockRevertingERC20.sol\":1553:1563  recipient_ */\n      dup5\n        /* \"contracts/test/mocks/MockRevertingERC20.sol\":1565:1572  amount_ */\n      dup5\n        /* \"contracts/test/mocks/MockRevertingERC20.sol\":1535:1544  _transfer */\n      tag_80\n        /* \"contracts/test/mocks/MockRevertingERC20.sol\":1535:1573  _transfer(owner_, recipient_, amount_) */\n      jump\t// in\n    tag_79:\n        /* \"contracts/test/mocks/MockRevertingERC20.sol\":1590:1594  true */\n      0x01\n        /* \"contracts/test/mocks/MockRevertingERC20.sol\":1583:1594  return true */\n      swap1\n      pop\n        /* \"contracts/test/mocks/MockRevertingERC20.sol\":1338:1601  function transferFrom(address owner_, address recipient_, uint256 amount_) external returns (bool success_) {... */\n      swap4\n      swap3\n      pop\n      pop\n      pop\n      jump\t// out\n        /* \"contracts/test/mocks/MockRevertingERC20.sol\":111:142  uint8 public immutable decimals */\n    tag_36:\n      immutable(\"0x2a80e1ef1d7842f27f2e6be0972bb708b9a135c38860dbe73c27c3486c34f4de\")\n      dup2\n      jump\t// out\n        /* \"contracts/test/mocks/MockRevertingERC20.sol\":788:891  function mint(address recipient_, uint256 amount_) external {... */\n    tag_41:\n        /* \"contracts/test/mocks/MockRevertingERC20.sol\":858:884  _mint(recipient_, amount_) */\n      tag_82\n        /* \"contracts/test/mocks/MockRevertingERC20.sol\":864:874  recipient_ */\n      dup3\n        /* \"contracts/test/mocks/MockRevertingERC20.sol\":876:883  amount_ */\n      dup3\n        /* \"contracts/test/mocks/MockRevertingERC20.sol\":858:863  _mint */\n      tag_83\n        /* \"contracts/test/mocks/MockRevertingERC20.sol\":858:884  _mint(recipient_, amount_) */\n      jump\t// in\n    tag_82:\n        /* \"contracts/test/mocks/MockRevertingERC20.sol\":788:891  function mint(address recipient_, uint256 amount_) external {... */\n      pop\n      pop\n      jump\t// out\n        /* \"contracts/test/mocks/MockRevertingERC20.sol\":233:268  address public revertingDestination */\n    tag_43:\n      0x03\n      0x00\n      swap1\n      sload\n      swap1\n      0x0100\n      exp\n      swap1\n      div\n      0xffffffffffffffffffffffffffffffffffffffff\n      and\n      dup2\n      jump\t// out\n        /* \"contracts/test/mocks/MockRevertingERC20.sol\":275:319  mapping(address => uint256) public balanceOf */\n    tag_49:\n      mstore(0x20, 0x04)\n      dup1\n      0x00\n      mstore\n      keccak256(0x00, 0x40)\n      0x00\n      swap2\n      pop\n      swap1\n      pop\n      sload\n      dup2\n      jump\t// out\n        /* \"contracts/test/mocks/MockRevertingERC20.sol\":173:193  string public symbol */\n    tag_52:\n      0x01\n      dup1\n      sload\n      tag_84\n      swap1\n      tag_67\n      jump\t// in\n    tag_84:\n      dup1\n      0x1f\n      add\n      0x20\n      dup1\n      swap2\n      div\n      mul\n      0x20\n      add\n      mload(0x40)\n      swap1\n      dup2\n      add\n      0x40\n      mstore\n      dup1\n      swap3\n      swap2\n      swap1\n      dup2\n      dup2\n      mstore\n      0x20\n      add\n      dup3\n      dup1\n      sload\n      tag_85\n      swap1\n      tag_67\n      jump\t// in\n    tag_85:\n      dup1\n      iszero\n      tag_86\n      jumpi\n      dup1\n      0x1f\n      lt\n      tag_87\n      jumpi\n      0x0100\n      dup1\n      dup4\n      sload\n      div\n      mul\n      dup4\n      mstore\n      swap2\n      0x20\n      add\n      swap2\n      jump(tag_86)\n    tag_87:\n      dup3\n      add\n      swap2\n      swap1\n      0x00\n      mstore\n      keccak256(0x00, 0x20)\n      swap1\n    tag_88:\n      dup2\n      sload\n      dup2\n      mstore\n      swap1\n      0x01\n      add\n      swap1\n      0x20\n      add\n      dup1\n      dup4\n      gt\n      tag_88\n      jumpi\n      dup3\n      swap1\n      sub\n      0x1f\n      and\n      dup3\n      add\n      swap2\n    tag_86:\n      pop\n      pop\n      pop\n      pop\n      pop\n      dup2\n      jump\t// out\n        /* \"contracts/test/mocks/MockRevertingERC20.sol\":897:990  function burn(address from_, uint256 amount_) external {... */\n    tag_56:\n        /* \"contracts/test/mocks/MockRevertingERC20.sol\":962:983  _burn(from_, amount_) */\n      tag_90\n        /* \"contracts/test/mocks/MockRevertingERC20.sol\":968:973  from_ */\n      dup3\n        /* \"contracts/test/mocks/MockRevertingERC20.sol\":975:982  amount_ */\n      dup3\n        /* \"contracts/test/mocks/MockRevertingERC20.sol\":962:967  _burn */\n      tag_91\n        /* \"contracts/test/mocks/MockRevertingERC20.sol\":962:983  _burn(from_, amount_) */\n      jump\t// in\n    tag_90:\n        /* \"contracts/test/mocks/MockRevertingERC20.sol\":897:990  function burn(address from_, uint256 amount_) external {... */\n      pop\n      pop\n      jump\t// out\n        /* \"contracts/test/mocks/MockRevertingERC20.sol\":1164:1332  function transfer(address recipient_, uint256 amount_) external returns (bool success_) {... */\n    tag_59:\n        /* \"contracts/test/mocks/MockRevertingERC20.sol\":1237:1250  bool success_ */\n      0x00\n        /* \"contracts/test/mocks/MockRevertingERC20.sol\":1262:1304  _transfer(msg.sender, recipient_, amount_) */\n      tag_93\n        /* \"contracts/test/mocks/MockRevertingERC20.sol\":1272:1282  msg.sender */\n      caller\n        /* \"contracts/test/mocks/MockRevertingERC20.sol\":1284:1294  recipient_ */\n      dup5\n        /* \"contracts/test/mocks/MockRevertingERC20.sol\":1296:1303  amount_ */\n      dup5\n        /* \"contracts/test/mocks/MockRevertingERC20.sol\":1262:1271  _transfer */\n      tag_80\n        /* \"contracts/test/mocks/MockRevertingERC20.sol\":1262:1304  _transfer(msg.sender, recipient_, amount_) */\n      jump\t// in\n    tag_93:\n        /* \"contracts/test/mocks/MockRevertingERC20.sol\":1321:1325  true */\n      0x01\n        /* \"contracts/test/mocks/MockRevertingERC20.sol\":1314:1325  return true */\n      swap1\n      pop\n        /* \"contracts/test/mocks/MockRevertingERC20.sol\":1164:1332  function transfer(address recipient_, uint256 amount_) external returns (bool success_) {... */\n      swap3\n      swap2\n      pop\n      pop\n      jump\t// out\n        /* \"contracts/test/mocks/MockRevertingERC20.sol\":326:390  mapping(address => mapping(address => uint256)) public allowance */\n    tag_64:\n      mstore(0x20, 0x05)\n      dup2\n      0x00\n      mstore\n      mstore(0x20, keccak256(0x00, 0x40))\n      dup1\n      0x00\n      mstore\n      keccak256(0x00, 0x40)\n      0x00\n      swap2\n      pop\n      swap2\n      pop\n      pop\n      sload\n      dup2\n      jump\t// out\n        /* \"contracts/test/mocks/MockRevertingERC20.sol\":1707:1839  function _approve(address owner_, address spender_, uint256 amount_) internal {... */\n    tag_74:\n        /* \"contracts/test/mocks/MockRevertingERC20.sol\":1825:1832  amount_ */\n      dup1\n        /* \"contracts/test/mocks/MockRevertingERC20.sol\":1795:1804  allowance */\n      0x05\n        /* \"contracts/test/mocks/MockRevertingERC20.sol\":1795:1812  allowance[owner_] */\n      0x00\n        /* \"contracts/test/mocks/MockRevertingERC20.sol\":1805:1811  owner_ */\n      dup6\n        /* \"contracts/test/mocks/MockRevertingERC20.sol\":1795:1812  allowance[owner_] */\n      0xffffffffffffffffffffffffffffffffffffffff\n      and\n      0xffffffffffffffffffffffffffffffffffffffff\n      and\n      dup2\n      mstore\n      0x20\n      add\n      swap1\n      dup2\n      mstore\n      0x20\n      add\n      0x00\n      keccak256\n        /* \"contracts/test/mocks/MockRevertingERC20.sol\":1795:1822  allowance[owner_][spender_] */\n      0x00\n        /* \"contracts/test/mocks/MockRevertingERC20.sol\":1813:1821  spender_ */\n      dup5\n        /* \"contracts/test/mocks/MockRevertingERC20.sol\":1795:1822  allowance[owner_][spender_] */\n      0xffffffffffffffffffffffffffffffffffffffff\n      and\n      0xffffffffffffffffffffffffffffffffffffffff\n      and\n      dup2\n      mstore\n      0x20\n      add\n      swap1\n      dup2\n      mstore\n      0x20\n      add\n      0x00\n      keccak256\n        /* \"contracts/test/mocks/MockRevertingERC20.sol\":1795:1832  allowance[owner_][spender_] = amount_ */\n      dup2\n      swap1\n      sstore\n      pop\n        /* \"contracts/test/mocks/MockRevertingERC20.sol\":1707:1839  function _approve(address owner_, address spender_, uint256 amount_) internal {... */\n      pop\n      pop\n      pop\n      jump\t// out\n        /* \"contracts/test/mocks/MockRevertingERC20.sol\":1845:2081  function _transfer(address owner_, address recipient_, uint256 amount_) internal {... */\n    tag_80:\n        /* \"contracts/test/mocks/MockRevertingERC20.sol\":1958:1978  revertingDestination */\n      0x03\n      0x00\n      swap1\n      sload\n      swap1\n      0x0100\n      exp\n      swap1\n      div\n      0xffffffffffffffffffffffffffffffffffffffff\n      and\n        /* \"contracts/test/mocks/MockRevertingERC20.sol\":1944:1978  recipient_ != revertingDestination */\n      0xffffffffffffffffffffffffffffffffffffffff\n      and\n        /* \"contracts/test/mocks/MockRevertingERC20.sol\":1944:1954  recipient_ */\n      dup3\n        /* \"contracts/test/mocks/MockRevertingERC20.sol\":1944:1978  recipient_ != revertingDestination */\n      0xffffffffffffffffffffffffffffffffffffffff\n      and\n      eq\n      iszero\n        /* \"contracts/test/mocks/MockRevertingERC20.sol\":1936:1990  require(recipient_ != revertingDestination, \"INVALID\") */\n      tag_96\n      jumpi\n      mload(0x40)\n      0x08c379a000000000000000000000000000000000000000000000000000000000\n      dup2\n      mstore\n      0x04\n      add\n      tag_97\n      swap1\n      tag_98\n      jump\t// in\n    tag_97:\n      mload(0x40)\n      dup1\n      swap2\n      sub\n      swap1\n      revert\n    tag_96:\n        /* \"contracts/test/mocks/MockRevertingERC20.sol\":2025:2032  amount_ */\n      dup1\n        /* \"contracts/test/mocks/MockRevertingERC20.sol\":2000:2009  balanceOf */\n      0x04\n        /* \"contracts/test/mocks/MockRevertingERC20.sol\":2000:2017  balanceOf[owner_] */\n      0x00\n        /* \"contracts/test/mocks/MockRevertingERC20.sol\":2010:2016  owner_ */\n      dup6\n        /* \"contracts/test/mocks/MockRevertingERC20.sol\":2000:2017  balanceOf[owner_] */\n      0xffffffffffffffffffffffffffffffffffffffff\n      and\n      0xffffffffffffffffffffffffffffffffffffffff\n      and\n      dup2\n      mstore\n      0x20\n      add\n      swap1\n      dup2\n      mstore\n      0x20\n      add\n      0x00\n      keccak256\n      0x00\n        /* \"contracts/test/mocks/MockRevertingERC20.sol\":2000:2032  balanceOf[owner_]     -= amount_ */\n      dup3\n      dup3\n      sload\n      tag_99\n      swap2\n      swap1\n      tag_78\n      jump\t// in\n    tag_99:\n      swap3\n      pop\n      pop\n      dup2\n      swap1\n      sstore\n      pop\n        /* \"contracts/test/mocks/MockRevertingERC20.sol\":2067:2074  amount_ */\n      dup1\n        /* \"contracts/test/mocks/MockRevertingERC20.sol\":2042:2051  balanceOf */\n      0x04\n        /* \"contracts/test/mocks/MockRevertingERC20.sol\":2042:2063  balanceOf[recipient_] */\n      0x00\n        /* \"contracts/test/mocks/MockRevertingERC20.sol\":2052:2062  recipient_ */\n      dup5\n        /* \"contracts/test/mocks/MockRevertingERC20.sol\":2042:2063  balanceOf[recipient_] */\n      0xffffffffffffffffffffffffffffffffffffffff\n      and\n      0xffffffffffffffffffffffffffffffffffffffff\n      and\n      dup2\n      mstore\n      0x20\n      add\n      swap1\n      dup2\n      mstore\n      0x20\n      add\n      0x00\n      keccak256\n      0x00\n        /* \"contracts/test/mocks/MockRevertingERC20.sol\":2042:2074  balanceOf[recipient_] += amount_ */\n      dup3\n      dup3\n      sload\n      tag_100\n      swap2\n      swap1\n      tag_101\n      jump\t// in\n    tag_100:\n      swap3\n      pop\n      pop\n      dup2\n      swap1\n      sstore\n      pop\n        /* \"contracts/test/mocks/MockRevertingERC20.sol\":1845:2081  function _transfer(address owner_, address recipient_, uint256 amount_) internal {... */\n      pop\n      pop\n      pop\n      jump\t// out\n        /* \"contracts/test/mocks/MockRevertingERC20.sol\":2087:2239  function _mint(address recipient_, uint256 amount_) internal {... */\n    tag_83:\n        /* \"contracts/test/mocks/MockRevertingERC20.sol\":2183:2190  amount_ */\n      dup1\n        /* \"contracts/test/mocks/MockRevertingERC20.sol\":2158:2169  totalSupply */\n      0x02\n      0x00\n        /* \"contracts/test/mocks/MockRevertingERC20.sol\":2158:2190  totalSupply           += amount_ */\n      dup3\n      dup3\n      sload\n      tag_103\n      swap2\n      swap1\n      tag_101\n      jump\t// in\n    tag_103:\n      swap3\n      pop\n      pop\n      dup2\n      swap1\n      sstore\n      pop\n        /* \"contracts/test/mocks/MockRevertingERC20.sol\":2225:2232  amount_ */\n      dup1\n        /* \"contracts/test/mocks/MockRevertingERC20.sol\":2200:2209  balanceOf */\n      0x04\n        /* \"contracts/test/mocks/MockRevertingERC20.sol\":2200:2221  balanceOf[recipient_] */\n      0x00\n        /* \"contracts/test/mocks/MockRevertingERC20.sol\":2210:2220  recipient_ */\n      dup5\n        /* \"contracts/test/mocks/MockRevertingERC20.sol\":2200:2221  balanceOf[recipient_] */\n      0xffffffffffffffffffffffffffffffffffffffff\n      and\n      0xffffffffffffffffffffffffffffffffffffffff\n      and\n      dup2\n      mstore\n      0x20\n      add\n      swap1\n      dup2\n      mstore\n      0x20\n      add\n      0x00\n      keccak256\n      0x00\n        /* \"contracts/test/mocks/MockRevertingERC20.sol\":2200:2232  balanceOf[recipient_] += amount_ */\n      dup3\n      dup3\n      sload\n      tag_104\n      swap2\n      swap1\n      tag_101\n      jump\t// in\n    tag_104:\n      swap3\n      pop\n      pop\n      dup2\n      swap1\n      sstore\n      pop\n        /* \"contracts/test/mocks/MockRevertingERC20.sol\":2087:2239  function _mint(address recipient_, uint256 amount_) internal {... */\n      pop\n      pop\n      jump\t// out\n        /* \"contracts/test/mocks/MockRevertingERC20.sol\":2245:2385  function _burn(address owner_, uint256 amount_) internal {... */\n    tag_91:\n        /* \"contracts/test/mocks/MockRevertingERC20.sol\":2333:2340  amount_ */\n      dup1\n        /* \"contracts/test/mocks/MockRevertingERC20.sol\":2312:2321  balanceOf */\n      0x04\n        /* \"contracts/test/mocks/MockRevertingERC20.sol\":2312:2329  balanceOf[owner_] */\n      0x00\n        /* \"contracts/test/mocks/MockRevertingERC20.sol\":2322:2328  owner_ */\n      dup5\n        /* \"contracts/test/mocks/MockRevertingERC20.sol\":2312:2329  balanceOf[owner_] */\n      0xffffffffffffffffffffffffffffffffffffffff\n      and\n      0xffffffffffffffffffffffffffffffffffffffff\n      and\n      dup2\n      mstore\n      0x20\n      add\n      swap1\n      dup2\n      mstore\n      0x20\n      add\n      0x00\n      keccak256\n      0x00\n        /* \"contracts/test/mocks/MockRevertingERC20.sol\":2312:2340  balanceOf[owner_] -= amount_ */\n      dup3\n      dup3\n      sload\n      tag_106\n      swap2\n      swap1\n      tag_78\n      jump\t// in\n    tag_106:\n      swap3\n      pop\n      pop\n      dup2\n      swap1\n      sstore\n      pop\n        /* \"contracts/test/mocks/MockRevertingERC20.sol\":2371:2378  amount_ */\n      dup1\n        /* \"contracts/test/mocks/MockRevertingERC20.sol\":2350:2361  totalSupply */\n      0x02\n      0x00\n        /* \"contracts/test/mocks/MockRevertingERC20.sol\":2350:2378  totalSupply       -= amount_ */\n      dup3\n      dup3\n      sload\n      tag_107\n      swap2\n      swap1\n      tag_78\n      jump\t// in\n    tag_107:\n      swap3\n      pop\n      pop\n      dup2\n      swap1\n      sstore\n      pop\n        /* \"contracts/test/mocks/MockRevertingERC20.sol\":2245:2385  function _burn(address owner_, uint256 amount_) internal {... */\n      pop\n      pop\n      jump\t// out\n        /* \"#utility.yul\":7:146   */\n    tag_109:\n        /* \"#utility.yul\":53:58   */\n      0x00\n        /* \"#utility.yul\":91:97   */\n      dup2\n        /* \"#utility.yul\":78:98   */\n      calldataload\n        /* \"#utility.yul\":69:98   */\n      swap1\n      pop\n        /* \"#utility.yul\":107:140   */\n      tag_111\n        /* \"#utility.yul\":134:139   */\n      dup2\n        /* \"#utility.yul\":107:140   */\n      tag_112\n      jump\t// in\n    tag_111:\n        /* \"#utility.yul\":7:146   */\n      swap3\n      swap2\n      pop\n      pop\n      jump\t// out\n        /* \"#utility.yul\":152:291   */\n    tag_113:\n        /* \"#utility.yul\":198:203   */\n      0x00\n        /* \"#utility.yul\":236:242   */\n      dup2\n        /* \"#utility.yul\":223:243   */\n      calldataload\n        /* \"#utility.yul\":214:243   */\n      swap1\n      pop\n        /* \"#utility.yul\":252:285   */\n      tag_115\n        /* \"#utility.yul\":279:284   */\n      dup2\n        /* \"#utility.yul\":252:285   */\n      tag_116\n      jump\t// in\n    tag_115:\n        /* \"#utility.yul\":152:291   */\n      swap3\n      swap2\n      pop\n      pop\n      jump\t// out\n        /* \"#utility.yul\":297:626   */\n    tag_48:\n        /* \"#utility.yul\":356:362   */\n      0x00\n        /* \"#utility.yul\":405:407   */\n      0x20\n        /* \"#utility.yul\":393:402   */\n      dup3\n        /* \"#utility.yul\":384:391   */\n      dup5\n        /* \"#utility.yul\":380:403   */\n      sub\n        /* \"#utility.yul\":376:408   */\n      slt\n        /* \"#utility.yul\":373:492   */\n      iszero\n      tag_118\n      jumpi\n        /* \"#utility.yul\":411:490   */\n      tag_119\n      tag_120\n      jump\t// in\n    tag_119:\n        /* \"#utility.yul\":373:492   */\n    tag_118:\n        /* \"#utility.yul\":531:532   */\n      0x00\n        /* \"#utility.yul\":556:609   */\n      tag_121\n        /* \"#utility.yul\":601:608   */\n      dup5\n        /* \"#utility.yul\":592:598   */\n      dup3\n        /* \"#utility.yul\":581:590   */\n      dup6\n        /* \"#utility.yul\":577:599   */\n      add\n        /* \"#utility.yul\":556:609   */\n      tag_109\n      jump\t// in\n    tag_121:\n        /* \"#utility.yul\":546:609   */\n      swap2\n      pop\n        /* \"#utility.yul\":502:619   */\n      pop\n        /* \"#utility.yul\":297:626   */\n      swap3\n      swap2\n      pop\n      pop\n      jump\t// out\n        /* \"#utility.yul\":632:1106   */\n    tag_63:\n        /* \"#utility.yul\":700:706   */\n      0x00\n        /* \"#utility.yul\":708:714   */\n      dup1\n        /* \"#utility.yul\":757:759   */\n      0x40\n        /* \"#utility.yul\":745:754   */\n      dup4\n        /* \"#utility.yul\":736:743   */\n      dup6\n        /* \"#utility.yul\":732:755   */\n      sub\n        /* \"#utility.yul\":728:760   */\n      slt\n        /* \"#utility.yul\":725:844   */\n      iszero\n      tag_123\n      jumpi\n        /* \"#utility.yul\":763:842   */\n      tag_124\n      tag_120\n      jump\t// in\n    tag_124:\n        /* \"#utility.yul\":725:844   */\n    tag_123:\n        /* \"#utility.yul\":883:884   */\n      0x00\n        /* \"#utility.yul\":908:961   */\n      tag_125\n        /* \"#utility.yul\":953:960   */\n      dup6\n        /* \"#utility.yul\":944:950   */\n      dup3\n        /* \"#utility.yul\":933:942   */\n      dup7\n        /* \"#utility.yul\":929:951   */\n      add\n        /* \"#utility.yul\":908:961   */\n      tag_109\n      jump\t// in\n    tag_125:\n        /* \"#utility.yul\":898:961   */\n      swap3\n      pop\n        /* \"#utility.yul\":854:971   */\n      pop\n        /* \"#utility.yul\":1010:1012   */\n      0x20\n        /* \"#utility.yul\":1036:1089   */\n      tag_126\n        /* \"#utility.yul\":1081:1088   */\n      dup6\n        /* \"#utility.yul\":1072:1078   */\n      dup3\n        /* \"#utility.yul\":1061:1070   */\n      dup7\n        /* \"#utility.yul\":1057:1079   */\n      add\n        /* \"#utility.yul\":1036:1089   */\n      tag_109\n      jump\t// in\n    tag_126:\n        /* \"#utility.yul\":1026:1089   */\n      swap2\n      pop\n        /* \"#utility.yul\":981:1099   */\n      pop\n        /* \"#utility.yul\":632:1106   */\n      swap3\n      pop\n      swap3\n      swap1\n      pop\n      jump\t// out\n        /* \"#utility.yul\":1112:1731   */\n    tag_32:\n        /* \"#utility.yul\":1189:1195   */\n      0x00\n        /* \"#utility.yul\":1197:1203   */\n      dup1\n        /* \"#utility.yul\":1205:1211   */\n      0x00\n        /* \"#utility.yul\":1254:1256   */\n      0x60\n        /* \"#utility.yul\":1242:1251   */\n      dup5\n        /* \"#utility.yul\":1233:1240   */\n      dup7\n        /* \"#utility.yul\":1229:1252   */\n      sub\n        /* \"#utility.yul\":1225:1257   */\n      slt\n        /* \"#utility.yul\":1222:1341   */\n      iszero\n      tag_128\n      jumpi\n        /* \"#utility.yul\":1260:1339   */\n      tag_129\n      tag_120\n      jump\t// in\n    tag_129:\n        /* \"#utility.yul\":1222:1341   */\n    tag_128:\n        /* \"#utility.yul\":1380:1381   */\n      0x00\n        /* \"#utility.yul\":1405:1458   */\n      tag_130\n        /* \"#utility.yul\":1450:1457   */\n      dup7\n        /* \"#utility.yul\":1441:1447   */\n      dup3\n        /* \"#utility.yul\":1430:1439   */\n      dup8\n        /* \"#utility.yul\":1426:1448   */\n      add\n        /* \"#utility.yul\":1405:1458   */\n      tag_109\n      jump\t// in\n    tag_130:\n        /* \"#utility.yul\":1395:1458   */\n      swap4\n      pop\n        /* \"#utility.yul\":1351:1468   */\n      pop\n        /* \"#utility.yul\":1507:1509   */\n      0x20\n        /* \"#utility.yul\":1533:1586   */\n      tag_131\n        /* \"#utility.yul\":1578:1585   */\n      dup7\n        /* \"#utility.yul\":1569:1575   */\n      dup3\n        /* \"#utility.yul\":1558:1567   */\n      dup8\n        /* \"#utility.yul\":1554:1576   */\n      add\n        /* \"#utility.yul\":1533:1586   */\n      tag_109\n      jump\t// in\n    tag_131:\n        /* \"#utility.yul\":1523:1586   */\n      swap3\n      pop\n        /* \"#utility.yul\":1478:1596   */\n      pop\n        /* \"#utility.yul\":1635:1637   */\n      0x40\n        /* \"#utility.yul\":1661:1714   */\n      tag_132\n        /* \"#utility.yul\":1706:1713   */\n      dup7\n        /* \"#utility.yul\":1697:1703   */\n      dup3\n        /* \"#utility.yul\":1686:1695   */\n      dup8\n        /* \"#utility.yul\":1682:1704   */\n      add\n        /* \"#utility.yul\":1661:1714   */\n      tag_113\n      jump\t// in\n    tag_132:\n        /* \"#utility.yul\":1651:1714   */\n      swap2\n      pop\n        /* \"#utility.yul\":1606:1724   */\n      pop\n        /* \"#utility.yul\":1112:1731   */\n      swap3\n      pop\n      swap3\n      pop\n      swap3\n      jump\t// out\n        /* \"#utility.yul\":1737:2211   */\n    tag_22:\n        /* \"#utility.yul\":1805:1811   */\n      0x00\n        /* \"#utility.yul\":1813:1819   */\n      dup1\n        /* \"#utility.yul\":1862:1864   */\n      0x40\n        /* \"#utility.yul\":1850:1859   */\n      dup4\n        /* \"#utility.yul\":1841:1848   */\n      dup6\n        /* \"#utility.yul\":1837:1860   */\n      sub\n        /* \"#utility.yul\":1833:1865   */\n      slt\n        /* \"#utility.yul\":1830:1949   */\n      iszero\n      tag_134\n      jumpi\n        /* \"#utility.yul\":1868:1947   */\n      tag_135\n      tag_120\n      jump\t// in\n    tag_135:\n        /* \"#utility.yul\":1830:1949   */\n    tag_134:\n        /* \"#utility.yul\":1988:1989   */\n      0x00\n        /* \"#utility.yul\":2013:2066   */\n      tag_136\n        /* \"#utility.yul\":2058:2065   */\n      dup6\n        /* \"#utility.yul\":2049:2055   */\n      dup3\n        /* \"#utility.yul\":2038:2047   */\n      dup7\n        /* \"#utility.yul\":2034:2056   */\n      add\n        /* \"#utility.yul\":2013:2066   */\n      tag_109\n      jump\t// in\n    tag_136:\n        /* \"#utility.yul\":2003:2066   */\n      swap3\n      pop\n        /* \"#utility.yul\":1959:2076   */\n      pop\n        /* \"#utility.yul\":2115:2117   */\n      0x20\n        /* \"#utility.yul\":2141:2194   */\n      tag_137\n        /* \"#utility.yul\":2186:2193   */\n      dup6\n        /* \"#utility.yul\":2177:2183   */\n      dup3\n        /* \"#utility.yul\":2166:2175   */\n      dup7\n        /* \"#utility.yul\":2162:2184   */\n      add\n        /* \"#utility.yul\":2141:2194   */\n      tag_113\n      jump\t// in\n    tag_137:\n        /* \"#utility.yul\":2131:2194   */\n      swap2\n      pop\n        /* \"#utility.yul\":2086:2204   */\n      pop\n        /* \"#utility.yul\":1737:2211   */\n      swap3\n      pop\n      swap3\n      swap1\n      pop\n      jump\t// out\n        /* \"#utility.yul\":2217:2335   */\n    tag_138:\n        /* \"#utility.yul\":2304:2328   */\n      tag_140\n        /* \"#utility.yul\":2322:2327   */\n      dup2\n        /* \"#utility.yul\":2304:2328   */\n      tag_141\n      jump\t// in\n    tag_140:\n        /* \"#utility.yul\":2299:2302   */\n      dup3\n        /* \"#utility.yul\":2292:2329   */\n      mstore\n        /* \"#utility.yul\":2217:2335   */\n      pop\n      pop\n      jump\t// out\n        /* \"#utility.yul\":2341:2450   */\n    tag_142:\n        /* \"#utility.yul\":2422:2443   */\n      tag_144\n        /* \"#utility.yul\":2437:2442   */\n      dup2\n        /* \"#utility.yul\":2422:2443   */\n      tag_145\n      jump\t// in\n    tag_144:\n        /* \"#utility.yul\":2417:2420   */\n      dup3\n        /* \"#utility.yul\":2410:2444   */\n      mstore\n        /* \"#utility.yul\":2341:2450   */\n      pop\n      pop\n      jump\t// out\n        /* \"#utility.yul\":2456:2820   */\n    tag_146:\n        /* \"#utility.yul\":2544:2547   */\n      0x00\n        /* \"#utility.yul\":2572:2611   */\n      tag_148\n        /* \"#utility.yul\":2605:2610   */\n      dup3\n        /* \"#utility.yul\":2572:2611   */\n      tag_149\n      jump\t// in\n    tag_148:\n        /* \"#utility.yul\":2627:2698   */\n      tag_150\n        /* \"#utility.yul\":2691:2697   */\n      dup2\n        /* \"#utility.yul\":2686:2689   */\n      dup6\n        /* \"#utility.yul\":2627:2698   */\n      tag_151\n      jump\t// in\n    tag_150:\n        /* \"#utility.yul\":2620:2698   */\n      swap4\n      pop\n        /* \"#utility.yul\":2707:2759   */\n      tag_152\n        /* \"#utility.yul\":2752:2758   */\n      dup2\n        /* \"#utility.yul\":2747:2750   */\n      dup6\n        /* \"#utility.yul\":2740:2744   */\n      0x20\n        /* \"#utility.yul\":2733:2738   */\n      dup7\n        /* \"#utility.yul\":2729:2745   */\n      add\n        /* \"#utility.yul\":2707:2759   */\n      tag_153\n      jump\t// in\n    tag_152:\n        /* \"#utility.yul\":2784:2813   */\n      tag_154\n        /* \"#utility.yul\":2806:2812   */\n      dup2\n        /* \"#utility.yul\":2784:2813   */\n      tag_155\n      jump\t// in\n    tag_154:\n        /* \"#utility.yul\":2779:2782   */\n      dup5\n        /* \"#utility.yul\":2775:2814   */\n      add\n        /* \"#utility.yul\":2768:2814   */\n      swap2\n      pop\n        /* \"#utility.yul\":2548:2820   */\n      pop\n        /* \"#utility.yul\":2456:2820   */\n      swap3\n      swap2\n      pop\n      pop\n      jump\t// out\n        /* \"#utility.yul\":2826:3191   */\n    tag_156:\n        /* \"#utility.yul\":2968:2971   */\n      0x00\n        /* \"#utility.yul\":2989:3055   */\n      tag_158\n        /* \"#utility.yul\":3053:3054   */\n      0x07\n        /* \"#utility.yul\":3048:3051   */\n      dup4\n        /* \"#utility.yul\":2989:3055   */\n      tag_151\n      jump\t// in\n    tag_158:\n        /* \"#utility.yul\":2982:3055   */\n      swap2\n      pop\n        /* \"#utility.yul\":3064:3157   */\n      tag_159\n        /* \"#utility.yul\":3153:3156   */\n      dup3\n        /* \"#utility.yul\":3064:3157   */\n      tag_160\n      jump\t// in\n    tag_159:\n        /* \"#utility.yul\":3182:3184   */\n      0x20\n        /* \"#utility.yul\":3177:3180   */\n      dup3\n        /* \"#utility.yul\":3173:3185   */\n      add\n        /* \"#utility.yul\":3166:3185   */\n      swap1\n      pop\n        /* \"#utility.yul\":2826:3191   */\n      swap2\n      swap1\n      pop\n      jump\t// out\n        /* \"#utility.yul\":3197:3315   */\n    tag_161:\n        /* \"#utility.yul\":3284:3308   */\n      tag_163\n        /* \"#utility.yul\":3302:3307   */\n      dup2\n        /* \"#utility.yul\":3284:3308   */\n      tag_164\n      jump\t// in\n    tag_163:\n        /* \"#utility.yul\":3279:3282   */\n      dup3\n        /* \"#utility.yul\":3272:3309   */\n      mstore\n        /* \"#utility.yul\":3197:3315   */\n      pop\n      pop\n      jump\t// out\n        /* \"#utility.yul\":3321:3433   */\n    tag_165:\n        /* \"#utility.yul\":3404:3426   */\n      tag_167\n        /* \"#utility.yul\":3420:3425   */\n      dup2\n        /* \"#utility.yul\":3404:3426   */\n      tag_168\n      jump\t// in\n    tag_167:\n        /* \"#utility.yul\":3399:3402   */\n      dup3\n        /* \"#utility.yul\":3392:3427   */\n      mstore\n        /* \"#utility.yul\":3321:3433   */\n      pop\n      pop\n      jump\t// out\n        /* \"#utility.yul\":3439:3661   */\n    tag_45:\n        /* \"#utility.yul\":3532:3536   */\n      0x00\n        /* \"#utility.yul\":3570:3572   */\n      0x20\n        /* \"#utility.yul\":3559:3568   */\n      dup3\n        /* \"#utility.yul\":3555:3573   */\n      add\n        /* \"#utility.yul\":3547:3573   */\n      swap1\n      pop\n        /* \"#utility.yul\":3583:3654   */\n      tag_170\n        /* \"#utility.yul\":3651:3652   */\n      0x00\n        /* \"#utility.yul\":3640:3649   */\n      dup4\n        /* \"#utility.yul\":3636:3653   */\n      add\n        /* \"#utility.yul\":3627:3633   */\n      dup5\n        /* \"#utility.yul\":3583:3654   */\n      tag_138\n      jump\t// in\n    tag_170:\n        /* \"#utility.yul\":3439:3661   */\n      swap3\n      swap2\n      pop\n      pop\n      jump\t// out\n        /* \"#utility.yul\":3667:3877   */\n    tag_25:\n        /* \"#utility.yul\":3754:3758   */\n      0x00\n        /* \"#utility.yul\":3792:3794   */\n      0x20\n        /* \"#utility.yul\":3781:3790   */\n      dup3\n        /* \"#utility.yul\":3777:3795   */\n      add\n        /* \"#utility.yul\":3769:3795   */\n      swap1\n      pop\n        /* \"#utility.yul\":3805:3870   */\n      tag_172\n        /* \"#utility.yul\":3867:3868   */\n      0x00\n        /* \"#utility.yul\":3856:3865   */\n      dup4\n        /* \"#utility.yul\":3852:3869   */\n      add\n        /* \"#utility.yul\":3843:3849   */\n      dup5\n        /* \"#utility.yul\":3805:3870   */\n      tag_142\n      jump\t// in\n    tag_172:\n        /* \"#utility.yul\":3667:3877   */\n      swap3\n      swap2\n      pop\n      pop\n      jump\t// out\n        /* \"#utility.yul\":3883:4196   */\n    tag_19:\n        /* \"#utility.yul\":3996:4000   */\n      0x00\n        /* \"#utility.yul\":4034:4036   */\n      0x20\n        /* \"#utility.yul\":4023:4032   */\n      dup3\n        /* \"#utility.yul\":4019:4037   */\n      add\n        /* \"#utility.yul\":4011:4037   */\n      swap1\n      pop\n        /* \"#utility.yul\":4083:4092   */\n      dup2\n        /* \"#utility.yul\":4077:4081   */\n      dup2\n        /* \"#utility.yul\":4073:4093   */\n      sub\n        /* \"#utility.yul\":4069:4070   */\n      0x00\n        /* \"#utility.yul\":4058:4067   */\n      dup4\n        /* \"#utility.yul\":4054:4071   */\n      add\n        /* \"#utility.yul\":4047:4094   */\n      mstore\n        /* \"#utility.yul\":4111:4189   */\n      tag_174\n        /* \"#utility.yul\":4184:4188   */\n      dup2\n        /* \"#utility.yul\":4175:4181   */\n      dup5\n        /* \"#utility.yul\":4111:4189   */\n      tag_146\n      jump\t// in\n    tag_174:\n        /* \"#utility.yul\":4103:4189   */\n      swap1\n      pop\n        /* \"#utility.yul\":3883:4196   */\n      swap3\n      swap2\n      pop\n      pop\n      jump\t// out\n        /* \"#utility.yul\":4202:4621   */\n    tag_98:\n        /* \"#utility.yul\":4368:4372   */\n      0x00\n        /* \"#utility.yul\":4406:4408   */\n      0x20\n        /* \"#utility.yul\":4395:4404   */\n      dup3\n        /* \"#utility.yul\":4391:4409   */\n      add\n        /* \"#utility.yul\":4383:4409   */\n      swap1\n      pop\n        /* \"#utility.yul\":4455:4464   */\n      dup2\n        /* \"#utility.yul\":4449:4453   */\n      dup2\n        /* \"#utility.yul\":4445:4465   */\n      sub\n        /* \"#utility.yul\":4441:4442   */\n      0x00\n        /* \"#utility.yul\":4430:4439   */\n      dup4\n        /* \"#utility.yul\":4426:4443   */\n      add\n        /* \"#utility.yul\":4419:4466   */\n      mstore\n        /* \"#utility.yul\":4483:4614   */\n      tag_176\n        /* \"#utility.yul\":4609:4613   */\n      dup2\n        /* \"#utility.yul\":4483:4614   */\n      tag_156\n      jump\t// in\n    tag_176:\n        /* \"#utility.yul\":4475:4614   */\n      swap1\n      pop\n        /* \"#utility.yul\":4202:4621   */\n      swap2\n      swap1\n      pop\n      jump\t// out\n        /* \"#utility.yul\":4627:4849   */\n    tag_29:\n        /* \"#utility.yul\":4720:4724   */\n      0x00\n        /* \"#utility.yul\":4758:4760   */\n      0x20\n        /* \"#utility.yul\":4747:4756   */\n      dup3\n        /* \"#utility.yul\":4743:4761   */\n      add\n        /* \"#utility.yul\":4735:4761   */\n      swap1\n      pop\n        /* \"#utility.yul\":4771:4842   */\n      tag_178\n        /* \"#utility.yul\":4839:4840   */\n      0x00\n        /* \"#utility.yul\":4828:4837   */\n      dup4\n        /* \"#utility.yul\":4824:4841   */\n      add\n        /* \"#utility.yul\":4815:4821   */\n      dup5\n        /* \"#utility.yul\":4771:4842   */\n      tag_161\n      jump\t// in\n    tag_178:\n        /* \"#utility.yul\":4627:4849   */\n      swap3\n      swap2\n      pop\n      pop\n      jump\t// out\n        /* \"#utility.yul\":4855:5069   */\n    tag_38:\n        /* \"#utility.yul\":4944:4948   */\n      0x00\n        /* \"#utility.yul\":4982:4984   */\n      0x20\n        /* \"#utility.yul\":4971:4980   */\n      dup3\n        /* \"#utility.yul\":4967:4985   */\n      add\n        /* \"#utility.yul\":4959:4985   */\n      swap1\n      pop\n        /* \"#utility.yul\":4995:5062   */\n      tag_180\n        /* \"#utility.yul\":5059:5060   */\n      0x00\n        /* \"#utility.yul\":5048:5057   */\n      dup4\n        /* \"#utility.yul\":5044:5061   */\n      add\n        /* \"#utility.yul\":5035:5041   */\n      dup5\n        /* \"#utility.yul\":4995:5062   */\n      tag_165\n      jump\t// in\n    tag_180:\n        /* \"#utility.yul\":4855:5069   */\n      swap3\n      swap2\n      pop\n      pop\n      jump\t// out\n        /* \"#utility.yul\":5156:5255   */\n    tag_149:\n        /* \"#utility.yul\":5208:5214   */\n      0x00\n        /* \"#utility.yul\":5242:5247   */\n      dup2\n        /* \"#utility.yul\":5236:5248   */\n      mload\n        /* \"#utility.yul\":5226:5248   */\n      swap1\n      pop\n        /* \"#utility.yul\":5156:5255   */\n      swap2\n      swap1\n      pop\n      jump\t// out\n        /* \"#utility.yul\":5261:5430   */\n    tag_151:\n        /* \"#utility.yul\":5345:5356   */\n      0x00\n        /* \"#utility.yul\":5379:5385   */\n      dup3\n        /* \"#utility.yul\":5374:5377   */\n      dup3\n        /* \"#utility.yul\":5367:5386   */\n      mstore\n        /* \"#utility.yul\":5419:5423   */\n      0x20\n        /* \"#utility.yul\":5414:5417   */\n      dup3\n        /* \"#utility.yul\":5410:5424   */\n      add\n        /* \"#utility.yul\":5395:5424   */\n      swap1\n      pop\n        /* \"#utility.yul\":5261:5430   */\n      swap3\n      swap2\n      pop\n      pop\n      jump\t// out\n        /* \"#utility.yul\":5436:5741   */\n    tag_101:\n        /* \"#utility.yul\":5476:5479   */\n      0x00\n        /* \"#utility.yul\":5495:5515   */\n      tag_186\n        /* \"#utility.yul\":5513:5514   */\n      dup3\n        /* \"#utility.yul\":5495:5515   */\n      tag_164\n      jump\t// in\n    tag_186:\n        /* \"#utility.yul\":5490:5515   */\n      swap2\n      pop\n        /* \"#utility.yul\":5529:5549   */\n      tag_187\n        /* \"#utility.yul\":5547:5548   */\n      dup4\n        /* \"#utility.yul\":5529:5549   */\n      tag_164\n      jump\t// in\n    tag_187:\n        /* \"#utility.yul\":5524:5549   */\n      swap3\n      pop\n        /* \"#utility.yul\":5683:5684   */\n      dup3\n        /* \"#utility.yul\":5615:5681   */\n      0xffffffffffffffffffffffffffffffffffffffffffffffffffffffffffffffff\n        /* \"#utility.yul\":5611:5685   */\n      sub\n        /* \"#utility.yul\":5608:5609   */\n      dup3\n        /* \"#utility.yul\":5605:5686   */\n      gt\n        /* \"#utility.yul\":5602:5709   */\n      iszero\n      tag_188\n      jumpi\n        /* \"#utility.yul\":5689:5707   */\n      tag_189\n      tag_190\n      jump\t// in\n    tag_189:\n        /* \"#utility.yul\":5602:5709   */\n    tag_188:\n        /* \"#utility.yul\":5733:5734   */\n      dup3\n        /* \"#utility.yul\":5730:5731   */\n      dup3\n        /* \"#utility.yul\":5726:5735   */\n      add\n        /* \"#utility.yul\":5719:5735   */\n      swap1\n      pop\n        /* \"#utility.yul\":5436:5741   */\n      swap3\n      swap2\n      pop\n      pop\n      jump\t// out\n        /* \"#utility.yul\":5747:5938   */\n    tag_78:\n        /* \"#utility.yul\":5787:5791   */\n      0x00\n        /* \"#utility.yul\":5807:5827   */\n      tag_192\n        /* \"#utility.yul\":5825:5826   */\n      dup3\n        /* \"#utility.yul\":5807:5827   */\n      tag_164\n      jump\t// in\n    tag_192:\n        /* \"#utility.yul\":5802:5827   */\n      swap2\n      pop\n        /* \"#utility.yul\":5841:5861   */\n      tag_193\n        /* \"#utility.yul\":5859:5860   */\n      dup4\n        /* \"#utility.yul\":5841:5861   */\n      tag_164\n      jump\t// in\n    tag_193:\n        /* \"#utility.yul\":5836:5861   */\n      swap3\n      pop\n        /* \"#utility.yul\":5880:5881   */\n      dup3\n        /* \"#utility.yul\":5877:5878   */\n      dup3\n        /* \"#utility.yul\":5874:5882   */\n      lt\n        /* \"#utility.yul\":5871:5905   */\n      iszero\n      tag_194\n      jumpi\n        /* \"#utility.yul\":5885:5903   */\n      tag_195\n      tag_190\n      jump\t// in\n    tag_195:\n        /* \"#utility.yul\":5871:5905   */\n    tag_194:\n        /* \"#utility.yul\":5930:5931   */\n      dup3\n        /* \"#utility.yul\":5927:5928   */\n      dup3\n        /* \"#utility.yul\":5923:5932   */\n      sub\n        /* \"#utility.yul\":5915:5932   */\n      swap1\n      pop\n        /* \"#utility.yul\":5747:5938   */\n      swap3\n      swap2\n      pop\n      pop\n      jump\t// out\n        /* \"#utility.yul\":5944:6040   */\n    tag_141:\n        /* \"#utility.yul\":5981:5988   */\n      0x00\n        /* \"#utility.yul\":6010:6034   */\n      tag_197\n        /* \"#utility.yul\":6028:6033   */\n      dup3\n        /* \"#utility.yul\":6010:6034   */\n      tag_198\n      jump\t// in\n    tag_197:\n        /* \"#utility.yul\":5999:6034   */\n      swap1\n      pop\n        /* \"#utility.yul\":5944:6040   */\n      swap2\n      swap1\n      pop\n      jump\t// out\n        /* \"#utility.yul\":6046:6136   */\n    tag_145:\n        /* \"#utility.yul\":6080:6087   */\n      0x00\n        /* \"#utility.yul\":6123:6128   */\n      dup2\n        /* \"#utility.yul\":6116:6129   */\n      iszero\n        /* \"#utility.yul\":6109:6130   */\n      iszero\n        /* \"#utility.yul\":6098:6130   */\n      swap1\n      pop\n        /* \"#utility.yul\":6046:6136   */\n      swap2\n      swap1\n      pop\n      jump\t// out\n        /* \"#utility.yul\":6142:6268   */\n    tag_198:\n        /* \"#utility.yul\":6179:6186   */\n      0x00\n        /* \"#utility.yul\":6219:6261   */\n      0xffffffffffffffffffffffffffffffffffffffff\n        /* \"#utility.yul\":6212:6217   */\n      dup3\n        /* \"#utility.yul\":6208:6262   */\n      and\n        /* \"#utility.yul\":6197:6262   */\n      swap1\n      pop\n        /* \"#utility.yul\":6142:6268   */\n      swap2\n      swap1\n      pop\n      jump\t// out\n        /* \"#utility.yul\":6274:6351   */\n    tag_164:\n        /* \"#utility.yul\":6311:6318   */\n      0x00\n        /* \"#utility.yul\":6340:6345   */\n      dup2\n        /* \"#utility.yul\":6329:6345   */\n      swap1\n      pop\n        /* \"#utility.yul\":6274:6351   */\n      swap2\n      swap1\n      pop\n      jump\t// out\n        /* \"#utility.yul\":6357:6443   */\n    tag_168:\n        /* \"#utility.yul\":6392:6399   */\n      0x00\n        /* \"#utility.yul\":6432:6436   */\n      0xff\n        /* \"#utility.yul\":6425:6430   */\n      dup3\n        /* \"#utility.yul\":6421:6437   */\n      and\n        /* \"#utility.yul\":6410:6437   */\n      swap1\n      pop\n        /* \"#utility.yul\":6357:6443   */\n      swap2\n      swap1\n      pop\n      jump\t// out\n        /* \"#utility.yul\":6449:6756   */\n    tag_153:\n        /* \"#utility.yul\":6517:6518   */\n      0x00\n        /* \"#utility.yul\":6527:6640   */\n    tag_204:\n        /* \"#utility.yul\":6541:6547   */\n      dup4\n        /* \"#utility.yul\":6538:6539   */\n      dup2\n        /* \"#utility.yul\":6535:6548   */\n      lt\n        /* \"#utility.yul\":6527:6640   */\n      iszero\n      tag_206\n      jumpi\n        /* \"#utility.yul\":6626:6627   */\n      dup1\n        /* \"#utility.yul\":6621:6624   */\n      dup3\n        /* \"#utility.yul\":6617:6628   */\n      add\n        /* \"#utility.yul\":6611:6629   */\n      mload\n        /* \"#utility.yul\":6607:6608   */\n      dup2\n        /* \"#utility.yul\":6602:6605   */\n      dup5\n        /* \"#utility.yul\":6598:6609   */\n      add\n        /* \"#utility.yul\":6591:6630   */\n      mstore\n        /* \"#utility.yul\":6563:6565   */\n      0x20\n        /* \"#utility.yul\":6560:6561   */\n      dup2\n        /* \"#utility.yul\":6556:6566   */\n      add\n        /* \"#utility.yul\":6551:6566   */\n      swap1\n      pop\n        /* \"#utility.yul\":6527:6640   */\n      jump(tag_204)\n    tag_206:\n        /* \"#utility.yul\":6658:6664   */\n      dup4\n        /* \"#utility.yul\":6655:6656   */\n      dup2\n        /* \"#utility.yul\":6652:6665   */\n      gt\n        /* \"#utility.yul\":6649:6750   */\n      iszero\n      tag_207\n      jumpi\n        /* \"#utility.yul\":6738:6739   */\n      0x00\n        /* \"#utility.yul\":6729:6735   */\n      dup5\n        /* \"#utility.yul\":6724:6727   */\n      dup5\n        /* \"#utility.yul\":6720:6736   */\n      add\n        /* \"#utility.yul\":6713:6740   */\n      mstore\n        /* \"#utility.yul\":6649:6750   */\n    tag_207:\n        /* \"#utility.yul\":6498:6756   */\n      pop\n        /* \"#utility.yul\":6449:6756   */\n      pop\n      pop\n      pop\n      jump\t// out\n        /* \"#utility.yul\":6762:7082   */\n    tag_67:\n        /* \"#utility.yul\":6806:6812   */\n      0x00\n        /* \"#utility.yul\":6843:6844   */\n      0x02\n        /* \"#utility.yul\":6837:6841   */\n      dup3\n        /* \"#utility.yul\":6833:6845   */\n      div\n        /* \"#utility.yul\":6823:6845   */\n      swap1\n      pop\n        /* \"#utility.yul\":6890:6891   */\n      0x01\n        /* \"#utility.yul\":6884:6888   */\n      dup3\n        /* \"#utility.yul\":6880:6892   */\n      and\n        /* \"#utility.yul\":6911:6929   */\n      dup1\n        /* \"#utility.yul\":6901:6982   */\n      tag_209\n      jumpi\n        /* \"#utility.yul\":6967:6971   */\n      0x7f\n        /* \"#utility.yul\":6959:6965   */\n      dup3\n        /* \"#utility.yul\":6955:6972   */\n      and\n        /* \"#utility.yul\":6945:6972   */\n      swap2\n      pop\n        /* \"#utility.yul\":6901:6982   */\n    tag_209:\n        /* \"#utility.yul\":7029:7031   */\n      0x20\n        /* \"#utility.yul\":7021:7027   */\n      dup3\n        /* \"#utility.yul\":7018:7032   */\n      lt\n        /* \"#utility.yul\":6998:7016   */\n      dup2\n        /* \"#utility.yul\":6995:7033   */\n      eq\n        /* \"#utility.yul\":6992:7076   */\n      iszero\n      tag_210\n      jumpi\n        /* \"#utility.yul\":7048:7066   */\n      tag_211\n      tag_212\n      jump\t// in\n    tag_211:\n        /* \"#utility.yul\":6992:7076   */\n    tag_210:\n        /* \"#utility.yul\":6813:7082   */\n      pop\n        /* \"#utility.yul\":6762:7082   */\n      swap2\n      swap1\n      pop\n      jump\t// out\n        /* \"#utility.yul\":7088:7268   */\n    tag_190:\n        /* \"#utility.yul\":7136:7213   */\n      0x4e487b7100000000000000000000000000000000000000000000000000000000\n        /* \"#utility.yul\":7133:7134   */\n      0x00\n        /* \"#utility.yul\":7126:7214   */\n      mstore\n        /* \"#utility.yul\":7233:7237   */\n      0x11\n        /* \"#utility.yul\":7230:7231   */\n      0x04\n        /* \"#utility.yul\":7223:7238   */\n      mstore\n        /* \"#utility.yul\":7257:7261   */\n      0x24\n        /* \"#utility.yul\":7254:7255   */\n      0x00\n        /* \"#utility.yul\":7247:7262   */\n      revert\n        /* \"#utility.yul\":7274:7454   */\n    tag_212:\n        /* \"#utility.yul\":7322:7399   */\n      0x4e487b7100000000000000000000000000000000000000000000000000000000\n        /* \"#utility.yul\":7319:7320   */\n      0x00\n        /* \"#utility.yul\":7312:7400   */\n      mstore\n        /* \"#utility.yul\":7419:7423   */\n      0x22\n        /* \"#utility.yul\":7416:7417   */\n      0x04\n        /* \"#utility.yul\":7409:7424   */\n      mstore\n        /* \"#utility.yul\":7443:7447   */\n      0x24\n        /* \"#utility.yul\":7440:7441   */\n      0x00\n        /* \"#utility.yul\":7433:7448   */\n      revert\n        /* \"#utility.yul\":7583:7700   */\n    tag_120:\n        /* \"#utility.yul\":7692:7693   */\n      0x00\n        /* \"#utility.yul\":7689:7690   */\n      dup1\n        /* \"#utility.yul\":7682:7694   */\n      revert\n        /* \"#utility.yul\":7706:7808   */\n    tag_155:\n        /* \"#utility.yul\":7747:7753   */\n      0x00\n        /* \"#utility.yul\":7798:7800   */\n      0x1f\n        /* \"#utility.yul\":7794:7801   */\n      not\n        /* \"#utility.yul\":7789:7791   */\n      0x1f\n        /* \"#utility.yul\":7782:7787   */\n      dup4\n        /* \"#utility.yul\":7778:7792   */\n      add\n        /* \"#utility.yul\":7774:7802   */\n      and\n        /* \"#utility.yul\":7764:7802   */\n      swap1\n      pop\n        /* \"#utility.yul\":7706:7808   */\n      swap2\n      swap1\n      pop\n      jump\t// out\n        /* \"#utility.yul\":7814:7971   */\n    tag_160:\n        /* \"#utility.yul\":7954:7963   */\n      0x494e56414c494400000000000000000000000000000000000000000000000000\n        /* \"#utility.yul\":7950:7951   */\n      0x00\n        /* \"#utility.yul\":7942:7948   */\n      dup3\n        /* \"#utility.yul\":7938:7952   */\n      add\n        /* \"#utility.yul\":7931:7964   */\n      mstore\n        /* \"#utility.yul\":7814:7971   */\n      pop\n      jump\t// out\n        /* \"#utility.yul\":7977:8099   */\n    tag_112:\n        /* \"#utility.yul\":8050:8074   */\n      tag_221\n        /* \"#utility.yul\":8068:8073   */\n      dup2\n        /* \"#utility.yul\":8050:8074   */\n      tag_141\n      jump\t// in\n    tag_221:\n        /* \"#utility.yul\":8043:8048   */\n      dup2\n        /* \"#utility.yul\":8040:8075   */\n      eq\n        /* \"#utility.yul\":8030:8093   */\n      tag_222\n      jumpi\n        /* \"#utility.yul\":8089:8090   */\n      0x00\n        /* \"#utility.yul\":8086:8087   */\n      dup1\n        /* \"#utility.yul\":8079:8091   */\n      revert\n        /* \"#utility.yul\":8030:8093   */\n    tag_222:\n        /* \"#utility.yul\":7977:8099   */\n      pop\n      jump\t// out\n        /* \"#utility.yul\":8105:8227   */\n    tag_116:\n        /* \"#utility.yul\":8178:8202   */\n      tag_224\n        /* \"#utility.yul\":8196:8201   */\n      dup2\n        /* \"#utility.yul\":8178:8202   */\n      tag_164\n      jump\t// in\n    tag_224:\n        /* \"#utility.yul\":8171:8176   */\n      dup2\n        /* \"#utility.yul\":8168:8203   */\n      eq\n        /* \"#utility.yul\":8158:8221   */\n      tag_225\n      jumpi\n        /* \"#utility.yul\":8217:8218   */\n      0x00\n        /* \"#utility.yul\":8214:8215   */\n      dup1\n        /* \"#utility.yul\":8207:8219   */\n      revert\n        /* \"#utility.yul\":8158:8221   */\n    tag_225:\n        /* \"#utility.yul\":8105:8227   */\n      pop\n      jump\t// out\n\n    auxdata: 0xa2646970667358221220a91a471426e72527ca4023e7346c390dbfa9577991988d72351a1775064dc9c364736f6c63430008070033\n}\n",
				"bytecode": {
					"linkReferences": {},
					"object": "60a06040523480156200001157600080fd5b506040516200117c3803806200117c833981810160405281019062000037919062000221565b83600090805190602001906200004f929190620000c5565b50826001908051906020019062000068929190620000c5565b508160ff1660808160ff1660f81b8152505080600360006101000a81548173ffffffffffffffffffffffffffffffffffffffff021916908373ffffffffffffffffffffffffffffffffffffffff16021790555050505050620004ca565b828054620000d390620003a7565b90600052602060002090601f016020900481019282620000f7576000855562000143565b82601f106200011257805160ff191683800117855562000143565b8280016001018555821562000143579182015b828111156200014257825182559160200191906001019062000125565b5b50905062000152919062000156565b5090565b5b808211156200017157600081600090555060010162000157565b5090565b60006200018c6200018684620002fa565b620002d1565b905082815260208101848484011115620001ab57620001aa62000476565b5b620001b884828562000371565b509392505050565b600081519050620001d18162000496565b92915050565b600082601f830112620001ef57620001ee62000471565b5b81516200020184826020860162000175565b91505092915050565b6000815190506200021b81620004b0565b92915050565b600080600080608085870312156200023e576200023d62000480565b5b600085015167ffffffffffffffff8111156200025f576200025e6200047b565b5b6200026d87828801620001d7565b945050602085015167ffffffffffffffff8111156200029157620002906200047b565b5b6200029f87828801620001d7565b9350506040620002b2878288016200020a565b9250506060620002c587828801620001c0565b91505092959194509250565b6000620002dd620002f0565b9050620002eb8282620003dd565b919050565b6000604051905090565b600067ffffffffffffffff82111562000318576200031762000442565b5b620003238262000485565b9050602081019050919050565b60006200033d8262000344565b9050919050565b600073ffffffffffffffffffffffffffffffffffffffff82169050919050565b600060ff82169050919050565b60005b838110156200039157808201518184015260208101905062000374565b83811115620003a1576000848401525b50505050565b60006002820490506001821680620003c057607f821691505b60208210811415620003d757620003d662000413565b5b50919050565b620003e88262000485565b810181811067ffffffffffffffff821117156200040a576200040962000442565b5b80604052505050565b7f4e487b7100000000000000000000000000000000000000000000000000000000600052602260045260246000fd5b7f4e487b7100000000000000000000000000000000000000000000000000000000600052604160045260246000fd5b600080fd5b600080fd5b600080fd5b600080fd5b6000601f19601f8301169050919050565b620004a18162000330565b8114620004ad57600080fd5b50565b620004bb8162000364565b8114620004c757600080fd5b50565b60805160f81c610c93620004e960003960006103ce0152610c936000f3fe608060405234801561001057600080fd5b50600436106100b45760003560e01c806358603f2d1161007157806358603f2d1461018f57806370a08231146101ad57806395d89b41146101dd5780639dc29fac146101fb578063a9059cbb14610217578063dd62ed3e14610247576100b4565b806306fdde03146100b9578063095ea7b3146100d757806318160ddd1461010757806323b872dd14610125578063313ce5671461015557806340c10f1914610173575b600080fd5b6100c1610277565b6040516100ce91906109ba565b60405180910390f35b6100f160048036038101906100ec91906108ac565b610305565b6040516100fe919061099f565b60405180910390f35b61010f61031c565b60405161011c91906109fc565b60405180910390f35b61013f600480360381019061013a9190610859565b610322565b60405161014c919061099f565b60405180910390f35b61015d6103cc565b60405161016a9190610a17565b60405180910390f35b61018d600480360381019061018891906108ac565b6103f0565b005b6101976103fe565b6040516101a49190610984565b60405180910390f35b6101c760048036038101906101c291906107ec565b610424565b6040516101d491906109fc565b60405180910390f35b6101e561043c565b6040516101f291906109ba565b60405180910390f35b610215600480360381019061021091906108ac565b6104ca565b005b610231600480360381019061022c91906108ac565b6104d8565b60405161023e919061099f565b60405180910390f35b610261600480360381019061025c9190610819565b6104ef565b60405161026e91906109fc565b60405180910390f35b6000805461028490610b60565b80601f01602080910402602001604051908101604052809291908181526020018280546102b090610b60565b80156102fd5780601f106102d2576101008083540402835291602001916102fd565b820191906000526020600020905b8154815290600101906020018083116102e057829003601f168201915b505050505081565b6000610312338484610514565b6001905092915050565b60025481565b60006103b6843384600560008973ffffffffffffffffffffffffffffffffffffffff1673ffffffffffffffffffffffffffffffffffffffff16815260200190815260200160002060003373ffffffffffffffffffffffffffffffffffffffff1673ffffffffffffffffffffffffffffffffffffffff168152602001908152602001600020546103b19190610aa4565b610514565b6103c184848461059a565b600190509392505050565b7f000000000000000000000000000000000000000000000000000000000000000081565b6103fa82826106dc565b5050565b600360009054906101000a900473ffffffffffffffffffffffffffffffffffffffff1681565b60046020528060005260406000206000915090505481565b6001805461044990610b60565b80601f016020809104026020016040519081016040528092919081815260200182805461047590610b60565b80156104c25780601f10610497576101008083540402835291602001916104c2565b820191906000526020600020905b8154815290600101906020018083116104a557829003601f168201915b505050505081565b6104d4828261074f565b5050565b60006104e533848461059a565b6001905092915050565b6005602052816000526040600020602052806000526040600020600091509150505481565b80600560008573ffffffffffffffffffffffffffffffffffffffff1673ffffffffffffffffffffffffffffffffffffffff16815260200190815260200160002060008473ffffffffffffffffffffffffffffffffffffffff1673ffffffffffffffffffffffffffffffffffffffff16815260200190815260200160002081905550505050565b600360009054906101000a900473ffffffffffffffffffffffffffffffffffffffff1673ffffffffffffffffffffffffffffffffffffffff168273ffffffffffffffffffffffffffffffffffffffff16141561062b576040517f08c379a0000000000000000000000000000000000000000000000000000000008152600401610622906109dc565b60405180910390fd5b80600460008573ffffffffffffffffffffffffffffffffffffffff1673ffffffffffffffffffffffffffffffffffffffff168152602001908152602001600020600082825461067a9190610aa4565b9250508190555080600460008473ffffffffffffffffffffffffffffffffffffffff1673ffffffffffffffffffffffffffffffffffffffff16815260200190815260200160002060008282546106d09190610a4e565b92505081905550505050565b80600260008282546106ee9190610a4e565b9250508190555080600460008473ffffffffffffffffffffffffffffffffffffffff1673ffffffffffffffffffffffffffffffffffffffff16815260200190815260200160002060008282546107449190610a4e565b925050819055505050565b80600460008473ffffffffffffffffffffffffffffffffffffffff1673ffffffffffffffffffffffffffffffffffffffff168152602001908152602001600020600082825461079e9190610aa4565b9250508190555080600260008282546107b79190610aa4565b925050819055505050565b6000813590506107d181610c2f565b92915050565b6000813590506107e681610c46565b92915050565b60006020828403121561080257610801610bf0565b5b6000610810848285016107c2565b91505092915050565b600080604083850312156108305761082f610bf0565b5b600061083e858286016107c2565b925050602061084f858286016107c2565b9150509250929050565b60008060006060848603121561087257610871610bf0565b5b6000610880868287016107c2565b9350506020610891868287016107c2565b92505060406108a2868287016107d7565b9150509250925092565b600080604083850312156108c3576108c2610bf0565b5b60006108d1858286016107c2565b92505060206108e2858286016107d7565b9150509250929050565b6108f581610ad8565b82525050565b61090481610aea565b82525050565b600061091582610a32565b61091f8185610a3d565b935061092f818560208601610b2d565b61093881610bf5565b840191505092915050565b6000610950600783610a3d565b915061095b82610c06565b602082019050919050565b61096f81610b16565b82525050565b61097e81610b20565b82525050565b600060208201905061099960008301846108ec565b92915050565b60006020820190506109b460008301846108fb565b92915050565b600060208201905081810360008301526109d4818461090a565b905092915050565b600060208201905081810360008301526109f581610943565b9050919050565b6000602082019050610a116000830184610966565b92915050565b6000602082019050610a2c6000830184610975565b92915050565b600081519050919050565b600082825260208201905092915050565b6000610a5982610b16565b9150610a6483610b16565b9250827fffffffffffffffffffffffffffffffffffffffffffffffffffffffffffffffff03821115610a9957610a98610b92565b5b828201905092915050565b6000610aaf82610b16565b9150610aba83610b16565b925082821015610acd57610acc610b92565b5b828203905092915050565b6000610ae382610af6565b9050919050565b60008115159050919050565b600073ffffffffffffffffffffffffffffffffffffffff82169050919050565b6000819050919050565b600060ff82169050919050565b60005b83811015610b4b578082015181840152602081019050610b30565b83811115610b5a576000848401525b50505050565b60006002820490506001821680610b7857607f821691505b60208210811415610b8c57610b8b610bc1565b5b50919050565b7f4e487b7100000000000000000000000000000000000000000000000000000000600052601160045260246000fd5b7f4e487b7100000000000000000000000000000000000000000000000000000000600052602260045260246000fd5b600080fd5b6000601f19601f8301169050919050565b7f494e56414c494400000000000000000000000000000000000000000000000000600082015250565b610c3881610ad8565b8114610c4357600080fd5b50565b610c4f81610b16565b8114610c5a57600080fd5b5056fea2646970667358221220a91a471426e72527ca4023e7346c390dbfa9577991988d72351a1775064dc9c364736f6c63430008070033",
					"opcodes": "PUSH1 0xA0 PUSH1 0x40 MSTORE CALLVALUE DUP1 ISZERO PUSH3 0x11 JUMPI PUSH1 0x0 DUP1 REVERT JUMPDEST POP PUSH1 0x40 MLOAD PUSH3 0x117C CODESIZE SUB DUP1 PUSH3 0x117C DUP4 CODECOPY DUP2 DUP2 ADD PUSH1 0x40 MSTORE DUP2 ADD SWAP1 PUSH3 0x37 SWAP2 SWAP1 PUSH3 0x221 JUMP JUMPDEST DUP4 PUSH1 0x0 SWAP1 DUP1 MLOAD SWAP1 PUSH1 0x20 ADD SWAP1 PUSH3 0x4F SWAP3 SWAP2 SWAP1 PUSH3 0xC5 JUMP JUMPDEST POP DUP3 PUSH1 0x1 SWAP1 DUP1 MLOAD SWAP1 PUSH1 0x20 ADD SWAP1 PUSH3 0x68 SWAP3 SWAP2 SWAP1 PUSH3 0xC5 JUMP JUMPDEST POP DUP2 PUSH1 0xFF AND PUSH1 0x80 DUP2 PUSH1 0xFF AND PUSH1 0xF8 SHL DUP2 MSTORE POP POP DUP1 PUSH1 0x3 PUSH1 0x0 PUSH2 0x100 EXP DUP2 SLOAD DUP2 PUSH20 0xFFFFFFFFFFFFFFFFFFFFFFFFFFFFFFFFFFFFFFFF MUL NOT AND SWAP1 DUP4 PUSH20 0xFFFFFFFFFFFFFFFFFFFFFFFFFFFFFFFFFFFFFFFF AND MUL OR SWAP1 SSTORE POP POP POP POP POP PUSH3 0x4CA JUMP JUMPDEST DUP3 DUP1 SLOAD PUSH3 0xD3 SWAP1 PUSH3 0x3A7 JUMP JUMPDEST SWAP1 PUSH1 0x0 MSTORE PUSH1 0x20 PUSH1 0x0 KECCAK256 SWAP1 PUSH1 0x1F ADD PUSH1 0x20 SWAP1 DIV DUP2 ADD SWAP3 DUP3 PUSH3 0xF7 JUMPI PUSH1 0x0 DUP6 SSTORE PUSH3 0x143 JUMP JUMPDEST DUP3 PUSH1 0x1F LT PUSH3 0x112 JUMPI DUP1 MLOAD PUSH1 0xFF NOT AND DUP4 DUP1 ADD OR DUP6 SSTORE PUSH3 0x143 JUMP JUMPDEST DUP3 DUP1 ADD PUSH1 0x1 ADD DUP6 SSTORE DUP3 ISZERO PUSH3 0x143 JUMPI SWAP2 DUP3 ADD JUMPDEST DUP3 DUP2 GT ISZERO PUSH3 0x142 JUMPI DUP3 MLOAD DUP3 SSTORE SWAP2 PUSH1 0x20 ADD SWAP2 SWAP1 PUSH1 0x1 ADD SWAP1 PUSH3 0x125 JUMP JUMPDEST JUMPDEST POP SWAP1 POP PUSH3 0x152 SWAP2 SWAP1 PUSH3 0x156 JUMP JUMPDEST POP SWAP1 JUMP JUMPDEST JUMPDEST DUP1 DUP3 GT ISZERO PUSH3 0x171 JUMPI PUSH1 0x0 DUP2 PUSH1 0x0 SWAP1 SSTORE POP PUSH1 0x1 ADD PUSH3 0x157 JUMP JUMPDEST POP SWAP1 JUMP JUMPDEST PUSH1 0x0 PUSH3 0x18C PUSH3 0x186 DUP5 PUSH3 0x2FA JUMP JUMPDEST PUSH3 0x2D1 JUMP JUMPDEST SWAP1 POP DUP3 DUP2 MSTORE PUSH1 0x20 DUP2 ADD DUP5 DUP5 DUP5 ADD GT ISZERO PUSH3 0x1AB JUMPI PUSH3 0x1AA PUSH3 0x476 JUMP JUMPDEST JUMPDEST PUSH3 0x1B8 DUP5 DUP3 DUP6 PUSH3 0x371 JUMP JUMPDEST POP SWAP4 SWAP3 POP POP POP JUMP JUMPDEST PUSH1 0x0 DUP2 MLOAD SWAP1 POP PUSH3 0x1D1 DUP2 PUSH3 0x496 JUMP JUMPDEST SWAP3 SWAP2 POP POP JUMP JUMPDEST PUSH1 0x0 DUP3 PUSH1 0x1F DUP4 ADD SLT PUSH3 0x1EF JUMPI PUSH3 0x1EE PUSH3 0x471 JUMP JUMPDEST JUMPDEST DUP2 MLOAD PUSH3 0x201 DUP5 DUP3 PUSH1 0x20 DUP7 ADD PUSH3 0x175 JUMP JUMPDEST SWAP2 POP POP SWAP3 SWAP2 POP POP JUMP JUMPDEST PUSH1 0x0 DUP2 MLOAD SWAP1 POP PUSH3 0x21B DUP2 PUSH3 0x4B0 JUMP JUMPDEST SWAP3 SWAP2 POP POP JUMP JUMPDEST PUSH1 0x0 DUP1 PUSH1 0x0 DUP1 PUSH1 0x80 DUP6 DUP8 SUB SLT ISZERO PUSH3 0x23E JUMPI PUSH3 0x23D PUSH3 0x480 JUMP JUMPDEST JUMPDEST PUSH1 0x0 DUP6 ADD MLOAD PUSH8 0xFFFFFFFFFFFFFFFF DUP2 GT ISZERO PUSH3 0x25F JUMPI PUSH3 0x25E PUSH3 0x47B JUMP JUMPDEST JUMPDEST PUSH3 0x26D DUP8 DUP3 DUP9 ADD PUSH3 0x1D7 JUMP JUMPDEST SWAP5 POP POP PUSH1 0x20 DUP6 ADD MLOAD PUSH8 0xFFFFFFFFFFFFFFFF DUP2 GT ISZERO PUSH3 0x291 JUMPI PUSH3 0x290 PUSH3 0x47B JUMP JUMPDEST JUMPDEST PUSH3 0x29F DUP8 DUP3 DUP9 ADD PUSH3 0x1D7 JUMP JUMPDEST SWAP4 POP POP PUSH1 0x40 PUSH3 0x2B2 DUP8 DUP3 DUP9 ADD PUSH3 0x20A JUMP JUMPDEST SWAP3 POP POP PUSH1 0x60 PUSH3 0x2C5 DUP8 DUP3 DUP9 ADD PUSH3 0x1C0 JUMP JUMPDEST SWAP2 POP POP SWAP3 SWAP6 SWAP2 SWAP5 POP SWAP3 POP JUMP JUMPDEST PUSH1 0x0 PUSH3 0x2DD PUSH3 0x2F0 JUMP JUMPDEST SWAP1 POP PUSH3 0x2EB DUP3 DUP3 PUSH3 0x3DD JUMP JUMPDEST SWAP2 SWAP1 POP JUMP JUMPDEST PUSH1 0x0 PUSH1 0x40 MLOAD SWAP1 POP SWAP1 JUMP JUMPDEST PUSH1 0x0 PUSH8 0xFFFFFFFFFFFFFFFF DUP3 GT ISZERO PUSH3 0x318 JUMPI PUSH3 0x317 PUSH3 0x442 JUMP JUMPDEST JUMPDEST PUSH3 0x323 DUP3 PUSH3 0x485 JUMP JUMPDEST SWAP1 POP PUSH1 0x20 DUP2 ADD SWAP1 POP SWAP2 SWAP1 POP JUMP JUMPDEST PUSH1 0x0 PUSH3 0x33D DUP3 PUSH3 0x344 JUMP JUMPDEST SWAP1 POP SWAP2 SWAP1 POP JUMP JUMPDEST PUSH1 0x0 PUSH20 0xFFFFFFFFFFFFFFFFFFFFFFFFFFFFFFFFFFFFFFFF DUP3 AND SWAP1 POP SWAP2 SWAP1 POP JUMP JUMPDEST PUSH1 0x0 PUSH1 0xFF DUP3 AND SWAP1 POP SWAP2 SWAP1 POP JUMP JUMPDEST PUSH1 0x0 JUMPDEST DUP4 DUP2 LT ISZERO PUSH3 0x391 JUMPI DUP1 DUP3 ADD MLOAD DUP2 DUP5 ADD MSTORE PUSH1 0x20 DUP2 ADD SWAP1 POP PUSH3 0x374 JUMP JUMPDEST DUP4 DUP2 GT ISZERO PUSH3 0x3A1 JUMPI PUSH1 0x0 DUP5 DUP5 ADD MSTORE JUMPDEST POP POP POP POP JUMP JUMPDEST PUSH1 0x0 PUSH1 0x2 DUP3 DIV SWAP1 POP PUSH1 0x1 DUP3 AND DUP1 PUSH3 0x3C0 JUMPI PUSH1 0x7F DUP3 AND SWAP2 POP JUMPDEST PUSH1 0x20 DUP3 LT DUP2 EQ ISZERO PUSH3 0x3D7 JUMPI PUSH3 0x3D6 PUSH3 0x413 JUMP JUMPDEST JUMPDEST POP SWAP2 SWAP1 POP JUMP JUMPDEST PUSH3 0x3E8 DUP3 PUSH3 0x485 JUMP JUMPDEST DUP2 ADD DUP2 DUP2 LT PUSH8 0xFFFFFFFFFFFFFFFF DUP3 GT OR ISZERO PUSH3 0x40A JUMPI PUSH3 0x409 PUSH3 0x442 JUMP JUMPDEST JUMPDEST DUP1 PUSH1 0x40 MSTORE POP POP POP JUMP JUMPDEST PUSH32 0x4E487B7100000000000000000000000000000000000000000000000000000000 PUSH1 0x0 MSTORE PUSH1 0x22 PUSH1 0x4 MSTORE PUSH1 0x24 PUSH1 0x0 REVERT JUMPDEST PUSH32 0x4E487B7100000000000000000000000000000000000000000000000000000000 PUSH1 0x0 MSTORE PUSH1 0x41 PUSH1 0x4 MSTORE PUSH1 0x24 PUSH1 0x0 REVERT JUMPDEST PUSH1 0x0 DUP1 REVERT JUMPDEST PUSH1 0x0 DUP1 REVERT JUMPDEST PUSH1 0x0 DUP1 REVERT JUMPDEST PUSH1 0x0 DUP1 REVERT JUMPDEST PUSH1 0x0 PUSH1 0x1F NOT PUSH1 0x1F DUP4 ADD AND SWAP1 POP SWAP2 SWAP1 POP JUMP JUMPDEST PUSH3 0x4A1 DUP2 PUSH3 0x330 JUMP JUMPDEST DUP2 EQ PUSH3 0x4AD JUMPI PUSH1 0x0 DUP1 REVERT JUMPDEST POP JUMP JUMPDEST PUSH3 0x4BB DUP2 PUSH3 0x364 JUMP JUMPDEST DUP2 EQ PUSH3 0x4C7 JUMPI PUSH1 0x0 DUP1 REVERT JUMPDEST POP JUMP JUMPDEST PUSH1 0x80 MLOAD PUSH1 0xF8 SHR PUSH2 0xC93 PUSH3 0x4E9 PUSH1 0x0 CODECOPY PUSH1 0x0 PUSH2 0x3CE ADD MSTORE PUSH2 0xC93 PUSH1 0x0 RETURN INVALID PUSH1 0x80 PUSH1 0x40 MSTORE CALLVALUE DUP1 ISZERO PUSH2 0x10 JUMPI PUSH1 0x0 DUP1 REVERT JUMPDEST POP PUSH1 0x4 CALLDATASIZE LT PUSH2 0xB4 JUMPI PUSH1 0x0 CALLDATALOAD PUSH1 0xE0 SHR DUP1 PUSH4 0x58603F2D GT PUSH2 0x71 JUMPI DUP1 PUSH4 0x58603F2D EQ PUSH2 0x18F JUMPI DUP1 PUSH4 0x70A08231 EQ PUSH2 0x1AD JUMPI DUP1 PUSH4 0x95D89B41 EQ PUSH2 0x1DD JUMPI DUP1 PUSH4 0x9DC29FAC EQ PUSH2 0x1FB JUMPI DUP1 PUSH4 0xA9059CBB EQ PUSH2 0x217 JUMPI DUP1 PUSH4 0xDD62ED3E EQ PUSH2 0x247 JUMPI PUSH2 0xB4 JUMP JUMPDEST DUP1 PUSH4 0x6FDDE03 EQ PUSH2 0xB9 JUMPI DUP1 PUSH4 0x95EA7B3 EQ PUSH2 0xD7 JUMPI DUP1 PUSH4 0x18160DDD EQ PUSH2 0x107 JUMPI DUP1 PUSH4 0x23B872DD EQ PUSH2 0x125 JUMPI DUP1 PUSH4 0x313CE567 EQ PUSH2 0x155 JUMPI DUP1 PUSH4 0x40C10F19 EQ PUSH2 0x173 JUMPI JUMPDEST PUSH1 0x0 DUP1 REVERT JUMPDEST PUSH2 0xC1 PUSH2 0x277 JUMP JUMPDEST PUSH1 0x40 MLOAD PUSH2 0xCE SWAP2 SWAP1 PUSH2 0x9BA JUMP JUMPDEST PUSH1 0x40 MLOAD DUP1 SWAP2 SUB SWAP1 RETURN JUMPDEST PUSH2 0xF1 PUSH1 0x4 DUP1 CALLDATASIZE SUB DUP2 ADD SWAP1 PUSH2 0xEC SWAP2 SWAP1 PUSH2 0x8AC JUMP JUMPDEST PUSH2 0x305 JUMP JUMPDEST PUSH1 0x40 MLOAD PUSH2 0xFE SWAP2 SWAP1 PUSH2 0x99F JUMP JUMPDEST PUSH1 0x40 MLOAD DUP1 SWAP2 SUB SWAP1 RETURN JUMPDEST PUSH2 0x10F PUSH2 0x31C JUMP JUMPDEST PUSH1 0x40 MLOAD PUSH2 0x11C SWAP2 SWAP1 PUSH2 0x9FC JUMP JUMPDEST PUSH1 0x40 MLOAD DUP1 SWAP2 SUB SWAP1 RETURN JUMPDEST PUSH2 0x13F PUSH1 0x4 DUP1 CALLDATASIZE SUB DUP2 ADD SWAP1 PUSH2 0x13A SWAP2 SWAP1 PUSH2 0x859 JUMP JUMPDEST PUSH2 0x322 JUMP JUMPDEST PUSH1 0x40 MLOAD PUSH2 0x14C SWAP2 SWAP1 PUSH2 0x99F JUMP JUMPDEST PUSH1 0x40 MLOAD DUP1 SWAP2 SUB SWAP1 RETURN JUMPDEST PUSH2 0x15D PUSH2 0x3CC JUMP JUMPDEST PUSH1 0x40 MLOAD PUSH2 0x16A SWAP2 SWAP1 PUSH2 0xA17 JUMP JUMPDEST PUSH1 0x40 MLOAD DUP1 SWAP2 SUB SWAP1 RETURN JUMPDEST PUSH2 0x18D PUSH1 0x4 DUP1 CALLDATASIZE SUB DUP2 ADD SWAP1 PUSH2 0x188 SWAP2 SWAP1 PUSH2 0x8AC JUMP JUMPDEST PUSH2 0x3F0 JUMP JUMPDEST STOP JUMPDEST PUSH2 0x197 PUSH2 0x3FE JUMP JUMPDEST PUSH1 0x40 MLOAD PUSH2 0x1A4 SWAP2 SWAP1 PUSH2 0x984 JUMP JUMPDEST PUSH1 0x40 MLOAD DUP1 SWAP2 SUB SWAP1 RETURN JUMPDEST PUSH2 0x1C7 PUSH1 0x4 DUP1 CALLDATASIZE SUB DUP2 ADD SWAP1 PUSH2 0x1C2 SWAP2 SWAP1 PUSH2 0x7EC JUMP JUMPDEST PUSH2 0x424 JUMP JUMPDEST PUSH1 0x40 MLOAD PUSH2 0x1D4 SWAP2 SWAP1 PUSH2 0x9FC JUMP JUMPDEST PUSH1 0x40 MLOAD DUP1 SWAP2 SUB SWAP1 RETURN JUMPDEST PUSH2 0x1E5 PUSH2 0x43C JUMP JUMPDEST PUSH1 0x40 MLOAD PUSH2 0x1F2 SWAP2 SWAP1 PUSH2 0x9BA JUMP JUMPDEST PUSH1 0x40 MLOAD DUP1 SWAP2 SUB SWAP1 RETURN JUMPDEST PUSH2 0x215 PUSH1 0x4 DUP1 CALLDATASIZE SUB DUP2 ADD SWAP1 PUSH2 0x210 SWAP2 SWAP1 PUSH2 0x8AC JUMP JUMPDEST PUSH2 0x4CA JUMP JUMPDEST STOP JUMPDEST PUSH2 0x231 PUSH1 0x4 DUP1 CALLDATASIZE SUB DUP2 ADD SWAP1 PUSH2 0x22C SWAP2 SWAP1 PUSH2 0x8AC JUMP JUMPDEST PUSH2 0x4D8 JUMP JUMPDEST PUSH1 0x40 MLOAD PUSH2 0x23E SWAP2 SWAP1 PUSH2 0x99F JUMP JUMPDEST PUSH1 0x40 MLOAD DUP1 SWAP2 SUB SWAP1 RETURN JUMPDEST PUSH2 0x261 PUSH1 0x4 DUP1 CALLDATASIZE SUB DUP2 ADD SWAP1 PUSH2 0x25C SWAP2 SWAP1 PUSH2 0x819 JUMP JUMPDEST PUSH2 0x4EF JUMP JUMPDEST PUSH1 0x40 MLOAD PUSH2 0x26E SWAP2 SWAP1 PUSH2 0x9FC JUMP JUMPDEST PUSH1 0x40 MLOAD DUP1 SWAP2 SUB SWAP1 RETURN JUMPDEST PUSH1 0x0 DUP1 SLOAD PUSH2 0x284 SWAP1 PUSH2 0xB60 JUMP JUMPDEST DUP1 PUSH1 0x1F ADD PUSH1 0x20 DUP1 SWAP2 DIV MUL PUSH1 0x20 ADD PUSH1 0x40 MLOAD SWAP1 DUP2 ADD PUSH1 0x40 MSTORE DUP1 SWAP3 SWAP2 SWAP1 DUP2 DUP2 MSTORE PUSH1 0x20 ADD DUP3 DUP1 SLOAD PUSH2 0x2B0 SWAP1 PUSH2 0xB60 JUMP JUMPDEST DUP1 ISZERO PUSH2 0x2FD JUMPI DUP1 PUSH1 0x1F LT PUSH2 0x2D2 JUMPI PUSH2 0x100 DUP1 DUP4 SLOAD DIV MUL DUP4 MSTORE SWAP2 PUSH1 0x20 ADD SWAP2 PUSH2 0x2FD JUMP JUMPDEST DUP3 ADD SWAP2 SWAP1 PUSH1 0x0 MSTORE PUSH1 0x20 PUSH1 0x0 KECCAK256 SWAP1 JUMPDEST DUP2 SLOAD DUP2 MSTORE SWAP1 PUSH1 0x1 ADD SWAP1 PUSH1 0x20 ADD DUP1 DUP4 GT PUSH2 0x2E0 JUMPI DUP3 SWAP1 SUB PUSH1 0x1F AND DUP3 ADD SWAP2 JUMPDEST POP POP POP POP POP DUP2 JUMP JUMPDEST PUSH1 0x0 PUSH2 0x312 CALLER DUP5 DUP5 PUSH2 0x514 JUMP JUMPDEST PUSH1 0x1 SWAP1 POP SWAP3 SWAP2 POP POP JUMP JUMPDEST PUSH1 0x2 SLOAD DUP2 JUMP JUMPDEST PUSH1 0x0 PUSH2 0x3B6 DUP5 CALLER DUP5 PUSH1 0x5 PUSH1 0x0 DUP10 PUSH20 0xFFFFFFFFFFFFFFFFFFFFFFFFFFFFFFFFFFFFFFFF AND PUSH20 0xFFFFFFFFFFFFFFFFFFFFFFFFFFFFFFFFFFFFFFFF AND DUP2 MSTORE PUSH1 0x20 ADD SWAP1 DUP2 MSTORE PUSH1 0x20 ADD PUSH1 0x0 KECCAK256 PUSH1 0x0 CALLER PUSH20 0xFFFFFFFFFFFFFFFFFFFFFFFFFFFFFFFFFFFFFFFF AND PUSH20 0xFFFFFFFFFFFFFFFFFFFFFFFFFFFFFFFFFFFFFFFF AND DUP2 MSTORE PUSH1 0x20 ADD SWAP1 DUP2 MSTORE PUSH1 0x20 ADD PUSH1 0x0 KECCAK256 SLOAD PUSH2 0x3B1 SWAP2 SWAP1 PUSH2 0xAA4 JUMP JUMPDEST PUSH2 0x514 JUMP JUMPDEST PUSH2 0x3C1 DUP5 DUP5 DUP5 PUSH2 0x59A JUMP JUMPDEST PUSH1 0x1 SWAP1 POP SWAP4 SWAP3 POP POP POP JUMP JUMPDEST PUSH32 0x0 DUP2 JUMP JUMPDEST PUSH2 0x3FA DUP3 DUP3 PUSH2 0x6DC JUMP JUMPDEST POP POP JUMP JUMPDEST PUSH1 0x3 PUSH1 0x0 SWAP1 SLOAD SWAP1 PUSH2 0x100 EXP SWAP1 DIV PUSH20 0xFFFFFFFFFFFFFFFFFFFFFFFFFFFFFFFFFFFFFFFF AND DUP2 JUMP JUMPDEST PUSH1 0x4 PUSH1 0x20 MSTORE DUP1 PUSH1 0x0 MSTORE PUSH1 0x40 PUSH1 0x0 KECCAK256 PUSH1 0x0 SWAP2 POP SWAP1 POP SLOAD DUP2 JUMP JUMPDEST PUSH1 0x1 DUP1 SLOAD PUSH2 0x449 SWAP1 PUSH2 0xB60 JUMP JUMPDEST DUP1 PUSH1 0x1F ADD PUSH1 0x20 DUP1 SWAP2 DIV MUL PUSH1 0x20 ADD PUSH1 0x40 MLOAD SWAP1 DUP2 ADD PUSH1 0x40 MSTORE DUP1 SWAP3 SWAP2 SWAP1 DUP2 DUP2 MSTORE PUSH1 0x20 ADD DUP3 DUP1 SLOAD PUSH2 0x475 SWAP1 PUSH2 0xB60 JUMP JUMPDEST DUP1 ISZERO PUSH2 0x4C2 JUMPI DUP1 PUSH1 0x1F LT PUSH2 0x497 JUMPI PUSH2 0x100 DUP1 DUP4 SLOAD DIV MUL DUP4 MSTORE SWAP2 PUSH1 0x20 ADD SWAP2 PUSH2 0x4C2 JUMP JUMPDEST DUP3 ADD SWAP2 SWAP1 PUSH1 0x0 MSTORE PUSH1 0x20 PUSH1 0x0 KECCAK256 SWAP1 JUMPDEST DUP2 SLOAD DUP2 MSTORE SWAP1 PUSH1 0x1 ADD SWAP1 PUSH1 0x20 ADD DUP1 DUP4 GT PUSH2 0x4A5 JUMPI DUP3 SWAP1 SUB PUSH1 0x1F AND DUP3 ADD SWAP2 JUMPDEST POP POP POP POP POP DUP2 JUMP JUMPDEST PUSH2 0x4D4 DUP3 DUP3 PUSH2 0x74F JUMP JUMPDEST POP POP JUMP JUMPDEST PUSH1 0x0 PUSH2 0x4E5 CALLER DUP5 DUP5 PUSH2 0x59A JUMP JUMPDEST PUSH1 0x1 SWAP1 POP SWAP3 SWAP2 POP POP JUMP JUMPDEST PUSH1 0x5 PUSH1 0x20 MSTORE DUP2 PUSH1 0x0 MSTORE PUSH1 0x40 PUSH1 0x0 KECCAK256 PUSH1 0x20 MSTORE DUP1 PUSH1 0x0 MSTORE PUSH1 0x40 PUSH1 0x0 KECCAK256 PUSH1 0x0 SWAP2 POP SWAP2 POP POP SLOAD DUP2 JUMP JUMPDEST DUP1 PUSH1 0x5 PUSH1 0x0 DUP6 PUSH20 0xFFFFFFFFFFFFFFFFFFFFFFFFFFFFFFFFFFFFFFFF AND PUSH20 0xFFFFFFFFFFFFFFFFFFFFFFFFFFFFFFFFFFFFFFFF AND DUP2 MSTORE PUSH1 0x20 ADD SWAP1 DUP2 MSTORE PUSH1 0x20 ADD PUSH1 0x0 KECCAK256 PUSH1 0x0 DUP5 PUSH20 0xFFFFFFFFFFFFFFFFFFFFFFFFFFFFFFFFFFFFFFFF AND PUSH20 0xFFFFFFFFFFFFFFFFFFFFFFFFFFFFFFFFFFFFFFFF AND DUP2 MSTORE PUSH1 0x20 ADD SWAP1 DUP2 MSTORE PUSH1 0x20 ADD PUSH1 0x0 KECCAK256 DUP2 SWAP1 SSTORE POP POP POP POP JUMP JUMPDEST PUSH1 0x3 PUSH1 0x0 SWAP1 SLOAD SWAP1 PUSH2 0x100 EXP SWAP1 DIV PUSH20 0xFFFFFFFFFFFFFFFFFFFFFFFFFFFFFFFFFFFFFFFF AND PUSH20 0xFFFFFFFFFFFFFFFFFFFFFFFFFFFFFFFFFFFFFFFF AND DUP3 PUSH20 0xFFFFFFFFFFFFFFFFFFFFFFFFFFFFFFFFFFFFFFFF AND EQ ISZERO PUSH2 0x62B JUMPI PUSH1 0x40 MLOAD PUSH32 0x8C379A000000000000000000000000000000000000000000000000000000000 DUP2 MSTORE PUSH1 0x4 ADD PUSH2 0x622 SWAP1 PUSH2 0x9DC JUMP JUMPDEST PUSH1 0x40 MLOAD DUP1 SWAP2 SUB SWAP1 REVERT JUMPDEST DUP1 PUSH1 0x4 PUSH1 0x0 DUP6 PUSH20 0xFFFFFFFFFFFFFFFFFFFFFFFFFFFFFFFFFFFFFFFF AND PUSH20 0xFFFFFFFFFFFFFFFFFFFFFFFFFFFFFFFFFFFFFFFF AND DUP2 MSTORE PUSH1 0x20 ADD SWAP1 DUP2 MSTORE PUSH1 0x20 ADD PUSH1 0x0 KECCAK256 PUSH1 0x0 DUP3 DUP3 SLOAD PUSH2 0x67A SWAP2 SWAP1 PUSH2 0xAA4 JUMP JUMPDEST SWAP3 POP POP DUP2 SWAP1 SSTORE POP DUP1 PUSH1 0x4 PUSH1 0x0 DUP5 PUSH20 0xFFFFFFFFFFFFFFFFFFFFFFFFFFFFFFFFFFFFFFFF AND PUSH20 0xFFFFFFFFFFFFFFFFFFFFFFFFFFFFFFFFFFFFFFFF AND DUP2 MSTORE PUSH1 0x20 ADD SWAP1 DUP2 MSTORE PUSH1 0x20 ADD PUSH1 0x0 KECCAK256 PUSH1 0x0 DUP3 DUP3 SLOAD PUSH2 0x6D0 SWAP2 SWAP1 PUSH2 0xA4E JUMP JUMPDEST SWAP3 POP POP DUP2 SWAP1 SSTORE POP POP POP POP JUMP JUMPDEST DUP1 PUSH1 0x2 PUSH1 0x0 DUP3 DUP3 SLOAD PUSH2 0x6EE SWAP2 SWAP1 PUSH2 0xA4E JUMP JUMPDEST SWAP3 POP POP DUP2 SWAP1 SSTORE POP DUP1 PUSH1 0x4 PUSH1 0x0 DUP5 PUSH20 0xFFFFFFFFFFFFFFFFFFFFFFFFFFFFFFFFFFFFFFFF AND PUSH20 0xFFFFFFFFFFFFFFFFFFFFFFFFFFFFFFFFFFFFFFFF AND DUP2 MSTORE PUSH1 0x20 ADD SWAP1 DUP2 MSTORE PUSH1 0x20 ADD PUSH1 0x0 KECCAK256 PUSH1 0x0 DUP3 DUP3 SLOAD PUSH2 0x744 SWAP2 SWAP1 PUSH2 0xA4E JUMP JUMPDEST SWAP3 POP POP DUP2 SWAP1 SSTORE POP POP POP JUMP JUMPDEST DUP1 PUSH1 0x4 PUSH1 0x0 DUP5 PUSH20 0xFFFFFFFFFFFFFFFFFFFFFFFFFFFFFFFFFFFFFFFF AND PUSH20 0xFFFFFFFFFFFFFFFFFFFFFFFFFFFFFFFFFFFFFFFF AND DUP2 MSTORE PUSH1 0x20 ADD SWAP1 DUP2 MSTORE PUSH1 0x20 ADD PUSH1 0x0 KECCAK256 PUSH1 0x0 DUP3 DUP3 SLOAD PUSH2 0x79E SWAP2 SWAP1 PUSH2 0xAA4 JUMP JUMPDEST SWAP3 POP POP DUP2 SWAP1 SSTORE POP DUP1 PUSH1 0x2 PUSH1 0x0 DUP3 DUP3 SLOAD PUSH2 0x7B7 SWAP2 SWAP1 PUSH2 0xAA4 JUMP JUMPDEST SWAP3 POP POP DUP2 SWAP1 SSTORE POP POP POP JUMP JUMPDEST PUSH1 0x0 DUP2 CALLDATALOAD SWAP1 POP PUSH2 0x7D1 DUP2 PUSH2 0xC2F JUMP JUMPDEST SWAP3 SWAP2 POP POP JUMP JUMPDEST PUSH1 0x0 DUP2 CALLDATALOAD SWAP1 POP PUSH2 0x7E6 DUP2 PUSH2 0xC46 JUMP JUMPDEST SWAP3 SWAP2 POP POP JUMP JUMPDEST PUSH1 0x0 PUSH1 0x20 DUP3 DUP5 SUB SLT ISZERO PUSH2 0x802 JUMPI PUSH2 0x801 PUSH2 0xBF0 JUMP JUMPDEST JUMPDEST PUSH1 0x0 PUSH2 0x810 DUP5 DUP3 DUP6 ADD PUSH2 0x7C2 JUMP JUMPDEST SWAP2 POP POP SWAP3 SWAP2 POP POP JUMP JUMPDEST PUSH1 0x0 DUP1 PUSH1 0x40 DUP4 DUP6 SUB SLT ISZERO PUSH2 0x830 JUMPI PUSH2 0x82F PUSH2 0xBF0 JUMP JUMPDEST JUMPDEST PUSH1 0x0 PUSH2 0x83E DUP6 DUP3 DUP7 ADD PUSH2 0x7C2 JUMP JUMPDEST SWAP3 POP POP PUSH1 0x20 PUSH2 0x84F DUP6 DUP3 DUP7 ADD PUSH2 0x7C2 JUMP JUMPDEST SWAP2 POP POP SWAP3 POP SWAP3 SWAP1 POP JUMP JUMPDEST PUSH1 0x0 DUP1 PUSH1 0x0 PUSH1 0x60 DUP5 DUP7 SUB SLT ISZERO PUSH2 0x872 JUMPI PUSH2 0x871 PUSH2 0xBF0 JUMP JUMPDEST JUMPDEST PUSH1 0x0 PUSH2 0x880 DUP7 DUP3 DUP8 ADD PUSH2 0x7C2 JUMP JUMPDEST SWAP4 POP POP PUSH1 0x20 PUSH2 0x891 DUP7 DUP3 DUP8 ADD PUSH2 0x7C2 JUMP JUMPDEST SWAP3 POP POP PUSH1 0x40 PUSH2 0x8A2 DUP7 DUP3 DUP8 ADD PUSH2 0x7D7 JUMP JUMPDEST SWAP2 POP POP SWAP3 POP SWAP3 POP SWAP3 JUMP JUMPDEST PUSH1 0x0 DUP1 PUSH1 0x40 DUP4 DUP6 SUB SLT ISZERO PUSH2 0x8C3 JUMPI PUSH2 0x8C2 PUSH2 0xBF0 JUMP JUMPDEST JUMPDEST PUSH1 0x0 PUSH2 0x8D1 DUP6 DUP3 DUP7 ADD PUSH2 0x7C2 JUMP JUMPDEST SWAP3 POP POP PUSH1 0x20 PUSH2 0x8E2 DUP6 DUP3 DUP7 ADD PUSH2 0x7D7 JUMP JUMPDEST SWAP2 POP POP SWAP3 POP SWAP3 SWAP1 POP JUMP JUMPDEST PUSH2 0x8F5 DUP2 PUSH2 0xAD8 JUMP JUMPDEST DUP3 MSTORE POP POP JUMP JUMPDEST PUSH2 0x904 DUP2 PUSH2 0xAEA JUMP JUMPDEST DUP3 MSTORE POP POP JUMP JUMPDEST PUSH1 0x0 PUSH2 0x915 DUP3 PUSH2 0xA32 JUMP JUMPDEST PUSH2 0x91F DUP2 DUP6 PUSH2 0xA3D JUMP JUMPDEST SWAP4 POP PUSH2 0x92F DUP2 DUP6 PUSH1 0x20 DUP7 ADD PUSH2 0xB2D JUMP JUMPDEST PUSH2 0x938 DUP2 PUSH2 0xBF5 JUMP JUMPDEST DUP5 ADD SWAP2 POP POP SWAP3 SWAP2 POP POP JUMP JUMPDEST PUSH1 0x0 PUSH2 0x950 PUSH1 0x7 DUP4 PUSH2 0xA3D JUMP JUMPDEST SWAP2 POP PUSH2 0x95B DUP3 PUSH2 0xC06 JUMP JUMPDEST PUSH1 0x20 DUP3 ADD SWAP1 POP SWAP2 SWAP1 POP JUMP JUMPDEST PUSH2 0x96F DUP2 PUSH2 0xB16 JUMP JUMPDEST DUP3 MSTORE POP POP JUMP JUMPDEST PUSH2 0x97E DUP2 PUSH2 0xB20 JUMP JUMPDEST DUP3 MSTORE POP POP JUMP JUMPDEST PUSH1 0x0 PUSH1 0x20 DUP3 ADD SWAP1 POP PUSH2 0x999 PUSH1 0x0 DUP4 ADD DUP5 PUSH2 0x8EC JUMP JUMPDEST SWAP3 SWAP2 POP POP JUMP JUMPDEST PUSH1 0x0 PUSH1 0x20 DUP3 ADD SWAP1 POP PUSH2 0x9B4 PUSH1 0x0 DUP4 ADD DUP5 PUSH2 0x8FB JUMP JUMPDEST SWAP3 SWAP2 POP POP JUMP JUMPDEST PUSH1 0x0 PUSH1 0x20 DUP3 ADD SWAP1 POP DUP2 DUP2 SUB PUSH1 0x0 DUP4 ADD MSTORE PUSH2 0x9D4 DUP2 DUP5 PUSH2 0x90A JUMP JUMPDEST SWAP1 POP SWAP3 SWAP2 POP POP JUMP JUMPDEST PUSH1 0x0 PUSH1 0x20 DUP3 ADD SWAP1 POP DUP2 DUP2 SUB PUSH1 0x0 DUP4 ADD MSTORE PUSH2 0x9F5 DUP2 PUSH2 0x943 JUMP JUMPDEST SWAP1 POP SWAP2 SWAP1 POP JUMP JUMPDEST PUSH1 0x0 PUSH1 0x20 DUP3 ADD SWAP1 POP PUSH2 0xA11 PUSH1 0x0 DUP4 ADD DUP5 PUSH2 0x966 JUMP JUMPDEST SWAP3 SWAP2 POP POP JUMP JUMPDEST PUSH1 0x0 PUSH1 0x20 DUP3 ADD SWAP1 POP PUSH2 0xA2C PUSH1 0x0 DUP4 ADD DUP5 PUSH2 0x975 JUMP JUMPDEST SWAP3 SWAP2 POP POP JUMP JUMPDEST PUSH1 0x0 DUP2 MLOAD SWAP1 POP SWAP2 SWAP1 POP JUMP JUMPDEST PUSH1 0x0 DUP3 DUP3 MSTORE PUSH1 0x20 DUP3 ADD SWAP1 POP SWAP3 SWAP2 POP POP JUMP JUMPDEST PUSH1 0x0 PUSH2 0xA59 DUP3 PUSH2 0xB16 JUMP JUMPDEST SWAP2 POP PUSH2 0xA64 DUP4 PUSH2 0xB16 JUMP JUMPDEST SWAP3 POP DUP3 PUSH32 0xFFFFFFFFFFFFFFFFFFFFFFFFFFFFFFFFFFFFFFFFFFFFFFFFFFFFFFFFFFFFFFFF SUB DUP3 GT ISZERO PUSH2 0xA99 JUMPI PUSH2 0xA98 PUSH2 0xB92 JUMP JUMPDEST JUMPDEST DUP3 DUP3 ADD SWAP1 POP SWAP3 SWAP2 POP POP JUMP JUMPDEST PUSH1 0x0 PUSH2 0xAAF DUP3 PUSH2 0xB16 JUMP JUMPDEST SWAP2 POP PUSH2 0xABA DUP4 PUSH2 0xB16 JUMP JUMPDEST SWAP3 POP DUP3 DUP3 LT ISZERO PUSH2 0xACD JUMPI PUSH2 0xACC PUSH2 0xB92 JUMP JUMPDEST JUMPDEST DUP3 DUP3 SUB SWAP1 POP SWAP3 SWAP2 POP POP JUMP JUMPDEST PUSH1 0x0 PUSH2 0xAE3 DUP3 PUSH2 0xAF6 JUMP JUMPDEST SWAP1 POP SWAP2 SWAP1 POP JUMP JUMPDEST PUSH1 0x0 DUP2 ISZERO ISZERO SWAP1 POP SWAP2 SWAP1 POP JUMP JUMPDEST PUSH1 0x0 PUSH20 0xFFFFFFFFFFFFFFFFFFFFFFFFFFFFFFFFFFFFFFFF DUP3 AND SWAP1 POP SWAP2 SWAP1 POP JUMP JUMPDEST PUSH1 0x0 DUP2 SWAP1 POP SWAP2 SWAP1 POP JUMP JUMPDEST PUSH1 0x0 PUSH1 0xFF DUP3 AND SWAP1 POP SWAP2 SWAP1 POP JUMP JUMPDEST PUSH1 0x0 JUMPDEST DUP4 DUP2 LT ISZERO PUSH2 0xB4B JUMPI DUP1 DUP3 ADD MLOAD DUP2 DUP5 ADD MSTORE PUSH1 0x20 DUP2 ADD SWAP1 POP PUSH2 0xB30 JUMP JUMPDEST DUP4 DUP2 GT ISZERO PUSH2 0xB5A JUMPI PUSH1 0x0 DUP5 DUP5 ADD MSTORE JUMPDEST POP POP POP POP JUMP JUMPDEST PUSH1 0x0 PUSH1 0x2 DUP3 DIV SWAP1 POP PUSH1 0x1 DUP3 AND DUP1 PUSH2 0xB78 JUMPI PUSH1 0x7F DUP3 AND SWAP2 POP JUMPDEST PUSH1 0x20 DUP3 LT DUP2 EQ ISZERO PUSH2 0xB8C JUMPI PUSH2 0xB8B PUSH2 0xBC1 JUMP JUMPDEST JUMPDEST POP SWAP2 SWAP1 POP JUMP JUMPDEST PUSH32 0x4E487B7100000000000000000000000000000000000000000000000000000000 PUSH1 0x0 MSTORE PUSH1 0x11 PUSH1 0x4 MSTORE PUSH1 0x24 PUSH1 0x0 REVERT JUMPDEST PUSH32 0x4E487B7100000000000000000000000000000000000000000000000000000000 PUSH1 0x0 MSTORE PUSH1 0x22 PUSH1 0x4 MSTORE PUSH1 0x24 PUSH1 0x0 REVERT JUMPDEST PUSH1 0x0 DUP1 REVERT JUMPDEST PUSH1 0x0 PUSH1 0x1F NOT PUSH1 0x1F DUP4 ADD AND SWAP1 POP SWAP2 SWAP1 POP JUMP JUMPDEST PUSH32 0x494E56414C494400000000000000000000000000000000000000000000000000 PUSH1 0x0 DUP3 ADD MSTORE POP JUMP JUMPDEST PUSH2 0xC38 DUP2 PUSH2 0xAD8 JUMP JUMPDEST DUP2 EQ PUSH2 0xC43 JUMPI PUSH1 0x0 DUP1 REVERT JUMPDEST POP JUMP JUMPDEST PUSH2 0xC4F DUP2 PUSH2 0xB16 JUMP JUMPDEST DUP2 EQ PUSH2 0xC5A JUMPI PUSH1 0x0 DUP1 REVERT JUMPDEST POP JUMP INVALID LOG2 PUSH5 0x6970667358 0x22 SLT KECCAK256 0xA9 BYTE SELFBALANCE EQ 0x26 0xE7 0x25 0x27 0xCA BLOCKHASH 0x23 0xE7 CALLVALUE PUSH13 0x390DBFA9577991988D72351A17 PUSH22 0x64DC9C364736F6C6343000807003300000000000000 "
				},
				"gasEstimates": {
					"creation": {
						"codeDepositCost": "643800",
						"executionCost": "infinite",
						"totalCost": "infinite"
					},
					"external": {
						"allowance(address,address)": "infinite",
						"approve(address,uint256)": "23185",
						"balanceOf(address)": "2836",
						"burn(address,uint256)": "infinite",
						"decimals()": "infinite",
						"mint(address,uint256)": "infinite",
						"name()": "infinite",
						"revertingDestination()": "2514",
						"symbol()": "infinite",
						"totalSupply()": "2474",
						"transfer(address,uint256)": "infinite",
						"transferFrom(address,address,uint256)": "infinite"
					},
					"internal": {
						"_approve(address,address,uint256)": "22315",
						"_burn(address,uint256)": "infinite",
						"_mint(address,uint256)": "infinite",
						"_transfer(address,address,uint256)": "infinite"
					}
				},
				"methodIdentifiers": {
					"allowance(address,address)": "dd62ed3e",
					"approve(address,uint256)": "095ea7b3",
					"balanceOf(address)": "70a08231",
					"burn(address,uint256)": "9dc29fac",
					"decimals()": "313ce567",
					"mint(address,uint256)": "40c10f19",
					"name()": "06fdde03",
					"revertingDestination()": "58603f2d",
					"symbol()": "95d89b41",
					"totalSupply()": "18160ddd",
					"transfer(address,uint256)": "a9059cbb",
					"transferFrom(address,address,uint256)": "23b872dd"
				}
			},
			"storageLayout": {
				"storage": [
					{
						"astId": 5,
						"contract": "contracts/test/mocks/MockRevertingERC20.sol:MockRevertingERC20",
						"label": "name",
						"offset": 0,
						"slot": "0",
						"type": "t_string_storage"
					},
					{
						"astId": 7,
						"contract": "contracts/test/mocks/MockRevertingERC20.sol:MockRevertingERC20",
						"label": "symbol",
						"offset": 0,
						"slot": "1",
						"type": "t_string_storage"
					},
					{
						"astId": 9,
						"contract": "contracts/test/mocks/MockRevertingERC20.sol:MockRevertingERC20",
						"label": "totalSupply",
						"offset": 0,
						"slot": "2",
						"type": "t_uint256"
					},
					{
						"astId": 11,
						"contract": "contracts/test/mocks/MockRevertingERC20.sol:MockRevertingERC20",
						"label": "revertingDestination",
						"offset": 0,
						"slot": "3",
						"type": "t_address"
					},
					{
						"astId": 15,
						"contract": "contracts/test/mocks/MockRevertingERC20.sol:MockRevertingERC20",
						"label": "balanceOf",
						"offset": 0,
						"slot": "4",
						"type": "t_mapping(t_address,t_uint256)"
					},
					{
						"astId": 21,
						"contract": "contracts/test/mocks/MockRevertingERC20.sol:MockRevertingERC20",
						"label": "allowance",
						"offset": 0,
						"slot": "5",
						"type": "t_mapping(t_address,t_mapping(t_address,t_uint256))"
					}
				],
				"types": {
					"t_address": {
						"encoding": "inplace",
						"label": "address",
						"numberOfBytes": "20"
					},
					"t_mapping(t_address,t_mapping(t_address,t_uint256))": {
						"encoding": "mapping",
						"key": "t_address",
						"label": "mapping(address => mapping(address => uint256))",
						"numberOfBytes": "32",
						"value": "t_mapping(t_address,t_uint256)"
					},
					"t_mapping(t_address,t_uint256)": {
						"encoding": "mapping",
						"key": "t_address",
						"label": "mapping(address => uint256)",
						"numberOfBytes": "32",
						"value": "t_uint256"
					},
					"t_string_storage": {
						"encoding": "bytes",
						"label": "string",
						"numberOfBytes": "32"
					},
					"t_uint256": {
						"encoding": "inplace",
						"label": "uint256",
						"numberOfBytes": "32"
					}
				}
			},
			"userdoc": {
				"kind": "user",
				"methods": {},
				"version": 1
			}
		}
	}
}