{
  "contractName": "ERC20User",
  "abi": [
    {
      "inputs": [
        {
          "internalType": "address",
          "name": "token_",
          "type": "address"
        },
        {
          "internalType": "address",
          "name": "spender_",
          "type": "address"
        },
        {
          "internalType": "uint256",
          "name": "amount_",
          "type": "uint256"
        }
      ],
      "name": "erc20_approve",
      "outputs": [],
      "stateMutability": "nonpayable",
      "type": "function"
    },
    {
      "inputs": [
        {
          "internalType": "address",
          "name": "token_",
          "type": "address"
        },
        {
          "internalType": "address",
          "name": "owner_",
          "type": "address"
        },
        {
          "internalType": "address",
          "name": "spender_",
          "type": "address"
        },
        {
          "internalType": "uint256",
          "name": "amount_",
          "type": "uint256"
        },
        {
          "internalType": "uint256",
          "name": "deadline_",
          "type": "uint256"
        },
        {
          "internalType": "uint8",
          "name": "v_",
          "type": "uint8"
        },
        {
          "internalType": "bytes32",
          "name": "r_",
          "type": "bytes32"
        },
        {
          "internalType": "bytes32",
          "name": "s_",
          "type": "bytes32"
        }
      ],
      "name": "erc20_permit",
      "outputs": [],
      "stateMutability": "nonpayable",
      "type": "function"
    },
    {
      "inputs": [
        {
          "internalType": "address",
          "name": "token_",
          "type": "address"
        },
        {
          "internalType": "address",
          "name": "recipient_",
          "type": "address"
        },
        {
          "internalType": "uint256",
          "name": "amount_",
          "type": "uint256"
        }
      ],
      "name": "erc20_transfer",
      "outputs": [
        {
          "internalType": "bool",
          "name": "success_",
          "type": "bool"
        }
      ],
      "stateMutability": "nonpayable",
      "type": "function"
    },
    {
      "inputs": [
        {
          "internalType": "address",
          "name": "token_",
          "type": "address"
        },
        {
          "internalType": "address",
          "name": "owner_",
          "type": "address"
        },
        {
          "internalType": "address",
          "name": "recipient_",
          "type": "address"
        },
        {
          "internalType": "uint256",
          "name": "amount_",
          "type": "uint256"
        }
      ],
      "name": "erc20_transferFrom",
      "outputs": [
        {
          "internalType": "bool",
          "name": "success_",
          "type": "bool"
        }
      ],
      "stateMutability": "nonpayable",
      "type": "function"
    }
  ],
  "bytecode": "0x608060405234801561001057600080fd5b5061074b806100206000396000f3fe608060405234801561001057600080fd5b506004361061004c5760003560e01c806305eee8e71461005157806351cf23b11461006d5780637fe2558114610089578063fc179d67146100b9575b600080fd5b61006b6004803603810190610066919061040b565b6100e9565b005b610087600480360381019061008291906104c1565b61016a565b005b6100a3600480360381019061009e91906104c1565b6101ee565b6040516100b0919061052f565b60405180910390f35b6100d360048036038101906100ce919061054a565b610277565b6040516100e0919061052f565b60405180910390f35b8773ffffffffffffffffffffffffffffffffffffffff1663d505accf888888888888886040518863ffffffff1660e01b815260040161012e97969594939291906105ed565b600060405180830381600087803b15801561014857600080fd5b505af115801561015c573d6000803e3d6000fd5b505050505050505050505050565b8273ffffffffffffffffffffffffffffffffffffffff1663095ea7b383836040518363ffffffff1660e01b81526004016101a592919061065c565b6020604051808303816000875af11580156101c4573d6000803e3d6000fd5b505050506040513d601f19601f820116820180604052508101906101e891906106b1565b50505050565b60008373ffffffffffffffffffffffffffffffffffffffff1663a9059cbb84846040518363ffffffff1660e01b815260040161022b92919061065c565b6020604051808303816000875af115801561024a573d6000803e3d6000fd5b505050506040513d601f19601f8201168201806040525081019061026e91906106b1565b90509392505050565b60008473ffffffffffffffffffffffffffffffffffffffff166323b872dd8585856040518463ffffffff1660e01b81526004016102b6939291906106de565b6020604051808303816000875af11580156102d5573d6000803e3d6000fd5b505050506040513d601f19601f820116820180604052508101906102f991906106b1565b9050949350505050565b600080fd5b600073ffffffffffffffffffffffffffffffffffffffff82169050919050565b600061033382610308565b9050919050565b61034381610328565b811461034e57600080fd5b50565b6000813590506103608161033a565b92915050565b6000819050919050565b61037981610366565b811461038457600080fd5b50565b60008135905061039681610370565b92915050565b600060ff82169050919050565b6103b28161039c565b81146103bd57600080fd5b50565b6000813590506103cf816103a9565b92915050565b6000819050919050565b6103e8816103d5565b81146103f357600080fd5b50565b600081359050610405816103df565b92915050565b600080600080600080600080610100898b03121561042c5761042b610303565b5b600061043a8b828c01610351565b985050602061044b8b828c01610351565b975050604061045c8b828c01610351565b965050606061046d8b828c01610387565b955050608061047e8b828c01610387565b94505060a061048f8b828c016103c0565b93505060c06104a08b828c016103f6565b92505060e06104b18b828c016103f6565b9150509295985092959890939650565b6000806000606084860312156104da576104d9610303565b5b60006104e886828701610351565b93505060206104f986828701610351565b925050604061050a86828701610387565b9150509250925092565b60008115159050919050565b61052981610514565b82525050565b60006020820190506105446000830184610520565b92915050565b6000806000806080858703121561056457610563610303565b5b600061057287828801610351565b945050602061058387828801610351565b935050604061059487828801610351565b92505060606105a587828801610387565b91505092959194509250565b6105ba81610328565b82525050565b6105c981610366565b82525050565b6105d88161039c565b82525050565b6105e7816103d5565b82525050565b600060e082019050610602600083018a6105b1565b61060f60208301896105b1565b61061c60408301886105c0565b61062960608301876105c0565b61063660808301866105cf565b61064360a08301856105de565b61065060c08301846105de565b98975050505050505050565b600060408201905061067160008301856105b1565b61067e60208301846105c0565b9392505050565b61068e81610514565b811461069957600080fd5b50565b6000815190506106ab81610685565b92915050565b6000602082840312156106c7576106c6610303565b5b60006106d58482850161069c565b91505092915050565b60006060820190506106f360008301866105b1565b61070060208301856105b1565b61070d60408301846105c0565b94935050505056fea26469706673582212209a044e3f4dee618788cd2f0d3055a1934c52e47604a10b40468a726e423755c464736f6c63430008110033",
  "immutableReferences": {},
  "source": "// SPDX-License-Identifier: AGPL-3.0-only\npragma solidity >=0.4.22 <0.9.0;\n\nimport { IERC20 } from \"../../interfaces/IERC20.sol\";\n\ncontract ERC20User {\n\n    function erc20_approve(address token_, address spender_, uint256 amount_) external {\n        IERC20(token_).approve(spender_, amount_);\n    }\n\n    function erc20_permit(\n        address token_,\n        address owner_,\n        address spender_,\n        uint256 amount_,\n        uint256 deadline_,\n        uint8 v_,\n        bytes32 r_,\n        bytes32 s_\n    )\n        external\n    {\n        IERC20(token_).permit(owner_, spender_, amount_, deadline_, v_, r_, s_);\n    }\n\n    function erc20_transfer(address token_, address recipient_, uint256 amount_) external returns (bool success_) {\n        return IERC20(token_).transfer(recipient_, amount_);\n    }\n\n    function erc20_transferFrom(address token_, address owner_, address recipient_, uint256 amount_) external returns (bool success_) {\n        return IERC20(token_).transferFrom(owner_, recipient_, amount_);\n    }\n\n}\n",
  "sourcePath": "/Users/mdoshi/wyta/modules/erc20/contracts/test/accounts/ERC20User.sol",
  "compiler": {
    "name": "solc",
    "version": "0.8.17+commit.8df45f5f.Emscripten.clang"
  },
  "schemaVersion": "3.4.11",
  "updatedAt": "2023-01-15T01:59:56.223Z",
  "devdoc": {
    "kind": "dev",
    "methods": {},
    "version": 1
  },
  "userdoc": {
    "kind": "user",
    "methods": {},
    "version": 1
  }
}