{
  "contractName": "ERC20",
  "abi": [
    {
      "inputs": [
        {
          "internalType": "string",
          "name": "name_",
          "type": "string"
        },
        {
          "internalType": "string",
          "name": "symbol_",
          "type": "string"
        },
        {
          "internalType": "uint8",
          "name": "decimals_",
          "type": "uint8"
        }
      ],
      "stateMutability": "nonpayable",
      "type": "constructor"
    },
    {
      "anonymous": false,
      "inputs": [
        {
          "indexed": true,
          "internalType": "address",
          "name": "owner_",
          "type": "address"
        },
        {
          "indexed": true,
          "internalType": "address",
          "name": "spender_",
          "type": "address"
        },
        {
          "indexed": false,
          "internalType": "uint256",
          "name": "amount_",
          "type": "uint256"
        }
      ],
      "name": "Approval",
      "type": "event"
    },
    {
      "anonymous": false,
      "inputs": [
        {
          "indexed": true,
          "internalType": "address",
          "name": "owner_",
          "type": "address"
        },
        {
          "indexed": true,
          "internalType": "address",
          "name": "recipient_",
          "type": "address"
        },
        {
          "indexed": false,
          "internalType": "uint256",
          "name": "amount_",
          "type": "uint256"
        }
      ],
      "name": "Transfer",
      "type": "event"
    },
    {
      "inputs": [],
      "name": "PERMIT_TYPEHASH",
      "outputs": [
        {
          "internalType": "bytes32",
          "name": "",
          "type": "bytes32"
        }
      ],
      "stateMutability": "view",
      "type": "function"
    },
    {
      "inputs": [
        {
          "internalType": "address",
          "name": "",
          "type": "address"
        },
        {
          "internalType": "address",
          "name": "",
          "type": "address"
        }
      ],
      "name": "allowance",
      "outputs": [
        {
          "internalType": "uint256",
          "name": "",
          "type": "uint256"
        }
      ],
      "stateMutability": "view",
      "type": "function"
    },
    {
      "inputs": [
        {
          "internalType": "address",
          "name": "",
          "type": "address"
        }
      ],
      "name": "balanceOf",
      "outputs": [
        {
          "internalType": "uint256",
          "name": "",
          "type": "uint256"
        }
      ],
      "stateMutability": "view",
      "type": "function"
    },
    {
      "inputs": [],
      "name": "decimals",
      "outputs": [
        {
          "internalType": "uint8",
          "name": "",
          "type": "uint8"
        }
      ],
      "stateMutability": "view",
      "type": "function"
    },
    {
      "inputs": [],
      "name": "name",
      "outputs": [
        {
          "internalType": "string",
          "name": "",
          "type": "string"
        }
      ],
      "stateMutability": "view",
      "type": "function"
    },
    {
      "inputs": [
        {
          "internalType": "address",
          "name": "",
          "type": "address"
        }
      ],
      "name": "nonces",
      "outputs": [
        {
          "internalType": "uint256",
          "name": "",
          "type": "uint256"
        }
      ],
      "stateMutability": "view",
      "type": "function"
    },
    {
      "inputs": [],
      "name": "symbol",
      "outputs": [
        {
          "internalType": "string",
          "name": "",
          "type": "string"
        }
      ],
      "stateMutability": "view",
      "type": "function"
    },
    {
      "inputs": [],
      "name": "totalSupply",
      "outputs": [
        {
          "internalType": "uint256",
          "name": "",
          "type": "uint256"
        }
      ],
      "stateMutability": "view",
      "type": "function"
    },
    {
      "inputs": [
        {
          "internalType": "address",
          "name": "spender_",
          "type": "address"
        },
        {
          "internalType": "uint256",
          "name": "amount_",
          "type": "uint256"
        }
      ],
      "name": "approve",
      "outputs": [
        {
          "internalType": "bool",
          "name": "success_",
          "type": "bool"
        }
      ],
      "stateMutability": "nonpayable",
      "type": "function"
    },
    {
      "inputs": [
        {
          "internalType": "address",
          "name": "spender_",
          "type": "address"
        },
        {
          "internalType": "uint256",
          "name": "subtractedAmount_",
          "type": "uint256"
        }
      ],
      "name": "decreaseAllowance",
      "outputs": [
        {
          "internalType": "bool",
          "name": "success_",
          "type": "bool"
        }
      ],
      "stateMutability": "nonpayable",
      "type": "function"
    },
    {
      "inputs": [
        {
          "internalType": "address",
          "name": "spender_",
          "type": "address"
        },
        {
          "internalType": "uint256",
          "name": "addedAmount_",
          "type": "uint256"
        }
      ],
      "name": "increaseAllowance",
      "outputs": [
        {
          "internalType": "bool",
          "name": "success_",
          "type": "bool"
        }
      ],
      "stateMutability": "nonpayable",
      "type": "function"
    },
    {
      "inputs": [
        {
          "internalType": "address",
          "name": "owner_",
          "type": "address"
        },
        {
          "internalType": "address",
          "name": "spender_",
          "type": "address"
        },
        {
          "internalType": "uint256",
          "name": "amount_",
          "type": "uint256"
        },
        {
          "internalType": "uint256",
          "name": "deadline_",
          "type": "uint256"
        },
        {
          "internalType": "uint8",
          "name": "v_",
          "type": "uint8"
        },
        {
          "internalType": "bytes32",
          "name": "r_",
          "type": "bytes32"
        },
        {
          "internalType": "bytes32",
          "name": "s_",
          "type": "bytes32"
        }
      ],
      "name": "permit",
      "outputs": [],
      "stateMutability": "nonpayable",
      "type": "function"
    },
    {
      "inputs": [
        {
          "internalType": "address",
          "name": "recipient_",
          "type": "address"
        },
        {
          "internalType": "uint256",
          "name": "amount_",
          "type": "uint256"
        }
      ],
      "name": "transfer",
      "outputs": [
        {
          "internalType": "bool",
          "name": "success_",
          "type": "bool"
        }
      ],
      "stateMutability": "nonpayable",
      "type": "function"
    },
    {
      "inputs": [
        {
          "internalType": "address",
          "name": "owner_",
          "type": "address"
        },
        {
          "internalType": "address",
          "name": "recipient_",
          "type": "address"
        },
        {
          "internalType": "uint256",
          "name": "amount_",
          "type": "uint256"
        }
      ],
      "name": "transferFrom",
      "outputs": [
        {
          "internalType": "bool",
          "name": "success_",
          "type": "bool"
        }
      ],
      "stateMutability": "nonpayable",
      "type": "function"
    },
    {
      "inputs": [],
      "name": "DOMAIN_SEPARATOR",
      "outputs": [
        {
          "internalType": "bytes32",
          "name": "domainSeparator_",
          "type": "bytes32"
        }
      ],
      "stateMutability": "view",
      "type": "function"
    }
  ],
  "bytecode": "0x60a06040523480156200001157600080fd5b5060405162001b3c38038062001b3c833981810160405281019062000037919062000243565b826000908162000048919062000528565b5081600190816200005a919062000528565b508060ff1660808160ff16815250505050506200060f565b6000604051905090565b600080fd5b600080fd5b600080fd5b600080fd5b6000601f19601f8301169050919050565b7f4e487b7100000000000000000000000000000000000000000000000000000000600052604160045260246000fd5b620000db8262000090565b810181811067ffffffffffffffff82111715620000fd57620000fc620000a1565b5b80604052505050565b60006200011262000072565b9050620001208282620000d0565b919050565b600067ffffffffffffffff821115620001435762000142620000a1565b5b6200014e8262000090565b9050602081019050919050565b60005b838110156200017b5780820151818401526020810190506200015e565b60008484015250505050565b60006200019e620001988462000125565b62000106565b905082815260208101848484011115620001bd57620001bc6200008b565b5b620001ca8482856200015b565b509392505050565b600082601f830112620001ea57620001e962000086565b5b8151620001fc84826020860162000187565b91505092915050565b600060ff82169050919050565b6200021d8162000205565b81146200022957600080fd5b50565b6000815190506200023d8162000212565b92915050565b6000806000606084860312156200025f576200025e6200007c565b5b600084015167ffffffffffffffff81111562000280576200027f62000081565b5b6200028e86828701620001d2565b935050602084015167ffffffffffffffff811115620002b257620002b162000081565b5b620002c086828701620001d2565b9250506040620002d3868287016200022c565b9150509250925092565b600081519050919050565b7f4e487b7100000000000000000000000000000000000000000000000000000000600052602260045260246000fd5b600060028204905060018216806200033057607f821691505b602082108103620003465762000345620002e8565b5b50919050565b60008190508160005260206000209050919050565b60006020601f8301049050919050565b600082821b905092915050565b600060088302620003b07fffffffffffffffffffffffffffffffffffffffffffffffffffffffffffffffff8262000371565b620003bc868362000371565b95508019841693508086168417925050509392505050565b6000819050919050565b6000819050919050565b60006200040962000403620003fd84620003d4565b620003de565b620003d4565b9050919050565b6000819050919050565b6200042583620003e8565b6200043d620004348262000410565b8484546200037e565b825550505050565b600090565b6200045462000445565b620004618184846200041a565b505050565b5b8181101562000489576200047d6000826200044a565b60018101905062000467565b5050565b601f821115620004d857620004a2816200034c565b620004ad8462000361565b81016020851015620004bd578190505b620004d5620004cc8562000361565b83018262000466565b50505b505050565b600082821c905092915050565b6000620004fd60001984600802620004dd565b1980831691505092915050565b6000620005188383620004ea565b9150826002028217905092915050565b6200053382620002dd565b67ffffffffffffffff8111156200054f576200054e620000a1565b5b6200055b825462000317565b620005688282856200048d565b600060209050601f831160018114620005a057600084156200058b578287015190505b6200059785826200050a565b86555062000607565b601f198416620005b0866200034c565b60005b82811015620005da57848901518255600182019150602085019450602081019050620005b3565b86831015620005fa5784890151620005f6601f891682620004ea565b8355505b6001600288020188555050505b505050505050565b6080516115116200062b600039600061044101526115116000f3fe608060405234801561001057600080fd5b50600436106100f55760003560e01c80633950935111610097578063a457c2d711610066578063a457c2d71461029e578063a9059cbb146102ce578063d505accf146102fe578063dd62ed3e1461031a576100f5565b806339509351146101f057806370a08231146102205780637ecebe001461025057806395d89b4114610280576100f5565b806323b872dd116100d357806323b872dd1461016657806330adf81f14610196578063313ce567146101b45780633644e515146101d2576100f5565b806306fdde03146100fa578063095ea7b31461011857806318160ddd14610148575b600080fd5b61010261034a565b60405161010f9190610caf565b60405180910390f35b610132600480360381019061012d9190610d6a565b6103d8565b60405161013f9190610dc5565b60405180910390f35b6101506103ef565b60405161015d9190610def565b60405180910390f35b610180600480360381019061017b9190610e0a565b6103f5565b60405161018d9190610dc5565b60405180910390f35b61019e610418565b6040516101ab9190610e76565b60405180910390f35b6101bc61043f565b6040516101c99190610ead565b60405180910390f35b6101da610463565b6040516101e79190610e76565b60405180910390f35b61020a60048036038101906102059190610d6a565b61050b565b6040516102179190610dc5565b60405180910390f35b61023a60048036038101906102359190610ec8565b6105a9565b6040516102479190610def565b60405180910390f35b61026a60048036038101906102659190610ec8565b6105c1565b6040516102779190610def565b60405180910390f35b6102886105d9565b6040516102959190610caf565b60405180910390f35b6102b860048036038101906102b39190610d6a565b610667565b6040516102c59190610dc5565b60405180910390f35b6102e860048036038101906102e39190610d6a565b61067e565b6040516102f59190610dc5565b60405180910390f35b61031860048036038101906103139190610f4d565b610695565b005b610334600480360381019061032f9190610fef565b61093f565b6040516103419190610def565b60405180910390f35b600080546103579061105e565b80601f01602080910402602001604051908101604052809291908181526020018280546103839061105e565b80156103d05780601f106103a5576101008083540402835291602001916103d0565b820191906000526020600020905b8154815290600101906020018083116103b357829003601f168201915b505050505081565b60006103e5338484610964565b6001905092915050565b60025481565b6000610402843384610a4d565b61040d848484610b12565b600190509392505050565b7f6e71edae12b1b97f4d1f60370fef10105fa2faae0126114a169c64845d6126c960001b81565b7f000000000000000000000000000000000000000000000000000000000000000081565b60007f8b73c3c69bb8fe3d512ecc4cf759cc79239f7b179b0ffacaa9a75d522b39400f60006040516104959190611132565b60405180910390206040518060400160405280600181526020017f31000000000000000000000000000000000000000000000000000000000000008152508051906020012046306040516020016104f0959493929190611158565b60405160208183030381529060405280519060200120905090565b600061059f338484600460003373ffffffffffffffffffffffffffffffffffffffff1673ffffffffffffffffffffffffffffffffffffffff16815260200190815260200160002060008873ffffffffffffffffffffffffffffffffffffffff1673ffffffffffffffffffffffffffffffffffffffff1681526020019081526020016000205461059a91906111da565b610964565b6001905092915050565b60036020528060005260406000206000915090505481565b60056020528060005260406000206000915090505481565b600180546105e69061105e565b80601f01602080910402602001604051908101604052809291908181526020018280546106129061105e565b801561065f5780601f106106345761010080835404028352916020019161065f565b820191906000526020600020905b81548152906001019060200180831161064257829003601f168201915b505050505081565b6000610674338484610a4d565b6001905092915050565b600061068b338484610b12565b6001905092915050565b428410156106d8576040517f08c379a00000000000000000000000000000000000000000000000000000000081526004016106cf9061125a565b60405180910390fd5b7f7fffffffffffffffffffffffffffffff5d576e7357a4501ddfe92f46681b20a08160001c1115801561071c5750601b8360ff16148061071b5750601c8360ff16145b5b61075b576040517f08c379a0000000000000000000000000000000000000000000000000000000008152600401610752906112c6565b60405180910390fd5b6000610765610463565b7f6e71edae12b1b97f4d1f60370fef10105fa2faae0126114a169c64845d6126c960001b898989600560008e73ffffffffffffffffffffffffffffffffffffffff1673ffffffffffffffffffffffffffffffffffffffff1681526020019081526020016000206000815480929190600101919050558a6040516020016107f0969594939291906112e6565b604051602081830303815290604052805190602001206040516020016108179291906113bf565b60405160208183030381529060405280519060200120905060006001828686866040516000815260200160405260405161085494939291906113f6565b6020604051602081039080840390855afa158015610876573d6000803e3d6000fd5b5050506020604051035190508873ffffffffffffffffffffffffffffffffffffffff168173ffffffffffffffffffffffffffffffffffffffff161480156108ea5750600073ffffffffffffffffffffffffffffffffffffffff168973ffffffffffffffffffffffffffffffffffffffff1614155b610929576040517f08c379a000000000000000000000000000000000000000000000000000000000815260040161092090611487565b60405180910390fd5b5050610936878787610964565b50505050505050565b6004602052816000526040600020602052806000526040600020600091509150505481565b8173ffffffffffffffffffffffffffffffffffffffff168373ffffffffffffffffffffffffffffffffffffffff167f8c5be1e5ebec7d5bd14f71427d1e84f3dd0314c0f7b2291e5b200ac8c7c3b92583600460008873ffffffffffffffffffffffffffffffffffffffff1673ffffffffffffffffffffffffffffffffffffffff16815260200190815260200160002060008773ffffffffffffffffffffffffffffffffffffffff1673ffffffffffffffffffffffffffffffffffffffff168152602001908152602001600020819055604051610a409190610def565b60405180910390a3505050565b6000600460008573ffffffffffffffffffffffffffffffffffffffff1673ffffffffffffffffffffffffffffffffffffffff16815260200190815260200160002060008473ffffffffffffffffffffffffffffffffffffffff1673ffffffffffffffffffffffffffffffffffffffff1681526020019081526020016000205490507fffffffffffffffffffffffffffffffffffffffffffffffffffffffffffffffff8114610b0c57610b0b84848484610b0691906114a7565b610964565b5b50505050565b80600360008573ffffffffffffffffffffffffffffffffffffffff1673ffffffffffffffffffffffffffffffffffffffff1681526020019081526020016000206000828254610b6191906114a7565b9250508190555080600360008473ffffffffffffffffffffffffffffffffffffffff1673ffffffffffffffffffffffffffffffffffffffff168152602001908152602001600020600082825401925050819055508173ffffffffffffffffffffffffffffffffffffffff168373ffffffffffffffffffffffffffffffffffffffff167fddf252ad1be2c89b69c2b068fc378daa952ba7f163c4a11628f55a4df523b3ef83604051610c129190610def565b60405180910390a3505050565b600081519050919050565b600082825260208201905092915050565b60005b83811015610c59578082015181840152602081019050610c3e565b60008484015250505050565b6000601f19601f8301169050919050565b6000610c8182610c1f565b610c8b8185610c2a565b9350610c9b818560208601610c3b565b610ca481610c65565b840191505092915050565b60006020820190508181036000830152610cc98184610c76565b905092915050565b600080fd5b600073ffffffffffffffffffffffffffffffffffffffff82169050919050565b6000610d0182610cd6565b9050919050565b610d1181610cf6565b8114610d1c57600080fd5b50565b600081359050610d2e81610d08565b92915050565b6000819050919050565b610d4781610d34565b8114610d5257600080fd5b50565b600081359050610d6481610d3e565b92915050565b60008060408385031215610d8157610d80610cd1565b5b6000610d8f85828601610d1f565b9250506020610da085828601610d55565b9150509250929050565b60008115159050919050565b610dbf81610daa565b82525050565b6000602082019050610dda6000830184610db6565b92915050565b610de981610d34565b82525050565b6000602082019050610e046000830184610de0565b92915050565b600080600060608486031215610e2357610e22610cd1565b5b6000610e3186828701610d1f565b9350506020610e4286828701610d1f565b9250506040610e5386828701610d55565b9150509250925092565b6000819050919050565b610e7081610e5d565b82525050565b6000602082019050610e8b6000830184610e67565b92915050565b600060ff82169050919050565b610ea781610e91565b82525050565b6000602082019050610ec26000830184610e9e565b92915050565b600060208284031215610ede57610edd610cd1565b5b6000610eec84828501610d1f565b91505092915050565b610efe81610e91565b8114610f0957600080fd5b50565b600081359050610f1b81610ef5565b92915050565b610f2a81610e5d565b8114610f3557600080fd5b50565b600081359050610f4781610f21565b92915050565b600080600080600080600060e0888a031215610f6c57610f6b610cd1565b5b6000610f7a8a828b01610d1f565b9750506020610f8b8a828b01610d1f565b9650506040610f9c8a828b01610d55565b9550506060610fad8a828b01610d55565b9450506080610fbe8a828b01610f0c565b93505060a0610fcf8a828b01610f38565b92505060c0610fe08a828b01610f38565b91505092959891949750929550565b6000806040838503121561100657611005610cd1565b5b600061101485828601610d1f565b925050602061102585828601610d1f565b9150509250929050565b7f4e487b7100000000000000000000000000000000000000000000000000000000600052602260045260246000fd5b6000600282049050600182168061107657607f821691505b6020821081036110895761108861102f565b5b50919050565b600081905092915050565b60008190508160005260206000209050919050565b600081546110bc8161105e565b6110c6818661108f565b945060018216600081146110e157600181146110f657611129565b60ff1983168652811515820286019350611129565b6110ff8561109a565b60005b8381101561112157815481890152600182019150602081019050611102565b838801955050505b50505092915050565b600061113e82846110af565b915081905092915050565b61115281610cf6565b82525050565b600060a08201905061116d6000830188610e67565b61117a6020830187610e67565b6111876040830186610e67565b6111946060830185610de0565b6111a16080830184611149565b9695505050505050565b7f4e487b7100000000000000000000000000000000000000000000000000000000600052601160045260246000fd5b60006111e582610d34565b91506111f083610d34565b9250828201905080821115611208576112076111ab565b5b92915050565b7f45524332303a503a455850495245440000000000000000000000000000000000600082015250565b6000611244600f83610c2a565b915061124f8261120e565b602082019050919050565b6000602082019050818103600083015261127381611237565b9050919050565b7f45524332303a503a4d414c4c4541424c45000000000000000000000000000000600082015250565b60006112b0601183610c2a565b91506112bb8261127a565b602082019050919050565b600060208201905081810360008301526112df816112a3565b9050919050565b600060c0820190506112fb6000830189610e67565b6113086020830188611149565b6113156040830187611149565b6113226060830186610de0565b61132f6080830185610de0565b61133c60a0830184610de0565b979650505050505050565b600081905092915050565b7f1901000000000000000000000000000000000000000000000000000000000000600082015250565b6000611388600283611347565b915061139382611352565b600282019050919050565b6000819050919050565b6113b96113b482610e5d565b61139e565b82525050565b60006113ca8261137b565b91506113d682856113a8565b6020820191506113e682846113a8565b6020820191508190509392505050565b600060808201905061140b6000830187610e67565b6114186020830186610e9e565b6114256040830185610e67565b6114326060830184610e67565b95945050505050565b7f45524332303a503a494e56414c49445f5349474e415455524500000000000000600082015250565b6000611471601983610c2a565b915061147c8261143b565b602082019050919050565b600060208201905081810360008301526114a081611464565b9050919050565b60006114b282610d34565b91506114bd83610d34565b92508282039050818111156114d5576114d46111ab565b5b9291505056fea264697066735822122054922aee9b807f00edd47855eedba309e786e2511b01f230584bd6d9c877e0d264736f6c63430008110033",
  "immutableReferences": {
    "34341": [
      {
        "length": 32,
        "start": 1089
      }
    ]
  },
  "source": "// SPDX-License-Identifier: AGPL-3.0-only\npragma solidity >=0.4.22 <0.9.0;\n\nimport { IERC20 } from \"./interfaces/IERC20.sol\";\n\n/*\n            \n        \n                \n                \n          \n            \n*/\n\n/**\n *  @title Modern ERC-20 implementation.\n *  @dev   Acknowledgements to Solmate, OpenZeppelin, and DSS for inspiring this code.\n */\ncontract ERC20 is IERC20 {\n\n    /**************/\n    /*** ERC-20 ***/\n    /**************/\n\n    string public override name;\n    string public override symbol;\n\n    uint8 public immutable override decimals;\n\n    uint256 public override totalSupply;\n\n    mapping(address => uint256) public override balanceOf;\n\n    mapping(address => mapping(address => uint256)) public override allowance;\n\n    /****************/\n    /*** ERC-2612 ***/\n    /****************/\n\n    // PERMIT_TYPEHASH = keccak256(\"Permit(address owner,address spender,uint256 value,uint256 nonce,uint256 deadline)\");\n    bytes32 public constant override PERMIT_TYPEHASH = 0x6e71edae12b1b97f4d1f60370fef10105fa2faae0126114a169c64845d6126c9;\n\n    mapping(address => uint256) public override nonces;\n\n    /**\n     *  @param name_     The name of the token.\n     *  @param symbol_   The symbol of the token.\n     *  @param decimals_ The decimal precision used by the token.\n     */\n    constructor(string memory name_, string memory symbol_, uint8 decimals_) {\n        name     = name_;\n        symbol   = symbol_;\n        decimals = decimals_;\n    }\n\n    /**************************/\n    /*** External Functions ***/\n    /**************************/\n\n    function approve(address spender_, uint256 amount_) public virtual override returns (bool success_) {\n        _approve(msg.sender, spender_, amount_);\n        return true;\n    }\n\n    function decreaseAllowance(address spender_, uint256 subtractedAmount_) public virtual override returns (bool success_) {\n        _decreaseAllowance(msg.sender, spender_, subtractedAmount_);\n        return true;\n    }\n\n    function increaseAllowance(address spender_, uint256 addedAmount_) public virtual override returns (bool success_) {\n        _approve(msg.sender, spender_, allowance[msg.sender][spender_] + addedAmount_);\n        return true;\n    }\n\n    function permit(address owner_, address spender_, uint256 amount_, uint256 deadline_, uint8 v_, bytes32 r_, bytes32 s_) public virtual override {\n        require(deadline_ >= block.timestamp, \"ERC20:P:EXPIRED\");\n\n        // Appendix F in the Ethereum Yellow paper (https://ethereum.github.io/yellowpaper/paper.pdf), defines\n        // the valid range for s in (301): 0 < s < secp256k1n  2 + 1, and for v in (302): v  {27, 28}.\n        require(\n            uint256(s_) <= uint256(0x7FFFFFFFFFFFFFFFFFFFFFFFFFFFFFFF5D576E7357A4501DDFE92F46681B20A0) &&\n            (v_ == 27 || v_ == 28),\n            \"ERC20:P:MALLEABLE\"\n        );\n\n        // Nonce realistically cannot overflow.\n        unchecked {\n            bytes32 digest = keccak256(\n                abi.encodePacked(\n                    \"\\x19\\x01\",\n                    DOMAIN_SEPARATOR(),\n                    keccak256(abi.encode(PERMIT_TYPEHASH, owner_, spender_, amount_, nonces[owner_]++, deadline_))\n                )\n            );\n\n            address recoveredAddress = ecrecover(digest, v_, r_, s_);\n\n            require(recoveredAddress == owner_ && owner_ != address(0), \"ERC20:P:INVALID_SIGNATURE\");\n        }\n\n        _approve(owner_, spender_, amount_);\n    }\n\n    function transfer(address recipient_, uint256 amount_) public virtual override returns (bool success_) {\n        _transfer(msg.sender, recipient_, amount_);\n        return true;\n    }\n\n    function transferFrom(address owner_, address recipient_, uint256 amount_) public virtual override returns (bool success_) {\n        _decreaseAllowance(owner_, msg.sender, amount_);\n        _transfer(owner_, recipient_, amount_);\n        return true;\n    }\n\n    /**********************/\n    /*** View Functions ***/\n    /**********************/\n\n    function DOMAIN_SEPARATOR() public view override returns (bytes32 domainSeparator_) {\n        return keccak256(\n            abi.encode(\n                keccak256(\"EIP712Domain(string name,string version,uint256 chainId,address verifyingContract)\"),\n                keccak256(bytes(name)),\n                keccak256(bytes(\"1\")),\n                block.chainid,\n                address(this)\n            )\n        );\n    }\n\n    /**************************/\n    /*** Internal Functions ***/\n    /**************************/\n\n    function _approve(address owner_, address spender_, uint256 amount_) internal {\n        emit Approval(owner_, spender_, allowance[owner_][spender_] = amount_);\n    }\n\n    function _burn(address owner_, uint256 amount_) internal {\n        balanceOf[owner_] -= amount_;\n\n        // Cannot underflow because a user's balance will never be larger than the total supply.\n        unchecked { totalSupply -= amount_; }\n\n        emit Transfer(owner_, address(0), amount_);\n    }\n\n    function _decreaseAllowance(address owner_, address spender_, uint256 subtractedAmount_) internal {\n        uint256 spenderAllowance = allowance[owner_][spender_];  // Cache to memory.\n\n        if (spenderAllowance != type(uint256).max) {\n            _approve(owner_, spender_, spenderAllowance - subtractedAmount_);\n        }\n    }\n\n    function _mint(address recipient_, uint256 amount_) internal {\n        totalSupply += amount_;\n\n        // Cannot overflow because totalSupply would first overflow in the statement above.\n        unchecked { balanceOf[recipient_] += amount_; }\n\n        emit Transfer(address(0), recipient_, amount_);\n    }\n\n    function _transfer(address owner_, address recipient_, uint256 amount_) internal {\n        balanceOf[owner_] -= amount_;\n\n        // Cannot overflow because minting prevents overflow of totalSupply, and sum of user balances == totalSupply.\n        unchecked { balanceOf[recipient_] += amount_; }\n\n        emit Transfer(owner_, recipient_, amount_);\n    }\n\n}\n",
  "sourcePath": "/Users/mdoshi/wyta/modules/erc20/contracts/ERC20.sol",
  "compiler": {
    "name": "solc",
    "version": "0.8.17+commit.8df45f5f.Emscripten.clang"
  },
  "schemaVersion": "3.4.11",
  "updatedAt": "2023-01-15T01:59:56.138Z",
  "devdoc": {
    "details": "Acknowledgements to Solmate, OpenZeppelin, and DSS for inspiring this code.",
    "kind": "dev",
    "methods": {
      "DOMAIN_SEPARATOR()": {
        "details": "Returns the signature domain separator.",
        "returns": {
          "domainSeparator_": "The signature domain separator."
        }
      },
      "approve(address,uint256)": {
        "details": "Function that allows one account to set the allowance of another account over their tokens.          Emits an {Approval} event.",
        "params": {
          "amount_": "Amount of tokens that have been approved.",
          "spender_": "Account that tokens are approved for."
        },
        "returns": {
          "success_": "Boolean indicating whether the operation succeeded."
        }
      },
      "constructor": {
        "params": {
          "decimals_": "The decimal precision used by the token.",
          "name_": "The name of the token.",
          "symbol_": "The symbol of the token."
        }
      },
      "decreaseAllowance(address,uint256)": {
        "details": "Function that allows one account to decrease the allowance of another account over their tokens.          Emits an {Approval} event.",
        "params": {
          "spender_": "Account that tokens are approved for.",
          "subtractedAmount_": "Amount to decrease approval by."
        },
        "returns": {
          "success_": "         Boolean indicating whether the operation succeeded."
        }
      },
      "increaseAllowance(address,uint256)": {
        "details": "Function that allows one account to increase the allowance of another account over their tokens.          Emits an {Approval} event.",
        "params": {
          "addedAmount_": "Amount to increase approval by.",
          "spender_": "Account that tokens are approved for."
        },
        "returns": {
          "success_": "    Boolean indicating whether the operation succeeded."
        }
      },
      "permit(address,address,uint256,uint256,uint8,bytes32,bytes32)": {
        "details": "Approve by signature.",
        "params": {
          "amount_": "Permit approval spend limit.",
          "deadline_": "Deadline after which the permit is invalid.",
          "owner_": "Owner address that signed the permit.",
          "r_": "ECDSA signature r component.",
          "s_": "ECDSA signature s component.",
          "spender_": "Spender of the permit.",
          "v_": "ECDSA signature v component."
        }
      },
      "transfer(address,uint256)": {
        "details": "Moves an amount of tokens from `msg.sender` to a specified account.          Emits a {Transfer} event.",
        "params": {
          "amount_": "Amount of tokens that are transferred.",
          "recipient_": "Account that receives tokens."
        },
        "returns": {
          "success_": "  Boolean indicating whether the operation succeeded."
        }
      },
      "transferFrom(address,address,uint256)": {
        "details": "Moves a pre-approved amount of tokens from a sender to a specified account.          Emits a {Transfer} event.          Emits an {Approval} event.",
        "params": {
          "amount_": "Amount of tokens that are transferred.",
          "owner_": "Account that tokens are moving from.",
          "recipient_": "Account that receives tokens."
        },
        "returns": {
          "success_": "  Boolean indicating whether the operation succeeded."
        }
      }
    },
    "stateVariables": {
      "PERMIT_TYPEHASH": {
        "details": "Returns the permit type hash.",
        "return": "The permit type hash.",
        "returns": {
          "_0": "The permit type hash."
        }
      },
      "allowance": {
        "details": "Returns the allowance that one account has given another over their tokens.",
        "params": {
          "owner_": "Account that tokens are approved from.",
          "spender_": "Account that tokens are approved for."
        },
        "return": "Allowance that one account has given another over their tokens.",
        "returns": {
          "_0": "Allowance that one account has given another over their tokens."
        }
      },
      "balanceOf": {
        "details": "Returns the amount of tokens owned by a given account.",
        "params": {
          "account_": "Account that owns the tokens."
        },
        "return": "Amount of tokens owned by a given account.",
        "returns": {
          "_0": "Amount of tokens owned by a given account."
        }
      },
      "decimals": {
        "details": "Returns the decimal precision used by the token.",
        "return": "The decimal precision used by the token.",
        "returns": {
          "_0": "The decimal precision used by the token."
        }
      },
      "name": {
        "details": "Returns the name of the token.",
        "return": "The name of the token.",
        "returns": {
          "_0": "The name of the token."
        }
      },
      "nonces": {
        "details": "Returns the nonce for the given owner.",
        "params": {
          "owner_": "The address of the owner account."
        },
        "return": "The nonce for the given owner.",
        "returns": {
          "_0": "The nonce for the given owner."
        }
      },
      "symbol": {
        "details": "Returns the symbol of the token.",
        "return": "The symbol of the token.",
        "returns": {
          "_0": "The symbol of the token."
        }
      },
      "totalSupply": {
        "details": "Returns the total amount of tokens in existence.",
        "return": "The total amount of tokens in existence.",
        "returns": {
          "_0": "The total amount of tokens in existence."
        }
      }
    },
    "title": "Modern ERC-20 implementation.",
    "version": 1
  },
  "userdoc": {
    "kind": "user",
    "methods": {},
    "version": 1
  }
}