{
  "contractName": "InvariantTest",
  "abi": [
    {
      "inputs": [],
      "name": "targetContracts",
      "outputs": [
        {
          "internalType": "address[]",
          "name": "targetContracts_",
          "type": "address[]"
        }
      ],
      "stateMutability": "view",
      "type": "function"
    }
  ],
  "bytecode": "0x608060405234801561001057600080fd5b506102e8806100206000396000f3fe608060405234801561001057600080fd5b506004361061002b5760003560e01c80633f7286f414610030575b600080fd5b61003861004e565b6040516100459190610213565b60405180910390f35b60606000808054905003610097576040517f08c379a000000000000000000000000000000000000000000000000000000000815260040161008e90610292565b60405180910390fd5b600080548060200260200160405190810160405280929190818152602001828054801561011957602002820191906000526020600020905b8160009054906101000a900473ffffffffffffffffffffffffffffffffffffffff1673ffffffffffffffffffffffffffffffffffffffff16815260200190600101908083116100cf575b5050505050905090565b600081519050919050565b600082825260208201905092915050565b6000819050602082019050919050565b600073ffffffffffffffffffffffffffffffffffffffff82169050919050565b600061017a8261014f565b9050919050565b61018a8161016f565b82525050565b600061019c8383610181565b60208301905092915050565b6000602082019050919050565b60006101c082610123565b6101ca818561012e565b93506101d58361013f565b8060005b838110156102065781516101ed8882610190565b97506101f8836101a8565b9250506001810190506101d9565b5085935050505092915050565b6000602082019050818103600083015261022d81846101b5565b905092915050565b600082825260208201905092915050565b7f4e4f5f5441524745545f434f4e54524143545300000000000000000000000000600082015250565b600061027c601383610235565b915061028782610246565b602082019050919050565b600060208201905081810360008301526102ab8161026f565b905091905056fea26469706673582212202162fc0b3bf72e8244d93df36720f1da4260578370d7fbb3135db3e49a065a9364736f6c63430008110033",
  "immutableReferences": {},
  "source": "// SPDX-License-Identifier: AGPL-3.0-only\npragma solidity >=0.4.22 <0.9.0;\n\ncontract InvariantTest {\n\n    address[] private _targetContracts;\n\n    function addTargetContract(address newTargetContract_) internal {\n        _targetContracts.push(newTargetContract_);\n    }\n\n    function targetContracts() public view returns (address[] memory targetContracts_) {\n        require(_targetContracts.length != uint256(0), \"NO_TARGET_CONTRACTS\");\n        return _targetContracts;\n    }\n\n}\n",
  "sourcePath": "/Users/mdoshi/wyta/contracts/test/utils/InvariantTest.sol",
  "compiler": {
    "name": "solc",
    "version": "0.8.17+commit.8df45f5f.Emscripten.clang"
  },
  "schemaVersion": "3.4.11",
  "updatedAt": "2023-01-15T02:01:20.280Z",
  "devdoc": {
    "kind": "dev",
    "methods": {},
    "version": 1
  },
  "userdoc": {
    "kind": "user",
    "methods": {},
    "version": 1
  }
}