{
  "contractName": "MockERC20",
  "abi": [
    {
      "inputs": [
        {
          "internalType": "string",
          "name": "name_",
          "type": "string"
        },
        {
          "internalType": "string",
          "name": "symbol_",
          "type": "string"
        },
        {
          "internalType": "uint8",
          "name": "decimals_",
          "type": "uint8"
        }
      ],
      "stateMutability": "nonpayable",
      "type": "constructor"
    },
    {
      "anonymous": false,
      "inputs": [
        {
          "indexed": true,
          "internalType": "address",
          "name": "owner_",
          "type": "address"
        },
        {
          "indexed": true,
          "internalType": "address",
          "name": "spender_",
          "type": "address"
        },
        {
          "indexed": false,
          "internalType": "uint256",
          "name": "amount_",
          "type": "uint256"
        }
      ],
      "name": "Approval",
      "type": "event"
    },
    {
      "anonymous": false,
      "inputs": [
        {
          "indexed": true,
          "internalType": "address",
          "name": "owner_",
          "type": "address"
        },
        {
          "indexed": true,
          "internalType": "address",
          "name": "recipient_",
          "type": "address"
        },
        {
          "indexed": false,
          "internalType": "uint256",
          "name": "amount_",
          "type": "uint256"
        }
      ],
      "name": "Transfer",
      "type": "event"
    },
    {
      "inputs": [],
      "name": "DOMAIN_SEPARATOR",
      "outputs": [
        {
          "internalType": "bytes32",
          "name": "domainSeparator_",
          "type": "bytes32"
        }
      ],
      "stateMutability": "view",
      "type": "function"
    },
    {
      "inputs": [],
      "name": "PERMIT_TYPEHASH",
      "outputs": [
        {
          "internalType": "bytes32",
          "name": "",
          "type": "bytes32"
        }
      ],
      "stateMutability": "view",
      "type": "function"
    },
    {
      "inputs": [
        {
          "internalType": "address",
          "name": "",
          "type": "address"
        },
        {
          "internalType": "address",
          "name": "",
          "type": "address"
        }
      ],
      "name": "allowance",
      "outputs": [
        {
          "internalType": "uint256",
          "name": "",
          "type": "uint256"
        }
      ],
      "stateMutability": "view",
      "type": "function"
    },
    {
      "inputs": [
        {
          "internalType": "address",
          "name": "spender_",
          "type": "address"
        },
        {
          "internalType": "uint256",
          "name": "amount_",
          "type": "uint256"
        }
      ],
      "name": "approve",
      "outputs": [
        {
          "internalType": "bool",
          "name": "success_",
          "type": "bool"
        }
      ],
      "stateMutability": "nonpayable",
      "type": "function"
    },
    {
      "inputs": [
        {
          "internalType": "address",
          "name": "",
          "type": "address"
        }
      ],
      "name": "balanceOf",
      "outputs": [
        {
          "internalType": "uint256",
          "name": "",
          "type": "uint256"
        }
      ],
      "stateMutability": "view",
      "type": "function"
    },
    {
      "inputs": [],
      "name": "decimals",
      "outputs": [
        {
          "internalType": "uint8",
          "name": "",
          "type": "uint8"
        }
      ],
      "stateMutability": "view",
      "type": "function"
    },
    {
      "inputs": [
        {
          "internalType": "address",
          "name": "spender_",
          "type": "address"
        },
        {
          "internalType": "uint256",
          "name": "subtractedAmount_",
          "type": "uint256"
        }
      ],
      "name": "decreaseAllowance",
      "outputs": [
        {
          "internalType": "bool",
          "name": "success_",
          "type": "bool"
        }
      ],
      "stateMutability": "nonpayable",
      "type": "function"
    },
    {
      "inputs": [
        {
          "internalType": "address",
          "name": "spender_",
          "type": "address"
        },
        {
          "internalType": "uint256",
          "name": "addedAmount_",
          "type": "uint256"
        }
      ],
      "name": "increaseAllowance",
      "outputs": [
        {
          "internalType": "bool",
          "name": "success_",
          "type": "bool"
        }
      ],
      "stateMutability": "nonpayable",
      "type": "function"
    },
    {
      "inputs": [],
      "name": "name",
      "outputs": [
        {
          "internalType": "string",
          "name": "",
          "type": "string"
        }
      ],
      "stateMutability": "view",
      "type": "function"
    },
    {
      "inputs": [
        {
          "internalType": "address",
          "name": "",
          "type": "address"
        }
      ],
      "name": "nonces",
      "outputs": [
        {
          "internalType": "uint256",
          "name": "",
          "type": "uint256"
        }
      ],
      "stateMutability": "view",
      "type": "function"
    },
    {
      "inputs": [
        {
          "internalType": "address",
          "name": "owner_",
          "type": "address"
        },
        {
          "internalType": "address",
          "name": "spender_",
          "type": "address"
        },
        {
          "internalType": "uint256",
          "name": "amount_",
          "type": "uint256"
        },
        {
          "internalType": "uint256",
          "name": "deadline_",
          "type": "uint256"
        },
        {
          "internalType": "uint8",
          "name": "v_",
          "type": "uint8"
        },
        {
          "internalType": "bytes32",
          "name": "r_",
          "type": "bytes32"
        },
        {
          "internalType": "bytes32",
          "name": "s_",
          "type": "bytes32"
        }
      ],
      "name": "permit",
      "outputs": [],
      "stateMutability": "nonpayable",
      "type": "function"
    },
    {
      "inputs": [],
      "name": "symbol",
      "outputs": [
        {
          "internalType": "string",
          "name": "",
          "type": "string"
        }
      ],
      "stateMutability": "view",
      "type": "function"
    },
    {
      "inputs": [],
      "name": "totalSupply",
      "outputs": [
        {
          "internalType": "uint256",
          "name": "",
          "type": "uint256"
        }
      ],
      "stateMutability": "view",
      "type": "function"
    },
    {
      "inputs": [
        {
          "internalType": "address",
          "name": "recipient_",
          "type": "address"
        },
        {
          "internalType": "uint256",
          "name": "amount_",
          "type": "uint256"
        }
      ],
      "name": "transfer",
      "outputs": [
        {
          "internalType": "bool",
          "name": "success_",
          "type": "bool"
        }
      ],
      "stateMutability": "nonpayable",
      "type": "function"
    },
    {
      "inputs": [
        {
          "internalType": "address",
          "name": "owner_",
          "type": "address"
        },
        {
          "internalType": "address",
          "name": "recipient_",
          "type": "address"
        },
        {
          "internalType": "uint256",
          "name": "amount_",
          "type": "uint256"
        }
      ],
      "name": "transferFrom",
      "outputs": [
        {
          "internalType": "bool",
          "name": "success_",
          "type": "bool"
        }
      ],
      "stateMutability": "nonpayable",
      "type": "function"
    },
    {
      "inputs": [
        {
          "internalType": "address",
          "name": "recipient_",
          "type": "address"
        },
        {
          "internalType": "uint256",
          "name": "amount_",
          "type": "uint256"
        }
      ],
      "name": "mint",
      "outputs": [],
      "stateMutability": "nonpayable",
      "type": "function"
    },
    {
      "inputs": [
        {
          "internalType": "address",
          "name": "owner_",
          "type": "address"
        },
        {
          "internalType": "uint256",
          "name": "amount_",
          "type": "uint256"
        }
      ],
      "name": "burn",
      "outputs": [],
      "stateMutability": "nonpayable",
      "type": "function"
    }
  ],
  "bytecode": "0x60a06040523480156200001157600080fd5b5060405162001d4c38038062001d4c833981810160405281019062000037919062000249565b82828282600090816200004b91906200052e565b5081600190816200005d91906200052e565b508060ff1660808160ff168152505050505050505062000615565b6000604051905090565b600080fd5b600080fd5b600080fd5b600080fd5b6000601f19601f8301169050919050565b7f4e487b7100000000000000000000000000000000000000000000000000000000600052604160045260246000fd5b620000e18262000096565b810181811067ffffffffffffffff82111715620001035762000102620000a7565b5b80604052505050565b60006200011862000078565b9050620001268282620000d6565b919050565b600067ffffffffffffffff821115620001495762000148620000a7565b5b620001548262000096565b9050602081019050919050565b60005b838110156200018157808201518184015260208101905062000164565b60008484015250505050565b6000620001a46200019e846200012b565b6200010c565b905082815260208101848484011115620001c357620001c262000091565b5b620001d084828562000161565b509392505050565b600082601f830112620001f057620001ef6200008c565b5b8151620002028482602086016200018d565b91505092915050565b600060ff82169050919050565b62000223816200020b565b81146200022f57600080fd5b50565b600081519050620002438162000218565b92915050565b60008060006060848603121562000265576200026462000082565b5b600084015167ffffffffffffffff81111562000286576200028562000087565b5b6200029486828701620001d8565b935050602084015167ffffffffffffffff811115620002b857620002b762000087565b5b620002c686828701620001d8565b9250506040620002d98682870162000232565b9150509250925092565b600081519050919050565b7f4e487b7100000000000000000000000000000000000000000000000000000000600052602260045260246000fd5b600060028204905060018216806200033657607f821691505b6020821081036200034c576200034b620002ee565b5b50919050565b60008190508160005260206000209050919050565b60006020601f8301049050919050565b600082821b905092915050565b600060088302620003b67fffffffffffffffffffffffffffffffffffffffffffffffffffffffffffffffff8262000377565b620003c2868362000377565b95508019841693508086168417925050509392505050565b6000819050919050565b6000819050919050565b60006200040f620004096200040384620003da565b620003e4565b620003da565b9050919050565b6000819050919050565b6200042b83620003ee565b620004436200043a8262000416565b84845462000384565b825550505050565b600090565b6200045a6200044b565b6200046781848462000420565b505050565b5b818110156200048f576200048360008262000450565b6001810190506200046d565b5050565b601f821115620004de57620004a88162000352565b620004b38462000367565b81016020851015620004c3578190505b620004db620004d28562000367565b8301826200046c565b50505b505050565b600082821c905092915050565b60006200050360001984600802620004e3565b1980831691505092915050565b60006200051e8383620004f0565b9150826002028217905092915050565b6200053982620002e3565b67ffffffffffffffff811115620005555762000554620000a7565b5b6200056182546200031d565b6200056e82828562000493565b600060209050601f831160018114620005a6576000841562000591578287015190505b6200059d858262000510565b8655506200060d565b601f198416620005b68662000352565b60005b82811015620005e057848901518255600182019150602085019450602081019050620005b9565b86831015620006005784890151620005fc601f891682620004f0565b8355505b6001600288020188555050505b505050505050565b60805161171b62000631600039600061048f015261171b6000f3fe608060405234801561001057600080fd5b506004361061010b5760003560e01c806340c10f19116100a25780639dc29fac116100715780639dc29fac146102d0578063a457c2d7146102ec578063a9059cbb1461031c578063d505accf1461034c578063dd62ed3e146103685761010b565b806340c10f191461023657806370a08231146102525780637ecebe001461028257806395d89b41146102b25761010b565b806330adf81f116100de57806330adf81f146101ac578063313ce567146101ca5780633644e515146101e857806339509351146102065761010b565b806306fdde0314610110578063095ea7b31461012e57806318160ddd1461015e57806323b872dd1461017c575b600080fd5b610118610398565b6040516101259190610eb9565b60405180910390f35b61014860048036038101906101439190610f74565b610426565b6040516101559190610fcf565b60405180910390f35b61016661043d565b6040516101739190610ff9565b60405180910390f35b61019660048036038101906101919190611014565b610443565b6040516101a39190610fcf565b60405180910390f35b6101b4610466565b6040516101c19190611080565b60405180910390f35b6101d261048d565b6040516101df91906110b7565b60405180910390f35b6101f06104b1565b6040516101fd9190611080565b60405180910390f35b610220600480360381019061021b9190610f74565b610559565b60405161022d9190610fcf565b60405180910390f35b610250600480360381019061024b9190610f74565b6105f7565b005b61026c600480360381019061026791906110d2565b610605565b6040516102799190610ff9565b60405180910390f35b61029c600480360381019061029791906110d2565b61061d565b6040516102a99190610ff9565b60405180910390f35b6102ba610635565b6040516102c79190610eb9565b60405180910390f35b6102ea60048036038101906102e59190610f74565b6106c3565b005b61030660048036038101906103019190610f74565b6106d1565b6040516103139190610fcf565b60405180910390f35b61033660048036038101906103319190610f74565b6106e8565b6040516103439190610fcf565b60405180910390f35b61036660048036038101906103619190611157565b6106ff565b005b610382600480360381019061037d91906111f9565b6109a9565b60405161038f9190610ff9565b60405180910390f35b600080546103a590611268565b80601f01602080910402602001604051908101604052809291908181526020018280546103d190611268565b801561041e5780601f106103f35761010080835404028352916020019161041e565b820191906000526020600020905b81548152906001019060200180831161040157829003601f168201915b505050505081565b60006104333384846109ce565b6001905092915050565b60025481565b6000610450843384610ab7565b61045b848484610b7c565b600190509392505050565b7f6e71edae12b1b97f4d1f60370fef10105fa2faae0126114a169c64845d6126c960001b81565b7f000000000000000000000000000000000000000000000000000000000000000081565b60007f8b73c3c69bb8fe3d512ecc4cf759cc79239f7b179b0ffacaa9a75d522b39400f60006040516104e3919061133c565b60405180910390206040518060400160405280600181526020017f310000000000000000000000000000000000000000000000000000000000000081525080519060200120463060405160200161053e959493929190611362565b60405160208183030381529060405280519060200120905090565b60006105ed338484600460003373ffffffffffffffffffffffffffffffffffffffff1673ffffffffffffffffffffffffffffffffffffffff16815260200190815260200160002060008873ffffffffffffffffffffffffffffffffffffffff1673ffffffffffffffffffffffffffffffffffffffff168152602001908152602001600020546105e891906113e4565b6109ce565b6001905092915050565b6106018282610c89565b5050565b60036020528060005260406000206000915090505481565b60056020528060005260406000206000915090505481565b6001805461064290611268565b80601f016020809104026020016040519081016040528092919081815260200182805461066e90611268565b80156106bb5780601f10610690576101008083540402835291602001916106bb565b820191906000526020600020905b81548152906001019060200180831161069e57829003601f168201915b505050505081565b6106cd8282610d59565b5050565b60006106de338484610ab7565b6001905092915050565b60006106f5338484610b7c565b6001905092915050565b42841015610742576040517f08c379a000000000000000000000000000000000000000000000000000000000815260040161073990611464565b60405180910390fd5b7f7fffffffffffffffffffffffffffffff5d576e7357a4501ddfe92f46681b20a08160001c111580156107865750601b8360ff1614806107855750601c8360ff16145b5b6107c5576040517f08c379a00000000000000000000000000000000000000000000000000000000081526004016107bc906114d0565b60405180910390fd5b60006107cf6104b1565b7f6e71edae12b1b97f4d1f60370fef10105fa2faae0126114a169c64845d6126c960001b898989600560008e73ffffffffffffffffffffffffffffffffffffffff1673ffffffffffffffffffffffffffffffffffffffff1681526020019081526020016000206000815480929190600101919050558a60405160200161085a969594939291906114f0565b604051602081830303815290604052805190602001206040516020016108819291906115c9565b6040516020818303038152906040528051906020012090506000600182868686604051600081526020016040526040516108be9493929190611600565b6020604051602081039080840390855afa1580156108e0573d6000803e3d6000fd5b5050506020604051035190508873ffffffffffffffffffffffffffffffffffffffff168173ffffffffffffffffffffffffffffffffffffffff161480156109545750600073ffffffffffffffffffffffffffffffffffffffff168973ffffffffffffffffffffffffffffffffffffffff1614155b610993576040517f08c379a000000000000000000000000000000000000000000000000000000000815260040161098a90611691565b60405180910390fd5b50506109a08787876109ce565b50505050505050565b6004602052816000526040600020602052806000526040600020600091509150505481565b8173ffffffffffffffffffffffffffffffffffffffff168373ffffffffffffffffffffffffffffffffffffffff167f8c5be1e5ebec7d5bd14f71427d1e84f3dd0314c0f7b2291e5b200ac8c7c3b92583600460008873ffffffffffffffffffffffffffffffffffffffff1673ffffffffffffffffffffffffffffffffffffffff16815260200190815260200160002060008773ffffffffffffffffffffffffffffffffffffffff1673ffffffffffffffffffffffffffffffffffffffff168152602001908152602001600020819055604051610aaa9190610ff9565b60405180910390a3505050565b6000600460008573ffffffffffffffffffffffffffffffffffffffff1673ffffffffffffffffffffffffffffffffffffffff16815260200190815260200160002060008473ffffffffffffffffffffffffffffffffffffffff1673ffffffffffffffffffffffffffffffffffffffff1681526020019081526020016000205490507fffffffffffffffffffffffffffffffffffffffffffffffffffffffffffffffff8114610b7657610b7584848484610b7091906116b1565b6109ce565b5b50505050565b80600360008573ffffffffffffffffffffffffffffffffffffffff1673ffffffffffffffffffffffffffffffffffffffff1681526020019081526020016000206000828254610bcb91906116b1565b9250508190555080600360008473ffffffffffffffffffffffffffffffffffffffff1673ffffffffffffffffffffffffffffffffffffffff168152602001908152602001600020600082825401925050819055508173ffffffffffffffffffffffffffffffffffffffff168373ffffffffffffffffffffffffffffffffffffffff167fddf252ad1be2c89b69c2b068fc378daa952ba7f163c4a11628f55a4df523b3ef83604051610c7c9190610ff9565b60405180910390a3505050565b8060026000828254610c9b91906113e4565b9250508190555080600360008473ffffffffffffffffffffffffffffffffffffffff1673ffffffffffffffffffffffffffffffffffffffff168152602001908152602001600020600082825401925050819055508173ffffffffffffffffffffffffffffffffffffffff16600073ffffffffffffffffffffffffffffffffffffffff167fddf252ad1be2c89b69c2b068fc378daa952ba7f163c4a11628f55a4df523b3ef83604051610d4d9190610ff9565b60405180910390a35050565b80600360008473ffffffffffffffffffffffffffffffffffffffff1673ffffffffffffffffffffffffffffffffffffffff1681526020019081526020016000206000828254610da891906116b1565b9250508190555080600260008282540392505081905550600073ffffffffffffffffffffffffffffffffffffffff168273ffffffffffffffffffffffffffffffffffffffff167fddf252ad1be2c89b69c2b068fc378daa952ba7f163c4a11628f55a4df523b3ef83604051610e1d9190610ff9565b60405180910390a35050565b600081519050919050565b600082825260208201905092915050565b60005b83811015610e63578082015181840152602081019050610e48565b60008484015250505050565b6000601f19601f8301169050919050565b6000610e8b82610e29565b610e958185610e34565b9350610ea5818560208601610e45565b610eae81610e6f565b840191505092915050565b60006020820190508181036000830152610ed38184610e80565b905092915050565b600080fd5b600073ffffffffffffffffffffffffffffffffffffffff82169050919050565b6000610f0b82610ee0565b9050919050565b610f1b81610f00565b8114610f2657600080fd5b50565b600081359050610f3881610f12565b92915050565b6000819050919050565b610f5181610f3e565b8114610f5c57600080fd5b50565b600081359050610f6e81610f48565b92915050565b60008060408385031215610f8b57610f8a610edb565b5b6000610f9985828601610f29565b9250506020610faa85828601610f5f565b9150509250929050565b60008115159050919050565b610fc981610fb4565b82525050565b6000602082019050610fe46000830184610fc0565b92915050565b610ff381610f3e565b82525050565b600060208201905061100e6000830184610fea565b92915050565b60008060006060848603121561102d5761102c610edb565b5b600061103b86828701610f29565b935050602061104c86828701610f29565b925050604061105d86828701610f5f565b9150509250925092565b6000819050919050565b61107a81611067565b82525050565b60006020820190506110956000830184611071565b92915050565b600060ff82169050919050565b6110b18161109b565b82525050565b60006020820190506110cc60008301846110a8565b92915050565b6000602082840312156110e8576110e7610edb565b5b60006110f684828501610f29565b91505092915050565b6111088161109b565b811461111357600080fd5b50565b600081359050611125816110ff565b92915050565b61113481611067565b811461113f57600080fd5b50565b6000813590506111518161112b565b92915050565b600080600080600080600060e0888a03121561117657611175610edb565b5b60006111848a828b01610f29565b97505060206111958a828b01610f29565b96505060406111a68a828b01610f5f565b95505060606111b78a828b01610f5f565b94505060806111c88a828b01611116565b93505060a06111d98a828b01611142565b92505060c06111ea8a828b01611142565b91505092959891949750929550565b600080604083850312156112105761120f610edb565b5b600061121e85828601610f29565b925050602061122f85828601610f29565b9150509250929050565b7f4e487b7100000000000000000000000000000000000000000000000000000000600052602260045260246000fd5b6000600282049050600182168061128057607f821691505b60208210810361129357611292611239565b5b50919050565b600081905092915050565b60008190508160005260206000209050919050565b600081546112c681611268565b6112d08186611299565b945060018216600081146112eb576001811461130057611333565b60ff1983168652811515820286019350611333565b611309856112a4565b60005b8381101561132b5781548189015260018201915060208101905061130c565b838801955050505b50505092915050565b600061134882846112b9565b915081905092915050565b61135c81610f00565b82525050565b600060a0820190506113776000830188611071565b6113846020830187611071565b6113916040830186611071565b61139e6060830185610fea565b6113ab6080830184611353565b9695505050505050565b7f4e487b7100000000000000000000000000000000000000000000000000000000600052601160045260246000fd5b60006113ef82610f3e565b91506113fa83610f3e565b9250828201905080821115611412576114116113b5565b5b92915050565b7f45524332303a503a455850495245440000000000000000000000000000000000600082015250565b600061144e600f83610e34565b915061145982611418565b602082019050919050565b6000602082019050818103600083015261147d81611441565b9050919050565b7f45524332303a503a4d414c4c4541424c45000000000000000000000000000000600082015250565b60006114ba601183610e34565b91506114c582611484565b602082019050919050565b600060208201905081810360008301526114e9816114ad565b9050919050565b600060c0820190506115056000830189611071565b6115126020830188611353565b61151f6040830187611353565b61152c6060830186610fea565b6115396080830185610fea565b61154660a0830184610fea565b979650505050505050565b600081905092915050565b7f1901000000000000000000000000000000000000000000000000000000000000600082015250565b6000611592600283611551565b915061159d8261155c565b600282019050919050565b6000819050919050565b6115c36115be82611067565b6115a8565b82525050565b60006115d482611585565b91506115e082856115b2565b6020820191506115f082846115b2565b6020820191508190509392505050565b60006080820190506116156000830187611071565b61162260208301866110a8565b61162f6040830185611071565b61163c6060830184611071565b95945050505050565b7f45524332303a503a494e56414c49445f5349474e415455524500000000000000600082015250565b600061167b601983610e34565b915061168682611645565b602082019050919050565b600060208201905081810360008301526116aa8161166e565b9050919050565b60006116bc82610f3e565b91506116c783610f3e565b92508282039050818111156116df576116de6113b5565b5b9291505056fea264697066735822122085b6dbe4c01157f4a3c111dfe3c8ab60a041796876f1eb739372dbb79890049064736f6c63430008110033",
  "immutableReferences": {
    "34341": [
      {
        "length": 32,
        "start": 1167
      }
    ]
  },
  "source": "// SPDX-License-Identifier: AGPL-3.0-only\npragma solidity >=0.4.22 <0.9.0;\n\nimport { ERC20 } from \"../../ERC20.sol\";\n\ncontract MockERC20 is ERC20 {\n\n    constructor(string memory name_, string memory symbol_, uint8 decimals_) ERC20(name_, symbol_, decimals_) { }\n\n    function mint(address recipient_, uint256 amount_) external {\n        _mint(recipient_, amount_);\n    }\n\n    function burn(address owner_, uint256 amount_) external {\n        _burn(owner_, amount_);\n    }\n\n}\n",
  "sourcePath": "/Users/mdoshi/wyta/modules/erc20/contracts/test/mocks/MockERC20.sol",
  "compiler": {
    "name": "solc",
    "version": "0.8.17+commit.8df45f5f.Emscripten.clang"
  },
  "schemaVersion": "3.4.11",
  "updatedAt": "2023-01-15T01:59:56.226Z",
  "devdoc": {
    "kind": "dev",
    "methods": {
      "DOMAIN_SEPARATOR()": {
        "details": "Returns the signature domain separator.",
        "returns": {
          "domainSeparator_": "The signature domain separator."
        }
      },
      "approve(address,uint256)": {
        "details": "Function that allows one account to set the allowance of another account over their tokens.          Emits an {Approval} event.",
        "params": {
          "amount_": "Amount of tokens that have been approved.",
          "spender_": "Account that tokens are approved for."
        },
        "returns": {
          "success_": "Boolean indicating whether the operation succeeded."
        }
      },
      "decreaseAllowance(address,uint256)": {
        "details": "Function that allows one account to decrease the allowance of another account over their tokens.          Emits an {Approval} event.",
        "params": {
          "spender_": "Account that tokens are approved for.",
          "subtractedAmount_": "Amount to decrease approval by."
        },
        "returns": {
          "success_": "         Boolean indicating whether the operation succeeded."
        }
      },
      "increaseAllowance(address,uint256)": {
        "details": "Function that allows one account to increase the allowance of another account over their tokens.          Emits an {Approval} event.",
        "params": {
          "addedAmount_": "Amount to increase approval by.",
          "spender_": "Account that tokens are approved for."
        },
        "returns": {
          "success_": "    Boolean indicating whether the operation succeeded."
        }
      },
      "permit(address,address,uint256,uint256,uint8,bytes32,bytes32)": {
        "details": "Approve by signature.",
        "params": {
          "amount_": "Permit approval spend limit.",
          "deadline_": "Deadline after which the permit is invalid.",
          "owner_": "Owner address that signed the permit.",
          "r_": "ECDSA signature r component.",
          "s_": "ECDSA signature s component.",
          "spender_": "Spender of the permit.",
          "v_": "ECDSA signature v component."
        }
      },
      "transfer(address,uint256)": {
        "details": "Moves an amount of tokens from `msg.sender` to a specified account.          Emits a {Transfer} event.",
        "params": {
          "amount_": "Amount of tokens that are transferred.",
          "recipient_": "Account that receives tokens."
        },
        "returns": {
          "success_": "  Boolean indicating whether the operation succeeded."
        }
      },
      "transferFrom(address,address,uint256)": {
        "details": "Moves a pre-approved amount of tokens from a sender to a specified account.          Emits a {Transfer} event.          Emits an {Approval} event.",
        "params": {
          "amount_": "Amount of tokens that are transferred.",
          "owner_": "Account that tokens are moving from.",
          "recipient_": "Account that receives tokens."
        },
        "returns": {
          "success_": "  Boolean indicating whether the operation succeeded."
        }
      }
    },
    "version": 1
  },
  "userdoc": {
    "kind": "user",
    "methods": {},
    "version": 1
  }
}