{
  "contractName": "MockERC20_RDT",
  "abi": [
    {
      "inputs": [
        {
          "internalType": "string",
          "name": "name_",
          "type": "string"
        },
        {
          "internalType": "string",
          "name": "symbol_",
          "type": "string"
        },
        {
          "internalType": "address",
          "name": "owner_",
          "type": "address"
        },
        {
          "internalType": "address",
          "name": "asset_",
          "type": "address"
        },
        {
          "internalType": "uint256",
          "name": "precision_",
          "type": "uint256"
        }
      ],
      "stateMutability": "nonpayable",
      "type": "constructor"
    },
    {
      "anonymous": false,
      "inputs": [
        {
          "indexed": true,
          "internalType": "address",
          "name": "owner_",
          "type": "address"
        },
        {
          "indexed": true,
          "internalType": "address",
          "name": "spender_",
          "type": "address"
        },
        {
          "indexed": false,
          "internalType": "uint256",
          "name": "amount_",
          "type": "uint256"
        }
      ],
      "name": "Approval",
      "type": "event"
    },
    {
      "anonymous": false,
      "inputs": [
        {
          "indexed": true,
          "internalType": "address",
          "name": "caller_",
          "type": "address"
        },
        {
          "indexed": true,
          "internalType": "address",
          "name": "owner_",
          "type": "address"
        },
        {
          "indexed": false,
          "internalType": "uint256",
          "name": "assets_",
          "type": "uint256"
        },
        {
          "indexed": false,
          "internalType": "uint256",
          "name": "shares_",
          "type": "uint256"
        }
      ],
      "name": "Deposit",
      "type": "event"
    },
    {
      "anonymous": false,
      "inputs": [
        {
          "indexed": false,
          "internalType": "uint256",
          "name": "freeAssets_",
          "type": "uint256"
        },
        {
          "indexed": false,
          "internalType": "uint256",
          "name": "issuanceRate_",
          "type": "uint256"
        }
      ],
      "name": "IssuanceParamsUpdated",
      "type": "event"
    },
    {
      "anonymous": false,
      "inputs": [
        {
          "indexed": true,
          "internalType": "address",
          "name": "previousOwner_",
          "type": "address"
        },
        {
          "indexed": true,
          "internalType": "address",
          "name": "newOwner_",
          "type": "address"
        }
      ],
      "name": "OwnershipAccepted",
      "type": "event"
    },
    {
      "anonymous": false,
      "inputs": [
        {
          "indexed": true,
          "internalType": "address",
          "name": "owner_",
          "type": "address"
        },
        {
          "indexed": true,
          "internalType": "address",
          "name": "pendingOwner_",
          "type": "address"
        }
      ],
      "name": "PendingOwnerSet",
      "type": "event"
    },
    {
      "anonymous": false,
      "inputs": [
        {
          "indexed": true,
          "internalType": "address",
          "name": "owner_",
          "type": "address"
        },
        {
          "indexed": true,
          "internalType": "address",
          "name": "recipient_",
          "type": "address"
        },
        {
          "indexed": false,
          "internalType": "uint256",
          "name": "amount_",
          "type": "uint256"
        }
      ],
      "name": "Transfer",
      "type": "event"
    },
    {
      "anonymous": false,
      "inputs": [
        {
          "indexed": true,
          "internalType": "address",
          "name": "owner_",
          "type": "address"
        },
        {
          "indexed": false,
          "internalType": "uint256",
          "name": "vestingPeriodFinish_",
          "type": "uint256"
        }
      ],
      "name": "VestingScheduleUpdated",
      "type": "event"
    },
    {
      "anonymous": false,
      "inputs": [
        {
          "indexed": true,
          "internalType": "address",
          "name": "caller_",
          "type": "address"
        },
        {
          "indexed": true,
          "internalType": "address",
          "name": "receiver_",
          "type": "address"
        },
        {
          "indexed": true,
          "internalType": "address",
          "name": "owner_",
          "type": "address"
        },
        {
          "indexed": false,
          "internalType": "uint256",
          "name": "assets_",
          "type": "uint256"
        },
        {
          "indexed": false,
          "internalType": "uint256",
          "name": "shares_",
          "type": "uint256"
        }
      ],
      "name": "Withdraw",
      "type": "event"
    },
    {
      "inputs": [],
      "name": "DOMAIN_SEPARATOR",
      "outputs": [
        {
          "internalType": "bytes32",
          "name": "domainSeparator_",
          "type": "bytes32"
        }
      ],
      "stateMutability": "view",
      "type": "function"
    },
    {
      "inputs": [],
      "name": "PERMIT_TYPEHASH",
      "outputs": [
        {
          "internalType": "bytes32",
          "name": "",
          "type": "bytes32"
        }
      ],
      "stateMutability": "view",
      "type": "function"
    },
    {
      "inputs": [],
      "name": "acceptOwnership",
      "outputs": [],
      "stateMutability": "nonpayable",
      "type": "function"
    },
    {
      "inputs": [
        {
          "internalType": "address",
          "name": "",
          "type": "address"
        },
        {
          "internalType": "address",
          "name": "",
          "type": "address"
        }
      ],
      "name": "allowance",
      "outputs": [
        {
          "internalType": "uint256",
          "name": "",
          "type": "uint256"
        }
      ],
      "stateMutability": "view",
      "type": "function"
    },
    {
      "inputs": [
        {
          "internalType": "address",
          "name": "spender_",
          "type": "address"
        },
        {
          "internalType": "uint256",
          "name": "amount_",
          "type": "uint256"
        }
      ],
      "name": "approve",
      "outputs": [
        {
          "internalType": "bool",
          "name": "success_",
          "type": "bool"
        }
      ],
      "stateMutability": "nonpayable",
      "type": "function"
    },
    {
      "inputs": [],
      "name": "asset",
      "outputs": [
        {
          "internalType": "address",
          "name": "",
          "type": "address"
        }
      ],
      "stateMutability": "view",
      "type": "function"
    },
    {
      "inputs": [
        {
          "internalType": "address",
          "name": "",
          "type": "address"
        }
      ],
      "name": "balanceOf",
      "outputs": [
        {
          "internalType": "uint256",
          "name": "",
          "type": "uint256"
        }
      ],
      "stateMutability": "view",
      "type": "function"
    },
    {
      "inputs": [
        {
          "internalType": "address",
          "name": "account_",
          "type": "address"
        }
      ],
      "name": "balanceOfAssets",
      "outputs": [
        {
          "internalType": "uint256",
          "name": "balanceOfAssets_",
          "type": "uint256"
        }
      ],
      "stateMutability": "view",
      "type": "function"
    },
    {
      "inputs": [
        {
          "internalType": "uint256",
          "name": "shares_",
          "type": "uint256"
        }
      ],
      "name": "convertToAssets",
      "outputs": [
        {
          "internalType": "uint256",
          "name": "assets_",
          "type": "uint256"
        }
      ],
      "stateMutability": "view",
      "type": "function"
    },
    {
      "inputs": [
        {
          "internalType": "uint256",
          "name": "assets_",
          "type": "uint256"
        }
      ],
      "name": "convertToShares",
      "outputs": [
        {
          "internalType": "uint256",
          "name": "shares_",
          "type": "uint256"
        }
      ],
      "stateMutability": "view",
      "type": "function"
    },
    {
      "inputs": [],
      "name": "decimals",
      "outputs": [
        {
          "internalType": "uint8",
          "name": "",
          "type": "uint8"
        }
      ],
      "stateMutability": "view",
      "type": "function"
    },
    {
      "inputs": [
        {
          "internalType": "address",
          "name": "spender_",
          "type": "address"
        },
        {
          "internalType": "uint256",
          "name": "subtractedAmount_",
          "type": "uint256"
        }
      ],
      "name": "decreaseAllowance",
      "outputs": [
        {
          "internalType": "bool",
          "name": "success_",
          "type": "bool"
        }
      ],
      "stateMutability": "nonpayable",
      "type": "function"
    },
    {
      "inputs": [
        {
          "internalType": "uint256",
          "name": "assets_",
          "type": "uint256"
        },
        {
          "internalType": "address",
          "name": "receiver_",
          "type": "address"
        }
      ],
      "name": "deposit",
      "outputs": [
        {
          "internalType": "uint256",
          "name": "shares_",
          "type": "uint256"
        }
      ],
      "stateMutability": "nonpayable",
      "type": "function"
    },
    {
      "inputs": [
        {
          "internalType": "uint256",
          "name": "assets_",
          "type": "uint256"
        },
        {
          "internalType": "address",
          "name": "receiver_",
          "type": "address"
        },
        {
          "internalType": "uint256",
          "name": "deadline_",
          "type": "uint256"
        },
        {
          "internalType": "uint8",
          "name": "v_",
          "type": "uint8"
        },
        {
          "internalType": "bytes32",
          "name": "r_",
          "type": "bytes32"
        },
        {
          "internalType": "bytes32",
          "name": "s_",
          "type": "bytes32"
        }
      ],
      "name": "depositWithPermit",
      "outputs": [
        {
          "internalType": "uint256",
          "name": "shares_",
          "type": "uint256"
        }
      ],
      "stateMutability": "nonpayable",
      "type": "function"
    },
    {
      "inputs": [],
      "name": "freeAssets",
      "outputs": [
        {
          "internalType": "uint256",
          "name": "",
          "type": "uint256"
        }
      ],
      "stateMutability": "view",
      "type": "function"
    },
    {
      "inputs": [
        {
          "internalType": "address",
          "name": "spender_",
          "type": "address"
        },
        {
          "internalType": "uint256",
          "name": "addedAmount_",
          "type": "uint256"
        }
      ],
      "name": "increaseAllowance",
      "outputs": [
        {
          "internalType": "bool",
          "name": "success_",
          "type": "bool"
        }
      ],
      "stateMutability": "nonpayable",
      "type": "function"
    },
    {
      "inputs": [],
      "name": "issuanceRate",
      "outputs": [
        {
          "internalType": "uint256",
          "name": "",
          "type": "uint256"
        }
      ],
      "stateMutability": "view",
      "type": "function"
    },
    {
      "inputs": [],
      "name": "lastUpdated",
      "outputs": [
        {
          "internalType": "uint256",
          "name": "",
          "type": "uint256"
        }
      ],
      "stateMutability": "view",
      "type": "function"
    },
    {
      "inputs": [
        {
          "internalType": "address",
          "name": "receiver_",
          "type": "address"
        }
      ],
      "name": "maxDeposit",
      "outputs": [
        {
          "internalType": "uint256",
          "name": "maxAssets_",
          "type": "uint256"
        }
      ],
      "stateMutability": "pure",
      "type": "function"
    },
    {
      "inputs": [
        {
          "internalType": "address",
          "name": "receiver_",
          "type": "address"
        }
      ],
      "name": "maxMint",
      "outputs": [
        {
          "internalType": "uint256",
          "name": "maxShares_",
          "type": "uint256"
        }
      ],
      "stateMutability": "pure",
      "type": "function"
    },
    {
      "inputs": [
        {
          "internalType": "address",
          "name": "owner_",
          "type": "address"
        }
      ],
      "name": "maxRedeem",
      "outputs": [
        {
          "internalType": "uint256",
          "name": "maxShares_",
          "type": "uint256"
        }
      ],
      "stateMutability": "view",
      "type": "function"
    },
    {
      "inputs": [
        {
          "internalType": "address",
          "name": "owner_",
          "type": "address"
        }
      ],
      "name": "maxWithdraw",
      "outputs": [
        {
          "internalType": "uint256",
          "name": "maxAssets_",
          "type": "uint256"
        }
      ],
      "stateMutability": "view",
      "type": "function"
    },
    {
      "inputs": [
        {
          "internalType": "uint256",
          "name": "shares_",
          "type": "uint256"
        },
        {
          "internalType": "address",
          "name": "receiver_",
          "type": "address"
        },
        {
          "internalType": "uint256",
          "name": "maxAssets_",
          "type": "uint256"
        },
        {
          "internalType": "uint256",
          "name": "deadline_",
          "type": "uint256"
        },
        {
          "internalType": "uint8",
          "name": "v_",
          "type": "uint8"
        },
        {
          "internalType": "bytes32",
          "name": "r_",
          "type": "bytes32"
        },
        {
          "internalType": "bytes32",
          "name": "s_",
          "type": "bytes32"
        }
      ],
      "name": "mintWithPermit",
      "outputs": [
        {
          "internalType": "uint256",
          "name": "assets_",
          "type": "uint256"
        }
      ],
      "stateMutability": "nonpayable",
      "type": "function"
    },
    {
      "inputs": [],
      "name": "name",
      "outputs": [
        {
          "internalType": "string",
          "name": "",
          "type": "string"
        }
      ],
      "stateMutability": "view",
      "type": "function"
    },
    {
      "inputs": [
        {
          "internalType": "address",
          "name": "",
          "type": "address"
        }
      ],
      "name": "nonces",
      "outputs": [
        {
          "internalType": "uint256",
          "name": "",
          "type": "uint256"
        }
      ],
      "stateMutability": "view",
      "type": "function"
    },
    {
      "inputs": [],
      "name": "owner",
      "outputs": [
        {
          "internalType": "address",
          "name": "",
          "type": "address"
        }
      ],
      "stateMutability": "view",
      "type": "function"
    },
    {
      "inputs": [],
      "name": "pendingOwner",
      "outputs": [
        {
          "internalType": "address",
          "name": "",
          "type": "address"
        }
      ],
      "stateMutability": "view",
      "type": "function"
    },
    {
      "inputs": [
        {
          "internalType": "address",
          "name": "owner_",
          "type": "address"
        },
        {
          "internalType": "address",
          "name": "spender_",
          "type": "address"
        },
        {
          "internalType": "uint256",
          "name": "amount_",
          "type": "uint256"
        },
        {
          "internalType": "uint256",
          "name": "deadline_",
          "type": "uint256"
        },
        {
          "internalType": "uint8",
          "name": "v_",
          "type": "uint8"
        },
        {
          "internalType": "bytes32",
          "name": "r_",
          "type": "bytes32"
        },
        {
          "internalType": "bytes32",
          "name": "s_",
          "type": "bytes32"
        }
      ],
      "name": "permit",
      "outputs": [],
      "stateMutability": "nonpayable",
      "type": "function"
    },
    {
      "inputs": [],
      "name": "precision",
      "outputs": [
        {
          "internalType": "uint256",
          "name": "",
          "type": "uint256"
        }
      ],
      "stateMutability": "view",
      "type": "function"
    },
    {
      "inputs": [
        {
          "internalType": "uint256",
          "name": "assets_",
          "type": "uint256"
        }
      ],
      "name": "previewDeposit",
      "outputs": [
        {
          "internalType": "uint256",
          "name": "shares_",
          "type": "uint256"
        }
      ],
      "stateMutability": "view",
      "type": "function"
    },
    {
      "inputs": [
        {
          "internalType": "uint256",
          "name": "shares_",
          "type": "uint256"
        }
      ],
      "name": "previewMint",
      "outputs": [
        {
          "internalType": "uint256",
          "name": "assets_",
          "type": "uint256"
        }
      ],
      "stateMutability": "view",
      "type": "function"
    },
    {
      "inputs": [
        {
          "internalType": "uint256",
          "name": "shares_",
          "type": "uint256"
        }
      ],
      "name": "previewRedeem",
      "outputs": [
        {
          "internalType": "uint256",
          "name": "assets_",
          "type": "uint256"
        }
      ],
      "stateMutability": "view",
      "type": "function"
    },
    {
      "inputs": [
        {
          "internalType": "uint256",
          "name": "assets_",
          "type": "uint256"
        }
      ],
      "name": "previewWithdraw",
      "outputs": [
        {
          "internalType": "uint256",
          "name": "shares_",
          "type": "uint256"
        }
      ],
      "stateMutability": "view",
      "type": "function"
    },
    {
      "inputs": [
        {
          "internalType": "uint256",
          "name": "shares_",
          "type": "uint256"
        },
        {
          "internalType": "address",
          "name": "receiver_",
          "type": "address"
        },
        {
          "internalType": "address",
          "name": "owner_",
          "type": "address"
        }
      ],
      "name": "redeem",
      "outputs": [
        {
          "internalType": "uint256",
          "name": "assets_",
          "type": "uint256"
        }
      ],
      "stateMutability": "nonpayable",
      "type": "function"
    },
    {
      "inputs": [
        {
          "internalType": "address",
          "name": "pendingOwner_",
          "type": "address"
        }
      ],
      "name": "setPendingOwner",
      "outputs": [],
      "stateMutability": "nonpayable",
      "type": "function"
    },
    {
      "inputs": [],
      "name": "symbol",
      "outputs": [
        {
          "internalType": "string",
          "name": "",
          "type": "string"
        }
      ],
      "stateMutability": "view",
      "type": "function"
    },
    {
      "inputs": [],
      "name": "totalAssets",
      "outputs": [
        {
          "internalType": "uint256",
          "name": "totalManagedAssets_",
          "type": "uint256"
        }
      ],
      "stateMutability": "view",
      "type": "function"
    },
    {
      "inputs": [],
      "name": "totalSupply",
      "outputs": [
        {
          "internalType": "uint256",
          "name": "",
          "type": "uint256"
        }
      ],
      "stateMutability": "view",
      "type": "function"
    },
    {
      "inputs": [
        {
          "internalType": "address",
          "name": "recipient_",
          "type": "address"
        },
        {
          "internalType": "uint256",
          "name": "amount_",
          "type": "uint256"
        }
      ],
      "name": "transfer",
      "outputs": [
        {
          "internalType": "bool",
          "name": "success_",
          "type": "bool"
        }
      ],
      "stateMutability": "nonpayable",
      "type": "function"
    },
    {
      "inputs": [
        {
          "internalType": "address",
          "name": "owner_",
          "type": "address"
        },
        {
          "internalType": "address",
          "name": "recipient_",
          "type": "address"
        },
        {
          "internalType": "uint256",
          "name": "amount_",
          "type": "uint256"
        }
      ],
      "name": "transferFrom",
      "outputs": [
        {
          "internalType": "bool",
          "name": "success_",
          "type": "bool"
        }
      ],
      "stateMutability": "nonpayable",
      "type": "function"
    },
    {
      "inputs": [
        {
          "internalType": "uint256",
          "name": "vestingPeriod_",
          "type": "uint256"
        }
      ],
      "name": "updateVestingSchedule",
      "outputs": [
        {
          "internalType": "uint256",
          "name": "issuanceRate_",
          "type": "uint256"
        },
        {
          "internalType": "uint256",
          "name": "freeAssets_",
          "type": "uint256"
        }
      ],
      "stateMutability": "nonpayable",
      "type": "function"
    },
    {
      "inputs": [],
      "name": "vestingPeriodFinish",
      "outputs": [
        {
          "internalType": "uint256",
          "name": "",
          "type": "uint256"
        }
      ],
      "stateMutability": "view",
      "type": "function"
    },
    {
      "inputs": [
        {
          "internalType": "uint256",
          "name": "assets_",
          "type": "uint256"
        },
        {
          "internalType": "address",
          "name": "receiver_",
          "type": "address"
        },
        {
          "internalType": "address",
          "name": "owner_",
          "type": "address"
        }
      ],
      "name": "withdraw",
      "outputs": [
        {
          "internalType": "uint256",
          "name": "shares_",
          "type": "uint256"
        }
      ],
      "stateMutability": "nonpayable",
      "type": "function"
    },
    {
      "inputs": [
        {
          "internalType": "address",
          "name": "recipient_",
          "type": "address"
        },
        {
          "internalType": "uint256",
          "name": "amount_",
          "type": "uint256"
        }
      ],
      "name": "mint",
      "outputs": [],
      "stateMutability": "nonpayable",
      "type": "function"
    },
    {
      "inputs": [
        {
          "internalType": "uint256",
          "name": "shares_",
          "type": "uint256"
        },
        {
          "internalType": "address",
          "name": "receiver_",
          "type": "address"
        }
      ],
      "name": "mint",
      "outputs": [
        {
          "internalType": "uint256",
          "name": "assets_",
          "type": "uint256"
        }
      ],
      "stateMutability": "nonpayable",
      "type": "function"
    },
    {
      "inputs": [
        {
          "internalType": "address",
          "name": "owner_",
          "type": "address"
        },
        {
          "internalType": "uint256",
          "name": "amount_",
          "type": "uint256"
        }
      ],
      "name": "burn",
      "outputs": [],
      "stateMutability": "nonpayable",
      "type": "function"
    }
  ],
  "bytecode": "0x60c06040526001600d553480156200001657600080fd5b50604051620044fc380380620044fc83398181016040528101906200003c919062000427565b848484848484848373ffffffffffffffffffffffffffffffffffffffff1663313ce5676040518163ffffffff1660e01b8152600401602060405180830381865afa1580156200008f573d6000803e3d6000fd5b505050506040513d601f19601f82011682018060405250810190620000b591906200052b565b8260009081620000c691906200079e565b508160019081620000d891906200079e565b508060ff1660808160ff1681525050505050600073ffffffffffffffffffffffffffffffffffffffff1683600760006101000a81548173ffffffffffffffffffffffffffffffffffffffff021916908373ffffffffffffffffffffffffffffffffffffffff160217905573ffffffffffffffffffffffffffffffffffffffff16036200019b576040517f08c379a00000000000000000000000000000000000000000000000000000000081526004016200019290620008e6565b60405180910390fd5b81600660006101000a81548173ffffffffffffffffffffffffffffffffffffffff021916908373ffffffffffffffffffffffffffffffffffffffff1602179055508060a081815250505050505050505050505062000908565b6000604051905090565b600080fd5b600080fd5b600080fd5b600080fd5b6000601f19601f8301169050919050565b7f4e487b7100000000000000000000000000000000000000000000000000000000600052604160045260246000fd5b6200025d8262000212565b810181811067ffffffffffffffff821117156200027f576200027e62000223565b5b80604052505050565b600062000294620001f4565b9050620002a2828262000252565b919050565b600067ffffffffffffffff821115620002c557620002c462000223565b5b620002d08262000212565b9050602081019050919050565b60005b83811015620002fd578082015181840152602081019050620002e0565b60008484015250505050565b6000620003206200031a84620002a7565b62000288565b9050828152602081018484840111156200033f576200033e6200020d565b5b6200034c848285620002dd565b509392505050565b600082601f8301126200036c576200036b62000208565b5b81516200037e84826020860162000309565b91505092915050565b600073ffffffffffffffffffffffffffffffffffffffff82169050919050565b6000620003b48262000387565b9050919050565b620003c681620003a7565b8114620003d257600080fd5b50565b600081519050620003e681620003bb565b92915050565b6000819050919050565b6200040181620003ec565b81146200040d57600080fd5b50565b6000815190506200042181620003f6565b92915050565b600080600080600060a08688031215620004465762000445620001fe565b5b600086015167ffffffffffffffff81111562000467576200046662000203565b5b620004758882890162000354565b955050602086015167ffffffffffffffff81111562000499576200049862000203565b5b620004a78882890162000354565b9450506040620004ba88828901620003d5565b9350506060620004cd88828901620003d5565b9250506080620004e08882890162000410565b9150509295509295909350565b600060ff82169050919050565b6200050581620004ed565b81146200051157600080fd5b50565b6000815190506200052581620004fa565b92915050565b600060208284031215620005445762000543620001fe565b5b6000620005548482850162000514565b91505092915050565b600081519050919050565b7f4e487b7100000000000000000000000000000000000000000000000000000000600052602260045260246000fd5b60006002820490506001821680620005b057607f821691505b602082108103620005c657620005c562000568565b5b50919050565b60008190508160005260206000209050919050565b60006020601f8301049050919050565b600082821b905092915050565b600060088302620006307fffffffffffffffffffffffffffffffffffffffffffffffffffffffffffffffff82620005f1565b6200063c8683620005f1565b95508019841693508086168417925050509392505050565b6000819050919050565b60006200067f620006796200067384620003ec565b62000654565b620003ec565b9050919050565b6000819050919050565b6200069b836200065e565b620006b3620006aa8262000686565b848454620005fe565b825550505050565b600090565b620006ca620006bb565b620006d781848462000690565b505050565b5b81811015620006ff57620006f3600082620006c0565b600181019050620006dd565b5050565b601f8211156200074e576200071881620005cc565b6200072384620005e1565b8101602085101562000733578190505b6200074b6200074285620005e1565b830182620006dc565b50505b505050565b600082821c905092915050565b6000620007736000198460080262000753565b1980831691505092915050565b60006200078e838362000760565b9150826002028217905092915050565b620007a9826200055d565b67ffffffffffffffff811115620007c557620007c462000223565b5b620007d1825462000597565b620007de82828562000703565b600060209050601f83116001811462000816576000841562000801578287015190505b6200080d858262000780565b8655506200087d565b601f1984166200082686620005cc565b60005b82811015620008505784890151825560018201915060208501945060208101905062000829565b868310156200087057848901516200086c601f89168262000760565b8355505b6001600288020188555050505b505050505050565b600082825260208201905092915050565b7f5244543a433a4f574e45525f5a45524f5f414444524553530000000000000000600082015250565b6000620008ce60188362000885565b9150620008db8262000896565b602082019050919050565b600060208201905081810360008301526200090181620008bf565b9050919050565b60805160a051613bc06200093c60003960008181610a03015281816116cb0152611aef01526000610bc10152613bc06000f3fe608060405234801561001057600080fd5b506004361061028a5760003560e01c80637ecebe001161015c578063c42069ec116100ce578063d505accf11610087578063d505accf146108b1578063d905777e146108cd578063dd62ed3e146108fd578063e13aa9901461092d578063e30c39781461095e578063ef8b30f71461097c5761028a565b8063c42069ec146107c9578063c63d75b6146107e5578063c6e6f59214610815578063ce96cb7714610845578063d0b06f5d14610875578063d3b5dc3b146108935761028a565b80639dc29fac116101205780639dc29fac146106bd578063a457c2d7146106d9578063a9059cbb14610709578063b3d7f6b914610739578063b460af9414610769578063ba087652146107995761028a565b80637ecebe00146105f15780638da5cb5b146106215780639159b2061461063f57806394bf804d1461066f57806395d89b411461069f5761028a565b806338d52e0f116102005780634cdad506116101b95780634cdad506146104f757806350921b231461052757806360dd37d9146105575780636e553f651461058757806370a08231146105b757806379ba5097146105e75761028a565b806338d52e0f14610421578063395093511461043f5780633c2f77731461046f5780633c9ae2ba1461048d578063402d267d146104ab57806340c10f19146104db5761028a565b806311f240ac1161025257806311f240ac1461035b57806318160ddd1461037957806323b872dd1461039757806330adf81f146103c7578063313ce567146103e55780633644e515146104035761028a565b806301e1d1141461028f57806306fdde03146102ad57806307a2d13a146102cb578063095ea7b3146102fb5780630a28a4771461032b575b600080fd5b6102976109ac565b6040516102a4919061283c565b60405180910390f35b6102b5610a4c565b6040516102c291906128e7565b60405180910390f35b6102e560048036038101906102e0919061293a565b610ada565b6040516102f2919061283c565b60405180910390f35b610315600480360381019061031091906129c5565b610b17565b6040516103229190612a20565b60405180910390f35b6103456004803603810190610340919061293a565b610b2e565b604051610352919061283c565b60405180910390f35b610363610b69565b604051610370919061283c565b60405180910390f35b610381610b6f565b60405161038e919061283c565b60405180910390f35b6103b160048036038101906103ac9190612a3b565b610b75565b6040516103be9190612a20565b60405180910390f35b6103cf610b98565b6040516103dc9190612aa7565b60405180910390f35b6103ed610bbf565b6040516103fa9190612ade565b60405180910390f35b61040b610be3565b6040516104189190612aa7565b60405180910390f35b610429610c8b565b6040516104369190612b08565b60405180910390f35b610459600480360381019061045491906129c5565b610cb1565b6040516104669190612a20565b60405180910390f35b610477610d4f565b604051610484919061283c565b60405180910390f35b610495610d55565b6040516104a2919061283c565b60405180910390f35b6104c560048036038101906104c09190612b23565b610d5b565b6040516104d2919061283c565b60405180910390f35b6104f560048036038101906104f091906129c5565b610d85565b005b610511600480360381019061050c919061293a565b610d93565b60405161051e919061283c565b60405180910390f35b610541600480360381019061053c9190612ba8565b610da5565b60405161054e919061283c565b60405180910390f35b610571600480360381019061056c9190612c35565b610eb6565b60405161057e919061283c565b60405180910390f35b6105a1600480360381019061059c9190612cd7565b61100b565b6040516105ae919061283c565b60405180910390f35b6105d160048036038101906105cc9190612b23565b61107f565b6040516105de919061283c565b60405180910390f35b6105ef611097565b005b61060b60048036038101906106069190612b23565b611228565b604051610618919061283c565b60405180910390f35b610629611240565b6040516106369190612b08565b60405180910390f35b61065960048036038101906106549190612b23565b611266565b604051610666919061283c565b60405180910390f35b61068960048036038101906106849190612cd7565b6112b7565b604051610696919061283c565b60405180910390f35b6106a761132b565b6040516106b491906128e7565b60405180910390f35b6106d760048036038101906106d291906129c5565b6113b9565b005b6106f360048036038101906106ee91906129c5565b6113c7565b6040516107009190612a20565b60405180910390f35b610723600480360381019061071e91906129c5565b6113de565b6040516107309190612a20565b60405180910390f35b610753600480360381019061074e919061293a565b6113f5565b604051610760919061283c565b60405180910390f35b610783600480360381019061077e9190612d17565b611430565b604051610790919061283c565b60405180910390f35b6107b360048036038101906107ae9190612d17565b6114a6565b6040516107c0919061283c565b60405180910390f35b6107e360048036038101906107de9190612b23565b61151c565b005b6107ff60048036038101906107fa9190612b23565b61164a565b60405161080c919061283c565b60405180910390f35b61082f600480360381019061082a919061293a565b611674565b60405161083c919061283c565b60405180910390f35b61085f600480360381019061085a9190612b23565b6116b1565b60405161086c919061283c565b60405180910390f35b61087d6116c3565b60405161088a919061283c565b60405180910390f35b61089b6116c9565b6040516108a8919061283c565b60405180910390f35b6108cb60048036038101906108c69190612d6a565b6116ed565b005b6108e760048036038101906108e29190612b23565b611997565b6040516108f4919061283c565b60405180910390f35b61091760048036038101906109129190612e0c565b6119e0565b604051610924919061283c565b60405180910390f35b6109476004803603810190610942919061293a565b611a05565b604051610955929190612e4c565b60405180910390f35b610966611c75565b6040516109739190612b08565b60405180910390f35b6109966004803603810190610991919061293a565b611c9b565b6040516109a3919061283c565b60405180910390f35b600080600a549050600081036109c757600954915050610a49565b6000600c5490506000600b54905060008242116109ef5781426109ea9190612ea4565b6109fc565b81836109fb9190612ea4565b5b90506009547f00000000000000000000000000000000000000000000000000000000000000008286610a2e9190612ed8565b610a389190612f49565b610a429190612f7a565b9450505050505b90565b60008054610a5990612fdd565b80601f0160208091040260200160405190810160405280929190818152602001828054610a8590612fdd565b8015610ad25780601f10610aa757610100808354040283529160200191610ad2565b820191906000526020600020905b815481529060010190602001808311610ab557829003601f168201915b505050505081565b600080600254905060008114610b0d5780610af36109ac565b84610afe9190612ed8565b610b089190612f49565b610b0f565b825b915050919050565b6000610b24338484611cad565b6001905092915050565b600080600254905060008114610b5f57610b5a8184610b4d9190612ed8565b610b556109ac565b611d96565b610b61565b825b915050919050565b60095481565b60025481565b6000610b82843384611dd5565b610b8d848484611e9a565b600190509392505050565b7f6e71edae12b1b97f4d1f60370fef10105fa2faae0126114a169c64845d6126c960001b81565b7f000000000000000000000000000000000000000000000000000000000000000081565b60007f8b73c3c69bb8fe3d512ecc4cf759cc79239f7b179b0ffacaa9a75d522b39400f6000604051610c1591906130b1565b60405180910390206040518060400160405280600181526020017f3100000000000000000000000000000000000000000000000000000000000000815250805190602001204630604051602001610c709594939291906130c8565b60405160208183030381529060405280519060200120905090565b600660009054906101000a900473ffffffffffffffffffffffffffffffffffffffff1681565b6000610d45338484600460003373ffffffffffffffffffffffffffffffffffffffff1673ffffffffffffffffffffffffffffffffffffffff16815260200190815260200160002060008873ffffffffffffffffffffffffffffffffffffffff1673ffffffffffffffffffffffffffffffffffffffff16815260200190815260200160002054610d409190612f7a565b611cad565b6001905092915050565b600c5481565b600a5481565b60007fffffffffffffffffffffffffffffffffffffffffffffffffffffffffffffffff9050919050565b610d8f8282611fa7565b5050565b6000610d9e82610ada565b9050919050565b60006001600d5414610dec576040517f08c379a0000000000000000000000000000000000000000000000000000000008152600401610de390613167565b60405180910390fd5b6002600d81905550600660009054906101000a900473ffffffffffffffffffffffffffffffffffffffff1673ffffffffffffffffffffffffffffffffffffffff1663d505accf33308a898989896040518863ffffffff1660e01b8152600401610e5b9796959493929190613187565b600060405180830381600087803b158015610e7557600080fd5b505af1158015610e89573d6000803e3d6000fd5b50505050610ea4610e9988611c9b565b915081888833612077565b6001600d819055509695505050505050565b60006001600d5414610efd576040517f08c379a0000000000000000000000000000000000000000000000000000000008152600401610ef490613167565b60405180910390fd5b6002600d8190555085610f0f896113f5565b9150811115610f53576040517f08c379a0000000000000000000000000000000000000000000000000000000008152600401610f4a90613242565b60405180910390fd5b600660009054906101000a900473ffffffffffffffffffffffffffffffffffffffff1673ffffffffffffffffffffffffffffffffffffffff1663d505accf333089898989896040518863ffffffff1660e01b8152600401610fba9796959493929190613187565b600060405180830381600087803b158015610fd457600080fd5b505af1158015610fe8573d6000803e3d6000fd5b50505050610ff888828933612077565b6001600d81905550979650505050505050565b60006001600d5414611052576040517f08c379a000000000000000000000000000000000000000000000000000000000815260040161104990613167565b60405180910390fd5b6002600d8190555061107161106684611c9b565b915081848433612077565b6001600d8190555092915050565b60036020528060005260406000206000915090505481565b600860009054906101000a900473ffffffffffffffffffffffffffffffffffffffff1673ffffffffffffffffffffffffffffffffffffffff163373ffffffffffffffffffffffffffffffffffffffff1614611127576040517f08c379a000000000000000000000000000000000000000000000000000000000815260040161111e906132ae565b60405180910390fd5b3373ffffffffffffffffffffffffffffffffffffffff16600760009054906101000a900473ffffffffffffffffffffffffffffffffffffffff1673ffffffffffffffffffffffffffffffffffffffff167f357bdeb5828fa83945f38a88510ce5cd7d628dafb346d767efbc693149fdd97c60405160405180910390a333600760006101000a81548173ffffffffffffffffffffffffffffffffffffffff021916908373ffffffffffffffffffffffffffffffffffffffff1602179055506000600860006101000a81548173ffffffffffffffffffffffffffffffffffffffff021916908373ffffffffffffffffffffffffffffffffffffffff160217905550565b60056020528060005260406000206000915090505481565b600760009054906101000a900473ffffffffffffffffffffffffffffffffffffffff1681565b60006112b0600360008473ffffffffffffffffffffffffffffffffffffffff1673ffffffffffffffffffffffffffffffffffffffff16815260200190815260200160002054610ada565b9050919050565b60006001600d54146112fe576040517f08c379a00000000000000000000000000000000000000000000000000000000081526004016112f590613167565b60405180910390fd5b6002600d8190555061131d83611313856113f5565b9250828433612077565b6001600d8190555092915050565b6001805461133890612fdd565b80601f016020809104026020016040519081016040528092919081815260200182805461136490612fdd565b80156113b15780601f10611386576101008083540402835291602001916113b1565b820191906000526020600020905b81548152906001019060200180831161139457829003601f168201915b505050505081565b6113c382826122b3565b5050565b60006113d4338484611dd5565b6001905092915050565b60006113eb338484611e9a565b6001905092915050565b600080600254905060008114611426576114216114106109ac565b8461141b9190612ed8565b82611d96565b611428565b825b915050919050565b60006001600d5414611477576040517f08c379a000000000000000000000000000000000000000000000000000000000815260040161146e90613167565b60405180910390fd5b6002600d8190555061149761148b85610b2e565b91508185858533612383565b6001600d819055509392505050565b60006001600d54146114ed576040517f08c379a00000000000000000000000000000000000000000000000000000000081526004016114e490613167565b60405180910390fd5b6002600d8190555061150d8461150286610d93565b925082858533612383565b6001600d819055509392505050565b600760009054906101000a900473ffffffffffffffffffffffffffffffffffffffff1673ffffffffffffffffffffffffffffffffffffffff163373ffffffffffffffffffffffffffffffffffffffff16146115ac576040517f08c379a00000000000000000000000000000000000000000000000000000000081526004016115a39061331a565b60405180910390fd5b80600860006101000a81548173ffffffffffffffffffffffffffffffffffffffff021916908373ffffffffffffffffffffffffffffffffffffffff1602179055508073ffffffffffffffffffffffffffffffffffffffff163373ffffffffffffffffffffffffffffffffffffffff167fa86864fa6b65f969d5ac8391ddaac6a0eba3f41386cbf6e78c3e4d6c59eb115f60405160405180910390a350565b60007fffffffffffffffffffffffffffffffffffffffffffffffffffffffffffffffff9050919050565b6000806002549050600081146116a75761168c6109ac565b81846116989190612ed8565b6116a29190612f49565b6116a9565b825b915050919050565b60006116bc82611266565b9050919050565b600b5481565b7f000000000000000000000000000000000000000000000000000000000000000081565b42841015611730576040517f08c379a000000000000000000000000000000000000000000000000000000000815260040161172790613386565b60405180910390fd5b7f7fffffffffffffffffffffffffffffff5d576e7357a4501ddfe92f46681b20a08160001c111580156117745750601b8360ff1614806117735750601c8360ff16145b5b6117b3576040517f08c379a00000000000000000000000000000000000000000000000000000000081526004016117aa906133f2565b60405180910390fd5b60006117bd610be3565b7f6e71edae12b1b97f4d1f60370fef10105fa2faae0126114a169c64845d6126c960001b898989600560008e73ffffffffffffffffffffffffffffffffffffffff1673ffffffffffffffffffffffffffffffffffffffff1681526020019081526020016000206000815480929190600101919050558a60405160200161184896959493929190613412565b6040516020818303038152906040528051906020012060405160200161186f9291906134eb565b6040516020818303038152906040528051906020012090506000600182868686604051600081526020016040526040516118ac9493929190613522565b6020604051602081039080840390855afa1580156118ce573d6000803e3d6000fd5b5050506020604051035190508873ffffffffffffffffffffffffffffffffffffffff168173ffffffffffffffffffffffffffffffffffffffff161480156119425750600073ffffffffffffffffffffffffffffffffffffffff168973ffffffffffffffffffffffffffffffffffffffff1614155b611981576040517f08c379a0000000000000000000000000000000000000000000000000000000008152600401611978906135b3565b60405180910390fd5b505061198e878787611cad565b50505050505050565b6000600360008373ffffffffffffffffffffffffffffffffffffffff1673ffffffffffffffffffffffffffffffffffffffff168152602001908152602001600020549050919050565b6004602052816000526040600020602052806000526040600020600091509150505481565b600080600760009054906101000a900473ffffffffffffffffffffffffffffffffffffffff1673ffffffffffffffffffffffffffffffffffffffff163373ffffffffffffffffffffffffffffffffffffffff1614611a98576040517f08c379a0000000000000000000000000000000000000000000000000000000008152600401611a8f9061361f565b60405180910390fd5b600060025403611add576040517f08c379a0000000000000000000000000000000000000000000000000000000008152600401611ad49061368b565b60405180910390fd5b611ae56109ac565b60098190559050827f000000000000000000000000000000000000000000000000000000000000000082600660009054906101000a900473ffffffffffffffffffffffffffffffffffffffff1673ffffffffffffffffffffffffffffffffffffffff166370a08231306040518263ffffffff1660e01b8152600401611b6a9190612b08565b602060405180830381865afa158015611b87573d6000803e3d6000fd5b505050506040513d601f19601f82011682018060405250810190611bab91906136c0565b611bb59190612ea4565b611bbf9190612ed8565b611bc99190612f49565b600a81905591508242600b819055611be19190612f7a565b600c819055507f68b521a89bf844ff03e484d89fd64ce292a698ec522170f0dad7ecd11c2dc8fa8183604051611c18929190612e4c565b60405180910390a13373ffffffffffffffffffffffffffffffffffffffff167f8c84e3b4df93f5b7c8d4ab6647708f5b14cacc124e22908187e30695ec54bab3600c54604051611c68919061283c565b60405180910390a2915091565b600860009054906101000a900473ffffffffffffffffffffffffffffffffffffffff1681565b6000611ca682611674565b9050919050565b8173ffffffffffffffffffffffffffffffffffffffff168373ffffffffffffffffffffffffffffffffffffffff167f8c5be1e5ebec7d5bd14f71427d1e84f3dd0314c0f7b2291e5b200ac8c7c3b92583600460008873ffffffffffffffffffffffffffffffffffffffff1673ffffffffffffffffffffffffffffffffffffffff16815260200190815260200160002060008773ffffffffffffffffffffffffffffffffffffffff1673ffffffffffffffffffffffffffffffffffffffff168152602001908152602001600020819055604051611d89919061283c565b60405180910390a3505050565b6000808284611da591906136ed565b11611db1576000611db4565b60015b60ff168284611dc39190612f49565b611dcd9190612f7a565b905092915050565b6000600460008573ffffffffffffffffffffffffffffffffffffffff1673ffffffffffffffffffffffffffffffffffffffff16815260200190815260200160002060008473ffffffffffffffffffffffffffffffffffffffff1673ffffffffffffffffffffffffffffffffffffffff1681526020019081526020016000205490507fffffffffffffffffffffffffffffffffffffffffffffffffffffffffffffffff8114611e9457611e9384848484611e8e9190612ea4565b611cad565b5b50505050565b80600360008573ffffffffffffffffffffffffffffffffffffffff1673ffffffffffffffffffffffffffffffffffffffff1681526020019081526020016000206000828254611ee99190612ea4565b9250508190555080600360008473ffffffffffffffffffffffffffffffffffffffff1673ffffffffffffffffffffffffffffffffffffffff168152602001908152602001600020600082825401925050819055508173ffffffffffffffffffffffffffffffffffffffff168373ffffffffffffffffffffffffffffffffffffffff167fddf252ad1be2c89b69c2b068fc378daa952ba7f163c4a11628f55a4df523b3ef83604051611f9a919061283c565b60405180910390a3505050565b8060026000828254611fb99190612f7a565b9250508190555080600360008473ffffffffffffffffffffffffffffffffffffffff1673ffffffffffffffffffffffffffffffffffffffff168152602001908152602001600020600082825401925050819055508173ffffffffffffffffffffffffffffffffffffffff16600073ffffffffffffffffffffffffffffffffffffffff167fddf252ad1be2c89b69c2b068fc378daa952ba7f163c4a11628f55a4df523b3ef8360405161206b919061283c565b60405180910390a35050565b600073ffffffffffffffffffffffffffffffffffffffff168273ffffffffffffffffffffffffffffffffffffffff16036120e6576040517f08c379a00000000000000000000000000000000000000000000000000000000081526004016120dd9061376a565b60405180910390fd5b60008403612129576040517f08c379a0000000000000000000000000000000000000000000000000000000008152600401612120906137d6565b60405180910390fd5b6000830361216c576040517f08c379a000000000000000000000000000000000000000000000000000000000815260040161216390613842565b60405180910390fd5b6121768285611fa7565b6000836121816109ac565b61218b9190612f7a565b60098190559050600061219c612615565b90508373ffffffffffffffffffffffffffffffffffffffff168373ffffffffffffffffffffffffffffffffffffffff167fdcbc1c05240f31ff3ad067ef1ee35ce4997762752e3a095284754544f4c709d787896040516121fd929190612e4c565b60405180910390a37f68b521a89bf844ff03e484d89fd64ce292a698ec522170f0dad7ecd11c2dc8fa8282604051612236929190612e4c565b60405180910390a161226c600660009054906101000a900473ffffffffffffffffffffffffffffffffffffffff1684308861263a565b6122ab576040517f08c379a00000000000000000000000000000000000000000000000000000000081526004016122a2906138ae565b60405180910390fd5b505050505050565b80600360008473ffffffffffffffffffffffffffffffffffffffff1673ffffffffffffffffffffffffffffffffffffffff16815260200190815260200160002060008282546123029190612ea4565b9250508190555080600260008282540392505081905550600073ffffffffffffffffffffffffffffffffffffffff168273ffffffffffffffffffffffffffffffffffffffff167fddf252ad1be2c89b69c2b068fc378daa952ba7f163c4a11628f55a4df523b3ef83604051612377919061283c565b60405180910390a35050565b600073ffffffffffffffffffffffffffffffffffffffff168373ffffffffffffffffffffffffffffffffffffffff16036123f2576040517f08c379a00000000000000000000000000000000000000000000000000000000081526004016123e99061391a565b60405180910390fd5b60008503612435576040517f08c379a000000000000000000000000000000000000000000000000000000000815260040161242c90613986565b60405180910390fd5b60008403612478576040517f08c379a000000000000000000000000000000000000000000000000000000000815260040161246f906139f2565b60405180910390fd5b8173ffffffffffffffffffffffffffffffffffffffff168173ffffffffffffffffffffffffffffffffffffffff16146124b7576124b6828287611dd5565b5b6124c182866122b3565b6000846124cc6109ac565b6124d69190612ea4565b6009819055905060006124e7612615565b90508373ffffffffffffffffffffffffffffffffffffffff168573ffffffffffffffffffffffffffffffffffffffff168473ffffffffffffffffffffffffffffffffffffffff167ffbde797d201c681b91056529119e0b02407c7bb96a4a2c75c01fc9667232c8db898b60405161255f929190612e4c565b60405180910390a47f68b521a89bf844ff03e484d89fd64ce292a698ec522170f0dad7ecd11c2dc8fa8282604051612598929190612e4c565b60405180910390a16125cd600660009054906101000a900473ffffffffffffffffffffffffffffffffffffffff1686886126c9565b61260c576040517f08c379a000000000000000000000000000000000000000000000000000000000815260040161260390613a5e565b60405180910390fd5b50505050505050565b6000600c5442600b8190551161262d57600a54612630565b60005b600a819055905090565b60006126bf856323b872dd60e01b86868660405160240161265d93929190613a7e565b604051602081830303815290604052907bffffffffffffffffffffffffffffffffffffffffffffffffffffffff19166020820180517bffffffffffffffffffffffffffffffffffffffffffffffffffffffff8381831617835250505050612755565b9050949350505050565b600061274c8463a9059cbb60e01b85856040516024016126ea929190613ab5565b604051602081830303815290604052907bffffffffffffffffffffffffffffffffffffffffffffffffffffffff19166020820180517bffffffffffffffffffffffffffffffffffffffffffffffffffffffff8381831617835250505050612755565b90509392505050565b6000808373ffffffffffffffffffffffffffffffffffffffff163b0361277e576000905061281d565b60608373ffffffffffffffffffffffffffffffffffffffff16836040516127a59190613b1a565b6000604051808303816000865af19150503d80600081146127e2576040519150601f19603f3d011682016040523d82523d6000602084013e6127e7565b606091505b50809250819350505081801561281957506000815114806128185750808060200190518101906128179190613b5d565b5b5b9150505b92915050565b6000819050919050565b61283681612823565b82525050565b6000602082019050612851600083018461282d565b92915050565b600081519050919050565b600082825260208201905092915050565b60005b83811015612891578082015181840152602081019050612876565b60008484015250505050565b6000601f19601f8301169050919050565b60006128b982612857565b6128c38185612862565b93506128d3818560208601612873565b6128dc8161289d565b840191505092915050565b6000602082019050818103600083015261290181846128ae565b905092915050565b600080fd5b61291781612823565b811461292257600080fd5b50565b6000813590506129348161290e565b92915050565b6000602082840312156129505761294f612909565b5b600061295e84828501612925565b91505092915050565b600073ffffffffffffffffffffffffffffffffffffffff82169050919050565b600061299282612967565b9050919050565b6129a281612987565b81146129ad57600080fd5b50565b6000813590506129bf81612999565b92915050565b600080604083850312156129dc576129db612909565b5b60006129ea858286016129b0565b92505060206129fb85828601612925565b9150509250929050565b60008115159050919050565b612a1a81612a05565b82525050565b6000602082019050612a356000830184612a11565b92915050565b600080600060608486031215612a5457612a53612909565b5b6000612a62868287016129b0565b9350506020612a73868287016129b0565b9250506040612a8486828701612925565b9150509250925092565b6000819050919050565b612aa181612a8e565b82525050565b6000602082019050612abc6000830184612a98565b92915050565b600060ff82169050919050565b612ad881612ac2565b82525050565b6000602082019050612af36000830184612acf565b92915050565b612b0281612987565b82525050565b6000602082019050612b1d6000830184612af9565b92915050565b600060208284031215612b3957612b38612909565b5b6000612b47848285016129b0565b91505092915050565b612b5981612ac2565b8114612b6457600080fd5b50565b600081359050612b7681612b50565b92915050565b612b8581612a8e565b8114612b9057600080fd5b50565b600081359050612ba281612b7c565b92915050565b60008060008060008060c08789031215612bc557612bc4612909565b5b6000612bd389828a01612925565b9650506020612be489828a016129b0565b9550506040612bf589828a01612925565b9450506060612c0689828a01612b67565b9350506080612c1789828a01612b93565b92505060a0612c2889828a01612b93565b9150509295509295509295565b600080600080600080600060e0888a031215612c5457612c53612909565b5b6000612c628a828b01612925565b9750506020612c738a828b016129b0565b9650506040612c848a828b01612925565b9550506060612c958a828b01612925565b9450506080612ca68a828b01612b67565b93505060a0612cb78a828b01612b93565b92505060c0612cc88a828b01612b93565b91505092959891949750929550565b60008060408385031215612cee57612ced612909565b5b6000612cfc85828601612925565b9250506020612d0d858286016129b0565b9150509250929050565b600080600060608486031215612d3057612d2f612909565b5b6000612d3e86828701612925565b9350506020612d4f868287016129b0565b9250506040612d60868287016129b0565b9150509250925092565b600080600080600080600060e0888a031215612d8957612d88612909565b5b6000612d978a828b016129b0565b9750506020612da88a828b016129b0565b9650506040612db98a828b01612925565b9550506060612dca8a828b01612925565b9450506080612ddb8a828b01612b67565b93505060a0612dec8a828b01612b93565b92505060c0612dfd8a828b01612b93565b91505092959891949750929550565b60008060408385031215612e2357612e22612909565b5b6000612e31858286016129b0565b9250506020612e42858286016129b0565b9150509250929050565b6000604082019050612e61600083018561282d565b612e6e602083018461282d565b9392505050565b7f4e487b7100000000000000000000000000000000000000000000000000000000600052601160045260246000fd5b6000612eaf82612823565b9150612eba83612823565b9250828203905081811115612ed257612ed1612e75565b5b92915050565b6000612ee382612823565b9150612eee83612823565b9250828202612efc81612823565b91508282048414831517612f1357612f12612e75565b5b5092915050565b7f4e487b7100000000000000000000000000000000000000000000000000000000600052601260045260246000fd5b6000612f5482612823565b9150612f5f83612823565b925082612f6f57612f6e612f1a565b5b828204905092915050565b6000612f8582612823565b9150612f9083612823565b9250828201905080821115612fa857612fa7612e75565b5b92915050565b7f4e487b7100000000000000000000000000000000000000000000000000000000600052602260045260246000fd5b60006002820490506001821680612ff557607f821691505b60208210810361300857613007612fae565b5b50919050565b600081905092915050565b60008190508160005260206000209050919050565b6000815461303b81612fdd565b613045818661300e565b945060018216600081146130605760018114613075576130a8565b60ff19831686528115158202860193506130a8565b61307e85613019565b60005b838110156130a057815481890152600182019150602081019050613081565b838801955050505b50505092915050565b60006130bd828461302e565b915081905092915050565b600060a0820190506130dd6000830188612a98565b6130ea6020830187612a98565b6130f76040830186612a98565b613104606083018561282d565b6131116080830184612af9565b9695505050505050565b7f5244543a4c4f434b454400000000000000000000000000000000000000000000600082015250565b6000613151600a83612862565b915061315c8261311b565b602082019050919050565b6000602082019050818103600083015261318081613144565b9050919050565b600060e08201905061319c600083018a612af9565b6131a96020830189612af9565b6131b6604083018861282d565b6131c3606083018761282d565b6131d06080830186612acf565b6131dd60a0830185612a98565b6131ea60c0830184612a98565b98975050505050505050565b7f5244543a4d57503a494e53554646494349454e545f5045524d49540000000000600082015250565b600061322c601b83612862565b9150613237826131f6565b602082019050919050565b6000602082019050818103600083015261325b8161321f565b9050919050565b7f5244543a414f3a4e4f545f504f00000000000000000000000000000000000000600082015250565b6000613298600d83612862565b91506132a382613262565b602082019050919050565b600060208201905081810360008301526132c78161328b565b9050919050565b7f5244543a53504f3a4e4f545f4f574e4552000000000000000000000000000000600082015250565b6000613304601183612862565b915061330f826132ce565b602082019050919050565b60006020820190508181036000830152613333816132f7565b9050919050565b7f45524332303a503a455850495245440000000000000000000000000000000000600082015250565b6000613370600f83612862565b915061337b8261333a565b602082019050919050565b6000602082019050818103600083015261339f81613363565b9050919050565b7f45524332303a503a4d414c4c4541424c45000000000000000000000000000000600082015250565b60006133dc601183612862565b91506133e7826133a6565b602082019050919050565b6000602082019050818103600083015261340b816133cf565b9050919050565b600060c0820190506134276000830189612a98565b6134346020830188612af9565b6134416040830187612af9565b61344e606083018661282d565b61345b608083018561282d565b61346860a083018461282d565b979650505050505050565b600081905092915050565b7f1901000000000000000000000000000000000000000000000000000000000000600082015250565b60006134b4600283613473565b91506134bf8261347e565b600282019050919050565b6000819050919050565b6134e56134e082612a8e565b6134ca565b82525050565b60006134f6826134a7565b915061350282856134d4565b60208201915061351282846134d4565b6020820191508190509392505050565b60006080820190506135376000830187612a98565b6135446020830186612acf565b6135516040830185612a98565b61355e6060830184612a98565b95945050505050565b7f45524332303a503a494e56414c49445f5349474e415455524500000000000000600082015250565b600061359d601983612862565b91506135a882613567565b602082019050919050565b600060208201905081810360008301526135cc81613590565b9050919050565b7f5244543a5556533a4e4f545f4f574e4552000000000000000000000000000000600082015250565b6000613609601183612862565b9150613614826135d3565b602082019050919050565b60006020820190508181036000830152613638816135fc565b9050919050565b7f5244543a5556533a5a45524f5f535550504c5900000000000000000000000000600082015250565b6000613675601383612862565b91506136808261363f565b602082019050919050565b600060208201905081810360008301526136a481613668565b9050919050565b6000815190506136ba8161290e565b92915050565b6000602082840312156136d6576136d5612909565b5b60006136e4848285016136ab565b91505092915050565b60006136f882612823565b915061370383612823565b92508261371357613712612f1a565b5b828206905092915050565b7f5244543a4d3a5a45524f5f524543454956455200000000000000000000000000600082015250565b6000613754601383612862565b915061375f8261371e565b602082019050919050565b6000602082019050818103600083015261378381613747565b9050919050565b7f5244543a4d3a5a45524f5f534841524553000000000000000000000000000000600082015250565b60006137c0601183612862565b91506137cb8261378a565b602082019050919050565b600060208201905081810360008301526137ef816137b3565b9050919050565b7f5244543a4d3a5a45524f5f415353455453000000000000000000000000000000600082015250565b600061382c601183612862565b9150613837826137f6565b602082019050919050565b6000602082019050818103600083015261385b8161381f565b9050919050565b7f5244543a4d3a5452414e534645525f46524f4d00000000000000000000000000600082015250565b6000613898601383612862565b91506138a382613862565b602082019050919050565b600060208201905081810360008301526138c78161388b565b9050919050565b7f5244543a423a5a45524f5f524543454956455200000000000000000000000000600082015250565b6000613904601383612862565b915061390f826138ce565b602082019050919050565b60006020820190508181036000830152613933816138f7565b9050919050565b7f5244543a423a5a45524f5f534841524553000000000000000000000000000000600082015250565b6000613970601183612862565b915061397b8261393a565b602082019050919050565b6000602082019050818103600083015261399f81613963565b9050919050565b7f5244543a423a5a45524f5f415353455453000000000000000000000000000000600082015250565b60006139dc601183612862565b91506139e7826139a6565b602082019050919050565b60006020820190508181036000830152613a0b816139cf565b9050919050565b7f5244543a423a5452414e53464552000000000000000000000000000000000000600082015250565b6000613a48600e83612862565b9150613a5382613a12565b602082019050919050565b60006020820190508181036000830152613a7781613a3b565b9050919050565b6000606082019050613a936000830186612af9565b613aa06020830185612af9565b613aad604083018461282d565b949350505050565b6000604082019050613aca6000830185612af9565b613ad7602083018461282d565b9392505050565b600081519050919050565b6000613af482613ade565b613afe818561300e565b9350613b0e818560208601612873565b80840191505092915050565b6000613b268284613ae9565b915081905092915050565b613b3a81612a05565b8114613b4557600080fd5b50565b600081519050613b5781613b31565b92915050565b600060208284031215613b7357613b72612909565b5b6000613b8184828501613b48565b9150509291505056fea2646970667358221220658c0bea374ccb2b7208b1b5a6074ba84e166c9140ff6b0afe406e1962b8e14c64736f6c63430008110033",
  "immutableReferences": {
    "14": [
      {
        "length": 32,
        "start": 2563
      },
      {
        "length": 32,
        "start": 5835
      },
      {
        "length": 32,
        "start": 6895
      }
    ],
    "34341": [
      {
        "length": 32,
        "start": 3009
      }
    ]
  },
  "source": "// SPDX-License-Identifier: AGPL-3.0-only\npragma solidity >=0.4.22 <0.9.0;\n\nimport { RevenueDistributionToken as RDT } from \"../../RevenueDistributionToken.sol\";\n\ncontract MockERC20_RDT is RDT {\n\n    constructor(string memory name_, string memory symbol_, address owner_, address asset_, uint256 precision_)\n        RDT(name_, symbol_, owner_, asset_, precision_) { }\n\n    function mint(address recipient_, uint256 amount_) external {\n        _mint(recipient_, amount_);\n    }\n\n    function burn(address owner_, uint256 amount_) external {\n        _burn(owner_, amount_);\n    }\n\n}",
  "sourcePath": "/Users/mdoshi/wyta/contracts/test/mocks/MockERC20.RDT.sol",
  "compiler": {
    "name": "solc",
    "version": "0.8.17+commit.8df45f5f.Emscripten.clang"
  },
  "schemaVersion": "3.4.11",
  "updatedAt": "2023-01-15T01:59:56.006Z",
  "devdoc": {
    "kind": "dev",
    "methods": {
      "DOMAIN_SEPARATOR()": {
        "details": "Returns the signature domain separator.",
        "returns": {
          "domainSeparator_": "The signature domain separator."
        }
      },
      "acceptOwnership()": {
        "details": "Sets the pending owner as the new owner.       Can be called only by the pending owner, and only after their nomination by the current owner."
      },
      "approve(address,uint256)": {
        "details": "Function that allows one account to set the allowance of another account over their tokens.          Emits an {Approval} event.",
        "params": {
          "amount_": "Amount of tokens that have been approved.",
          "spender_": "Account that tokens are approved for."
        },
        "returns": {
          "success_": "Boolean indicating whether the operation succeeded."
        }
      },
      "balanceOfAssets(address)": {
        "details": "Returns the amount of underlying assets owned by the specified account.",
        "params": {
          "account_": "Address of the account."
        },
        "returns": {
          "balanceOfAssets_": " Amount of assets owned."
        }
      },
      "convertToAssets(uint256)": {
        "details": "The amount of `assets_` the `shares_` are currently equivalent to.          MUST NOT be inclusive of any fees that are charged against assets in the Vault.          MUST NOT reflect slippage or other on-chain conditions when performing the actual exchange.          MUST NOT show any variations depending on the caller.          MUST NOT revert.",
        "params": {
          "shares_": "The amount of shares to convert."
        },
        "returns": {
          "assets_": "The amount of equivalent assets."
        }
      },
      "convertToShares(uint256)": {
        "details": "The amount of `shares_` the `assets_` are currently equivalent to.          MUST NOT be inclusive of any fees that are charged against assets in the Vault.          MUST NOT reflect slippage or other on-chain conditions when performing the actual exchange.          MUST NOT show any variations depending on the caller.          MUST NOT revert.",
        "params": {
          "assets_": "The amount of assets to convert."
        },
        "returns": {
          "shares_": "The amount of equivalent shares."
        }
      },
      "decreaseAllowance(address,uint256)": {
        "details": "Function that allows one account to decrease the allowance of another account over their tokens.          Emits an {Approval} event.",
        "params": {
          "spender_": "Account that tokens are approved for.",
          "subtractedAmount_": "Amount to decrease approval by."
        },
        "returns": {
          "success_": "         Boolean indicating whether the operation succeeded."
        }
      },
      "deposit(uint256,address)": {
        "details": "Mints `shares_` to `receiver_` by depositing `assets_` into the Vault.          MUST emit the {Deposit} event.          MUST revert if all of the assets cannot be deposited (due to insufficient approval, deposit limits, slippage, etc).",
        "params": {
          "assets_": "The amount of assets to deposit.",
          "receiver_": "The receiver of the shares."
        },
        "returns": {
          "shares_": "  The amount of shares minted."
        }
      },
      "depositWithPermit(uint256,address,uint256,uint8,bytes32,bytes32)": {
        "details": "Does a ERC4626 `deposit` with a ERC-2612 `permit`.",
        "params": {
          "assets_": "The amount of `asset` to deposit.",
          "deadline_": "The timestamp after which the `permit` signature is no longer valid.",
          "r_": "ECDSA signature r component.",
          "receiver_": "The receiver of the shares.",
          "s_": "ECDSA signature s component.",
          "v_": "ECDSA signature v component."
        },
        "returns": {
          "shares_": "  The amount of shares minted."
        }
      },
      "increaseAllowance(address,uint256)": {
        "details": "Function that allows one account to increase the allowance of another account over their tokens.          Emits an {Approval} event.",
        "params": {
          "addedAmount_": "Amount to increase approval by.",
          "spender_": "Account that tokens are approved for."
        },
        "returns": {
          "success_": "    Boolean indicating whether the operation succeeded."
        }
      },
      "maxDeposit(address)": {
        "details": "Maximum amount of `assets_` that can be deposited on behalf of the `receiver_` through a `deposit` call.          MUST return a limited value if the receiver is subject to any limits, or the maximum value otherwise.          MUST NOT revert.",
        "params": {
          "receiver_": "The receiver of the assets."
        },
        "returns": {
          "maxAssets_": "  The maximum amount of assets that can be deposited."
        }
      },
      "maxMint(address)": {
        "details": "Maximum amount of `shares_` that can be minted on behalf of the `receiver_` through a `mint` call.          MUST return a limited value if the receiver is subject to any limits, or the maximum value otherwise.          MUST NOT revert.",
        "params": {
          "receiver_": "The receiver of the shares."
        },
        "returns": {
          "maxShares_": "  The maximum amount of shares that can be minted."
        }
      },
      "maxRedeem(address)": {
        "details": "Maximum amount of `shares_` that can be redeemed from the`owner_` through a`redeem`call.          MUST return a limited value ifthe owneris subject to any limits, or the total amount of owned shares otherwise.          MUSTNOTrevert.",
        "params": {
          "owner_": "The owner of the shares."
        },
        "returns": {
          "maxShares_": "The maximum amount of shares that can be redeemed."
        }
      },
      "maxWithdraw(address)": {
        "details": "Maximum amount of `assets_` that can be withdrawn from the `owner_` through a `withdraw` call.          MUST return a limited value if the owner is subject to any limits, or the total amount of owned assets otherwise.          MUST NOT revert.",
        "params": {
          "owner_": "The owner of the assets."
        },
        "returns": {
          "maxAssets_": "The maximum amount of assets that can be withdrawn."
        }
      },
      "mint(uint256,address)": {
        "details": "Mints `shares_` to `receiver_` by depositing `assets_` into the Vault.          MUST emit the {Deposit} event.          MUST revert if all of shares cannot be minted (due to insufficient approval, deposit limits, slippage, etc).",
        "params": {
          "receiver_": "The receiver of the shares.",
          "shares_": "The amount of shares to mint."
        },
        "returns": {
          "assets_": "  The amount of assets deposited."
        }
      },
      "mintWithPermit(uint256,address,uint256,uint256,uint8,bytes32,bytes32)": {
        "details": "Does a ERC4626 `mint` with a ERC-2612 `permit`.",
        "params": {
          "deadline_": "The timestamp after which the `permit` signature is no longer valid.",
          "maxAssets_": "The maximum amount of assets that can be taken, as per the permit.",
          "r_": "ECDSA signature r component.",
          "receiver_": "The receiver of the shares.",
          "s_": "ECDSA signature s component.",
          "shares_": "The amount of `shares` to mint.",
          "v_": "ECDSA signature v component."
        },
        "returns": {
          "assets_": "   The amount of shares deposited."
        }
      },
      "permit(address,address,uint256,uint256,uint8,bytes32,bytes32)": {
        "details": "Approve by signature.",
        "params": {
          "amount_": "Permit approval spend limit.",
          "deadline_": "Deadline after which the permit is invalid.",
          "owner_": "Owner address that signed the permit.",
          "r_": "ECDSA signature r component.",
          "s_": "ECDSA signature s component.",
          "spender_": "Spender of the permit.",
          "v_": "ECDSA signature v component."
        }
      },
      "previewDeposit(uint256)": {
        "details": "Allows an on-chain or off-chain user to simulate the effects of their deposit at the current block, given current on-chain conditions.          MUST return as close to and no more than the exact amount of shares that would be minted in a `deposit` call in the same transaction.          MUST NOT account for deposit limits like those returned from `maxDeposit` and should always act as though the deposit would be accepted.          MUST NOT revert.",
        "params": {
          "assets_": "The amount of assets to deposit."
        },
        "returns": {
          "shares_": "The amount of shares that would be minted."
        }
      },
      "previewMint(uint256)": {
        "details": "Allows an on-chain or off-chain user to simulate the effects of their mint at the current block, given current on-chain conditions.          MUST return as close to and no fewer than the exact amount of assets that would be deposited in a `mint` call in the same transaction.          MUST NOT account for mint limits like those returned from `maxMint` and should always act as though the minting would be accepted.          MUST NOT revert.",
        "params": {
          "shares_": "The amount of shares to mint."
        },
        "returns": {
          "assets_": "The amount of assets that would be deposited."
        }
      },
      "previewRedeem(uint256)": {
        "details": "Allows an on-chain or off-chain user to simulate the effects of their redemption at the current block, given current on-chain conditions.          MUST return as close to and no more than the exact amount of assets that would be withdrawn in a`redeem`call in the same transaction.          MUST NOT account for redemption limits like those returned from `maxRedeem` and should always act as though the redemption would be accepted.          MUST NOT revert.",
        "params": {
          "shares_": "The amount of shares to redeem."
        },
        "returns": {
          "assets_": "The amount of assets that would be withdrawn."
        }
      },
      "previewWithdraw(uint256)": {
        "details": "Allows an on-chain or off-chain user to simulate the effects of their withdrawal at the current block, given current on-chain conditions.          MUST return as close to and no fewer than the exact amount of shares that would be burned in a`withdraw`call in the same transaction.          MUST NOT account for withdrawal limits like those returned from `maxWithdraw` and should always act as though the withdrawal would be accepted.          MUST NOT revert.",
        "params": {
          "assets_": "The amount of assets to withdraw."
        },
        "returns": {
          "shares_": "The amount of shares that would be redeemed."
        }
      },
      "redeem(uint256,address,address)": {
        "details": "Burns`shares_`from`owner_`and sends`assets_` to`receiver_`.          MUST emit the{Withdraw}event.          MUST revert if all ofthe sharescannot be redeemed (due to insufficient shares, withdrawal limits, slippage, etc).",
        "params": {
          "owner_": "The owner of the shares.",
          "receiver_": "The receiver of the assets.",
          "shares_": "The amount of shares to redeem."
        },
        "returns": {
          "assets_": "  The amount of assets sent to the receiver."
        }
      },
      "setPendingOwner(address)": {
        "details": "Sets a new address as the pending owner.",
        "params": {
          "pendingOwner_": "The address of the next potential owner."
        }
      },
      "totalAssets()": {
        "details": "Total amount of the underlying asset that is managed by the Vault.          SHOULD include compounding that occurs from any yields.          MUST NOT revert.",
        "returns": {
          "totalManagedAssets_": "The total amount of assets the Vault manages."
        }
      },
      "transfer(address,uint256)": {
        "details": "Moves an amount of tokens from `msg.sender` to a specified account.          Emits a {Transfer} event.",
        "params": {
          "amount_": "Amount of tokens that are transferred.",
          "recipient_": "Account that receives tokens."
        },
        "returns": {
          "success_": "  Boolean indicating whether the operation succeeded."
        }
      },
      "transferFrom(address,address,uint256)": {
        "details": "Moves a pre-approved amount of tokens from a sender to a specified account.          Emits a {Transfer} event.          Emits an {Approval} event.",
        "params": {
          "amount_": "Amount of tokens that are transferred.",
          "owner_": "Account that tokens are moving from.",
          "recipient_": "Account that receives tokens."
        },
        "returns": {
          "success_": "  Boolean indicating whether the operation succeeded."
        }
      },
      "updateVestingSchedule(uint256)": {
        "details": "Updates the current vesting formula based on the amount of total unvested funds in the contract and the new `vestingPeriod_`.",
        "params": {
          "vestingPeriod_": "The amount of time over which all currently unaccounted underlying assets will be vested over."
        },
        "returns": {
          "freeAssets_": "   The new amount of underlying assets that are unlocked.",
          "issuanceRate_": " The new issuance rate."
        }
      },
      "withdraw(uint256,address,address)": {
        "details": "Burns`shares_`from`owner_`and sends `assets_`to `receiver_`.          MUST emit the{Withdraw}event.          MUST revert if all ofthe assetscannot be withdrawn (due to insufficient assets, withdrawal limits, slippage, etc).",
        "params": {
          "assets_": "The amount of assets to withdraw.",
          "owner_": "The owner of the assets.",
          "receiver_": "The receiver of the assets."
        },
        "returns": {
          "shares_": "  The amount of shares burned from the owner."
        }
      }
    },
    "version": 1
  },
  "userdoc": {
    "kind": "user",
    "methods": {},
    "version": 1
  }
}