{
  "contractName": "MockRevertingERC20",
  "abi": [
    {
      "inputs": [
        {
          "internalType": "string",
          "name": "name_",
          "type": "string"
        },
        {
          "internalType": "string",
          "name": "symbol_",
          "type": "string"
        },
        {
          "internalType": "uint8",
          "name": "decimals_",
          "type": "uint8"
        },
        {
          "internalType": "address",
          "name": "revertingDestination_",
          "type": "address"
        }
      ],
      "stateMutability": "nonpayable",
      "type": "constructor"
    },
    {
      "inputs": [
        {
          "internalType": "address",
          "name": "",
          "type": "address"
        },
        {
          "internalType": "address",
          "name": "",
          "type": "address"
        }
      ],
      "name": "allowance",
      "outputs": [
        {
          "internalType": "uint256",
          "name": "",
          "type": "uint256"
        }
      ],
      "stateMutability": "view",
      "type": "function"
    },
    {
      "inputs": [
        {
          "internalType": "address",
          "name": "",
          "type": "address"
        }
      ],
      "name": "balanceOf",
      "outputs": [
        {
          "internalType": "uint256",
          "name": "",
          "type": "uint256"
        }
      ],
      "stateMutability": "view",
      "type": "function"
    },
    {
      "inputs": [],
      "name": "decimals",
      "outputs": [
        {
          "internalType": "uint8",
          "name": "",
          "type": "uint8"
        }
      ],
      "stateMutability": "view",
      "type": "function"
    },
    {
      "inputs": [],
      "name": "name",
      "outputs": [
        {
          "internalType": "string",
          "name": "",
          "type": "string"
        }
      ],
      "stateMutability": "view",
      "type": "function"
    },
    {
      "inputs": [],
      "name": "revertingDestination",
      "outputs": [
        {
          "internalType": "address",
          "name": "",
          "type": "address"
        }
      ],
      "stateMutability": "view",
      "type": "function"
    },
    {
      "inputs": [],
      "name": "symbol",
      "outputs": [
        {
          "internalType": "string",
          "name": "",
          "type": "string"
        }
      ],
      "stateMutability": "view",
      "type": "function"
    },
    {
      "inputs": [],
      "name": "totalSupply",
      "outputs": [
        {
          "internalType": "uint256",
          "name": "",
          "type": "uint256"
        }
      ],
      "stateMutability": "view",
      "type": "function"
    },
    {
      "inputs": [
        {
          "internalType": "address",
          "name": "recipient_",
          "type": "address"
        },
        {
          "internalType": "uint256",
          "name": "amount_",
          "type": "uint256"
        }
      ],
      "name": "mint",
      "outputs": [],
      "stateMutability": "nonpayable",
      "type": "function"
    },
    {
      "inputs": [
        {
          "internalType": "address",
          "name": "from_",
          "type": "address"
        },
        {
          "internalType": "uint256",
          "name": "amount_",
          "type": "uint256"
        }
      ],
      "name": "burn",
      "outputs": [],
      "stateMutability": "nonpayable",
      "type": "function"
    },
    {
      "inputs": [
        {
          "internalType": "address",
          "name": "spender_",
          "type": "address"
        },
        {
          "internalType": "uint256",
          "name": "amount_",
          "type": "uint256"
        }
      ],
      "name": "approve",
      "outputs": [
        {
          "internalType": "bool",
          "name": "success_",
          "type": "bool"
        }
      ],
      "stateMutability": "nonpayable",
      "type": "function"
    },
    {
      "inputs": [
        {
          "internalType": "address",
          "name": "recipient_",
          "type": "address"
        },
        {
          "internalType": "uint256",
          "name": "amount_",
          "type": "uint256"
        }
      ],
      "name": "transfer",
      "outputs": [
        {
          "internalType": "bool",
          "name": "success_",
          "type": "bool"
        }
      ],
      "stateMutability": "nonpayable",
      "type": "function"
    },
    {
      "inputs": [
        {
          "internalType": "address",
          "name": "owner_",
          "type": "address"
        },
        {
          "internalType": "address",
          "name": "recipient_",
          "type": "address"
        },
        {
          "internalType": "uint256",
          "name": "amount_",
          "type": "uint256"
        }
      ],
      "name": "transferFrom",
      "outputs": [
        {
          "internalType": "bool",
          "name": "success_",
          "type": "bool"
        }
      ],
      "stateMutability": "nonpayable",
      "type": "function"
    }
  ],
  "bytecode": "0x60a06040523480156200001157600080fd5b506040516200134e3803806200134e8339818101604052810190620000379190620002ea565b8360009081620000489190620005e5565b5082600190816200005a9190620005e5565b508160ff1660808160ff168152505080600360006101000a81548173ffffffffffffffffffffffffffffffffffffffff021916908373ffffffffffffffffffffffffffffffffffffffff16021790555050505050620006cc565b6000604051905090565b600080fd5b600080fd5b600080fd5b600080fd5b6000601f19601f8301169050919050565b7f4e487b7100000000000000000000000000000000000000000000000000000000600052604160045260246000fd5b6200011d82620000d2565b810181811067ffffffffffffffff821117156200013f576200013e620000e3565b5b80604052505050565b600062000154620000b4565b905062000162828262000112565b919050565b600067ffffffffffffffff821115620001855762000184620000e3565b5b6200019082620000d2565b9050602081019050919050565b60005b83811015620001bd578082015181840152602081019050620001a0565b60008484015250505050565b6000620001e0620001da8462000167565b62000148565b905082815260208101848484011115620001ff57620001fe620000cd565b5b6200020c8482856200019d565b509392505050565b600082601f8301126200022c576200022b620000c8565b5b81516200023e848260208601620001c9565b91505092915050565b600060ff82169050919050565b6200025f8162000247565b81146200026b57600080fd5b50565b6000815190506200027f8162000254565b92915050565b600073ffffffffffffffffffffffffffffffffffffffff82169050919050565b6000620002b28262000285565b9050919050565b620002c481620002a5565b8114620002d057600080fd5b50565b600081519050620002e481620002b9565b92915050565b60008060008060808587031215620003075762000306620000be565b5b600085015167ffffffffffffffff811115620003285762000327620000c3565b5b620003368782880162000214565b945050602085015167ffffffffffffffff8111156200035a5762000359620000c3565b5b620003688782880162000214565b93505060406200037b878288016200026e565b92505060606200038e87828801620002d3565b91505092959194509250565b600081519050919050565b7f4e487b7100000000000000000000000000000000000000000000000000000000600052602260045260246000fd5b60006002820490506001821680620003ed57607f821691505b602082108103620004035762000402620003a5565b5b50919050565b60008190508160005260206000209050919050565b60006020601f8301049050919050565b600082821b905092915050565b6000600883026200046d7fffffffffffffffffffffffffffffffffffffffffffffffffffffffffffffffff826200042e565b6200047986836200042e565b95508019841693508086168417925050509392505050565b6000819050919050565b6000819050919050565b6000620004c6620004c0620004ba8462000491565b6200049b565b62000491565b9050919050565b6000819050919050565b620004e283620004a5565b620004fa620004f182620004cd565b8484546200043b565b825550505050565b600090565b6200051162000502565b6200051e818484620004d7565b505050565b5b8181101562000546576200053a60008262000507565b60018101905062000524565b5050565b601f82111562000595576200055f8162000409565b6200056a846200041e565b810160208510156200057a578190505b6200059262000589856200041e565b83018262000523565b50505b505050565b600082821c905092915050565b6000620005ba600019846008026200059a565b1980831691505092915050565b6000620005d58383620005a7565b9150826002028217905092915050565b620005f0826200039a565b67ffffffffffffffff8111156200060c576200060b620000e3565b5b620006188254620003d4565b620006258282856200054a565b600060209050601f8311600181146200065d576000841562000648578287015190505b620006548582620005c7565b865550620006c4565b601f1984166200066d8662000409565b60005b82811015620006975784890151825560018201915060208501945060208101905062000670565b86831015620006b75784890151620006b3601f891682620005a7565b8355505b6001600288020188555050505b505050505050565b608051610c66620006e860003960006103ce0152610c666000f3fe608060405234801561001057600080fd5b50600436106100b45760003560e01c806358603f2d1161007157806358603f2d1461018f57806370a08231146101ad57806395d89b41146101dd5780639dc29fac146101fb578063a9059cbb14610217578063dd62ed3e14610247576100b4565b806306fdde03146100b9578063095ea7b3146100d757806318160ddd1461010757806323b872dd14610125578063313ce5671461015557806340c10f1914610173575b600080fd5b6100c1610277565b6040516100ce9190610851565b60405180910390f35b6100f160048036038101906100ec919061090c565b610305565b6040516100fe9190610967565b60405180910390f35b61010f61031c565b60405161011c9190610991565b60405180910390f35b61013f600480360381019061013a91906109ac565b610322565b60405161014c9190610967565b60405180910390f35b61015d6103cc565b60405161016a9190610a1b565b60405180910390f35b61018d6004803603810190610188919061090c565b6103f0565b005b6101976103fe565b6040516101a49190610a45565b60405180910390f35b6101c760048036038101906101c29190610a60565b610424565b6040516101d49190610991565b60405180910390f35b6101e561043c565b6040516101f29190610851565b60405180910390f35b6102156004803603810190610210919061090c565b6104ca565b005b610231600480360381019061022c919061090c565b6104d8565b60405161023e9190610967565b60405180910390f35b610261600480360381019061025c9190610a8d565b6104ef565b60405161026e9190610991565b60405180910390f35b6000805461028490610afc565b80601f01602080910402602001604051908101604052809291908181526020018280546102b090610afc565b80156102fd5780601f106102d2576101008083540402835291602001916102fd565b820191906000526020600020905b8154815290600101906020018083116102e057829003601f168201915b505050505081565b6000610312338484610514565b6001905092915050565b60025481565b60006103b6843384600560008973ffffffffffffffffffffffffffffffffffffffff1673ffffffffffffffffffffffffffffffffffffffff16815260200190815260200160002060003373ffffffffffffffffffffffffffffffffffffffff1673ffffffffffffffffffffffffffffffffffffffff168152602001908152602001600020546103b19190610b5c565b610514565b6103c184848461059a565b600190509392505050565b7f000000000000000000000000000000000000000000000000000000000000000081565b6103fa82826106db565b5050565b600360009054906101000a900473ffffffffffffffffffffffffffffffffffffffff1681565b60046020528060005260406000206000915090505481565b6001805461044990610afc565b80601f016020809104026020016040519081016040528092919081815260200182805461047590610afc565b80156104c25780601f10610497576101008083540402835291602001916104c2565b820191906000526020600020905b8154815290600101906020018083116104a557829003601f168201915b505050505081565b6104d4828261074e565b5050565b60006104e533848461059a565b6001905092915050565b6005602052816000526040600020602052806000526040600020600091509150505481565b80600560008573ffffffffffffffffffffffffffffffffffffffff1673ffffffffffffffffffffffffffffffffffffffff16815260200190815260200160002060008473ffffffffffffffffffffffffffffffffffffffff1673ffffffffffffffffffffffffffffffffffffffff16815260200190815260200160002081905550505050565b600360009054906101000a900473ffffffffffffffffffffffffffffffffffffffff1673ffffffffffffffffffffffffffffffffffffffff168273ffffffffffffffffffffffffffffffffffffffff160361062a576040517f08c379a000000000000000000000000000000000000000000000000000000000815260040161062190610bdc565b60405180910390fd5b80600460008573ffffffffffffffffffffffffffffffffffffffff1673ffffffffffffffffffffffffffffffffffffffff16815260200190815260200160002060008282546106799190610b5c565b9250508190555080600460008473ffffffffffffffffffffffffffffffffffffffff1673ffffffffffffffffffffffffffffffffffffffff16815260200190815260200160002060008282546106cf9190610bfc565b92505081905550505050565b80600260008282546106ed9190610bfc565b9250508190555080600460008473ffffffffffffffffffffffffffffffffffffffff1673ffffffffffffffffffffffffffffffffffffffff16815260200190815260200160002060008282546107439190610bfc565b925050819055505050565b80600460008473ffffffffffffffffffffffffffffffffffffffff1673ffffffffffffffffffffffffffffffffffffffff168152602001908152602001600020600082825461079d9190610b5c565b9250508190555080600260008282546107b69190610b5c565b925050819055505050565b600081519050919050565b600082825260208201905092915050565b60005b838110156107fb5780820151818401526020810190506107e0565b60008484015250505050565b6000601f19601f8301169050919050565b6000610823826107c1565b61082d81856107cc565b935061083d8185602086016107dd565b61084681610807565b840191505092915050565b6000602082019050818103600083015261086b8184610818565b905092915050565b600080fd5b600073ffffffffffffffffffffffffffffffffffffffff82169050919050565b60006108a382610878565b9050919050565b6108b381610898565b81146108be57600080fd5b50565b6000813590506108d0816108aa565b92915050565b6000819050919050565b6108e9816108d6565b81146108f457600080fd5b50565b600081359050610906816108e0565b92915050565b6000806040838503121561092357610922610873565b5b6000610931858286016108c1565b9250506020610942858286016108f7565b9150509250929050565b60008115159050919050565b6109618161094c565b82525050565b600060208201905061097c6000830184610958565b92915050565b61098b816108d6565b82525050565b60006020820190506109a66000830184610982565b92915050565b6000806000606084860312156109c5576109c4610873565b5b60006109d3868287016108c1565b93505060206109e4868287016108c1565b92505060406109f5868287016108f7565b9150509250925092565b600060ff82169050919050565b610a15816109ff565b82525050565b6000602082019050610a306000830184610a0c565b92915050565b610a3f81610898565b82525050565b6000602082019050610a5a6000830184610a36565b92915050565b600060208284031215610a7657610a75610873565b5b6000610a84848285016108c1565b91505092915050565b60008060408385031215610aa457610aa3610873565b5b6000610ab2858286016108c1565b9250506020610ac3858286016108c1565b9150509250929050565b7f4e487b7100000000000000000000000000000000000000000000000000000000600052602260045260246000fd5b60006002820490506001821680610b1457607f821691505b602082108103610b2757610b26610acd565b5b50919050565b7f4e487b7100000000000000000000000000000000000000000000000000000000600052601160045260246000fd5b6000610b67826108d6565b9150610b72836108d6565b9250828203905081811115610b8a57610b89610b2d565b5b92915050565b7f494e56414c494400000000000000000000000000000000000000000000000000600082015250565b6000610bc66007836107cc565b9150610bd182610b90565b602082019050919050565b60006020820190508181036000830152610bf581610bb9565b9050919050565b6000610c07826108d6565b9150610c12836108d6565b9250828201905080821115610c2a57610c29610b2d565b5b9291505056fea2646970667358221220c74bcaf4645ac6760c1255790edb8266831431ce1430ecfc76e4041cd35e3d9364736f6c63430008110033",
  "immutableReferences": {
    "23029": [
      {
        "length": 32,
        "start": 974
      }
    ]
  },
  "source": "// SPDX-License-Identifier: AGPL-3.0-only\npragma solidity >=0.4.22 <0.9.0;\n\ncontract MockRevertingERC20 {\n\n    uint8 public immutable decimals;\n\n    string public name;\n    string public symbol;\n\n    uint256 public totalSupply;\n\n    address public revertingDestination;\n\n    mapping(address => uint256) public balanceOf;\n\n    mapping(address => mapping(address => uint256)) public allowance;\n\n    constructor(string memory name_, string memory symbol_, uint8 decimals_, address revertingDestination_) {\n        name                 = name_;\n        symbol               = symbol_;\n        decimals             = decimals_;\n        revertingDestination = revertingDestination_;\n    }\n\n    /**************************/\n    /*** External Functions ***/\n    /**************************/\n\n    function mint(address recipient_, uint256 amount_) external {\n        _mint(recipient_, amount_);\n    }\n\n    function burn(address from_, uint256 amount_) external {\n        _burn(from_, amount_);\n    }\n\n    function approve(address spender_, uint256 amount_) external returns (bool success_) {\n        _approve(msg.sender, spender_, amount_);\n        return true;\n    }\n\n    function transfer(address recipient_, uint256 amount_) external returns (bool success_) {\n        _transfer(msg.sender, recipient_, amount_);\n        return true;\n    }\n\n    function transferFrom(address owner_, address recipient_, uint256 amount_) external returns (bool success_) {\n        _approve(owner_, msg.sender, allowance[owner_][msg.sender] - amount_);\n        _transfer(owner_, recipient_, amount_);\n        return true;\n    }\n\n    /**************************/\n    /*** Internal Functions ***/\n    /**************************/\n\n    function _approve(address owner_, address spender_, uint256 amount_) internal {\n        allowance[owner_][spender_] = amount_;\n    }\n\n    function _transfer(address owner_, address recipient_, uint256 amount_) internal {\n        require(recipient_ != revertingDestination, \"INVALID\");\n        balanceOf[owner_]     -= amount_;\n        balanceOf[recipient_] += amount_;\n    }\n\n    function _mint(address recipient_, uint256 amount_) internal {\n        totalSupply           += amount_;\n        balanceOf[recipient_] += amount_;\n    }\n\n    function _burn(address owner_, uint256 amount_) internal {\n        balanceOf[owner_] -= amount_;\n        totalSupply       -= amount_;\n    }\n\n}\n",
  "sourcePath": "/Users/mdoshi/wyta/contracts/test/mocks/MockRevertingERC20.sol",
  "compiler": {
    "name": "solc",
    "version": "0.8.17+commit.8df45f5f.Emscripten.clang"
  },
  "schemaVersion": "3.4.11",
  "updatedAt": "2023-01-15T01:59:56.030Z",
  "devdoc": {
    "kind": "dev",
    "methods": {},
    "version": 1
  },
  "userdoc": {
    "kind": "user",
    "methods": {},
    "version": 1
  }
}