{
  "contractName": "Owner",
  "abi": [
    {
      "inputs": [
        {
          "internalType": "address",
          "name": "rdt_",
          "type": "address"
        }
      ],
      "name": "rdToken_acceptOwnership",
      "outputs": [],
      "stateMutability": "nonpayable",
      "type": "function"
    },
    {
      "inputs": [
        {
          "internalType": "address",
          "name": "rdt_",
          "type": "address"
        },
        {
          "internalType": "address",
          "name": "pendingOwner_",
          "type": "address"
        }
      ],
      "name": "rdToken_setPendingOwner",
      "outputs": [],
      "stateMutability": "nonpayable",
      "type": "function"
    },
    {
      "inputs": [
        {
          "internalType": "address",
          "name": "rdt_",
          "type": "address"
        },
        {
          "internalType": "uint256",
          "name": "vestingPeriod_",
          "type": "uint256"
        }
      ],
      "name": "rdToken_updateVestingSchedule",
      "outputs": [
        {
          "internalType": "uint256",
          "name": "issuanceRate_",
          "type": "uint256"
        },
        {
          "internalType": "uint256",
          "name": "freeAssets_",
          "type": "uint256"
        }
      ],
      "stateMutability": "nonpayable",
      "type": "function"
    },
    {
      "inputs": [
        {
          "internalType": "address",
          "name": "token_",
          "type": "address"
        },
        {
          "internalType": "address",
          "name": "receiver_",
          "type": "address"
        },
        {
          "internalType": "uint256",
          "name": "amount_",
          "type": "uint256"
        }
      ],
      "name": "erc20_transfer",
      "outputs": [
        {
          "internalType": "bool",
          "name": "success_",
          "type": "bool"
        }
      ],
      "stateMutability": "nonpayable",
      "type": "function"
    }
  ],
  "bytecode": "0x608060405234801561001057600080fd5b50610627806100206000396000f3fe608060405234801561001057600080fd5b506004361061004c5760003560e01c80631c45353f146100515780637fe2558114610082578063acbf94c9146100b2578063b428d7db146100ce575b600080fd5b61006b60048036038101906100669190610367565b6100ea565b6040516100799291906103b6565b60405180910390f35b61009c600480360381019061009791906103df565b610173565b6040516100a9919061044d565b60405180910390f35b6100cc60048036038101906100c79190610468565b6101fc565b005b6100e860048036038101906100e39190610495565b61025f565b005b6000808373ffffffffffffffffffffffffffffffffffffffff1663e13aa990846040518263ffffffff1660e01b815260040161012691906104d5565b60408051808303816000875af1158015610144573d6000803e3d6000fd5b505050506040513d601f19601f820116820180604052508101906101689190610505565b915091509250929050565b60008373ffffffffffffffffffffffffffffffffffffffff1663a9059cbb84846040518363ffffffff1660e01b81526004016101b0929190610554565b6020604051808303816000875af11580156101cf573d6000803e3d6000fd5b505050506040513d601f19601f820116820180604052508101906101f391906105a9565b90509392505050565b8073ffffffffffffffffffffffffffffffffffffffff166379ba50976040518163ffffffff1660e01b8152600401600060405180830381600087803b15801561024457600080fd5b505af1158015610258573d6000803e3d6000fd5b5050505050565b8173ffffffffffffffffffffffffffffffffffffffff1663c42069ec826040518263ffffffff1660e01b815260040161029891906105d6565b600060405180830381600087803b1580156102b257600080fd5b505af11580156102c6573d6000803e3d6000fd5b505050505050565b600080fd5b600073ffffffffffffffffffffffffffffffffffffffff82169050919050565b60006102fe826102d3565b9050919050565b61030e816102f3565b811461031957600080fd5b50565b60008135905061032b81610305565b92915050565b6000819050919050565b61034481610331565b811461034f57600080fd5b50565b6000813590506103618161033b565b92915050565b6000806040838503121561037e5761037d6102ce565b5b600061038c8582860161031c565b925050602061039d85828601610352565b9150509250929050565b6103b081610331565b82525050565b60006040820190506103cb60008301856103a7565b6103d860208301846103a7565b9392505050565b6000806000606084860312156103f8576103f76102ce565b5b60006104068682870161031c565b93505060206104178682870161031c565b925050604061042886828701610352565b9150509250925092565b60008115159050919050565b61044781610432565b82525050565b6000602082019050610462600083018461043e565b92915050565b60006020828403121561047e5761047d6102ce565b5b600061048c8482850161031c565b91505092915050565b600080604083850312156104ac576104ab6102ce565b5b60006104ba8582860161031c565b92505060206104cb8582860161031c565b9150509250929050565b60006020820190506104ea60008301846103a7565b92915050565b6000815190506104ff8161033b565b92915050565b6000806040838503121561051c5761051b6102ce565b5b600061052a858286016104f0565b925050602061053b858286016104f0565b9150509250929050565b61054e816102f3565b82525050565b60006040820190506105696000830185610545565b61057660208301846103a7565b9392505050565b61058681610432565b811461059157600080fd5b50565b6000815190506105a38161057d565b92915050565b6000602082840312156105bf576105be6102ce565b5b60006105cd84828501610594565b91505092915050565b60006020820190506105eb6000830184610545565b9291505056fea2646970667358221220f40a287681f1c1f55c01aa50ecac8cd23014ba5ee5b6aa40cb728ea5b559f76464736f6c63430008110033",
  "immutableReferences": {},
  "source": "// SPDX-License-Identifier: AGPL-3.0-only\npragma solidity >=0.4.22 <0.9.0;\n\nimport { TestUtils } from \"../../../modules/contract-test-utils/contracts/test.sol\";\n\nimport { IERC20 }    from \"../../../modules/erc20/contracts/interfaces/IERC20.sol\";\nimport { MockERC20 } from \"../../../modules/erc20/contracts/test/mocks/MockERC20.sol\";\n\nimport { IRevenueDistributionToken as IRDT } from \"../../interfaces/IRevenueDistributionToken.sol\";\n\ncontract Owner {\n\n    function rdToken_acceptOwnership(address rdt_) external {\n        IRDT(rdt_).acceptOwnership();\n    }\n\n    function rdToken_setPendingOwner(address rdt_, address pendingOwner_) external {\n        IRDT(rdt_).setPendingOwner(pendingOwner_);\n    }\n\n    function rdToken_updateVestingSchedule(address rdt_, uint256 vestingPeriod_) external returns (uint256 issuanceRate_, uint256 freeAssets_) {\n        return IRDT(rdt_).updateVestingSchedule(vestingPeriod_);\n    }\n\n    function erc20_transfer(address token_, address receiver_, uint256 amount_) external returns (bool success_) {\n        return IERC20(token_).transfer(receiver_, amount_);\n    }\n\n}\n\ncontract InvariantOwner is TestUtils {\n\n    IRDT      internal _rdToken;\n    MockERC20 internal _underlying;\n\n    uint256 numberOfCalls;\n\n    uint256 public amountDeposited;\n\n    constructor(address rdToken_, address underlying_) {\n        _rdToken    = IRDT(rdToken_);\n        _underlying = MockERC20(underlying_);\n    }\n\n    function rdToken_updateVestingSchedule(uint256 vestingPeriod_) external {\n        // If there is nothing to vest, don't do anything.\n        if (_underlying.balanceOf(address(_rdToken)) == _rdToken.totalAssets()) {\n            return;\n        }\n\n        vestingPeriod_ = constrictToRange(vestingPeriod_, 1, 10_000 days);\n\n        _rdToken.updateVestingSchedule(vestingPeriod_);\n\n        assertEq(_rdToken.vestingPeriodFinish(), block.timestamp + vestingPeriod_);\n    }\n\n    function erc20_transfer(uint256 amount_) external {\n        uint256 startingBalance = _underlying.balanceOf(address(_rdToken));\n\n        amount_ = constrictToRange(amount_, 1e6, 1e29);  // 100 billion at WAD precision (1 less than 1e30 to avoid precision issues)\n\n        _underlying.mint(address(this), amount_);\n        _underlying.transfer(address(_rdToken), amount_);\n\n        assertEq(_underlying.balanceOf(address(_rdToken)), startingBalance + amount_);  // Ensure successful transfer\n    }\n\n}\n",
  "sourcePath": "/Users/mdoshi/wyta/contracts/test/accounts/Owner.sol",
  "compiler": {
    "name": "solc",
    "version": "0.8.17+commit.8df45f5f.Emscripten.clang"
  },
  "schemaVersion": "3.4.11",
  "updatedAt": "2023-01-15T01:59:55.981Z",
  "devdoc": {
    "kind": "dev",
    "methods": {},
    "version": 1
  },
  "userdoc": {
    "kind": "user",
    "methods": {},
    "version": 1
  }
}