{
  "contractName": "Staker",
  "abi": [
    {
      "inputs": [
        {
          "internalType": "address",
          "name": "token_",
          "type": "address"
        },
        {
          "internalType": "address",
          "name": "spender_",
          "type": "address"
        },
        {
          "internalType": "uint256",
          "name": "amount_",
          "type": "uint256"
        }
      ],
      "name": "erc20_approve",
      "outputs": [],
      "stateMutability": "nonpayable",
      "type": "function"
    },
    {
      "inputs": [
        {
          "internalType": "address",
          "name": "token_",
          "type": "address"
        },
        {
          "internalType": "address",
          "name": "owner_",
          "type": "address"
        },
        {
          "internalType": "address",
          "name": "spender_",
          "type": "address"
        },
        {
          "internalType": "uint256",
          "name": "amount_",
          "type": "uint256"
        },
        {
          "internalType": "uint256",
          "name": "deadline_",
          "type": "uint256"
        },
        {
          "internalType": "uint8",
          "name": "v_",
          "type": "uint8"
        },
        {
          "internalType": "bytes32",
          "name": "r_",
          "type": "bytes32"
        },
        {
          "internalType": "bytes32",
          "name": "s_",
          "type": "bytes32"
        }
      ],
      "name": "erc20_permit",
      "outputs": [],
      "stateMutability": "nonpayable",
      "type": "function"
    },
    {
      "inputs": [
        {
          "internalType": "address",
          "name": "token_",
          "type": "address"
        },
        {
          "internalType": "address",
          "name": "recipient_",
          "type": "address"
        },
        {
          "internalType": "uint256",
          "name": "amount_",
          "type": "uint256"
        }
      ],
      "name": "erc20_transfer",
      "outputs": [
        {
          "internalType": "bool",
          "name": "success_",
          "type": "bool"
        }
      ],
      "stateMutability": "nonpayable",
      "type": "function"
    },
    {
      "inputs": [
        {
          "internalType": "address",
          "name": "token_",
          "type": "address"
        },
        {
          "internalType": "address",
          "name": "owner_",
          "type": "address"
        },
        {
          "internalType": "address",
          "name": "recipient_",
          "type": "address"
        },
        {
          "internalType": "uint256",
          "name": "amount_",
          "type": "uint256"
        }
      ],
      "name": "erc20_transferFrom",
      "outputs": [
        {
          "internalType": "bool",
          "name": "success_",
          "type": "bool"
        }
      ],
      "stateMutability": "nonpayable",
      "type": "function"
    },
    {
      "inputs": [
        {
          "internalType": "address",
          "name": "token_",
          "type": "address"
        },
        {
          "internalType": "uint256",
          "name": "assets_",
          "type": "uint256"
        }
      ],
      "name": "rdToken_deposit",
      "outputs": [
        {
          "internalType": "uint256",
          "name": "shares_",
          "type": "uint256"
        }
      ],
      "stateMutability": "nonpayable",
      "type": "function"
    },
    {
      "inputs": [
        {
          "internalType": "address",
          "name": "token_",
          "type": "address"
        },
        {
          "internalType": "uint256",
          "name": "assets_",
          "type": "uint256"
        },
        {
          "internalType": "address",
          "name": "receiver_",
          "type": "address"
        }
      ],
      "name": "rdToken_deposit",
      "outputs": [
        {
          "internalType": "uint256",
          "name": "shares_",
          "type": "uint256"
        }
      ],
      "stateMutability": "nonpayable",
      "type": "function"
    },
    {
      "inputs": [
        {
          "internalType": "address",
          "name": "token_",
          "type": "address"
        },
        {
          "internalType": "uint256",
          "name": "shares_",
          "type": "uint256"
        }
      ],
      "name": "rdToken_mint",
      "outputs": [
        {
          "internalType": "uint256",
          "name": "assets_",
          "type": "uint256"
        }
      ],
      "stateMutability": "nonpayable",
      "type": "function"
    },
    {
      "inputs": [
        {
          "internalType": "address",
          "name": "token_",
          "type": "address"
        },
        {
          "internalType": "uint256",
          "name": "shares_",
          "type": "uint256"
        },
        {
          "internalType": "address",
          "name": "receiver_",
          "type": "address"
        }
      ],
      "name": "rdToken_mint",
      "outputs": [
        {
          "internalType": "uint256",
          "name": "assets_",
          "type": "uint256"
        }
      ],
      "stateMutability": "nonpayable",
      "type": "function"
    },
    {
      "inputs": [
        {
          "internalType": "address",
          "name": "token_",
          "type": "address"
        },
        {
          "internalType": "uint256",
          "name": "shares_",
          "type": "uint256"
        }
      ],
      "name": "rdToken_redeem",
      "outputs": [
        {
          "internalType": "uint256",
          "name": "assets_",
          "type": "uint256"
        }
      ],
      "stateMutability": "nonpayable",
      "type": "function"
    },
    {
      "inputs": [
        {
          "internalType": "address",
          "name": "token_",
          "type": "address"
        },
        {
          "internalType": "uint256",
          "name": "shares_",
          "type": "uint256"
        },
        {
          "internalType": "address",
          "name": "recipient_",
          "type": "address"
        },
        {
          "internalType": "address",
          "name": "owner_",
          "type": "address"
        }
      ],
      "name": "rdToken_redeem",
      "outputs": [
        {
          "internalType": "uint256",
          "name": "assets_",
          "type": "uint256"
        }
      ],
      "stateMutability": "nonpayable",
      "type": "function"
    },
    {
      "inputs": [
        {
          "internalType": "address",
          "name": "token_",
          "type": "address"
        },
        {
          "internalType": "uint256",
          "name": "assets_",
          "type": "uint256"
        }
      ],
      "name": "rdToken_withdraw",
      "outputs": [
        {
          "internalType": "uint256",
          "name": "shares_",
          "type": "uint256"
        }
      ],
      "stateMutability": "nonpayable",
      "type": "function"
    },
    {
      "inputs": [
        {
          "internalType": "address",
          "name": "token_",
          "type": "address"
        },
        {
          "internalType": "uint256",
          "name": "assets_",
          "type": "uint256"
        },
        {
          "internalType": "address",
          "name": "recipient_",
          "type": "address"
        },
        {
          "internalType": "address",
          "name": "owner_",
          "type": "address"
        }
      ],
      "name": "rdToken_withdraw",
      "outputs": [
        {
          "internalType": "uint256",
          "name": "shares_",
          "type": "uint256"
        }
      ],
      "stateMutability": "nonpayable",
      "type": "function"
    }
  ],
  "bytecode": "0x608060405234801561001057600080fd5b50610f38806100206000396000f3fe608060405234801561001057600080fd5b50600436106100b45760003560e01c80638e09bed7116100715780638e09bed7146101b15780639ca4677f146101e1578063ccf2e8ae14610211578063dacaa22214610241578063e2ae7a6814610271578063fc179d67146102a1576100b4565b806305813efa146100b957806305eee8e7146100e957806314ab180d1461010557806351cf23b11461013557806371d2b543146101515780637fe2558114610181575b600080fd5b6100d360048036038101906100ce91906109d2565b6102d1565b6040516100e09190610a21565b60405180910390f35b61010360048036038101906100fe9190610aab565b61035b565b005b61011f600480360381019061011a91906109d2565b6103dc565b60405161012c9190610a21565b60405180910390f35b61014f600480360381019061014a9190610b61565b610464565b005b61016b600480360381019061016691906109d2565b6104e8565b6040516101789190610a21565b60405180910390f35b61019b60048036038101906101969190610b61565b610570565b6040516101a89190610bcf565b60405180910390f35b6101cb60048036038101906101c69190610bea565b6105f9565b6040516101d89190610a21565b60405180910390f35b6101fb60048036038101906101f69190610bea565b610682565b6040516102089190610a21565b60405180910390f35b61022b600480360381019061022691906109d2565b61070b565b6040516102389190610a21565b60405180910390f35b61025b60048036038101906102569190610c3d565b610795565b6040516102689190610a21565b60405180910390f35b61028b60048036038101906102869190610c3d565b610821565b6040516102989190610a21565b60405180910390f35b6102bb60048036038101906102b69190610ca4565b6108ad565b6040516102c89190610bcf565b60405180910390f35b60008273ffffffffffffffffffffffffffffffffffffffff1663ba0876528330306040518463ffffffff1660e01b815260040161031093929190610d1a565b6020604051808303816000875af115801561032f573d6000803e3d6000fd5b505050506040513d601f19601f820116820180604052508101906103539190610d66565b905092915050565b8773ffffffffffffffffffffffffffffffffffffffff1663d505accf888888888888886040518863ffffffff1660e01b81526004016103a09796959493929190610db1565b600060405180830381600087803b1580156103ba57600080fd5b505af11580156103ce573d6000803e3d6000fd5b505050505050505050505050565b60008273ffffffffffffffffffffffffffffffffffffffff166394bf804d83306040518363ffffffff1660e01b8152600401610419929190610e20565b6020604051808303816000875af1158015610438573d6000803e3d6000fd5b505050506040513d601f19601f8201168201806040525081019061045c9190610d66565b905092915050565b8273ffffffffffffffffffffffffffffffffffffffff1663095ea7b383836040518363ffffffff1660e01b815260040161049f929190610e49565b6020604051808303816000875af11580156104be573d6000803e3d6000fd5b505050506040513d601f19601f820116820180604052508101906104e29190610e9e565b50505050565b60008273ffffffffffffffffffffffffffffffffffffffff16636e553f6583306040518363ffffffff1660e01b8152600401610525929190610e20565b6020604051808303816000875af1158015610544573d6000803e3d6000fd5b505050506040513d601f19601f820116820180604052508101906105689190610d66565b905092915050565b60008373ffffffffffffffffffffffffffffffffffffffff1663a9059cbb84846040518363ffffffff1660e01b81526004016105ad929190610e49565b6020604051808303816000875af11580156105cc573d6000803e3d6000fd5b505050506040513d601f19601f820116820180604052508101906105f09190610e9e565b90509392505050565b60008373ffffffffffffffffffffffffffffffffffffffff16636e553f6584846040518363ffffffff1660e01b8152600401610636929190610e20565b6020604051808303816000875af1158015610655573d6000803e3d6000fd5b505050506040513d601f19601f820116820180604052508101906106799190610d66565b90509392505050565b60008373ffffffffffffffffffffffffffffffffffffffff166394bf804d84846040518363ffffffff1660e01b81526004016106bf929190610e20565b6020604051808303816000875af11580156106de573d6000803e3d6000fd5b505050506040513d601f19601f820116820180604052508101906107029190610d66565b90509392505050565b60008273ffffffffffffffffffffffffffffffffffffffff1663b460af948330306040518463ffffffff1660e01b815260040161074a93929190610d1a565b6020604051808303816000875af1158015610769573d6000803e3d6000fd5b505050506040513d601f19601f8201168201806040525081019061078d9190610d66565b905092915050565b60008473ffffffffffffffffffffffffffffffffffffffff1663ba0876528585856040518463ffffffff1660e01b81526004016107d493929190610d1a565b6020604051808303816000875af11580156107f3573d6000803e3d6000fd5b505050506040513d601f19601f820116820180604052508101906108179190610d66565b9050949350505050565b60008473ffffffffffffffffffffffffffffffffffffffff1663b460af948585856040518463ffffffff1660e01b815260040161086093929190610d1a565b6020604051808303816000875af115801561087f573d6000803e3d6000fd5b505050506040513d601f19601f820116820180604052508101906108a39190610d66565b9050949350505050565b60008473ffffffffffffffffffffffffffffffffffffffff166323b872dd8585856040518463ffffffff1660e01b81526004016108ec93929190610ecb565b6020604051808303816000875af115801561090b573d6000803e3d6000fd5b505050506040513d601f19601f8201168201806040525081019061092f9190610e9e565b9050949350505050565b600080fd5b600073ffffffffffffffffffffffffffffffffffffffff82169050919050565b60006109698261093e565b9050919050565b6109798161095e565b811461098457600080fd5b50565b60008135905061099681610970565b92915050565b6000819050919050565b6109af8161099c565b81146109ba57600080fd5b50565b6000813590506109cc816109a6565b92915050565b600080604083850312156109e9576109e8610939565b5b60006109f785828601610987565b9250506020610a08858286016109bd565b9150509250929050565b610a1b8161099c565b82525050565b6000602082019050610a366000830184610a12565b92915050565b600060ff82169050919050565b610a5281610a3c565b8114610a5d57600080fd5b50565b600081359050610a6f81610a49565b92915050565b6000819050919050565b610a8881610a75565b8114610a9357600080fd5b50565b600081359050610aa581610a7f565b92915050565b600080600080600080600080610100898b031215610acc57610acb610939565b5b6000610ada8b828c01610987565b9850506020610aeb8b828c01610987565b9750506040610afc8b828c01610987565b9650506060610b0d8b828c016109bd565b9550506080610b1e8b828c016109bd565b94505060a0610b2f8b828c01610a60565b93505060c0610b408b828c01610a96565b92505060e0610b518b828c01610a96565b9150509295985092959890939650565b600080600060608486031215610b7a57610b79610939565b5b6000610b8886828701610987565b9350506020610b9986828701610987565b9250506040610baa868287016109bd565b9150509250925092565b60008115159050919050565b610bc981610bb4565b82525050565b6000602082019050610be46000830184610bc0565b92915050565b600080600060608486031215610c0357610c02610939565b5b6000610c1186828701610987565b9350506020610c22868287016109bd565b9250506040610c3386828701610987565b9150509250925092565b60008060008060808587031215610c5757610c56610939565b5b6000610c6587828801610987565b9450506020610c76878288016109bd565b9350506040610c8787828801610987565b9250506060610c9887828801610987565b91505092959194509250565b60008060008060808587031215610cbe57610cbd610939565b5b6000610ccc87828801610987565b9450506020610cdd87828801610987565b9350506040610cee87828801610987565b9250506060610cff878288016109bd565b91505092959194509250565b610d148161095e565b82525050565b6000606082019050610d2f6000830186610a12565b610d3c6020830185610d0b565b610d496040830184610d0b565b949350505050565b600081519050610d60816109a6565b92915050565b600060208284031215610d7c57610d7b610939565b5b6000610d8a84828501610d51565b91505092915050565b610d9c81610a3c565b82525050565b610dab81610a75565b82525050565b600060e082019050610dc6600083018a610d0b565b610dd36020830189610d0b565b610de06040830188610a12565b610ded6060830187610a12565b610dfa6080830186610d93565b610e0760a0830185610da2565b610e1460c0830184610da2565b98975050505050505050565b6000604082019050610e356000830185610a12565b610e426020830184610d0b565b9392505050565b6000604082019050610e5e6000830185610d0b565b610e6b6020830184610a12565b9392505050565b610e7b81610bb4565b8114610e8657600080fd5b50565b600081519050610e9881610e72565b92915050565b600060208284031215610eb457610eb3610939565b5b6000610ec284828501610e89565b91505092915050565b6000606082019050610ee06000830186610d0b565b610eed6020830185610d0b565b610efa6040830184610a12565b94935050505056fea2646970667358221220d3d3e1cb99a5c8a5d40b28695811728c869f654acaea2c02ddc999eddf9a5b7a64736f6c63430008110033",
  "immutableReferences": {},
  "source": "// SPDX-License-Identifier: AGPL-3.0-only\npragma solidity >=0.4.22 <0.9.0;\n\nimport { TestUtils } from \"../../../modules/contract-test-utils/contracts/test.sol\";\nimport { ERC20User } from \"../../../modules/erc20/contracts/test/accounts/ERC20User.sol\";\nimport { MockERC20 } from \"../../../modules/erc20/contracts/test/mocks/MockERC20.sol\";\n\nimport { IRevenueDistributionToken as IRDT } from \"../../interfaces/IRevenueDistributionToken.sol\";\n\ncontract Staker is ERC20User {\n\n    function rdToken_deposit(address token_, uint256 assets_) external returns (uint256 shares_) {\n        shares_ = IRDT(token_).deposit(assets_, address(this));\n    }\n\n    function rdToken_deposit(address token_, uint256 assets_, address receiver_) external returns (uint256 shares_) {\n        shares_ = IRDT(token_).deposit(assets_, receiver_);\n    }\n\n    function rdToken_mint(address token_, uint256 shares_) external returns (uint256 assets_) {\n        assets_ = IRDT(token_).mint(shares_, address(this));\n    }\n\n    function rdToken_mint(address token_, uint256 shares_, address receiver_) external returns (uint256 assets_) {\n        assets_ = IRDT(token_).mint(shares_, receiver_);\n    }\n\n    function rdToken_redeem(address token_, uint256 shares_) external returns (uint256 assets_) {\n        assets_ = IRDT(token_).redeem(shares_, address(this), address(this));\n    }\n\n    function rdToken_redeem(address token_, uint256 shares_, address recipient_, address owner_) external returns (uint256 assets_) {\n        assets_ = IRDT(token_).redeem(shares_, recipient_, owner_);\n    }\n\n    function rdToken_withdraw(address token_, uint256 assets_) external returns (uint256 shares_) {\n        shares_ = IRDT(token_).withdraw(assets_, address(this), address(this));\n    }\n\n    function rdToken_withdraw(address token_, uint256 assets_, address recipient_, address owner_) external returns (uint256 shares_) {\n        shares_ = IRDT(token_).withdraw(assets_, recipient_, owner_);\n    }\n\n}\n\ncontract InvariantStaker is TestUtils {\n\n    IRDT      internal _rdToken;\n    MockERC20 internal _underlying;\n\n    constructor(address rdToken_, address underlying_) {\n        _rdToken    = IRDT(rdToken_);\n        _underlying = MockERC20(underlying_);\n    }\n\n    function deposit(uint256 assets_) external {\n        // NOTE: The precision of the exchangeRate is equal to the amount of funds that can be deposited before rounding errors start to arise\n        assets_ = constrictToRange(assets_, 1, 1e29);  // 100 billion at WAD precision (1 less than 1e30 to avoid precision issues)\n\n        uint256 startingBalance = _rdToken.balanceOf(address(this));\n        uint256 shareAmount     = _rdToken.previewDeposit(assets_);\n\n        _underlying.mint(address(this),        assets_);\n        _underlying.approve(address(_rdToken), assets_);\n\n        _rdToken.deposit(assets_, address(this));\n\n        assertEq(_rdToken.balanceOf(address(this)), startingBalance + shareAmount);  // Ensure successful deposit\n    }\n\n    function redeem(uint256 shares_) external {\n        uint256 startingBalance = _rdToken.balanceOf(address(this));\n\n        if (startingBalance > 0) {\n            uint256 redeemAmount = constrictToRange(shares_, 1, _rdToken.balanceOf(address(this)));\n\n            _rdToken.redeem(redeemAmount, address(this), address(this));\n\n            assertEq(_rdToken.balanceOf(address(this)), startingBalance - redeemAmount);\n        }\n    }\n\n    function withdraw(uint256 assets_) external {\n        uint256 startingBalance = _underlying.balanceOf(address(this));\n\n        if (startingBalance > 0) {\n            uint256 withdrawAmount = constrictToRange(assets_, 1, _rdToken.balanceOfAssets(address(this)));\n\n            _rdToken.withdraw(withdrawAmount, address(this), address(this));\n\n            assertEq(_underlying.balanceOf(address(this)), startingBalance + withdrawAmount);  // Ensure successful withdraw\n        }\n    }\n\n}\n\ncontract InvariantStakerManager is TestUtils {\n\n    address internal _rdToken;\n    address internal _underlying;\n\n    InvariantStaker[] public stakers;\n\n    constructor(address rdToken_, address underlying_) {\n        _rdToken    = rdToken_;\n        _underlying = underlying_;\n    }\n\n    function createStaker() external {\n        InvariantStaker staker = new InvariantStaker(_rdToken, _underlying);\n        stakers.push(staker);\n    }\n\n    function deposit(uint256 amount_, uint256 index_) external {\n        stakers[constrictToRange(index_, 0, stakers.length - 1)].deposit(amount_);\n    }\n\n    function redeem(uint256 amount_, uint256 index_) external {\n        stakers[constrictToRange(index_, 0, stakers.length - 1)].redeem(amount_);\n    }\n\n    function withdraw(uint256 amount_, uint256 index_) external {\n        stakers[constrictToRange(index_, 0, stakers.length - 1)].withdraw(amount_);\n    }\n\n    function getStakerCount() external view returns (uint256 stakerCount_) {\n        return stakers.length;\n    }\n\n}\n",
  "sourcePath": "/Users/mdoshi/wyta/contracts/test/accounts/Staker.sol",
  "compiler": {
    "name": "solc",
    "version": "0.8.17+commit.8df45f5f.Emscripten.clang"
  },
  "schemaVersion": "3.4.11",
  "updatedAt": "2023-01-15T01:59:55.997Z",
  "devdoc": {
    "kind": "dev",
    "methods": {},
    "version": 1
  },
  "userdoc": {
    "kind": "user",
    "methods": {},
    "version": 1
  }
}